{
  "_format": "hh-sol-artifact-1",
  "contractName": "AverageGameFactory",
  "sourceName": "contracts/AverageGameFactory.sol",
  "abi": [
    {
      "inputs": [
        {
          "internalType": "address",
          "name": "_owner",
          "type": "address"
        }
      ],
      "stateMutability": "nonpayable",
      "type": "constructor"
    },
    {
      "inputs": [],
      "name": "ERC1167FailedCreateClone",
      "type": "error"
    },
    {
      "inputs": [
        {
          "internalType": "address",
          "name": "owner",
          "type": "address"
        }
      ],
      "name": "OwnableInvalidOwner",
      "type": "error"
    },
    {
      "inputs": [
        {
          "internalType": "address",
          "name": "account",
          "type": "address"
        }
      ],
      "name": "OwnableUnauthorizedAccount",
      "type": "error"
    },
    {
      "anonymous": false,
      "inputs": [
        {
          "indexed": true,
          "internalType": "uint256",
          "name": "gameCount",
          "type": "uint256"
        },
        {
          "indexed": true,
          "internalType": "address",
          "name": "gameAddress",
          "type": "address"
        }
      ],
      "name": "GameCreated",
      "type": "event"
    },
    {
      "anonymous": false,
      "inputs": [
        {
          "indexed": true,
          "internalType": "address",
          "name": "previousOwner",
          "type": "address"
        },
        {
          "indexed": true,
          "internalType": "address",
          "name": "newOwner",
          "type": "address"
        }
      ],
      "name": "OwnershipTransferred",
      "type": "event"
    },
    {
      "inputs": [
        {
          "internalType": "address",
          "name": "_address",
          "type": "address"
        },
        {
          "internalType": "address",
          "name": "_gameMaster",
          "type": "address"
        },
        {
          "internalType": "string",
          "name": "_name",
          "type": "string"
        },
        {
          "internalType": "uint256",
          "name": "_maxPlayers",
          "type": "uint256"
        },
        {
          "internalType": "uint256",
          "name": "_betAmount",
          "type": "uint256"
        },
        {
          "internalType": "uint256",
          "name": "_gameFee",
          "type": "uint256"
        }
      ],
      "name": "createAverageGame",
      "outputs": [
        {
          "internalType": "address",
          "name": "",
          "type": "address"
        }
      ],
      "stateMutability": "nonpayable",
      "type": "function"
    },
    {
      "inputs": [
        {
          "internalType": "uint256",
          "name": "_index",
          "type": "uint256"
        }
      ],
      "name": "getGameMasterAt",
      "outputs": [
        {
          "internalType": "address",
          "name": "",
          "type": "address"
        }
      ],
      "stateMutability": "view",
      "type": "function"
    },
    {
      "inputs": [],
      "name": "getGameMasters",
      "outputs": [
        {
          "internalType": "address[]",
          "name": "",
          "type": "address[]"
        }
      ],
      "stateMutability": "view",
      "type": "function"
    },
    {
      "inputs": [],
      "name": "getGameProxies",
      "outputs": [
        {
          "internalType": "address[]",
          "name": "",
          "type": "address[]"
        }
      ],
      "stateMutability": "view",
      "type": "function"
    },
    {
      "inputs": [
        {
          "internalType": "uint256",
          "name": "_index",
          "type": "uint256"
        }
      ],
      "name": "getGameProxyAt",
      "outputs": [
        {
          "internalType": "address",
          "name": "",
          "type": "address"
        }
      ],
      "stateMutability": "view",
      "type": "function"
    },
    {
      "inputs": [],
      "name": "owner",
      "outputs": [
        {
          "internalType": "address",
          "name": "",
          "type": "address"
        }
      ],
      "stateMutability": "view",
      "type": "function"
    },
    {
      "inputs": [],
      "name": "renounceOwnership",
      "outputs": [],
      "stateMutability": "nonpayable",
      "type": "function"
    },
    {
      "inputs": [],
      "name": "totalGames",
      "outputs": [
        {
          "internalType": "uint256",
          "name": "",
          "type": "uint256"
        }
      ],
      "stateMutability": "view",
      "type": "function"
    },
    {
      "inputs": [
        {
          "internalType": "address",
          "name": "newOwner",
          "type": "address"
        }
      ],
      "name": "transferOwnership",
      "outputs": [],
      "stateMutability": "nonpayable",
      "type": "function"
    }
  ],
  "bytecode": "0x608060405260006001553480156200001657600080fd5b50604051620015453803806200154583398181016040528101906200003c9190620001f9565b80600073ffffffffffffffffffffffffffffffffffffffff168173ffffffffffffffffffffffffffffffffffffffff1603620000b25760006040517f1e4fbdf7000000000000000000000000000000000000000000000000000000008152600401620000a991906200023c565b60405180910390fd5b620000c381620000cb60201b60201c565b505062000259565b60008060009054906101000a900473ffffffffffffffffffffffffffffffffffffffff169050816000806101000a81548173ffffffffffffffffffffffffffffffffffffffff021916908373ffffffffffffffffffffffffffffffffffffffff1602179055508173ffffffffffffffffffffffffffffffffffffffff168173ffffffffffffffffffffffffffffffffffffffff167f8be0079c531659141344cd1fd0a4f28419497f9722a3daafe3b4186f6b6457e060405160405180910390a35050565b600080fd5b600073ffffffffffffffffffffffffffffffffffffffff82169050919050565b6000620001c18262000194565b9050919050565b620001d381620001b4565b8114620001df57600080fd5b50565b600081519050620001f381620001c8565b92915050565b6000602082840312156200021257620002116200018f565b5b60006200022284828501620001e2565b91505092915050565b6200023681620001b4565b82525050565b60006020820190506200025360008301846200022b565b92915050565b6112dc80620002696000396000f3fe608060405234801561001057600080fd5b50600436106100935760003560e01c80638da5cb5b116100665780638da5cb5b1461010e5780639e5aef0a1461012c578063b2b584211461015c578063f01a52cc1461017a578063f2fde38b146101aa57610093565b80632c4e591b14610098578063334a5689146100b65780635bed391e146100e6578063715018a614610104575b600080fd5b6100a06101c6565b6040516100ad9190610b4e565b60405180910390f35b6100d060048036038101906100cb9190610ba9565b6101cc565b6040516100dd9190610c17565b60405180910390f35b6100ee610214565b6040516100fb9190610cf0565b60405180910390f35b61010c6102a2565b005b6101166102b6565b6040516101239190610c17565b60405180910390f35b61014660048036038101906101419190610ba9565b6102df565b6040516101539190610c17565b60405180910390f35b6101646103d5565b6040516101719190610cf0565b60405180910390f35b610194600480360381019061018f9190610e84565b610463565b6040516101a19190610c17565b60405180910390f35b6101c460048036038101906101bf9190610f2d565b610726565b005b60015481565b6000600382815481106101e2576101e1610f5a565b5b9060005260206000200160009054906101000a900473ffffffffffffffffffffffffffffffffffffffff169050919050565b6060600380548060200260200160405190810160405280929190818152602001828054801561029857602002820191906000526020600020905b8160009054906101000a900473ffffffffffffffffffffffffffffffffffffffff1673ffffffffffffffffffffffffffffffffffffffff168152602001906001019080831161024e575b5050505050905090565b6102aa6107ac565b6102b46000610833565b565b60008060009054906101000a900473ffffffffffffffffffffffffffffffffffffffff16905090565b6000813373ffffffffffffffffffffffffffffffffffffffff166003828154811061030d5761030c610f5a565b5b9060005260206000200160009054906101000a900473ffffffffffffffffffffffffffffffffffffffff1673ffffffffffffffffffffffffffffffffffffffff161461038e576040517f08c379a00000000000000000000000000000000000000000000000000000000081526004016103859061100c565b60405180910390fd5b600283815481106103a2576103a1610f5a565b5b9060005260206000200160009054906101000a900473ffffffffffffffffffffffffffffffffffffffff16915050919050565b6060600280548060200260200160405190810160405280929190818152602001828054801561045957602002820191906000526020600020905b8160009054906101000a900473ffffffffffffffffffffffffffffffffffffffff1673ffffffffffffffffffffffffffffffffffffffff168152602001906001019080831161040f575b5050505050905090565b600061046d6107ac565b6104ab6040518060400160405280601281526020017f4372656174696e672047616d65212121212100000000000000000000000000008152506108f7565b60006104b688610990565b90506104f66040518060400160405280600681526020017f436c6f6e656400000000000000000000000000000000000000000000000000008152506108f7565b6002819080600181540180825580915050600190039060005260206000200160009091909190916101000a81548173ffffffffffffffffffffffffffffffffffffffff021916908373ffffffffffffffffffffffffffffffffffffffff1602179055506105986040518060400160405280600b81526020017f47616d65204d617374657200000000000000000000000000000000000000000081525088610a41565b6003879080600181540180825580915050600190039060005260206000200160009091909190916101000a81548173ffffffffffffffffffffffffffffffffffffffff021916908373ffffffffffffffffffffffffffffffffffffffff1602179055508073ffffffffffffffffffffffffffffffffffffffff1663ff0b86826001548860006103e88a8a8e8b306040518a63ffffffff1660e01b81526004016106499998979695949392919061111a565b600060405180830381600087803b15801561066357600080fd5b505af1158015610677573d6000803e3d6000fd5b505050506001600081548092919061068e906111dd565b91905055508073ffffffffffffffffffffffffffffffffffffffff166001547fc3e0f84839dc888c892a013d10c8f9d6dc05a21a879d0ce468ca558013e9121c60405160405180910390a36107186040518060400160405280601081526020017f496e69742067616d652063616c6c65640000000000000000000000000000000081525082610a41565b809150509695505050505050565b61072e6107ac565b600073ffffffffffffffffffffffffffffffffffffffff168173ffffffffffffffffffffffffffffffffffffffff16036107a05760006040517f1e4fbdf70000000000000000000000000000000000000000000000000000000081526004016107979190610c17565b60405180910390fd5b6107a981610833565b50565b6107b4610add565b73ffffffffffffffffffffffffffffffffffffffff166107d26102b6565b73ffffffffffffffffffffffffffffffffffffffff1614610831576107f5610add565b6040517f118cdaa70000000000000000000000000000000000000000000000000000000081526004016108289190610c17565b60405180910390fd5b565b60008060009054906101000a900473ffffffffffffffffffffffffffffffffffffffff169050816000806101000a81548173ffffffffffffffffffffffffffffffffffffffff021916908373ffffffffffffffffffffffffffffffffffffffff1602179055508173ffffffffffffffffffffffffffffffffffffffff168173ffffffffffffffffffffffffffffffffffffffff167f8be0079c531659141344cd1fd0a4f28419497f9722a3daafe3b4186f6b6457e060405160405180910390a35050565b61098d8160405160240161090b9190611225565b6040516020818303038152906040527f41304fac000000000000000000000000000000000000000000000000000000007bffffffffffffffffffffffffffffffffffffffffffffffffffffffff19166020820180517bffffffffffffffffffffffffffffffffffffffffffffffffffffffff8381831617835250505050610ae5565b50565b6000763d602d80600a3d3981f3363d3d373d3d3d363d730000008260601b60e81c176000526e5af43d82803e903d91602b57fd5bf38260781b17602052603760096000f09050600073ffffffffffffffffffffffffffffffffffffffff168173ffffffffffffffffffffffffffffffffffffffff1603610a3c576040517fc2f868f400000000000000000000000000000000000000000000000000000000815260040160405180910390fd5b919050565b610ad98282604051602401610a57929190611247565b6040516020818303038152906040527f319af333000000000000000000000000000000000000000000000000000000007bffffffffffffffffffffffffffffffffffffffffffffffffffffffff19166020820180517bffffffffffffffffffffffffffffffffffffffffffffffffffffffff8381831617835250505050610ae5565b5050565b600033905090565b610afc81610af4610aff610b20565b63ffffffff16565b50565b60006a636f6e736f6c652e6c6f679050600080835160208501845afa505050565b610b2b819050919050565b610b33611277565b565b6000819050919050565b610b4881610b35565b82525050565b6000602082019050610b636000830184610b3f565b92915050565b6000604051905090565b600080fd5b600080fd5b610b8681610b35565b8114610b9157600080fd5b50565b600081359050610ba381610b7d565b92915050565b600060208284031215610bbf57610bbe610b73565b5b6000610bcd84828501610b94565b91505092915050565b600073ffffffffffffffffffffffffffffffffffffffff82169050919050565b6000610c0182610bd6565b9050919050565b610c1181610bf6565b82525050565b6000602082019050610c2c6000830184610c08565b92915050565b600081519050919050565b600082825260208201905092915050565b6000819050602082019050919050565b610c6781610bf6565b82525050565b6000610c798383610c5e565b60208301905092915050565b6000602082019050919050565b6000610c9d82610c32565b610ca78185610c3d565b9350610cb283610c4e565b8060005b83811015610ce3578151610cca8882610c6d565b9750610cd583610c85565b925050600181019050610cb6565b5085935050505092915050565b60006020820190508181036000830152610d0a8184610c92565b905092915050565b610d1b81610bf6565b8114610d2657600080fd5b50565b600081359050610d3881610d12565b92915050565b600080fd5b600080fd5b6000601f19601f8301169050919050565b7f4e487b7100000000000000000000000000000000000000000000000000000000600052604160045260246000fd5b610d9182610d48565b810181811067ffffffffffffffff82111715610db057610daf610d59565b5b80604052505050565b6000610dc3610b69565b9050610dcf8282610d88565b919050565b600067ffffffffffffffff821115610def57610dee610d59565b5b610df882610d48565b9050602081019050919050565b82818337600083830152505050565b6000610e27610e2284610dd4565b610db9565b905082815260208101848484011115610e4357610e42610d43565b5b610e4e848285610e05565b509392505050565b600082601f830112610e6b57610e6a610d3e565b5b8135610e7b848260208601610e14565b91505092915050565b60008060008060008060c08789031215610ea157610ea0610b73565b5b6000610eaf89828a01610d29565b9650506020610ec089828a01610d29565b955050604087013567ffffffffffffffff811115610ee157610ee0610b78565b5b610eed89828a01610e56565b9450506060610efe89828a01610b94565b9350506080610f0f89828a01610b94565b92505060a0610f2089828a01610b94565b9150509295509295509295565b600060208284031215610f4357610f42610b73565b5b6000610f5184828501610d29565b91505092915050565b7f4e487b7100000000000000000000000000000000000000000000000000000000600052603260045260246000fd5b600082825260208201905092915050565b7f4f6e6c792067616d65206d61737465722063616e2063616c6c2074686973206660008201527f756e6374696f6e00000000000000000000000000000000000000000000000000602082015250565b6000610ff6602783610f89565b915061100182610f9a565b604082019050919050565b6000602082019050818103600083015261102581610fe9565b9050919050565b600081519050919050565b60005b8381101561105557808201518184015260208101905061103a565b60008484015250505050565b600061106c8261102c565b6110768185610f89565b9350611086818560208601611037565b61108f81610d48565b840191505092915050565b6000819050919050565b6000819050919050565b60006110c96110c46110bf8461109a565b6110a4565b610b35565b9050919050565b6110d9816110ae565b82525050565b6000819050919050565b60006111046110ff6110fa846110df565b6110a4565b610b35565b9050919050565b611114816110e9565b82525050565b600061012082019050611130600083018c610b3f565b8181036020830152611142818b611061565b9050611151604083018a6110d0565b61115e606083018961110b565b61116b6080830188610b3f565b61117860a0830187610b3f565b61118560c0830186610c08565b61119260e0830185610b3f565b6111a0610100830184610c08565b9a9950505050505050505050565b7f4e487b7100000000000000000000000000000000000000000000000000000000600052601160045260246000fd5b60006111e882610b35565b91507fffffffffffffffffffffffffffffffffffffffffffffffffffffffffffffffff820361121a576112196111ae565b5b600182019050919050565b6000602082019050818103600083015261123f8184611061565b905092915050565b600060408201905081810360008301526112618185611061565b90506112706020830184610c08565b9392505050565b7f4e487b7100000000000000000000000000000000000000000000000000000000600052605160045260246000fdfea2646970667358221220d4900d30c7693fd1cc150b60627da8cb413c8ed9cc2c19375edf54d9e9424aa264736f6c63430008180033",
  "linkReferences": {},
  "deployedLinkReferences": {}
}