{
  "_format": "hh-sol-artifact-1",
  "contractName": "AverageGame",
  "sourceName": "contracts/AverageGame.sol",
  "abi": [
    {
      "inputs": [],
      "name": "init",
      "outputs": [],
      "stateMutability": "nonpayable",
      "type": "function"
    },
    {
      "inputs": [],
      "name": "sayHello",
      "outputs": [
        {
          "internalType": "string",
          "name": "",
          "type": "string"
        }
      ],
      "stateMutability": "pure",
      "type": "function"
    }
  ],
  "bytecode": "0x608060405234801561001057600080fd5b5061035f806100206000396000f3fe608060405234801561001057600080fd5b50600436106100365760003560e01c8063e1c7392a1461003b578063ef5fb05b14610045575b600080fd5b610043610063565b005b61004d6100d6565b60405161005a919061028f565b60405180910390f35b60008054906101000a900460ff161561007b57600080fd5b6100ba6040518060400160405280601a81526020017f417665726167652067616d65206372656174656420617420256f00000000000081525042610113565b60016000806101000a81548160ff021916908315150217905550565b60606040518060400160405280600b81526020017f48656c6c6f20576f726c64000000000000000000000000000000000000000000815250905090565b6101ab82826040516024016101299291906102ca565b6040516020818303038152906040527fb60e72cc000000000000000000000000000000000000000000000000000000007bffffffffffffffffffffffffffffffffffffffffffffffffffffffff19166020820180517bffffffffffffffffffffffffffffffffffffffffffffffffffffffff83818316178352505050506101af565b5050565b6101c6816101be6101c96101ea565b63ffffffff16565b50565b60006a636f6e736f6c652e6c6f679050600080835160208501845afa505050565b6101f5819050919050565b6101fd6102fa565b565b600081519050919050565b600082825260208201905092915050565b60005b8381101561023957808201518184015260208101905061021e565b60008484015250505050565b6000601f19601f8301169050919050565b6000610261826101ff565b61026b818561020a565b935061027b81856020860161021b565b61028481610245565b840191505092915050565b600060208201905081810360008301526102a98184610256565b905092915050565b6000819050919050565b6102c4816102b1565b82525050565b600060408201905081810360008301526102e48185610256565b90506102f360208301846102bb565b9392505050565b7f4e487b7100000000000000000000000000000000000000000000000000000000600052605160045260246000fdfea2646970667358221220745a45164940d2d58be24f14d1307f95cec1e438b15adffad6d39cbe884a257e64736f6c63430008180033",
  "linkReferences": {},
  "deployedLinkReferences": {}
}