{
  "_format": "hh-sol-artifact-1",
  "contractName": "AverageGame",
  "sourceName": "contracts/AverageGame.sol",
  "abi": [
    {
      "inputs": [
        {
          "internalType": "uint256",
          "name": "_startTime",
          "type": "uint256"
        },
        {
          "internalType": "uint256",
          "name": "_currentBlock",
          "type": "uint256"
        },
        {
          "internalType": "uint256",
          "name": "_timetoPass",
          "type": "uint256"
        }
      ],
      "name": "MinimumTimePassed",
      "type": "error"
    },
    {
      "inputs": [
        {
          "internalType": "uint256",
          "name": "x",
          "type": "uint256"
        },
        {
          "internalType": "uint256",
          "name": "y",
          "type": "uint256"
        }
      ],
      "name": "PRBMath_MulDiv18_Overflow",
      "type": "error"
    },
    {
      "inputs": [
        {
          "internalType": "uint256",
          "name": "x",
          "type": "uint256"
        },
        {
          "internalType": "uint256",
          "name": "y",
          "type": "uint256"
        },
        {
          "internalType": "uint256",
          "name": "denominator",
          "type": "uint256"
        }
      ],
      "name": "PRBMath_MulDiv_Overflow",
      "type": "error"
    },
    {
      "inputs": [
        {
          "internalType": "uint256",
          "name": "x",
          "type": "uint256"
        }
      ],
      "name": "PRBMath_UD60x18_Convert_Overflow",
      "type": "error"
    },
    {
      "inputs": [],
      "name": "ReentrancyGuardReentrantCall",
      "type": "error"
    },
    {
      "inputs": [
        {
          "internalType": "uint256",
          "name": "_startTime",
          "type": "uint256"
        },
        {
          "internalType": "uint256",
          "name": "_currentBlock",
          "type": "uint256"
        },
        {
          "internalType": "uint256",
          "name": "_timetoPass",
          "type": "uint256"
        }
      ],
      "name": "RevealTimeNotStarted",
      "type": "error"
    },
    {
      "inputs": [
        {
          "internalType": "uint256",
          "name": "_startTime",
          "type": "uint256"
        },
        {
          "internalType": "uint256",
          "name": "_currentBlock",
          "type": "uint256"
        },
        {
          "internalType": "uint256",
          "name": "_timetoPass",
          "type": "uint256"
        }
      ],
      "name": "RevealTimeOver",
      "type": "error"
    },
    {
      "anonymous": false,
      "inputs": [
        {
          "indexed": true,
          "internalType": "uint256",
          "name": "gameId",
          "type": "uint256"
        },
        {
          "indexed": true,
          "internalType": "address",
          "name": "player",
          "type": "address"
        },
        {
          "indexed": true,
          "internalType": "uint256",
          "name": "amount",
          "type": "uint256"
        }
      ],
      "name": "CollateralDeposited",
      "type": "event"
    },
    {
      "anonymous": false,
      "inputs": [
        {
          "indexed": true,
          "internalType": "uint256",
          "name": "gameId",
          "type": "uint256"
        },
        {
          "indexed": true,
          "internalType": "address",
          "name": "player",
          "type": "address"
        },
        {
          "indexed": true,
          "internalType": "uint256",
          "name": "amount",
          "type": "uint256"
        }
      ],
      "name": "CollateralShareDeposited",
      "type": "event"
    },
    {
      "anonymous": false,
      "inputs": [
        {
          "indexed": true,
          "internalType": "uint256",
          "name": "gameId",
          "type": "uint256"
        },
        {
          "indexed": true,
          "internalType": "address",
          "name": "player",
          "type": "address"
        },
        {
          "indexed": true,
          "internalType": "uint256",
          "name": "amount",
          "type": "uint256"
        }
      ],
      "name": "FeeCollected",
      "type": "event"
    },
    {
      "anonymous": false,
      "inputs": [
        {
          "indexed": true,
          "internalType": "uint256",
          "name": "gameId",
          "type": "uint256"
        }
      ],
      "name": "GameCreated",
      "type": "event"
    },
    {
      "anonymous": false,
      "inputs": [
        {
          "indexed": true,
          "internalType": "uint256",
          "name": "gameId",
          "type": "uint256"
        }
      ],
      "name": "GameEnded",
      "type": "event"
    },
    {
      "anonymous": false,
      "inputs": [
        {
          "indexed": true,
          "internalType": "uint256",
          "name": "gameId",
          "type": "uint256"
        },
        {
          "indexed": true,
          "internalType": "address",
          "name": "player",
          "type": "address"
        },
        {
          "indexed": true,
          "internalType": "uint256",
          "name": "totalPlayersAmount",
          "type": "uint256"
        }
      ],
      "name": "PlayerJoined",
      "type": "event"
    },
    {
      "anonymous": false,
      "inputs": [
        {
          "indexed": true,
          "internalType": "uint256",
          "name": "gameId",
          "type": "uint256"
        },
        {
          "indexed": true,
          "internalType": "address",
          "name": "player",
          "type": "address"
        },
        {
          "indexed": true,
          "internalType": "uint256",
          "name": "amount",
          "type": "uint256"
        }
      ],
      "name": "PlayerRefunded",
      "type": "event"
    },
    {
      "anonymous": false,
      "inputs": [
        {
          "indexed": true,
          "internalType": "uint256",
          "name": "gameId",
          "type": "uint256"
        },
        {
          "indexed": true,
          "internalType": "address",
          "name": "player",
          "type": "address"
        },
        {
          "indexed": true,
          "internalType": "uint256",
          "name": "guess",
          "type": "uint256"
        },
        {
          "indexed": false,
          "internalType": "string",
          "name": "salt",
          "type": "string"
        },
        {
          "indexed": false,
          "internalType": "enum AverageGame.RevealState",
          "name": "revealState",
          "type": "uint8"
        }
      ],
      "name": "PlayerRevealedGuess",
      "type": "event"
    },
    {
      "anonymous": false,
      "inputs": [
        {
          "indexed": true,
          "internalType": "uint256",
          "name": "gameId",
          "type": "uint256"
        },
        {
          "indexed": true,
          "internalType": "address",
          "name": "player",
          "type": "address"
        },
        {
          "indexed": true,
          "internalType": "uint256",
          "name": "amount",
          "type": "uint256"
        },
        {
          "indexed": false,
          "internalType": "uint256",
          "name": "guess",
          "type": "uint256"
        }
      ],
      "name": "PrizeAwarded",
      "type": "event"
    },
    {
      "anonymous": false,
      "inputs": [
        {
          "indexed": true,
          "internalType": "uint256",
          "name": "gameId",
          "type": "uint256"
        }
      ],
      "name": "StartRevealPhase",
      "type": "event"
    },
    {
      "anonymous": false,
      "inputs": [
        {
          "indexed": true,
          "internalType": "uint256",
          "name": "gameId",
          "type": "uint256"
        },
        {
          "indexed": true,
          "internalType": "address",
          "name": "winner",
          "type": "address"
        },
        {
          "indexed": true,
          "internalType": "uint256",
          "name": "amount",
          "type": "uint256"
        }
      ],
      "name": "WinnerSelected",
      "type": "event"
    },
    {
      "inputs": [],
      "name": "betAmount",
      "outputs": [
        {
          "internalType": "uint256",
          "name": "",
          "type": "uint256"
        }
      ],
      "stateMutability": "view",
      "type": "function"
    },
    {
      "inputs": [],
      "name": "blockNumber",
      "outputs": [
        {
          "internalType": "uint256",
          "name": "",
          "type": "uint256"
        }
      ],
      "stateMutability": "view",
      "type": "function"
    },
    {
      "inputs": [],
      "name": "collateralAmount",
      "outputs": [
        {
          "internalType": "uint256",
          "name": "",
          "type": "uint256"
        }
      ],
      "stateMutability": "view",
      "type": "function"
    },
    {
      "inputs": [],
      "name": "collateralShare",
      "outputs": [
        {
          "internalType": "UD60x18",
          "name": "",
          "type": "uint256"
        }
      ],
      "stateMutability": "view",
      "type": "function"
    },
    {
      "inputs": [],
      "name": "endGame",
      "outputs": [],
      "stateMutability": "nonpayable",
      "type": "function"
    },
    {
      "inputs": [],
      "name": "feeClaimed",
      "outputs": [
        {
          "internalType": "bool",
          "name": "",
          "type": "bool"
        }
      ],
      "stateMutability": "view",
      "type": "function"
    },
    {
      "inputs": [],
      "name": "gameFee",
      "outputs": [
        {
          "internalType": "uint256",
          "name": "",
          "type": "uint256"
        }
      ],
      "stateMutability": "view",
      "type": "function"
    },
    {
      "inputs": [],
      "name": "gameMaster",
      "outputs": [
        {
          "internalType": "address",
          "name": "",
          "type": "address"
        }
      ],
      "stateMutability": "view",
      "type": "function"
    },
    {
      "inputs": [],
      "name": "getAverageGameInstance",
      "outputs": [
        {
          "components": [
            {
              "internalType": "uint256",
              "name": "id",
              "type": "uint256"
            },
            {
              "internalType": "string",
              "name": "name",
              "type": "string"
            },
            {
              "internalType": "uint256",
              "name": "entryPrice",
              "type": "uint256"
            },
            {
              "internalType": "uint16",
              "name": "totalPlayers",
              "type": "uint16"
            },
            {
              "internalType": "uint16",
              "name": "maxPlayers",
              "type": "uint16"
            },
            {
              "internalType": "address",
              "name": "contractAddress",
              "type": "address"
            },
            {
              "internalType": "uint256",
              "name": "collateral",
              "type": "uint256"
            },
            {
              "internalType": "uint256",
              "name": "gameFee",
              "type": "uint256"
            },
            {
              "internalType": "address[]",
              "name": "players",
              "type": "address[]"
            },
            {
              "internalType": "enum AverageGame.GameState",
              "name": "gameState",
              "type": "uint8"
            },
            {
              "internalType": "address",
              "name": "gameMaster",
              "type": "address"
            },
            {
              "internalType": "address",
              "name": "winner",
              "type": "address"
            },
            {
              "internalType": "bool",
              "name": "rewardClaimed",
              "type": "bool"
            },
            {
              "internalType": "bool",
              "name": "feeClaimed",
              "type": "bool"
            },
            {
              "internalType": "enum AverageGame.GameIcon",
              "name": "icon",
              "type": "uint8"
            }
          ],
          "internalType": "struct AverageGame.AverageGameInstance",
          "name": "",
          "type": "tuple"
        }
      ],
      "stateMutability": "view",
      "type": "function"
    },
    {
      "inputs": [],
      "name": "getBalance",
      "outputs": [
        {
          "internalType": "uint256",
          "name": "",
          "type": "uint256"
        }
      ],
      "stateMutability": "view",
      "type": "function"
    },
    {
      "inputs": [
        {
          "internalType": "address",
          "name": "_player",
          "type": "address"
        }
      ],
      "name": "getIsPotentialWinner",
      "outputs": [
        {
          "internalType": "bool",
          "name": "",
          "type": "bool"
        }
      ],
      "stateMutability": "view",
      "type": "function"
    },
    {
      "inputs": [
        {
          "internalType": "address",
          "name": "_player",
          "type": "address"
        }
      ],
      "name": "getPlayerRevealedState",
      "outputs": [
        {
          "internalType": "enum AverageGame.RevealState",
          "name": "",
          "type": "uint8"
        }
      ],
      "stateMutability": "view",
      "type": "function"
    },
    {
      "inputs": [],
      "name": "getPlayers",
      "outputs": [
        {
          "internalType": "address[]",
          "name": "",
          "type": "address[]"
        }
      ],
      "stateMutability": "view",
      "type": "function"
    },
    {
      "inputs": [],
      "name": "getPotentialWinners",
      "outputs": [
        {
          "internalType": "address[]",
          "name": "",
          "type": "address[]"
        }
      ],
      "stateMutability": "view",
      "type": "function"
    },
    {
      "inputs": [],
      "name": "icon",
      "outputs": [
        {
          "internalType": "enum AverageGame.GameIcon",
          "name": "",
          "type": "uint8"
        }
      ],
      "stateMutability": "view",
      "type": "function"
    },
    {
      "inputs": [],
      "name": "id",
      "outputs": [
        {
          "internalType": "uint256",
          "name": "",
          "type": "uint256"
        }
      ],
      "stateMutability": "view",
      "type": "function"
    },
    {
      "inputs": [
        {
          "internalType": "uint256",
          "name": "_gameId",
          "type": "uint256"
        },
        {
          "internalType": "string",
          "name": "_name",
          "type": "string"
        },
        {
          "internalType": "uint8",
          "name": "_minGuess",
          "type": "uint8"
        },
        {
          "internalType": "uint16",
          "name": "_maxGuess",
          "type": "uint16"
        },
        {
          "internalType": "uint16",
          "name": "_maxPlayers",
          "type": "uint16"
        },
        {
          "internalType": "uint256",
          "name": "_betAmount",
          "type": "uint256"
        },
        {
          "internalType": "address",
          "name": "_gameMaster",
          "type": "address"
        },
        {
          "internalType": "uint256",
          "name": "_gameFee",
          "type": "uint256"
        },
        {
          "internalType": "uint256",
          "name": "_icon",
          "type": "uint256"
        }
      ],
      "name": "initGame",
      "outputs": [],
      "stateMutability": "payable",
      "type": "function"
    },
    {
      "inputs": [
        {
          "internalType": "bytes32",
          "name": "_commitment",
          "type": "bytes32"
        }
      ],
      "name": "joinGame",
      "outputs": [],
      "stateMutability": "payable",
      "type": "function"
    },
    {
      "inputs": [],
      "name": "maxGuess",
      "outputs": [
        {
          "internalType": "uint16",
          "name": "",
          "type": "uint16"
        }
      ],
      "stateMutability": "view",
      "type": "function"
    },
    {
      "inputs": [],
      "name": "maxPlayers",
      "outputs": [
        {
          "internalType": "uint16",
          "name": "",
          "type": "uint16"
        }
      ],
      "stateMutability": "view",
      "type": "function"
    },
    {
      "inputs": [],
      "name": "minGuess",
      "outputs": [
        {
          "internalType": "uint8",
          "name": "",
          "type": "uint8"
        }
      ],
      "stateMutability": "view",
      "type": "function"
    },
    {
      "inputs": [],
      "name": "name",
      "outputs": [
        {
          "internalType": "string",
          "name": "",
          "type": "string"
        }
      ],
      "stateMutability": "view",
      "type": "function"
    },
    {
      "inputs": [
        {
          "internalType": "uint256",
          "name": "",
          "type": "uint256"
        }
      ],
      "name": "potentialWinners",
      "outputs": [
        {
          "internalType": "address",
          "name": "",
          "type": "address"
        }
      ],
      "stateMutability": "view",
      "type": "function"
    },
    {
      "inputs": [
        {
          "internalType": "address[]",
          "name": "arr",
          "type": "address[]"
        }
      ],
      "name": "quickSort",
      "outputs": [
        {
          "internalType": "address[]",
          "name": "",
          "type": "address[]"
        }
      ],
      "stateMutability": "view",
      "type": "function"
    },
    {
      "inputs": [],
      "name": "requestRefund",
      "outputs": [],
      "stateMutability": "nonpayable",
      "type": "function"
    },
    {
      "inputs": [
        {
          "internalType": "uint256",
          "name": "_guess",
          "type": "uint256"
        },
        {
          "internalType": "string",
          "name": "_salt",
          "type": "string"
        }
      ],
      "name": "revealGuess",
      "outputs": [],
      "stateMutability": "nonpayable",
      "type": "function"
    },
    {
      "inputs": [],
      "name": "rewardClaimed",
      "outputs": [
        {
          "internalType": "bool",
          "name": "",
          "type": "bool"
        }
      ],
      "stateMutability": "view",
      "type": "function"
    },
    {
      "inputs": [
        {
          "internalType": "address[]",
          "name": "arr",
          "type": "address[]"
        },
        {
          "internalType": "int256",
          "name": "left",
          "type": "int256"
        },
        {
          "internalType": "int256",
          "name": "right",
          "type": "int256"
        }
      ],
      "name": "sort",
      "outputs": [],
      "stateMutability": "view",
      "type": "function"
    },
    {
      "inputs": [],
      "name": "startOfReveal",
      "outputs": [
        {
          "internalType": "uint256",
          "name": "",
          "type": "uint256"
        }
      ],
      "stateMutability": "view",
      "type": "function"
    },
    {
      "inputs": [],
      "name": "startRevealPhase",
      "outputs": [],
      "stateMutability": "nonpayable",
      "type": "function"
    },
    {
      "inputs": [],
      "name": "state",
      "outputs": [
        {
          "internalType": "enum AverageGame.GameState",
          "name": "",
          "type": "uint8"
        }
      ],
      "stateMutability": "view",
      "type": "function"
    },
    {
      "inputs": [],
      "name": "timeToReveal",
      "outputs": [
        {
          "internalType": "uint8",
          "name": "",
          "type": "uint8"
        }
      ],
      "stateMutability": "view",
      "type": "function"
    },
    {
      "inputs": [],
      "name": "totalBetAmount",
      "outputs": [
        {
          "internalType": "uint256",
          "name": "",
          "type": "uint256"
        }
      ],
      "stateMutability": "view",
      "type": "function"
    },
    {
      "inputs": [],
      "name": "totalCollateralAmount",
      "outputs": [
        {
          "internalType": "uint256",
          "name": "",
          "type": "uint256"
        }
      ],
      "stateMutability": "view",
      "type": "function"
    },
    {
      "inputs": [],
      "name": "totalPlayers",
      "outputs": [
        {
          "internalType": "uint16",
          "name": "",
          "type": "uint16"
        }
      ],
      "stateMutability": "view",
      "type": "function"
    },
    {
      "inputs": [],
      "name": "winner",
      "outputs": [
        {
          "internalType": "address",
          "name": "",
          "type": "address"
        }
      ],
      "stateMutability": "view",
      "type": "function"
    },
    {
      "inputs": [],
      "name": "withdrawCollateralShare",
      "outputs": [],
      "stateMutability": "nonpayable",
      "type": "function"
    },
    {
      "inputs": [],
      "name": "withdrawGameFees",
      "outputs": [],
      "stateMutability": "nonpayable",
      "type": "function"
    },
    {
      "inputs": [
        {
          "internalType": "address",
          "name": "_winner",
          "type": "address"
        }
      ],
      "name": "withdrawPricepool",
      "outputs": [],
      "stateMutability": "nonpayable",
      "type": "function"
    }
  ],
  "bytecode": "0x6080604052600c805460ff1916601917905534801561001d57600080fd5b50600160005561453b806100326000396000f3fe6080604052600436106102305760003560e01c80639b9922e81161012e578063c557b985116100ab578063d5cef1331161006f578063d5cef13314610675578063db3713cf1461068a578063dfbf53ae1461069d578063ea777eec146106bd578063f60cdcf6146106d357600080fd5b8063c557b985146105e1578063c64c2d3814610610578063c6fd5d4e14610630578063d24257c014610645578063d2e66e9d1461065b57600080fd5b8063b18c9cb8116100f2578063b18c9cb81461053f578063ba52a2c314610554578063bdf84ae71461058d578063bf474766146105ad578063c19d93fb146105c057600080fd5b80639b9922e8146104a85780639e7aaf84146104bd578063a8bd6a9c146104dd578063ab8a287314610509578063af640d0f1461052957600080fd5b806357e871e7116101bc57806371f4b8e81161018057806371f4b8e814610431578063759da3d1146104515780638b5b9ccc1461046757806392d09ceb1461047c57806399b946811461049257600080fd5b806357e871e7146103b85780635f573bc9146103ce578063613f4594146103f057806363f31d2c146104065780636cbc2ded1461041c57600080fd5b806318d3851b1161020357806318d3851b146102ca5780631af08b05146102ec5780634c2412a2146103245780635530e51014610352578063574d6d7e1461037257600080fd5b806301b62b781461023557806306fdde031461026957806312065fe01461028b57806312b5afc1146102a8575b600080fd5b34801561024157600080fd5b5060145461025490610100900460ff1681565b60405190151581526020015b60405180910390f35b34801561027557600080fd5b5061027e6106f4565b604051610260919061389a565b34801561029757600080fd5b50475b604051908152602001610260565b3480156102b457600080fd5b506102c86102c3366004613964565b610782565b005b3480156102d657600080fd5b506102df610c5d565b60405161026091906139ab565b3480156102f857600080fd5b5061030c6103073660046139f8565b610cbf565b6040516001600160a01b039091168152602001610260565b34801561033057600080fd5b5060025461033f9061ffff1681565b60405161ffff9091168152602001610260565b34801561035e57600080fd5b5060075461033f90610100900461ffff1681565b34801561037e57600080fd5b506103ab61038d366004613a2d565b6001600160a01b031660009081526019602052604090205460ff1690565b6040516102609190613a6e565b3480156103c457600080fd5b5061029a600b5481565b3480156103da57600080fd5b506103e3610ce9565b6040516102609190613ae3565b3480156103fc57600080fd5b5061029a60055481565b34801561041257600080fd5b5061029a60065481565b34801561042857600080fd5b506102c8610ebd565b34801561043d57600080fd5b506014546102549062010000900460ff1681565b34801561045d57600080fd5b5061029a600e5481565b34801561047357600080fd5b506102df611062565b34801561048857600080fd5b5061029a60045481565b34801561049e57600080fd5b5061029a600d5481565b3480156104b457600080fd5b506102c86110c2565b3480156104c957600080fd5b506102c86104d8366004613ca5565b611328565b3480156104e957600080fd5b50600c546104f79060ff1681565b60405160ff9091168152602001610260565b34801561051557600080fd5b506102c8610524366004613a2d565b611521565b34801561053557600080fd5b5061029a60015481565b34801561054b57600080fd5b506102c86118fa565b34801561056057600080fd5b5061025461056f366004613a2d565b6001600160a01b03166000908152601e602052604090205460ff1690565b34801561059957600080fd5b5060105461030c906001600160a01b031681565b6102c86105bb3660046139f8565b611b3e565b3480156105cc57600080fd5b506014546103ab906301000000900460ff1681565b3480156105ed57600080fd5b5060145461060390640100000000900460ff1681565b6040516102609190613cf3565b34801561061c57600080fd5b506102df61062b366004613d01565b611e95565b34801561063c57600080fd5b506102c8611eaf565b34801561065157600080fd5b5061029a60035481565b34801561066757600080fd5b506007546104f79060ff1681565b34801561068157600080fd5b506102c8612301565b6102c8610698366004613d50565b612681565b3480156106a957600080fd5b5060115461030c906001600160a01b031681565b3480156106c957600080fd5b5061029a60085481565b3480156106df57600080fd5b5060025461033f9062010000900461ffff1681565b600f805461070190613dff565b80601f016020809104026020016040519081016040528092919081815260200182805461072d90613dff565b801561077a5780601f1061074f5761010080835404028352916020019161077a565b820191906000526020600020905b81548152906001019060200180831161075d57829003601f168201915b505050505081565b33806107a95760405162461bcd60e51b81526004016107a090613e39565b60405180910390fd5b6001600160a01b03811660009081526018602052604090205460ff166107e15760405162461bcd60e51b81526004016107a090613e81565b60016014546301000000900460ff16600281111561080157610801613a48565b1461081e5760405162461bcd60e51b81526004016107a090613ede565b600c543360009081526016602052604090205460ff90911690610842906001613f29565b61084c9190613f3c565b600d546108599190613f29565b4311156108c957600c543360009081526016602052604090205460ff90911690610884906001613f29565b61088e9190613f3c565b600d5461089b9190613f29565b600c54604051631c27802360e11b8152600481019290925243602483015260ff1660448201526064016107a0565b600c54336000908152601660205260409020546108e99160ff1690613f3c565b600d546108f69190613f29565b431161095757600c543360009081526016602052604090205461091c9160ff1690613f3c565b600d546109299190613f29565b600c54604051632d55a14160e21b8152600481019290925243602483015260ff1660448201526064016107a0565b3360009081526019602052604081205460ff169081600281111561097d5761097d613a48565b146109e35760405162461bcd60e51b815260206004820152603060248201527f537069656c6572206861742062657265697473207365696e656e20546970702060448201526f766572c3b66666656e746c696368742160801b60648201526084016107a0565b60075460ff168410801590610a035750600754610100900461ffff168411155b610a5d5760405162461bcd60e51b815260206004820152602560248201527f54697070206d757373207a7769736368656e203020756e642031303030206c696044820152646567656e2160d81b60648201526084016107a0565b610a896040518060400160405280600b81526020016a2d2d2d2d2d2d2d2d2d2d2d60a81b815250612858565b33600090815260166020526040902054610aa29061289b565b610aad600d5461289b565b610ab64361289b565b600c5433600090815260166020526040902054610af89160ff1690610adc906001613f29565b610ae69190613f3c565b600d54610af39190613f29565b61289b565b600c5433600090815260166020526040902054610b289160ff1690610b1e906001613f29565b610af39190613f3c565b610b546040518060400160405280600b81526020016a2d2d2d2d2d2d2d2d2d2d2d60a81b815250612858565b336000908152601b60209081526040808320879055601a9091529020610b7a8482613fa0565b50610b84336128e0565b3360009081526019602052604090208054919250829160ff19166001836002811115610bb257610bb2613a48565b02179055506001816002811115610bcb57610bcb613a48565b03610bff57610bf160405180606001604052806023815260200161443e60239139612858565b610bfa336129f4565b610c10565b336000908152601c60205260408120555b83336001600160a01b03166001547fc9ad6e2d9cbbc2bb01b8cc1f583b96db524df608a369862103461d0fde31dfa58685604051610c4f929190614060565b60405180910390a450505050565b60606013805480602002602001604051908101604052809291908181526020018280548015610cb557602002820191906000526020600020905b81546001600160a01b03168152600190910190602001808311610c97575b5050505050905090565b60138181548110610ccf57600080fd5b6000918252602090912001546001600160a01b0316905081565b610cf1613741565b604051806101e001604052806001548152602001600f8054610d1290613dff565b80601f0160208091040260200160405190810160405280929190818152602001828054610d3e90613dff565b8015610d8b5780601f10610d6057610100808354040283529160200191610d8b565b820191906000526020600020905b815481529060010190602001808311610d6e57829003601f168201915b505050918352505060035460208083019190915260025461ffff62010000820481166040808601919091529116606084015230608084015260045460a084015260085460c08401526012805482518185028101850190935280835260e0909401939192909190830182828015610e2a57602002820191906000526020600020905b81546001600160a01b03168152600190910190602001808311610e0c575b50505050508152602001601460039054906101000a900460ff166002811115610e5557610e55613a48565b81526010546001600160a01b03908116602083015260115416604082015260145460ff610100820481161515606084015262010000820481161515608084015260a090920191640100000000909104166008811115610eb657610eb6613a48565b9052919050565b600d54600c54600254610edd9160ff169062010000900461ffff1661408b565b610eea8161ffff1661289b565b610ef38261289b565b610efc4361289b565b610f0a61ffff821683613f29565b431015610f3d57604051631c6eb53160e01b81526004810183905243602482015261ffff821660448201526064016107a0565b60016014546301000000900460ff166002811115610f5d57610f5d613a48565b14610f7a5760405162461bcd60e51b81526004016107a090613ede565b610f82612c3f565b6014805463ff00000019166302000000179055610f9d613035565b610fcc6040518060400160405280600e81526020016d232323232323232323232323232360901b815250612858565b610fd760065461289b565b610fe2600a5461289b565b6110116040518060400160405280600e81526020016d232323232323232323232323232360901b815250612858565b61102f61101f6006546131be565b61102a600a546131be565b613205565b600e556001546040517fce24807f7e4b60b4e641462f13029fa5e5f79075bbc3f8e5cd43ecd19661d76090600090a25050565b60606012805480602002602001604051908101604052809291908181526020018280548015610cb5576020028201919060005260206000209081546001600160a01b03168152600190910190602001808311610c97575050505050905090565b6010546001600160a01b031633146111365760405162461bcd60e51b815260206004820152603160248201527f4e75722064657220537069656c6c6569746572206b616e6e2064696573652046604482015270756e6b74696f6e20617566727566656e2160781b60648201526084016107a0565b60026014546301000000900460ff16600281111561115657611156613a48565b146111735760405162461bcd60e51b81526004016107a0906140b1565b61117b613227565b6011546001600160a01b03166111e15760405162461bcd60e51b815260206004820152602560248201527f4573207775726465206e6f6368206b65696e20476577696e6e657220676566756044820152646e64656e2160d81b60648201526084016107a0565b6009544710156112675760405162461bcd60e51b815260206004820152604560248201527f4e696368742067656ec3bc67656e6420457468657220696e2064656d2056657260448201527f7472616720756d2064696520537069656c676562c3bc6872206175737a757a61606482015264686c656e2160d81b608482015260a4016107a0565b600980546000918290556014805462ff0000191662010000179055604051909190339083908381818185875af1925050503d80600081146112c4576040519150601f19603f3d011682016040523d82523d6000602084013e6112c9565b606091505b50509050806112ea5760405162461bcd60e51b81526004016107a0906140e8565b600154604051839133917ff1d6c8ee14081f641e2073a1064d870f135f1001a301c6b14a7b9655672fec1190600090a450506113266001600055565b565b8181808203611338575050505050565b600060158187600261134a898961411d565b611354919061415a565b61135e9089614188565b8151811061136e5761136e6141a8565b60200260200101516001600160a01b03166001600160a01b031681526020019081526020016000205490505b8183136114f3575b80601560008886815181106113b9576113b96141a8565b60200260200101516001600160a01b03166001600160a01b031681526020019081526020016000205410156113fa57826113f2816141be565b9350506113a2565b60156000878481518110611410576114106141a8565b60200260200101516001600160a01b03166001600160a01b0316815260200190815260200160002054811015611452578161144a816141dd565b9250506113fa565b8183136114ee5785828151811061146b5761146b6141a8565b6020026020010151868481518110611485576114856141a8565b602002602001015187858151811061149f5761149f6141a8565b602002602001018885815181106114b8576114b86141a8565b6001600160a01b03938416602091820292909201015291169052826114dc816141be565b93505081806114ea906141dd565b9250505b61139a565b8185121561150657611506868684611328565b8383121561151957611519868486611328565b505050505050565b6040805180820190915260078152662bb4b73732b91d60c91b602082015260115461155591906001600160a01b0316613251565b6115816040518060400160405280600a81526020016926b9b39739b2b73232b960b11b81525033613251565b6011546001600160a01b031633146115f05760405162461bcd60e51b815260206004820152602c60248201527f4e75722064657220536965676572206b616e6e2064696573652046756e6b746960448201526b6f6e20617566727566656e2160a01b60648201526084016107a0565b60026014546301000000900460ff16600281111561161057611610613a48565b1461162d5760405162461bcd60e51b81526004016107a0906140b1565b611635613227565b6000600554116116875760405162461bcd60e51b815260206004820152601960248201527f4b65696e205072656973706f6f6c20766f7268616e64656e210000000000000060448201526064016107a0565b6005544710156116a95760405162461bcd60e51b81526004016107a0906141fa565b601454610100900460ff16156117015760405162461bcd60e51b815260206004820152601f60248201527f507265697320777572646520626572656974732061757367657a61686c74210060448201526064016107a0565b60005b60025462010000900461ffff168110156117585760006012828154811061172d5761172d6141a8565b60009182526020808320909101546001600160a01b03168252601d9052604081205550600101611704565b506000611766600e5461329a565b6005546117739190613f29565b90506117a26040518060400160405280600c81526020016b2d2d2d2d2d2d2d2d2d2d2d2d60a01b815250612858565b6117ad60045461289b565b6117bb610af3600e5461329a565b6117e86040518060400160405280600c81526020016b2d2d2d2d2d2d2d2d2d2d2d2d60a01b815250612858565b6117f3600e5461329a565b600660008282546118049190614257565b9091555050600060058190556014805461ff0019166101001790556040516001600160a01b0384169083908381818185875af1925050503d8060008114611867576040519150601f19603f3d011682016040523d82523d6000602084013e61186c565b606091505b505090508061188d5760405162461bcd60e51b81526004016107a09061426a565b6001600160a01b0383166000818152601b6020526040908190205460015491519092859290917f16b695a62f925592d6d20c814bb52013e1fa726fabbb8579841359c2794f3051906118e29086815260200190565b60405180910390a45050506118f76001600055565b50565b60026014546301000000900460ff16600281111561191a5761191a613a48565b146119375760405162461bcd60e51b81526004016107a0906140b1565b60013360009081526019602052604090205460ff16600281111561195d5761195d613a48565b1461197a5760405162461bcd60e51b81526004016107a0906142ae565b6011546001600160a01b031633036119e85760405162461bcd60e51b815260206004820152602b60248201527f476577696e6e6572206b616e6e2073696368206b65696e65204b617574696f6e60448201526a206175737a61686c656e2160a81b60648201526084016107a0565b336000908152601e602052604090205460ff16611a795760405162461bcd60e51b815260206004820152604360248201527f537069656c657220686174206e69636874206461732052656368742065696e6560448201527f6e205465696c2064657320436f6c6c61746572616c73206175737a757a61686c606482015262656e2160e81b608482015260a4016107a0565b336000818152601e60205260408120805460ff19169055600e54909190611a9f9061329a565b604051600081818185875af1925050503d8060008114611adb576040519150601f19603f3d011682016040523d82523d6000602084013e611ae0565b606091505b5050905080611b015760405162461bcd60e51b81526004016107a09061426a565b611b0c600e5461329a565b6001546040513391907f1de42eb655cc07589a9d2db065d72e9a7b81a233202d649cb6b97177574fbe7a90600090a450565b60006014546301000000900460ff166002811115611b5e57611b5e613a48565b14611b7b5760405162461bcd60e51b81526004016107a0906142fc565b600854600354600454611b8e9190613f29565b611b989190613f29565b3414611c325760405162461bcd60e51b815260206004820152606060248201527f556e7a757265696368656e646572204265747261673a204269747465207a616860448201527f6c656e205369652064656e2045696e7361747a2c20646965206472656966616360648201527f6865204b617574696f6e20756e642064696520537069656c676562c3bc687221608482015260a4016107a0565b3360009081526018602052604090205460ff1615611ca15760405162461bcd60e51b815260206004820152602660248201527f447520626973742064656d20537069656c206265726569747320626569676574604482015265726574656e2160d01b60648201526084016107a0565b60035460056000828254611cb59190613f29565b9091555050600354336000908152601d60205260408120919091556004546006805491929091611ce6908490613f29565b9091555050600454336000908152601c60205260408120919091556008546009805491929091611d17908490613f29565b909155505033600081815260176020526040902082905560025460128054909162010000900461ffff16908110611d5057611d506141a8565b600091825260208083209190910180546001600160a01b0319166001600160a01b03949094169390931790925533808252601883526040808320805460ff199081166001179091558151438187015242818401526060808201889052835180830390910181526080909101835280519086012092845260158552818420839055601990945290912080549092169091556002805461ffff62010000909104169080611dfa83614340565b91906101000a81548161ffff021916908361ffff1602179055505043600b81905550611e5360405180604001604052806016815260200175506c61796572206a6f696e6564207468652067616d6560501b815250612858565b6002546001546040516201000090920461ffff16913391907f03dfbe1fcb4e2d61f3b4a0c93d8f814c92250618b3387f396cc9fc9fafe2c20390600090a45050565b6060611eab826000600185516104d89190614257565b5090565b600b546019611ebd8161289b565b611ec68261289b565b611ecf4361289b565b611edd61ffff821683613f29565b431015611f1057604051631c6eb53160e01b81526004810183905243602482015261ffff821660448201526064016107a0565b60006014546301000000900460ff166002811115611f3057611f30613a48565b14611fb65760405162461bcd60e51b815260206004820152604a60248201527f52657665616c205068617365206b616e6e206e7572206765737461727465742060448201527f77657264656e2c2077656e6e20616b7475656c6c2064696520436f6d6d6974206064820152695068617365206973742160b01b608482015260a4016107a0565b60025460036201000090910461ffff16101561203a5760405162461bcd60e51b815260206004820152603e60248201527f4d696e64657374656e73203320537069656c65722077657264656e2062656ec360448201527fb67469677420756d2064617320537069656c207a75207374617274656e21000060648201526084016107a0565b6014805463ff0000001916630100000017905543600d819055600b5560408051808201909152600481526315195cdd60e21b602082015261207a90612858565b60025460009062010000900461ffff1667ffffffffffffffff8111156120a2576120a26138ad565b6040519080825280602002602001820160405280156120cb578160200160208202803683370190505b50905060005b60025461ffff620100009091048116908216101561220d5760128161ffff1681548110612100576121006141a8565b9060005260206000200160009054906101000a90046001600160a01b0316828261ffff1681518110612134576121346141a8565b60200260200101906001600160a01b031690816001600160a01b03168152505043406015600060128461ffff1681548110612171576121716141a8565b60009182526020808320909101546001600160a01b0316835282810193909352604091820190205490516121af939201918252602082015260400190565b604051602081830303815290604052805190602001206015600060128461ffff16815481106121e0576121e06141a8565b60009182526020808320909101546001600160a01b031683528201929092526040019020556001016120d1565b5061221781611e95565b805161222b916012916020909101906137d9565b50612252604051806040016040528060058152602001642a32b9ba1960d91b815250612858565b60005b60025462010000900461ffff168110156122ae57806016600060128481548110612281576122816141a8565b60009182526020808320909101546001600160a01b03168352820192909252604001902055600101612255565b506122d06040518060600160405280602881526020016144de60289139612858565b6001546040517f7e559c5eb69a2f4da695c01a09b192b6966e50770849f4ff626849c47273cc1390600090a2505050565b338061231f5760405162461bcd60e51b81526004016107a090613e39565b6001600160a01b03811660009081526018602052604090205460ff166123575760405162461bcd60e51b81526004016107a090613e81565b61235f613227565b60006014546301000000900460ff16600281111561237f5761237f613a48565b1461239c5760405162461bcd60e51b81526004016107a0906142fc565b336000908152601d60205260409020546124075760405162461bcd60e51b815260206004820152602660248201527f537069656c657220686174206b65696e656e2045696e7361747a2068696e7465604482015265726c6567742160d01b60648201526084016107a0565b336000908152601c60205260409020546124715760405162461bcd60e51b815260206004820152602560248201527f537069656c657220686174206b65696e65204b617574696f6e2068696e7465726044820152646c6567742160d81b60648201526084016107a0565b336000908152601c60205260408120805490829055600454600680549293919290919061249f908490614257565b9091555050336000908152601d6020526040812080549082905560035460058054929391929091906124d2908490614257565b90915550600090506124e48284613f29565b336000908152601860205260408120805460ff191690559091505b60025462010000900461ffff1681101561259657336001600160a01b031660128281548110612530576125306141a8565b6000918252602090912001546001600160a01b03160361258e5760006012828154811061255f5761255f6141a8565b9060005260206000200160006101000a8154816001600160a01b0302191690836001600160a01b031602179055505b6001016124ff565b5060016002808282829054906101000a900461ffff166125b69190614361565b92506101000a81548161ffff021916908361ffff1602179055506000336001600160a01b03168260405160006040518083038185875af1925050503d806000811461261d576040519150601f19603f3d011682016040523d82523d6000602084013e612622565b606091505b50509050806126435760405162461bcd60e51b81526004016107a0906140e8565b600154604051839133917fff3116559cac6c47442d1f2083dc842de1f35c5f87fd25d7978d509fa59c1b1890600090a4505050506118f76001600055565b60145460ff16156126df5760405162461bcd60e51b815260206004820152602260248201527f537069656c207775726465206265726569747320696e697469616c6973696572604482015261742160f01b60648201526084016107a0565b6001899055600f6126f08982613fa0565b506007805461ffff8089166101000262ffffff1990921660ff8b1617919091179091556002805491871661ffff199092169190911790556003848155612737908590613f3c565b60045560025461ffff1667ffffffffffffffff811115612759576127596138ad565b604051908082528060200260200182016040528015612782578160200160208202803683370190505b508051612797916012916020909101906137d9565b506014805463ff000000191690558060088111156127b7576127b7613a48565b6014805464ff0000000019166401000000008360088111156127db576127db613a48565b021790555060088290556014805460ff19908116600117909155601080546001600160a01b0386166001600160a01b031990911617905543600b55600c8054909116601917905560405189907fbd19c47e9925eb6f7be8bb1c13a841e0240aaeaf17f217e90022e9c8eb66877f90600090a2505050505050505050565b6118f78160405160240161286c919061389a565b60408051601f198184030181529190526020810180516001600160e01b031663104c13eb60e21b1790526132b4565b6118f7816040516024016128b191815260200190565b60408051601f198184030181529190526020810180516001600160e01b031663f82c50f160e01b1790526132b4565b6001600160a01b0381166000908152601b6020908152604080832054601a9092528220805483919061291190613dff565b80601f016020809104026020016040519081016040528092919081815260200182805461293d90613dff565b801561298a5780601f1061295f5761010080835404028352916020019161298a565b820191906000526020600020905b81548152906001019060200180831161296d57829003601f168201915b5050506001600160a01b0387166000908152601760209081526040808320549051959650949193506129c19250869186910161437c565b6040516020818303038152906040528051906020012090508181146129e75760026129ea565b60015b9695505050505050565b6129fc613227565b6004546006541015612a78576040805162461bcd60e51b81526020600482015260248101919091527f4e696368742067656ec3bc67656e6420457468657220696e2064656d2056657260448201527f7472616720756d20646965204b617574696f6e206175737a757a61686c656e2160648201526084016107a0565b6004546001600160a01b0382166000908152601c60205260409020541015612af05760405162461bcd60e51b815260206004820152602560248201527f48696e7465726c65677465204b617574696f6e20726569636874206e69636874604482015264206175732160d81b60648201526084016107a0565b6001600160a01b03811660009081526019602052604090205460019060ff166002811115612b2057612b20613a48565b14612b3d5760405162461bcd60e51b81526004016107a0906142ae565b6004546001600160a01b0382166000908152601c602052604081208054909190612b68908490614257565b909155505060045460068054600090612b82908490614257565b90915550506004546040516000916001600160a01b038416918381818185875af1925050503d8060008114612bd3576040519150601f19603f3d011682016040523d82523d6000602084013e612bd8565b606091505b5050905080612bf95760405162461bcd60e51b81526004016107a0906140e8565b6004546001546040516001600160a01b03851691907feec2f3feb835e2f2fd44281034b04700a1ddda63dd402949d470a25a7c40b36c90600090a4506118f76001600055565b60016014546301000000900460ff166002811115612c5f57612c5f613a48565b14612c7c5760405162461bcd60e51b81526004016107a090613ede565b612cba6040518060400160405280601d81526020017f44657465726d696e696e6720706f74656e7469616c2077696e6e657273000000815250612858565b6000612cc46132bd565b9050612cd981612cd56103e86131be565b1490565b15612d52576001546040517fce24807f7e4b60b4e641462f13029fa5e5f79075bbc3f8e5cd43ecd19661d76090600090a260405162461bcd60e51b815260206004820181905260248201527f4573207775726465206b65696e20476577696e6e657220676566756e64656e2160448201526064016107a0565b60025462010000900461ffff1667ffffffffffffffff811115612d7757612d776138ad565b604051908082528060200260200182016040528015612da0578160200160208202803683370190505b508051612db5916013916020909101906137d9565b50600754600090612dce90610100900461ffff166131be565b90506000805b60025462010000900461ffff16811015612fa457600060128281548110612dfd57612dfd6141a8565b60009182526020808320909101546001600160a01b0316808352601b9091526040822054909250612e2d906131be565b9050600081871115612e4a57612e4387836133ee565b9050612e57565b612e5482886133ee565b90505b80861115612f225760005b601354811015612eb257600060138281548110612e8157612e816141a8565b600091825260209091200180546001600160a01b0319166001600160a01b0392909216919091179055600101612e62565b50809550600094508260138681548110612ece57612ece6141a8565b9060005260206000200160006101000a8154816001600160a01b0302191690836001600160a01b03160217905550612f1d6040518060600160405280602881526020016144b660289139612858565b612f99565b858103612f995784612f33816143a2565b9550508260138681548110612f4a57612f4a6141a8565b9060005260206000200160006101000a8154816001600160a01b0302191690836001600160a01b03160217905550612f9960405180606001604052806031815260200161448560319139612858565b505050600101612dd4565b5060005b612fb3826001613f29565b8161ffff161015613021576001601e600060138461ffff1681548110612fdb57612fdb6141a8565b6000918252602080832091909101546001600160a01b031683528201929092526040019020805460ff19169115159190911790558061301981614340565b915050612fa8565b5061302d816001613f29565b600a55505050565b60026014546301000000900460ff16600281111561305557613055613a48565b146130725760405162461bcd60e51b81526004016107a0906140b1565b60006006546005546130849190613f29565b9050804710156130a65760405162461bcd60e51b81526004016107a0906141fa565b6001600a5413156131015760006130bb6133fd565b9050601381815481106130d0576130d06141a8565b600091825260209091200154601180546001600160a01b0319166001600160a01b039092169190911790555061317f565b600a5460010361314f57601360008154811061311f5761311f6141a8565b600091825260209091200154601180546001600160a01b0319166001600160a01b0390921691909117905561317f565b61317f6040518060400160405280600f81526020016e139bc81dda5b9b995c88199bdd5b99608a1b815250612858565b60115460015460405183926001600160a01b031691907ffee5b04775e1cd2311ed22cd00f5d2403aff38ff6f71d6d393f51854ed6bc98690600090a450565b60006131d4670de0b6b3a76400006000196143b4565b8211156131f757604051631cd951a760e01b8152600481018390526024016107a0565b50670de0b6b3a76400000290565b600061322061321d84670de0b6b3a76400008561357e565b90565b9392505050565b60026000540361324a57604051633ee5aeb560e01b815260040160405180910390fd5b6002600055565b61329682826040516024016132679291906143c8565b60408051601f198184030181529190526020810180516001600160e01b031663319af33360e01b1790526132b4565b5050565b60006132ae670de0b6b3a7640000836143b4565b92915050565b6118f781613651565b6000808080805b60025462010000900461ffff168110156133a9576000601282815481106132ed576132ed6141a8565b6000918252602090912001546001600160a01b0316905060016001600160a01b03821660009081526019602052604090205460ff16600281111561333357613333613a48565b036133a05761335960405180606001604052806024815260200161446160249139612858565b6001600160a01b0381166000908152601b602052604081205461337b906131be565b90506133878682613672565b955061339c8561339760016131be565b613672565b9450505b506001016132c4565b50816133c2576133ba6103e86131be565b935050505090565b6133cc8383613205565b90506133ba6133e4826133df60026131be565b613681565b61102a60036131be565b600061322061321d8385614257565b60408051426020820152449181019190915241606090811b6bffffffffffffffffffffffff191690820152436074820152456094820152600090819060b401604051602081830303815290604052905060005b600a548110156135625760006013828154811061346f5761346f6141a8565b60009182526020808320909101546001600160a01b0316808352601b8252604080842054601a90935283208054919450919291906134ac90613dff565b80601f01602080910402602001604051908101604052809291908181526020018280546134d890613dff565b80156135255780601f106134fa57610100808354040283529160200191613525565b820191906000526020600020905b81548152906001019060200180831161350857829003601f168201915b50505050509050848282604051602001613541939291906143f2565b60405160208183030381529060405294505050508080600101915050613450565b5080516020820120600a546135779082614429565b9250505090565b60008080600019858709858702925082811083820303915050806000036135b8578382816135ae576135ae614144565b0492505050613220565b8381106135e957604051630c740aef60e31b81526004810187905260248101869052604481018590526064016107a0565b600084868809600260036001881981018916988990049182028318808302840302808302840302808302840302808302840302808302840302918202909203026000889003889004909101858311909403939093029303949094049190911702949350505050565b60006a636f6e736f6c652e6c6f679050600080835160208501845afa505050565b600061322061321d8385613f29565b600061322061321d848460008080600019848609848602925082811083820303915050806000036136bf5750670de0b6b3a7640000900490506132ae565b670de0b6b3a764000081106136f157604051635173648d60e01b815260048101869052602481018590526044016107a0565b6000670de0b6b3a764000085870962040000818503049310909103600160ee1b02919091177faccb18165bd6fe31ae1cf318dc5b51eee0e1ba569b88cd74c1773b91fac106690291505092915050565b604051806101e00160405280600081526020016060815260200160008152602001600061ffff168152602001600061ffff16815260200160006001600160a01b03168152602001600081526020016000815260200160608152602001600060028111156137b0576137b0613a48565b815260006020820181905260408201819052606082018190526080820181905260a09091015290565b82805482825590600052602060002090810192821561382e579160200282015b8281111561382e57825182546001600160a01b0319166001600160a01b039091161782556020909201916001909101906137f9565b50611eab9291505b80821115611eab5760008155600101613836565b60005b8381101561386557818101518382015260200161384d565b50506000910152565b6000815180845261388681602086016020860161384a565b601f01601f19169290920160200192915050565b602081526000613220602083018461386e565b634e487b7160e01b600052604160045260246000fd5b604051601f8201601f1916810167ffffffffffffffff811182821017156138ec576138ec6138ad565b604052919050565b600082601f83011261390557600080fd5b813567ffffffffffffffff81111561391f5761391f6138ad565b613932601f8201601f19166020016138c3565b81815284602083860101111561394757600080fd5b816020850160208301376000918101602001919091529392505050565b6000806040838503121561397757600080fd5b82359150602083013567ffffffffffffffff81111561399557600080fd5b6139a1858286016138f4565b9150509250929050565b6020808252825182820181905260009190848201906040850190845b818110156139ec5783516001600160a01b0316835292840192918401916001016139c7565b50909695505050505050565b600060208284031215613a0a57600080fd5b5035919050565b80356001600160a01b0381168114613a2857600080fd5b919050565b600060208284031215613a3f57600080fd5b61322082613a11565b634e487b7160e01b600052602160045260246000fd5b600381106118f7576118f7613a48565b60208101613a7b83613a5e565b91905290565b60008151808452602080850194506020840160005b83811015613abb5781516001600160a01b031687529582019590820190600101613a96565b509495945050505050565b613acf81613a5e565b9052565b60098110613acf57613acf613a48565b6020815281516020820152600060208301516101e0806040850152613b0c61020085018361386e565b9150604085015160608501526060850151613b2d608086018261ffff169052565b50608085015161ffff811660a08601525060a08501516001600160a01b03811660c08601525060c085015160e085015260e0850151610100818187015280870151915050610120601f198685030181870152613b898483613a81565b935080870151915050610140613ba181870183613ac6565b8601519050610160613bbd868201836001600160a01b03169052565b8601519050610180613bd9868201836001600160a01b03169052565b86015190506101a0613bee8682018315159052565b86015190506101c0613c038682018315159052565b8601519050613c1485830182613ad3565b5090949350505050565b600082601f830112613c2f57600080fd5b8135602067ffffffffffffffff821115613c4b57613c4b6138ad565b8160051b613c5a8282016138c3565b9283528481018201928281019087851115613c7457600080fd5b83870192505b84831015613c9a57613c8b83613a11565b82529183019190830190613c7a565b979650505050505050565b600080600060608486031215613cba57600080fd5b833567ffffffffffffffff811115613cd157600080fd5b613cdd86828701613c1e565b9660208601359650604090950135949350505050565b602081016132ae8284613ad3565b600060208284031215613d1357600080fd5b813567ffffffffffffffff811115613d2a57600080fd5b613d3684828501613c1e565b949350505050565b803561ffff81168114613a2857600080fd5b60008060008060008060008060006101208a8c031215613d6f57600080fd5b8935985060208a013567ffffffffffffffff811115613d8d57600080fd5b613d998c828d016138f4565b98505060408a013560ff81168114613db057600080fd5b9650613dbe60608b01613d3e565b9550613dcc60808b01613d3e565b945060a08a01359350613de160c08b01613a11565b925060e08a013591506101008a013590509295985092959850929598565b600181811c90821680613e1357607f821691505b602082108103613e3357634e487b7160e01b600052602260045260246000fd5b50919050565b60208082526028908201527f416472657373652064617266206e6963687420646965203078302041647265736040820152677365207365696e2160c01b606082015260800190565b60208082526039908201527f4e757220626569676574726574656e6520537069656c6572206bc3b66e6e656e60408201527f2064696573652046756e6b74696f6e20617566727566656e2100000000000000606082015260800190565b6020808252818101527f537069656c206d75737320696e2052657665616c205068617365207365696e21604082015260600190565b634e487b7160e01b600052601160045260246000fd5b808201808211156132ae576132ae613f13565b80820281158282048414176132ae576132ae613f13565b601f821115613f9b576000816000526020600020601f850160051c81016020861015613f7c5750805b601f850160051c820191505b8181101561151957828155600101613f88565b505050565b815167ffffffffffffffff811115613fba57613fba6138ad565b613fce81613fc88454613dff565b84613f53565b602080601f8311600181146140035760008415613feb5750858301515b600019600386901b1c1916600185901b178555611519565b600085815260208120601f198616915b8281101561403257888601518255948401946001909101908401614013565b50858210156140505787850151600019600388901b60f8161c191681555b5050505050600190811b01905550565b604081526000614073604083018561386e565b905061407e83613a5e565b8260208301529392505050565b61ffff8181168382160280821691908281146140a9576140a9613f13565b505092915050565b6020808252601d908201527f537069656c20697374206e6f6368206e69636874206265656e64657421000000604082015260600190565b6020808252818101527f53656e64656e20766f6e204574686572206665686c67657363686c6167656e21604082015260600190565b818103600083128015838313168383128216171561413d5761413d613f13565b5092915050565b634e487b7160e01b600052601260045260246000fd5b60008261416957614169614144565b600160ff1b82146000198414161561418357614183613f13565b500590565b80820182811260008312801582168215821617156140a9576140a9613f13565b634e487b7160e01b600052603260045260246000fd5b60006001600160ff1b0182016141d6576141d6613f13565b5060010190565b6000600160ff1b82016141f2576141f2613f13565b506000190190565b60208082526037908201527f5072656973706f6f6c20726569636874206e696368742061757320756d20646560408201527f6e20476577696e6e6572206175737a757a61686c656e21000000000000000000606082015260800190565b818103818111156132ae576132ae613f13565b60208082526024908201527f53656e64656e20766f6e20457468657220697374206665686c67657363686c6160408201526367656e2160e01b606082015260800190565b6020808252602e908201527f537069656c657220686174207365696e656e2054697070206e6963687420766560408201526d72c3b66666656e746c696368742160901b606082015260800190565b60208082526024908201527f537069656c206d75737320696e2064657220436f6d6d6974205068617365207360408201526365696e2160e01b606082015260800190565b600061ffff80831681810361435757614357613f13565b6001019392505050565b61ffff82811682821603908082111561413d5761413d613f13565b8281526000825161439481602085016020870161384a565b919091016020019392505050565b6000600182016141d6576141d6613f13565b6000826143c3576143c3614144565b500490565b6040815260006143db604083018561386e565b905060018060a01b03831660208301529392505050565b6000845161440481846020890161384a565b8201848152835161441c81602080850190880161384a565b0160200195945050505050565b60008261443857614438614144565b50069056fe506c617965722072657665616c656420746865697220636f7272656374206775657373506c617965722072657665616c656420746865697220636f72726563742076616c756573416e6f7468657220706f74656e7469616c2077696e6e657220666f756e6420776974682073616d652064697374616e63654e657720706f74656e7469616c2077696e6e657220666f756e6420776974682064697374616e6365436f6d6d697420506861736520656e6465642c2052657665616c2050686173652073746172746564a26469706673582212206e2ab0c4fa48cbf69b2fecb69e8822123794c53a39178c964f48dcc0694439b464736f6c63430008180033",
  "linkReferences": {},
  "deployedLinkReferences": {}
}