{
  "_format": "hh-sol-artifact-1",
  "contractName": "AverageGame",
  "sourceName": "contracts/AverageGame.sol",
  "abi": [
    {
      "inputs": [
        {
          "internalType": "uint256",
          "name": "x",
          "type": "uint256"
        },
        {
          "internalType": "uint256",
          "name": "y",
          "type": "uint256"
        }
      ],
      "name": "PRBMath_MulDiv18_Overflow",
      "type": "error"
    },
    {
      "inputs": [
        {
          "internalType": "uint256",
          "name": "x",
          "type": "uint256"
        },
        {
          "internalType": "uint256",
          "name": "y",
          "type": "uint256"
        },
        {
          "internalType": "uint256",
          "name": "denominator",
          "type": "uint256"
        }
      ],
      "name": "PRBMath_MulDiv_Overflow",
      "type": "error"
    },
    {
      "inputs": [
        {
          "internalType": "uint256",
          "name": "x",
          "type": "uint256"
        }
      ],
      "name": "PRBMath_UD60x18_Convert_Overflow",
      "type": "error"
    },
    {
      "inputs": [],
      "name": "ReentrancyGuardReentrantCall",
      "type": "error"
    },
    {
      "anonymous": false,
      "inputs": [
        {
          "indexed": true,
          "internalType": "uint256",
          "name": "gameId",
          "type": "uint256"
        }
      ],
      "name": "BettingRoundClosed",
      "type": "event"
    },
    {
      "anonymous": false,
      "inputs": [
        {
          "indexed": true,
          "internalType": "uint256",
          "name": "gameId",
          "type": "uint256"
        },
        {
          "indexed": true,
          "internalType": "address",
          "name": "player",
          "type": "address"
        },
        {
          "indexed": true,
          "internalType": "uint256",
          "name": "amount",
          "type": "uint256"
        }
      ],
      "name": "CollateralDeposited",
      "type": "event"
    },
    {
      "anonymous": false,
      "inputs": [
        {
          "indexed": true,
          "internalType": "uint256",
          "name": "gameId",
          "type": "uint256"
        },
        {
          "indexed": true,
          "internalType": "address",
          "name": "player",
          "type": "address"
        },
        {
          "indexed": true,
          "internalType": "uint256",
          "name": "amount",
          "type": "uint256"
        }
      ],
      "name": "FeeCollected",
      "type": "event"
    },
    {
      "anonymous": false,
      "inputs": [
        {
          "indexed": true,
          "internalType": "uint256",
          "name": "gameId",
          "type": "uint256"
        }
      ],
      "name": "GameCreated",
      "type": "event"
    },
    {
      "anonymous": false,
      "inputs": [
        {
          "indexed": true,
          "internalType": "uint256",
          "name": "gameId",
          "type": "uint256"
        }
      ],
      "name": "GameEnded",
      "type": "event"
    },
    {
      "anonymous": false,
      "inputs": [
        {
          "indexed": true,
          "internalType": "uint256",
          "name": "gameId",
          "type": "uint256"
        },
        {
          "indexed": true,
          "internalType": "address",
          "name": "player",
          "type": "address"
        },
        {
          "indexed": true,
          "internalType": "uint256",
          "name": "totalPlayersAmount",
          "type": "uint256"
        }
      ],
      "name": "PlayerJoined",
      "type": "event"
    },
    {
      "anonymous": false,
      "inputs": [
        {
          "indexed": true,
          "internalType": "uint256",
          "name": "gameId",
          "type": "uint256"
        },
        {
          "indexed": true,
          "internalType": "address",
          "name": "player",
          "type": "address"
        },
        {
          "indexed": true,
          "internalType": "uint256",
          "name": "amount",
          "type": "uint256"
        }
      ],
      "name": "PlayerRefunded",
      "type": "event"
    },
    {
      "anonymous": false,
      "inputs": [
        {
          "indexed": true,
          "internalType": "uint256",
          "name": "gameId",
          "type": "uint256"
        },
        {
          "indexed": true,
          "internalType": "address",
          "name": "player",
          "type": "address"
        },
        {
          "indexed": true,
          "internalType": "uint256",
          "name": "guess",
          "type": "uint256"
        },
        {
          "indexed": false,
          "internalType": "string",
          "name": "salt",
          "type": "string"
        },
        {
          "indexed": false,
          "internalType": "enum AverageGame.RevealState",
          "name": "revealState",
          "type": "uint8"
        }
      ],
      "name": "PlayerRevealedGuess",
      "type": "event"
    },
    {
      "anonymous": false,
      "inputs": [
        {
          "indexed": true,
          "internalType": "uint256",
          "name": "gameId",
          "type": "uint256"
        },
        {
          "indexed": true,
          "internalType": "address",
          "name": "player",
          "type": "address"
        },
        {
          "indexed": true,
          "internalType": "uint256",
          "name": "amount",
          "type": "uint256"
        },
        {
          "indexed": false,
          "internalType": "uint256",
          "name": "guess",
          "type": "uint256"
        }
      ],
      "name": "PrizeAwarded",
      "type": "event"
    },
    {
      "anonymous": false,
      "inputs": [
        {
          "indexed": true,
          "internalType": "uint256",
          "name": "gameId",
          "type": "uint256"
        },
        {
          "indexed": true,
          "internalType": "address",
          "name": "winner",
          "type": "address"
        },
        {
          "indexed": true,
          "internalType": "uint256",
          "name": "amount",
          "type": "uint256"
        }
      ],
      "name": "WinnerSelected",
      "type": "event"
    },
    {
      "inputs": [],
      "name": "betAmount",
      "outputs": [
        {
          "internalType": "uint256",
          "name": "",
          "type": "uint256"
        }
      ],
      "stateMutability": "view",
      "type": "function"
    },
    {
      "inputs": [],
      "name": "blockNumber",
      "outputs": [
        {
          "internalType": "uint256",
          "name": "",
          "type": "uint256"
        }
      ],
      "stateMutability": "view",
      "type": "function"
    },
    {
      "inputs": [],
      "name": "collateralAmount",
      "outputs": [
        {
          "internalType": "uint256",
          "name": "",
          "type": "uint256"
        }
      ],
      "stateMutability": "view",
      "type": "function"
    },
    {
      "inputs": [],
      "name": "endGame",
      "outputs": [],
      "stateMutability": "nonpayable",
      "type": "function"
    },
    {
      "inputs": [],
      "name": "feeClaimed",
      "outputs": [
        {
          "internalType": "bool",
          "name": "",
          "type": "bool"
        }
      ],
      "stateMutability": "view",
      "type": "function"
    },
    {
      "inputs": [],
      "name": "gameFee",
      "outputs": [
        {
          "internalType": "uint256",
          "name": "",
          "type": "uint256"
        }
      ],
      "stateMutability": "view",
      "type": "function"
    },
    {
      "inputs": [],
      "name": "gameMaster",
      "outputs": [
        {
          "internalType": "address",
          "name": "",
          "type": "address"
        }
      ],
      "stateMutability": "view",
      "type": "function"
    },
    {
      "inputs": [],
      "name": "getAverageGameInstance",
      "outputs": [
        {
          "components": [
            {
              "internalType": "uint256",
              "name": "id",
              "type": "uint256"
            },
            {
              "internalType": "string",
              "name": "name",
              "type": "string"
            },
            {
              "internalType": "uint256",
              "name": "entryPrice",
              "type": "uint256"
            },
            {
              "internalType": "uint256",
              "name": "totalPlayers",
              "type": "uint256"
            },
            {
              "internalType": "uint256",
              "name": "maxPlayers",
              "type": "uint256"
            },
            {
              "internalType": "address",
              "name": "contractAddress",
              "type": "address"
            },
            {
              "internalType": "uint256",
              "name": "collateral",
              "type": "uint256"
            },
            {
              "internalType": "uint256",
              "name": "gameFee",
              "type": "uint256"
            },
            {
              "internalType": "address[]",
              "name": "players",
              "type": "address[]"
            },
            {
              "internalType": "enum AverageGame.GameState",
              "name": "gameState",
              "type": "uint8"
            },
            {
              "internalType": "address",
              "name": "gameMaster",
              "type": "address"
            },
            {
              "internalType": "address",
              "name": "winner",
              "type": "address"
            },
            {
              "internalType": "bool",
              "name": "rewardClaimed",
              "type": "bool"
            },
            {
              "internalType": "bool",
              "name": "feeClaimed",
              "type": "bool"
            }
          ],
          "internalType": "struct AverageGame.AverageGameInstance",
          "name": "",
          "type": "tuple"
        }
      ],
      "stateMutability": "view",
      "type": "function"
    },
    {
      "inputs": [],
      "name": "getBalance",
      "outputs": [
        {
          "internalType": "uint256",
          "name": "",
          "type": "uint256"
        }
      ],
      "stateMutability": "view",
      "type": "function"
    },
    {
      "inputs": [
        {
          "internalType": "address",
          "name": "_player",
          "type": "address"
        }
      ],
      "name": "getPlayerRevealedState",
      "outputs": [
        {
          "internalType": "enum AverageGame.RevealState",
          "name": "",
          "type": "uint8"
        }
      ],
      "stateMutability": "view",
      "type": "function"
    },
    {
      "inputs": [],
      "name": "getPlayers",
      "outputs": [
        {
          "internalType": "address[]",
          "name": "",
          "type": "address[]"
        }
      ],
      "stateMutability": "view",
      "type": "function"
    },
    {
      "inputs": [],
      "name": "getPotentialWinners",
      "outputs": [
        {
          "internalType": "address[]",
          "name": "",
          "type": "address[]"
        }
      ],
      "stateMutability": "view",
      "type": "function"
    },
    {
      "inputs": [],
      "name": "id",
      "outputs": [
        {
          "internalType": "uint256",
          "name": "",
          "type": "uint256"
        }
      ],
      "stateMutability": "view",
      "type": "function"
    },
    {
      "inputs": [
        {
          "internalType": "uint256",
          "name": "_gameId",
          "type": "uint256"
        },
        {
          "internalType": "string",
          "name": "_name",
          "type": "string"
        },
        {
          "internalType": "uint256",
          "name": "_minGuess",
          "type": "uint256"
        },
        {
          "internalType": "uint256",
          "name": "_maxGuess",
          "type": "uint256"
        },
        {
          "internalType": "uint256",
          "name": "_maxPlayers",
          "type": "uint256"
        },
        {
          "internalType": "uint256",
          "name": "_betAmount",
          "type": "uint256"
        },
        {
          "internalType": "address",
          "name": "_gameMaster",
          "type": "address"
        },
        {
          "internalType": "uint256",
          "name": "_gameFee",
          "type": "uint256"
        }
      ],
      "name": "initGame",
      "outputs": [],
      "stateMutability": "payable",
      "type": "function"
    },
    {
      "inputs": [
        {
          "internalType": "bytes32",
          "name": "_guess",
          "type": "bytes32"
        }
      ],
      "name": "joinGame",
      "outputs": [],
      "stateMutability": "payable",
      "type": "function"
    },
    {
      "inputs": [],
      "name": "maxGuess",
      "outputs": [
        {
          "internalType": "uint256",
          "name": "",
          "type": "uint256"
        }
      ],
      "stateMutability": "view",
      "type": "function"
    },
    {
      "inputs": [],
      "name": "maxPlayers",
      "outputs": [
        {
          "internalType": "uint256",
          "name": "",
          "type": "uint256"
        }
      ],
      "stateMutability": "view",
      "type": "function"
    },
    {
      "inputs": [],
      "name": "minGuess",
      "outputs": [
        {
          "internalType": "uint256",
          "name": "",
          "type": "uint256"
        }
      ],
      "stateMutability": "view",
      "type": "function"
    },
    {
      "inputs": [],
      "name": "name",
      "outputs": [
        {
          "internalType": "string",
          "name": "",
          "type": "string"
        }
      ],
      "stateMutability": "view",
      "type": "function"
    },
    {
      "inputs": [
        {
          "internalType": "uint256",
          "name": "",
          "type": "uint256"
        }
      ],
      "name": "potentialWinners",
      "outputs": [
        {
          "internalType": "address",
          "name": "",
          "type": "address"
        }
      ],
      "stateMutability": "view",
      "type": "function"
    },
    {
      "inputs": [],
      "name": "requestRefund",
      "outputs": [],
      "stateMutability": "nonpayable",
      "type": "function"
    },
    {
      "inputs": [
        {
          "internalType": "uint256",
          "name": "_guess",
          "type": "uint256"
        },
        {
          "internalType": "string",
          "name": "_salt",
          "type": "string"
        }
      ],
      "name": "revealGuess",
      "outputs": [],
      "stateMutability": "nonpayable",
      "type": "function"
    },
    {
      "inputs": [],
      "name": "rewardClaimed",
      "outputs": [
        {
          "internalType": "bool",
          "name": "",
          "type": "bool"
        }
      ],
      "stateMutability": "view",
      "type": "function"
    },
    {
      "inputs": [],
      "name": "startRevealPhase",
      "outputs": [],
      "stateMutability": "nonpayable",
      "type": "function"
    },
    {
      "inputs": [],
      "name": "state",
      "outputs": [
        {
          "internalType": "enum AverageGame.GameState",
          "name": "",
          "type": "uint8"
        }
      ],
      "stateMutability": "view",
      "type": "function"
    },
    {
      "inputs": [],
      "name": "timeToPass",
      "outputs": [
        {
          "internalType": "uint16",
          "name": "",
          "type": "uint16"
        }
      ],
      "stateMutability": "view",
      "type": "function"
    },
    {
      "inputs": [],
      "name": "totalBetAmount",
      "outputs": [
        {
          "internalType": "uint256",
          "name": "",
          "type": "uint256"
        }
      ],
      "stateMutability": "view",
      "type": "function"
    },
    {
      "inputs": [],
      "name": "totalCollateralAmount",
      "outputs": [
        {
          "internalType": "uint256",
          "name": "",
          "type": "uint256"
        }
      ],
      "stateMutability": "view",
      "type": "function"
    },
    {
      "inputs": [],
      "name": "totalPlayers",
      "outputs": [
        {
          "internalType": "uint256",
          "name": "",
          "type": "uint256"
        }
      ],
      "stateMutability": "view",
      "type": "function"
    },
    {
      "inputs": [],
      "name": "winner",
      "outputs": [
        {
          "internalType": "address",
          "name": "",
          "type": "address"
        }
      ],
      "stateMutability": "view",
      "type": "function"
    },
    {
      "inputs": [],
      "name": "withdrawGameFees",
      "outputs": [],
      "stateMutability": "nonpayable",
      "type": "function"
    },
    {
      "inputs": [
        {
          "internalType": "address",
          "name": "_winner",
          "type": "address"
        }
      ],
      "name": "withdrawPricepool",
      "outputs": [],
      "stateMutability": "nonpayable",
      "type": "function"
    }
  ],
  "bytecode": "0x6080604052600a600e60006101000a81548161ffff021916908361ffff16021790555034801561002e57600080fd5b506001600081905550615d6980620000476000396000f3fe6080604052600436106101e35760003560e01c806371f4b8e811610102578063c19d93fb11610095578063d5cef13311610064578063d5cef13314610662578063dfbf53ae14610679578063ea777eec146106a4578063f60cdcf6146106cf576101e3565b8063c19d93fb146105ca578063c6fd5d4e146105f5578063d24257c01461060c578063d2e66e9d14610637576101e3565b8063ab8a2873116100d1578063ab8a28731461052f578063af640d0f14610558578063bdf84ae714610583578063bf474766146105ae576101e3565b806371f4b8e8146104975780638b5b9ccc146104c257806392d09ceb146104ed5780639b9922e814610518576101e3565b80634c2412a21161017a5780635f573bc9116101495780635f573bc9146103ff578063613f45941461042a57806363f31d2c146104555780636cbc2ded14610480576101e3565b80634c2412a2146103415780635530e5101461036c578063574d6d7e1461039757806357e871e7146103d4576101e3565b806318d3851b116101b657806318d3851b146102925780631af08b05146102bd57806339c4268f146102fa5780634a3e394b14610316576101e3565b806301b62b78146101e857806306fdde031461021357806312065fe01461023e57806312b5afc114610269575b600080fd5b3480156101f457600080fd5b506101fd6106fa565b60405161020a9190613c69565b60405180910390f35b34801561021f57600080fd5b5061022861070d565b6040516102359190613d14565b60405180910390f35b34801561024a57600080fd5b5061025361079b565b6040516102609190613d4f565b60405180910390f35b34801561027557600080fd5b50610290600480360381019061028b9190613edf565b6107a3565b005b34801561029e57600080fd5b506102a7610ba7565b6040516102b4919061402b565b60405180910390f35b3480156102c957600080fd5b506102e460048036038101906102df919061404d565b610cc5565b6040516102f19190614089565b60405180910390f35b610314600480360381019061030f91906140d0565b610d04565b005b34801561032257600080fd5b5061032b610ec7565b60405161033891906141bf565b60405180910390f35b34801561034d57600080fd5b50610356610edb565b6040516103639190613d4f565b60405180910390f35b34801561037857600080fd5b50610381610ee1565b60405161038e9190613d4f565b60405180910390f35b3480156103a357600080fd5b506103be60048036038101906103b991906141da565b610ee7565b6040516103cb919061427e565b60405180910390f35b3480156103e057600080fd5b506103e9610f3d565b6040516103f69190613d4f565b60405180910390f35b34801561040b57600080fd5b50610414610f43565b60405161042191906144ed565b60405180910390f35b34801561043657600080fd5b5061043f611193565b60405161044c9190613d4f565b60405180910390f35b34801561046157600080fd5b5061046a611199565b6040516104779190613d4f565b60405180910390f35b34801561048c57600080fd5b5061049561119f565b005b3480156104a357600080fd5b506104ac6113a7565b6040516104b99190613c69565b60405180910390f35b3480156104ce57600080fd5b506104d76113ba565b6040516104e4919061402b565b60405180910390f35b3480156104f957600080fd5b50610502611448565b60405161050f9190613d4f565b60405180910390f35b34801561052457600080fd5b5061052d61144e565b005b34801561053b57600080fd5b50610556600480360381019061055191906141da565b611761565b005b34801561056457600080fd5b5061056d611b2a565b60405161057a9190613d4f565b60405180910390f35b34801561058f57600080fd5b50610598611b30565b6040516105a59190614089565b60405180910390f35b6105c860048036038101906105c39190614545565b611b56565b005b3480156105d657600080fd5b506105df611fe3565b6040516105ec9190614581565b60405180910390f35b34801561060157600080fd5b5061060a611ff6565b005b34801561061857600080fd5b506106216121c5565b60405161062e9190613d4f565b60405180910390f35b34801561064357600080fd5b5061064c6121cb565b6040516106599190613d4f565b60405180910390f35b34801561066e57600080fd5b506106776121d1565b005b34801561068557600080fd5b5061068e6123a3565b60405161069b9190614089565b60405180910390f35b3480156106b057600080fd5b506106b96123c9565b6040516106c69190613d4f565b60405180910390f35b3480156106db57600080fd5b506106e46123cf565b6040516106f19190613d4f565b60405180910390f35b601460019054906101000a900460ff1681565b600f805461071a906145cb565b80601f0160208091040260200160405190810160405280929190818152602001828054610746906145cb565b80156107935780601f1061076857610100808354040283529160200191610793565b820191906000526020600020905b81548152906001019060200180831161077657829003601f168201915b505050505081565b600047905090565b33600073ffffffffffffffffffffffffffffffffffffffff168173ffffffffffffffffffffffffffffffffffffffff1603610813576040517f08c379a000000000000000000000000000000000000000000000000000000000815260040161080a9061466e565b60405180910390fd5b601660008273ffffffffffffffffffffffffffffffffffffffff1673ffffffffffffffffffffffffffffffffffffffff16815260200190815260200160002060009054906101000a900460ff1661089f576040517f08c379a0000000000000000000000000000000000000000000000000000000008152600401610896906146da565b60405180910390fd5b600160028111156108b3576108b2614207565b5b601460039054906101000a900460ff1660028111156108d5576108d4614207565b5b14610915576040517f08c379a000000000000000000000000000000000000000000000000000000000815260040161090c9061476c565b60405180910390fd5b6000601760003373ffffffffffffffffffffffffffffffffffffffff1673ffffffffffffffffffffffffffffffffffffffff16815260200190815260200160002060009054906101000a900460ff1690506000600281111561097a57610979614207565b5b81600281111561098d5761098c614207565b5b146109cd576040517f08c379a00000000000000000000000000000000000000000000000000000000081526004016109c4906147fe565b60405180910390fd5b83601960003373ffffffffffffffffffffffffffffffffffffffff1673ffffffffffffffffffffffffffffffffffffffff1681526020019081526020016000208190555082601860003373ffffffffffffffffffffffffffffffffffffffff1673ffffffffffffffffffffffffffffffffffffffff1681526020019081526020016000209081610a5d91906149ca565b50610a67336123d5565b905080601760003373ffffffffffffffffffffffffffffffffffffffff1673ffffffffffffffffffffffffffffffffffffffff16815260200190815260200160002060006101000a81548160ff02191690836002811115610acb57610aca614207565b5b021790555060016002811115610ae457610ae3614207565b5b816002811115610af757610af6614207565b5b03610b2b57610b1d604051806060016040528060238152602001615bef60239139612573565b610b263361260c565b610b4d565b610b4c604051806080016040528060438152602001615c7060439139612573565b5b833373ffffffffffffffffffffffffffffffffffffffff166001547fc9ad6e2d9cbbc2bb01b8cc1f583b96db524df608a369862103461d0fde31dfa58685604051610b99929190614a9c565b60405180910390a450505050565b60603373ffffffffffffffffffffffffffffffffffffffff16601060009054906101000a900473ffffffffffffffffffffffffffffffffffffffff1673ffffffffffffffffffffffffffffffffffffffff1614610c39576040517f08c379a0000000000000000000000000000000000000000000000000000000008152600401610c3090614b3e565b60405180910390fd5b6013805480602002602001604051908101604052809291908181526020018280548015610cbb57602002820191906000526020600020905b8160009054906101000a900473ffffffffffffffffffffffffffffffffffffffff1673ffffffffffffffffffffffffffffffffffffffff1681526020019060010190808311610c71575b5050505050905090565b60138181548110610cd557600080fd5b906000526020600020016000915054906101000a900473ffffffffffffffffffffffffffffffffffffffff1681565b601460009054906101000a900460ff1615610d54576040517f08c379a0000000000000000000000000000000000000000000000000000000008152600401610d4b90614bd0565b60405180910390fd5b8760018190555086600f9081610d6a91906149ca565b5085600881905550846009819055508360028190555082600481905550600383610d949190614c1f565b60058190555060025467ffffffffffffffff811115610db657610db5613db4565b5b604051908082528060200260200182016040528015610de45781602001602082028036833780820191505090505b5060129080519060200190610dfa929190613ad6565b506000601460036101000a81548160ff02191690836002811115610e2157610e20614207565b5b021790555080600a819055506001601460006101000a81548160ff02191690831515021790555081601060006101000a81548173ffffffffffffffffffffffffffffffffffffffff021916908373ffffffffffffffffffffffffffffffffffffffff16021790555043600d81905550877fbd19c47e9925eb6f7be8bb1c13a841e0240aaeaf17f217e90022e9c8eb66877f60405160405180910390a25050505050505050565b600e60009054906101000a900461ffff1681565b60025481565b60095481565b6000601760008373ffffffffffffffffffffffffffffffffffffffff1673ffffffffffffffffffffffffffffffffffffffff16815260200190815260200160002060009054906101000a900460ff169050919050565b600d5481565b610f4b613b60565b604051806101c001604052806001548152602001600f8054610f6c906145cb565b80601f0160208091040260200160405190810160405280929190818152602001828054610f98906145cb565b8015610fe55780601f10610fba57610100808354040283529160200191610fe5565b820191906000526020600020905b815481529060010190602001808311610fc857829003601f168201915b505050505081526020016004548152602001600354815260200160025481526020013073ffffffffffffffffffffffffffffffffffffffff1681526020016005548152602001600a54815260200160128054806020026020016040519081016040528092919081815260200182805480156110b557602002820191906000526020600020905b8160009054906101000a900473ffffffffffffffffffffffffffffffffffffffff1673ffffffffffffffffffffffffffffffffffffffff168152602001906001019080831161106b575b50505050508152602001601460039054906101000a900460ff1660028111156110e1576110e0614207565b5b8152602001601060009054906101000a900473ffffffffffffffffffffffffffffffffffffffff1673ffffffffffffffffffffffffffffffffffffffff168152602001601160009054906101000a900473ffffffffffffffffffffffffffffffffffffffff1673ffffffffffffffffffffffffffffffffffffffff168152602001601460019054906101000a900460ff1615158152602001601460029054906101000a900460ff161515815250905090565b60065481565b60075481565b3373ffffffffffffffffffffffffffffffffffffffff16601060009054906101000a900473ffffffffffffffffffffffffffffffffffffffff1673ffffffffffffffffffffffffffffffffffffffff161461122f576040517f08c379a000000000000000000000000000000000000000000000000000000000815260040161122690614b3e565b60405180910390fd5b6001600281111561124357611242614207565b5b601460039054906101000a900460ff16600281111561126557611264614207565b5b146112a5576040517f08c379a000000000000000000000000000000000000000000000000000000000815260040161129c9061476c565b60405180910390fd5b6112ad61298b565b6002601460036101000a81548160ff021916908360028111156112d3576112d2614207565b5b02179055507fffffffffffffffffffffffffffffffffffffffffffffffffffffffffffffffff600c540361132f57611309612dc5565b61132a6040518060600160405280603a8152602001615c12603a9139612573565b611376565b611337612fa8565b6113756040518060400160405280601b81526020017f57696e6e65722073656c65637465642c2067616d6520656e6465640000000000815250612573565b5b6001547fce24807f7e4b60b4e641462f13029fa5e5f79075bbc3f8e5cd43ecd19661d76060405160405180910390a2565b601460029054906101000a900460ff1681565b6060601280548060200260200160405190810160405280929190818152602001828054801561143e57602002820191906000526020600020905b8160009054906101000a900473ffffffffffffffffffffffffffffffffffffffff1673ffffffffffffffffffffffffffffffffffffffff16815260200190600101908083116113f4575b5050505050905090565b60055481565b3373ffffffffffffffffffffffffffffffffffffffff16601060009054906101000a900473ffffffffffffffffffffffffffffffffffffffff1673ffffffffffffffffffffffffffffffffffffffff16146114de576040517f08c379a00000000000000000000000000000000000000000000000000000000081526004016114d590614b3e565b60405180910390fd5b6114e6613204565b6002808111156114f9576114f8614207565b5b601460039054906101000a900460ff16600281111561151b5761151a614207565b5b1461155b576040517f08c379a000000000000000000000000000000000000000000000000000000000815260040161155290614cad565b60405180910390fd5b600073ffffffffffffffffffffffffffffffffffffffff16601160009054906101000a900473ffffffffffffffffffffffffffffffffffffffff1673ffffffffffffffffffffffffffffffffffffffff16036115ec576040517f08c379a00000000000000000000000000000000000000000000000000000000081526004016115e390614d3f565b60405180910390fd5b600b546115f761079b565b1015611638576040517f08c379a000000000000000000000000000000000000000000000000000000000815260040161162f90614df7565b60405180910390fd5b6000600b5490506000600b819055506001601460026101000a81548160ff02191690831515021790555060003373ffffffffffffffffffffffffffffffffffffffff168260405161168890614e48565b60006040518083038185875af1925050503d80600081146116c5576040519150601f19603f3d011682016040523d82523d6000602084013e6116ca565b606091505b505090508061170e576040517f08c379a000000000000000000000000000000000000000000000000000000000815260040161170590614ea9565b60405180910390fd5b813373ffffffffffffffffffffffffffffffffffffffff166001547ff1d6c8ee14081f641e2073a1064d870f135f1001a301c6b14a7b9655672fec1160405160405180910390a4505061175f61324a565b565b6117c26040518060400160405280600781526020017f57696e6e65723a00000000000000000000000000000000000000000000000000815250601160009054906101000a900473ffffffffffffffffffffffffffffffffffffffff16613254565b6118016040518060400160405280600a81526020017f4d73672e73656e6465720000000000000000000000000000000000000000000081525033613254565b3373ffffffffffffffffffffffffffffffffffffffff16601160009054906101000a900473ffffffffffffffffffffffffffffffffffffffff1673ffffffffffffffffffffffffffffffffffffffff1614611891576040517f08c379a000000000000000000000000000000000000000000000000000000000815260040161188890614f3b565b60405180910390fd5b611899613204565b6002808111156118ac576118ab614207565b5b601460039054906101000a900460ff1660028111156118ce576118cd614207565b5b1461190e576040517f08c379a000000000000000000000000000000000000000000000000000000000815260040161190590614cad565b60405180910390fd5b60006007546006546119209190614f5b565b905060008111611965576040517f08c379a000000000000000000000000000000000000000000000000000000000815260040161195c90614fdb565b60405180910390fd5b8061196e61079b565b10156119af576040517f08c379a00000000000000000000000000000000000000000000000000000000081526004016119a69061506d565b60405180910390fd5b600060068190555060006007819055506001601460016101000a81548160ff02191690831515021790555060008273ffffffffffffffffffffffffffffffffffffffff1682604051611a0090614e48565b60006040518083038185875af1925050503d8060008114611a3d576040519150601f19603f3d011682016040523d82523d6000602084013e611a42565b606091505b5050905080611a86576040517f08c379a0000000000000000000000000000000000000000000000000000000008152600401611a7d906150ff565b60405180910390fd5b6000601960008573ffffffffffffffffffffffffffffffffffffffff1673ffffffffffffffffffffffffffffffffffffffff168152602001908152602001600020549050828473ffffffffffffffffffffffffffffffffffffffff166001547f16b695a62f925592d6d20c814bb52013e1fa726fabbb8579841359c2794f305184604051611b149190613d4f565b60405180910390a4505050611b2761324a565b50565b60015481565b601060009054906101000a900473ffffffffffffffffffffffffffffffffffffffff1681565b60006002811115611b6a57611b69614207565b5b601460039054906101000a900460ff166002811115611b8c57611b8b614207565b5b14611bcc576040517f08c379a0000000000000000000000000000000000000000000000000000000008152600401611bc39061516b565b60405180910390fd5b601060009054906101000a900473ffffffffffffffffffffffffffffffffffffffff1673ffffffffffffffffffffffffffffffffffffffff163373ffffffffffffffffffffffffffffffffffffffff1603611c5c576040517f08c379a0000000000000000000000000000000000000000000000000000000008152600401611c53906151fd565b60405180910390fd5b600a54600454600554611c6f9190614f5b565b611c799190614f5b565b3414611cba576040517f08c379a0000000000000000000000000000000000000000000000000000000008152600401611cb1906152b5565b60405180910390fd5b601660003373ffffffffffffffffffffffffffffffffffffffff1673ffffffffffffffffffffffffffffffffffffffff16815260200190815260200160002060009054906101000a900460ff1615611d47576040517f08c379a0000000000000000000000000000000000000000000000000000000008152600401611d3e90615347565b60405180910390fd5b60045460066000828254611d5b9190614f5b565b9250508190555060055460076000828254611d769190614f5b565b92505081905550600554601a60003373ffffffffffffffffffffffffffffffffffffffff1673ffffffffffffffffffffffffffffffffffffffff16815260200190815260200160002081905550600a54600b6000828254611dd79190614f5b565b9250508190555080601560003373ffffffffffffffffffffffffffffffffffffffff1673ffffffffffffffffffffffffffffffffffffffff1681526020019081526020016000208190555033601260035481548110611e3957611e38615367565b5b9060005260206000200160006101000a81548173ffffffffffffffffffffffffffffffffffffffff021916908373ffffffffffffffffffffffffffffffffffffffff1602179055506001601660003373ffffffffffffffffffffffffffffffffffffffff1673ffffffffffffffffffffffffffffffffffffffff16815260200190815260200160002060006101000a81548160ff0219169083151502179055506000601760003373ffffffffffffffffffffffffffffffffffffffff1673ffffffffffffffffffffffffffffffffffffffff16815260200190815260200160002060006101000a81548160ff02191690836002811115611f3c57611f3b614207565b5b021790555060036000815480929190611f5490615396565b9190505550611f976040518060400160405280601681526020017f506c61796572206a6f696e6564207468652067616d6500000000000000000000815250612573565b6003543373ffffffffffffffffffffffffffffffffffffffff166001547f03dfbe1fcb4e2d61f3b4a0c93d8f814c92250618b3387f396cc9fc9fafe2c20360405160405180910390a450565b601460039054906101000a900460ff1681565b3373ffffffffffffffffffffffffffffffffffffffff16601060009054906101000a900473ffffffffffffffffffffffffffffffffffffffff1673ffffffffffffffffffffffffffffffffffffffff1614612086576040517f08c379a000000000000000000000000000000000000000000000000000000000815260040161207d90614b3e565b60405180910390fd5b6000600281111561209a57612099614207565b5b601460039054906101000a900460ff1660028111156120bc576120bb614207565b5b146120fc576040517f08c379a00000000000000000000000000000000000000000000000000000000081526004016120f390615476565b60405180910390fd5b600380541015612141576040517f08c379a000000000000000000000000000000000000000000000000000000000815260040161213890615508565b60405180910390fd5b6001601460036101000a81548160ff0219169083600281111561216757612166614207565b5b021790555043600d81905550612194604051806060016040528060288152602001615d0c60289139612573565b6001547f1af5706848593978661e03a58b13e34204b40f58afbc193a44b1f17e0b40db6360405160405180910390a2565b60045481565b60085481565b33600073ffffffffffffffffffffffffffffffffffffffff168173ffffffffffffffffffffffffffffffffffffffff1603612241576040517f08c379a00000000000000000000000000000000000000000000000000000000081526004016122389061466e565b60405180910390fd5b601660008273ffffffffffffffffffffffffffffffffffffffff1673ffffffffffffffffffffffffffffffffffffffff16815260200190815260200160002060009054906101000a900460ff166122cd576040517f08c379a00000000000000000000000000000000000000000000000000000000081526004016122c4906146da565b60405180910390fd5b6000600e60009054906101000a900461ffff166040516020016122f0919061564d565b604051602081830303815290604052905043600e60009054906101000a900461ffff1661ffff16600d546123249190614f5b565b108190612367576040517f08c379a000000000000000000000000000000000000000000000000000000000815260040161235e9190613d14565b60405180910390fd5b50612370612dc5565b6001547fce24807f7e4b60b4e641462f13029fa5e5f79075bbc3f8e5cd43ecd19661d76060405160405180910390a25050565b601160009054906101000a900473ffffffffffffffffffffffffffffffffffffffff1681565b600a5481565b60035481565b600080601960008473ffffffffffffffffffffffffffffffffffffffff1673ffffffffffffffffffffffffffffffffffffffff1681526020019081526020016000205490506000601860008573ffffffffffffffffffffffffffffffffffffffff1673ffffffffffffffffffffffffffffffffffffffff1681526020019081526020016000208054612466906145cb565b80601f0160208091040260200160405190810160405280929190818152602001828054612492906145cb565b80156124df5780601f106124b4576101008083540402835291602001916124df565b820191906000526020600020905b8154815290600101906020018083116124c257829003601f168201915b505050505090506000601560008673ffffffffffffffffffffffffffffffffffffffff1673ffffffffffffffffffffffffffffffffffffffff1681526020019081526020016000205490506000838360405160200161253f9291906156d0565b604051602081830303815290604052805190602001209050818114612565576002612568565b60015b945050505050919050565b612609816040516024016125879190613d14565b6040516020818303038152906040527f41304fac000000000000000000000000000000000000000000000000000000007bffffffffffffffffffffffffffffffffffffffffffffffffffffffff19166020820180517bffffffffffffffffffffffffffffffffffffffffffffffffffffffff83818316178352505050506132f0565b50565b612614613204565b600554600754101561265b576040517f08c379a00000000000000000000000000000000000000000000000000000000081526004016126529061576a565b60405180910390fd5b600554601a60008373ffffffffffffffffffffffffffffffffffffffff1673ffffffffffffffffffffffffffffffffffffffff1681526020019081526020016000205410156126df576040517f08c379a00000000000000000000000000000000000000000000000000000000081526004016126d6906157fc565b60405180910390fd5b6000601a60008373ffffffffffffffffffffffffffffffffffffffff1673ffffffffffffffffffffffffffffffffffffffff168152602001908152602001600020541015612762576040517f08c379a00000000000000000000000000000000000000000000000000000000081526004016127599061588e565b60405180910390fd5b6001600281111561277657612775614207565b5b601760008373ffffffffffffffffffffffffffffffffffffffff1673ffffffffffffffffffffffffffffffffffffffff16815260200190815260200160002060009054906101000a900460ff1660028111156127d5576127d4614207565b5b14612815576040517f08c379a000000000000000000000000000000000000000000000000000000000815260040161280c90615920565b60405180910390fd5b600554601a60008373ffffffffffffffffffffffffffffffffffffffff1673ffffffffffffffffffffffffffffffffffffffff16815260200190815260200160002060008282546128669190615940565b92505081905550600554600760008282546128819190615940565b9250508190555060008173ffffffffffffffffffffffffffffffffffffffff166005546040516128b090614e48565b60006040518083038185875af1925050503d80600081146128ed576040519150601f19603f3d011682016040523d82523d6000602084013e6128f2565b606091505b5050905080612936576040517f08c379a000000000000000000000000000000000000000000000000000000000815260040161292d90614ea9565b60405180910390fd5b6005548273ffffffffffffffffffffffffffffffffffffffff166001547feec2f3feb835e2f2fd44281034b04700a1ddda63dd402949d470a25a7c40b36c60405160405180910390a45061298861324a565b50565b6001600281111561299f5761299e614207565b5b601460039054906101000a900460ff1660028111156129c1576129c0614207565b5b14612a01576040517f08c379a00000000000000000000000000000000000000000000000000000000081526004016129f89061476c565b60405180910390fd5b612a3f6040518060400160405280601d81526020017f44657465726d696e696e6720706f74656e7469616c2077696e6e657273000000815250612573565b6000612a4961330a565b90507fffffffffffffffffffffffffffffffffffffffffffffffffffffffffffffffff8103612a9f577fffffffffffffffffffffffffffffffffffffffffffffffffffffffffffffffff600c8190555050612dc3565b6000612aaa826134f6565b905060035467ffffffffffffffff811115612ac857612ac7613db4565b5b604051908082528060200260200182016040528015612af65781602001602082028036833780820191505090505b5060139080519060200190612b0c929190613ad6565b506000612b1a6009546134f6565b90506000805b600354811015612daa57600060128281548110612b4057612b3f615367565b5b9060005260206000200160009054906101000a900473ffffffffffffffffffffffffffffffffffffffff1690506000612bb7601960008473ffffffffffffffffffffffffffffffffffffffff1673ffffffffffffffffffffffffffffffffffffffff168152602001908152602001600020546134f6565b90506000612bc58288613582565b15612bdb57612bd4878361359f565b9050612be8565b612be5828861359f565b90505b612bf28187613582565b15612cfd5760005b601380549050811015612c7257600060138281548110612c1d57612c1c615367565b5b9060005260206000200160006101000a81548173ffffffffffffffffffffffffffffffffffffffff021916908373ffffffffffffffffffffffffffffffffffffffff1602179055508080600101915050612bfa565b50809550600094508260138681548110612c8f57612c8e615367565b5b9060005260206000200160006101000a81548173ffffffffffffffffffffffffffffffffffffffff021916908373ffffffffffffffffffffffffffffffffffffffff160217905550612cf8604051806060016040528060288152602001615ce460289139612573565b612d9a565b612d0781876135cd565b15612d99578480612d1790615396565b9550508260138681548110612d2f57612d2e615367565b5b9060005260206000200160006101000a81548173ffffffffffffffffffffffffffffffffffffffff021916908373ffffffffffffffffffffffffffffffffffffffff160217905550612d98604051806060016040528060318152602001615cb360319139612573565b5b5b5050508080600101915050612b20565b50600181612db89190614f5b565b600c81905550505050505b565b612dcd613204565b60005b600354811015612f9d57600060128281548110612df057612def615367565b5b9060005260206000200160009054906101000a900473ffffffffffffffffffffffffffffffffffffffff1690506000601a60008373ffffffffffffffffffffffffffffffffffffffff1673ffffffffffffffffffffffffffffffffffffffff168152602001908152602001600020549050600060045490506000600354600b54612e7a91906159a3565b90506000818385612e8b9190614f5b565b612e959190614f5b565b905060008573ffffffffffffffffffffffffffffffffffffffff1682604051612ebd90614e48565b60006040518083038185875af1925050503d8060008114612efa576040519150601f19603f3d011682016040523d82523d6000602084013e612eff565b606091505b5050905080612f43576040517f08c379a0000000000000000000000000000000000000000000000000000000008152600401612f3a90614ea9565b60405180910390fd5b818673ffffffffffffffffffffffffffffffffffffffff166001547fff3116559cac6c47442d1f2083dc842de1f35c5f87fd25d7978d509fa59c1b1860405160405180910390a45050505050508080600101915050612dd0565b50612fa661324a565b565b600280811115612fbb57612fba614207565b5b601460039054906101000a900460ff166002811115612fdd57612fdc614207565b5b1461301d576040517f08c379a000000000000000000000000000000000000000000000000000000000815260040161301490614cad565b60405180910390fd5b600060075460065461302f9190614f5b565b90508061303a61079b565b101561307b576040517f08c379a00000000000000000000000000000000000000000000000000000000081526004016130729061506d565b60405180910390fd5b6001600c5413156131175760006130906135ea565b9050601381815481106130a6576130a5615367565b5b9060005260206000200160009054906101000a900473ffffffffffffffffffffffffffffffffffffffff16601160006101000a81548173ffffffffffffffffffffffffffffffffffffffff021916908373ffffffffffffffffffffffffffffffffffffffff16021790555050613198565b601360008154811061312c5761312b615367565b5b9060005260206000200160009054906101000a900473ffffffffffffffffffffffffffffffffffffffff16601160006101000a81548173ffffffffffffffffffffffffffffffffffffffff021916908373ffffffffffffffffffffffffffffffffffffffff1602179055505b80601160009054906101000a900473ffffffffffffffffffffffffffffffffffffffff1673ffffffffffffffffffffffffffffffffffffffff166001547ffee5b04775e1cd2311ed22cd00f5d2403aff38ff6f71d6d393f51854ed6bc98660405160405180910390a450565b600260005403613240576040517f3ee5aeb500000000000000000000000000000000000000000000000000000000815260040160405180910390fd5b6002600081905550565b6001600081905550565b6132ec828260405160240161326a9291906159d4565b6040516020818303038152906040527f319af333000000000000000000000000000000000000000000000000000000007bffffffffffffffffffffffffffffffffffffffffffffffffffffffff19166020820180517bffffffffffffffffffffffffffffffffffffffffffffffffffffffff83818316178352505050506132f0565b5050565b613307816132ff6137d26137f3565b63ffffffff16565b50565b6000806000905060008060005b60035481101561347a5760006012828154811061333757613336615367565b5b9060005260206000200160009054906101000a900473ffffffffffffffffffffffffffffffffffffffff1690506001600281111561337857613377614207565b5b601760008373ffffffffffffffffffffffffffffffffffffffff1673ffffffffffffffffffffffffffffffffffffffff16815260200190815260200160002060009054906101000a900460ff1660028111156133d7576133d6614207565b5b0361346c576133fd604051806060016040528060248152602001615c4c60249139612573565b6000613447601960008473ffffffffffffffffffffffffffffffffffffffff1673ffffffffffffffffffffffffffffffffffffffff168152602001908152602001600020546134f6565b905061345386826137fe565b95506134688561346360016134f6565b6137fe565b9450505b508080600101915050613317565b506134848261382c565b156134b4577fffffffffffffffffffffffffffffffffffffffffffffffffffffffffffffffff93505050506134f3565b6134be8383613840565b90506134ed6134e86134d9836134d460026134f6565b613875565b6134e360036134f6565b613840565b6138a1565b93505050505b90565b6000670de0b6b3a76400007fffffffffffffffffffffffffffffffffffffffffffffffffffffffffffffffff61352c91906159a3565b82111561357057816040517f1cd951a70000000000000000000000000000000000000000000000000000000081526004016135679190613d4f565b60405180910390fd5b670de0b6b3a764000082029050919050565b600061358d826138be565b613596846138be565b10905092915050565b60006135c56135ad836138be565b6135b6856138be565b6135c09190615940565b6138c8565b905092915050565b60006135d8826138be565b6135e1846138be565b14905092915050565b6000804244414345604051602001613606959493929190615a5e565b604051602081830303815290604052905060005b600c548110156137ad5760006013828154811061363a57613639615367565b5b9060005260206000200160009054906101000a900473ffffffffffffffffffffffffffffffffffffffff1690506000601960008373ffffffffffffffffffffffffffffffffffffffff1673ffffffffffffffffffffffffffffffffffffffff1681526020019081526020016000205490506000601860008473ffffffffffffffffffffffffffffffffffffffff1673ffffffffffffffffffffffffffffffffffffffff16815260200190815260200160002080546136f7906145cb565b80601f0160208091040260200160405190810160405280929190818152602001828054613723906145cb565b80156137705780601f1061374557610100808354040283529160200191613770565b820191906000526020600020905b81548152906001019060200180831161375357829003601f168201915b5050505050905084828260405160200161378c93929190615af9565b6040516020818303038152906040529450505050808060010191505061361a565b50600081805190602001209050600c548160001c6137cb9190615b2e565b9250505090565b60006a636f6e736f6c652e6c6f679050600080835160208501845afa505050565b613c27819050919050565b600061382461380c836138be565b613815856138be565b61381f9190614f5b565b6138c8565b905092915050565b600080613838836138be565b149050919050565b600061386d613868613851856138be565b670de0b6b3a7640000613863866138be565b6138d2565b6138c8565b905092915050565b6000613899613894613886856138be565b61388f856138be565b6139ec565b6138c8565b905092915050565b6000670de0b6b3a7640000826138b791906159a3565b9050919050565b6000819050919050565b6000819050919050565b600080600080198587098587029250828110838203039150506000810361390d5783828161390357613902615974565b5b04925050506139e5565b838110613955578585856040517f63a0577800000000000000000000000000000000000000000000000000000000815260040161394c93929190615b5f565b60405180910390fd5b60008486880990508281118203915080830392506000600186190186169050600081870496508185049450600182836000030401905080840285179450600060028860030218905080880260020381029050808802600203810290508088026002038102905080880260020381029050808802600203810290508088026002038102905080860296505050505050505b9392505050565b6000806000801984860984860292508281108382030391505060008103613a2f57670de0b6b3a76400008281613a2557613a24615974565b5b0492505050613ad0565b670de0b6b3a76400008110613a7d5784846040517f5173648d000000000000000000000000000000000000000000000000000000008152600401613a74929190615b96565b60405180910390fd5b6000670de0b6b3a764000085870990507faccb18165bd6fe31ae1cf318dc5b51eee0e1ba569b88cd74c1773b91fac106696001620400008060000304018483118403026204000083860304170293505050505b92915050565b828054828255906000526020600020908101928215613b4f579160200282015b82811115613b4e5782518260006101000a81548173ffffffffffffffffffffffffffffffffffffffff021916908373ffffffffffffffffffffffffffffffffffffffff16021790555091602001919060010190613af6565b5b509050613b5c9190613c31565b5090565b604051806101c001604052806000815260200160608152602001600081526020016000815260200160008152602001600073ffffffffffffffffffffffffffffffffffffffff16815260200160008152602001600081526020016060815260200160006002811115613bd557613bd4614207565b5b8152602001600073ffffffffffffffffffffffffffffffffffffffff168152602001600073ffffffffffffffffffffffffffffffffffffffff1681526020016000151581526020016000151581525090565b613c2f615bbf565b565b5b80821115613c4a576000816000905550600101613c32565b5090565b60008115159050919050565b613c6381613c4e565b82525050565b6000602082019050613c7e6000830184613c5a565b92915050565b600081519050919050565b600082825260208201905092915050565b60005b83811015613cbe578082015181840152602081019050613ca3565b60008484015250505050565b6000601f19601f8301169050919050565b6000613ce682613c84565b613cf08185613c8f565b9350613d00818560208601613ca0565b613d0981613cca565b840191505092915050565b60006020820190508181036000830152613d2e8184613cdb565b905092915050565b6000819050919050565b613d4981613d36565b82525050565b6000602082019050613d646000830184613d40565b92915050565b6000604051905090565b600080fd5b600080fd5b613d8781613d36565b8114613d9257600080fd5b50565b600081359050613da481613d7e565b92915050565b600080fd5b600080fd5b7f4e487b7100000000000000000000000000000000000000000000000000000000600052604160045260246000fd5b613dec82613cca565b810181811067ffffffffffffffff82111715613e0b57613e0a613db4565b5b80604052505050565b6000613e1e613d6a565b9050613e2a8282613de3565b919050565b600067ffffffffffffffff821115613e4a57613e49613db4565b5b613e5382613cca565b9050602081019050919050565b82818337600083830152505050565b6000613e82613e7d84613e2f565b613e14565b905082815260208101848484011115613e9e57613e9d613daf565b5b613ea9848285613e60565b509392505050565b600082601f830112613ec657613ec5613daa565b5b8135613ed6848260208601613e6f565b91505092915050565b60008060408385031215613ef657613ef5613d74565b5b6000613f0485828601613d95565b925050602083013567ffffffffffffffff811115613f2557613f24613d79565b5b613f3185828601613eb1565b9150509250929050565b600081519050919050565b600082825260208201905092915050565b6000819050602082019050919050565b600073ffffffffffffffffffffffffffffffffffffffff82169050919050565b6000613f9282613f67565b9050919050565b613fa281613f87565b82525050565b6000613fb48383613f99565b60208301905092915050565b6000602082019050919050565b6000613fd882613f3b565b613fe28185613f46565b9350613fed83613f57565b8060005b8381101561401e5781516140058882613fa8565b975061401083613fc0565b925050600181019050613ff1565b5085935050505092915050565b600060208201905081810360008301526140458184613fcd565b905092915050565b60006020828403121561406357614062613d74565b5b600061407184828501613d95565b91505092915050565b61408381613f87565b82525050565b600060208201905061409e600083018461407a565b92915050565b6140ad81613f87565b81146140b857600080fd5b50565b6000813590506140ca816140a4565b92915050565b600080600080600080600080610100898b0312156140f1576140f0613d74565b5b60006140ff8b828c01613d95565b985050602089013567ffffffffffffffff8111156141205761411f613d79565b5b61412c8b828c01613eb1565b975050604061413d8b828c01613d95565b965050606061414e8b828c01613d95565b955050608061415f8b828c01613d95565b94505060a06141708b828c01613d95565b93505060c06141818b828c016140bb565b92505060e06141928b828c01613d95565b9150509295985092959890939650565b600061ffff82169050919050565b6141b9816141a2565b82525050565b60006020820190506141d460008301846141b0565b92915050565b6000602082840312156141f0576141ef613d74565b5b60006141fe848285016140bb565b91505092915050565b7f4e487b7100000000000000000000000000000000000000000000000000000000600052602160045260246000fd5b6003811061424757614246614207565b5b50565b600081905061425882614236565b919050565b60006142688261424a565b9050919050565b6142788161425d565b82525050565b6000602082019050614293600083018461426f565b92915050565b6142a281613d36565b82525050565b600082825260208201905092915050565b60006142c482613c84565b6142ce81856142a8565b93506142de818560208601613ca0565b6142e781613cca565b840191505092915050565b600082825260208201905092915050565b600061430e82613f3b565b61431881856142f2565b935061432383613f57565b8060005b8381101561435457815161433b8882613fa8565b975061434683613fc0565b925050600181019050614327565b5085935050505092915050565b6003811061437257614371614207565b5b50565b600081905061438382614361565b919050565b600061439382614375565b9050919050565b6143a381614388565b82525050565b6143b281613c4e565b82525050565b60006101c0830160008301516143d16000860182614299565b50602083015184820360208601526143e982826142b9565b91505060408301516143fe6040860182614299565b5060608301516144116060860182614299565b5060808301516144246080860182614299565b5060a083015161443760a0860182613f99565b5060c083015161444a60c0860182614299565b5060e083015161445d60e0860182614299565b506101008301518482036101008601526144778282614303565b91505061012083015161448e61012086018261439a565b506101408301516144a3610140860182613f99565b506101608301516144b8610160860182613f99565b506101808301516144cd6101808601826143a9565b506101a08301516144e26101a08601826143a9565b508091505092915050565b6000602082019050818103600083015261450781846143b8565b905092915050565b6000819050919050565b6145228161450f565b811461452d57600080fd5b50565b60008135905061453f81614519565b92915050565b60006020828403121561455b5761455a613d74565b5b600061456984828501614530565b91505092915050565b61457b81614388565b82525050565b60006020820190506145966000830184614572565b92915050565b7f4e487b7100000000000000000000000000000000000000000000000000000000600052602260045260246000fd5b600060028204905060018216806145e357607f821691505b6020821081036145f6576145f561459c565b5b50919050565b7f416472657373652064617266206e69636874206469652030783020416472657360008201527f7365207365696e21000000000000000000000000000000000000000000000000602082015250565b6000614658602883613c8f565b9150614663826145fc565b604082019050919050565b600060208201905081810360008301526146878161464b565b9050919050565b7f4b65696e652067c3bc6c7469676520537069656c657261647265737365210000600082015250565b60006146c4601e83613c8f565b91506146cf8261468e565b602082019050919050565b600060208201905081810360008301526146f3816146b7565b9050919050565b7f52657665616c20506861736520686174206e6f6368206e69636874206265676f60008201527f6e6e656e21000000000000000000000000000000000000000000000000000000602082015250565b6000614756602583613c8f565b9150614761826146fa565b604082019050919050565b6000602082019050818103600083015261478581614749565b9050919050565b7f537069656c6572206861742062657265697473207365696e656e20546970702060008201527f766572c3b66666656e746c696368742100000000000000000000000000000000602082015250565b60006147e8603083613c8f565b91506147f38261478c565b604082019050919050565b60006020820190508181036000830152614817816147db565b9050919050565b60008190508160005260206000209050919050565b60006020601f8301049050919050565b600082821b905092915050565b6000600883026148807fffffffffffffffffffffffffffffffffffffffffffffffffffffffffffffffff82614843565b61488a8683614843565b95508019841693508086168417925050509392505050565b6000819050919050565b60006148c76148c26148bd84613d36565b6148a2565b613d36565b9050919050565b6000819050919050565b6148e1836148ac565b6148f56148ed826148ce565b848454614850565b825550505050565b600090565b61490a6148fd565b6149158184846148d8565b505050565b5b818110156149395761492e600082614902565b60018101905061491b565b5050565b601f82111561497e5761494f8161481e565b61495884614833565b81016020851015614967578190505b61497b61497385614833565b83018261491a565b50505b505050565b600082821c905092915050565b60006149a160001984600802614983565b1980831691505092915050565b60006149ba8383614990565b9150826002028217905092915050565b6149d382613c84565b67ffffffffffffffff8111156149ec576149eb613db4565b5b6149f682546145cb565b614a0182828561493d565b600060209050601f831160018114614a345760008415614a22578287015190505b614a2c85826149ae565b865550614a94565b601f198416614a428661481e565b60005b82811015614a6a57848901518255600182019150602085019450602081019050614a45565b86831015614a875784890151614a83601f891682614990565b8355505b6001600288020188555050505b505050505050565b60006040820190508181036000830152614ab68185613cdb565b9050614ac5602083018461426f565b9392505050565b7f4e75722064657220537069656c6c6569746572206b616e6e206469657365204660008201527f756e6b74696f6e20617566727566656e21000000000000000000000000000000602082015250565b6000614b28603183613c8f565b9150614b3382614acc565b604082019050919050565b60006020820190508181036000830152614b5781614b1b565b9050919050565b7f537069656c207775726465206265726569747320696e697469616c697369657260008201527f7421000000000000000000000000000000000000000000000000000000000000602082015250565b6000614bba602283613c8f565b9150614bc582614b5e565b604082019050919050565b60006020820190508181036000830152614be981614bad565b9050919050565b7f4e487b7100000000000000000000000000000000000000000000000000000000600052601160045260246000fd5b6000614c2a82613d36565b9150614c3583613d36565b9250828202614c4381613d36565b91508282048414831517614c5a57614c59614bf0565b5b5092915050565b7f537069656c20697374206e6f6368206e69636874206265656e64657421000000600082015250565b6000614c97601d83613c8f565b9150614ca282614c61565b602082019050919050565b60006020820190508181036000830152614cc681614c8a565b9050919050565b7f4573207775726465206e6f6368206b65696e20476577696e6e6572206765667560008201527f6e64656e21000000000000000000000000000000000000000000000000000000602082015250565b6000614d29602583613c8f565b9150614d3482614ccd565b604082019050919050565b60006020820190508181036000830152614d5881614d1c565b9050919050565b7f4e696368742067656ec3bc67656e6420457468657220696e2064656d2056657260008201527f7472616720756d2064696520537069656c676562c3bc6872206175737a757a6160208201527f686c656e21000000000000000000000000000000000000000000000000000000604082015250565b6000614de1604583613c8f565b9150614dec82614d5f565b606082019050919050565b60006020820190508181036000830152614e1081614dd4565b9050919050565b600081905092915050565b50565b6000614e32600083614e17565b9150614e3d82614e22565b600082019050919050565b6000614e5382614e25565b9150819050919050565b7f53656e64656e20766f6e204574686572206665686c67657363686c6167656e21600082015250565b6000614e93602083613c8f565b9150614e9e82614e5d565b602082019050919050565b60006020820190508181036000830152614ec281614e86565b9050919050565b7f4e75722064657220536965676572206b616e6e2064696573652046756e6b746960008201527f6f6e20617566727566656e210000000000000000000000000000000000000000602082015250565b6000614f25602c83613c8f565b9150614f3082614ec9565b604082019050919050565b60006020820190508181036000830152614f5481614f18565b9050919050565b6000614f6682613d36565b9150614f7183613d36565b9250828201905080821115614f8957614f88614bf0565b5b92915050565b7f4b65696e205072656973706f6f6c20766f7268616e64656e2100000000000000600082015250565b6000614fc5601983613c8f565b9150614fd082614f8f565b602082019050919050565b60006020820190508181036000830152614ff481614fb8565b9050919050565b7f5072656973706f6f6c20726569636874206e696368742061757320756d20646560008201527f6e20476577696e6e6572206175737a757a61686c656e21000000000000000000602082015250565b6000615057603783613c8f565b915061506282614ffb565b604082019050919050565b600060208201905081810360008301526150868161504a565b9050919050565b7f53656e64656e20766f6e20457468657220697374206665686c67657363686c6160008201527f67656e2100000000000000000000000000000000000000000000000000000000602082015250565b60006150e9602483613c8f565b91506150f48261508d565b604082019050919050565b60006020820190508181036000830152615118816150dc565b9050919050565b7f537069656c20686174206e6f6368206e69636874206265676f6e6e656e210000600082015250565b6000615155601e83613c8f565b91506151608261511f565b602082019050919050565b6000602082019050818103600083015261518481615148565b9050919050565b7f537069656c6c6569746572206b616e6e206e6963687420616d20656967656e6560008201527f6e20537069656c207465696c6e65686d656e2100000000000000000000000000602082015250565b60006151e7603383613c8f565b91506151f28261518b565b604082019050919050565b60006020820190508181036000830152615216816151da565b9050919050565b7f556e7a757265696368656e646572204265747261673a204269747465207a616860008201527f6c656e205369652064656e2045696e7361747a2c20646965206472656966616360208201527f6865204b617574696f6e20756e642064696520537069656c676562c3bc687221604082015250565b600061529f606083613c8f565b91506152aa8261521d565b606082019050919050565b600060208201905081810360008301526152ce81615292565b9050919050565b7f537069656c6572206973742064656d20537069656c206265726569747320626560008201527f69676574726574656e2100000000000000000000000000000000000000000000602082015250565b6000615331602a83613c8f565b915061533c826152d5565b604082019050919050565b6000602082019050818103600083015261536081615324565b9050919050565b7f4e487b7100000000000000000000000000000000000000000000000000000000600052603260045260246000fd5b60006153a182613d36565b91507fffffffffffffffffffffffffffffffffffffffffffffffffffffffffffffffff82036153d3576153d2614bf0565b5b600182019050919050565b7f52657665616c205068617365206b616e6e206e7572206765737461727465742060008201527f77657264656e2c2077656e6e20616b7475656c6c2064696520436f6d6d69742060208201527f5068617365206973742100000000000000000000000000000000000000000000604082015250565b6000615460604a83613c8f565b915061546b826153de565b606082019050919050565b6000602082019050818103600083015261548f81615453565b9050919050565b7f4d696e64657374656e73203320537069656c65722077657264656e2062656ec360008201527fb67469677420756d2064617320537069656c207a75207374617274656e210000602082015250565b60006154f2603e83613c8f565b91506154fd82615496565b604082019050919050565b60006020820190508181036000830152615521816154e5565b9050919050565b600081905092915050565b7f4d696e64657374656e7320000000000000000000000000000000000000000000600082015250565b6000615569600b83615528565b915061557482615533565b600b82019050919050565b60008160f01b9050919050565b60006155978261557f565b9050919050565b6155af6155aa826141a2565b61558c565b82525050565b7f20426cc3b6636b65206dc3bc7373656e2076657267616e67656e207365696e2060008201527f756d2065696e652052c3bc636b65727374617474756e67207a75206265616e7460208201527f726167656e210000000000000000000000000000000000000000000000000000604082015250565b6000615637604683615528565b9150615642826155b5565b604682019050919050565b60006156588261555c565b9150615664828461559e565b6002820191506156738261562a565b915081905092915050565b6000819050919050565b61569961569482613d36565b61567e565b82525050565b60006156aa82613c84565b6156b48185615528565b93506156c4818560208601613ca0565b80840191505092915050565b60006156dc8285615688565b6020820191506156ec828461569f565b91508190509392505050565b7f4e696368742067656ec3bc67656e6420457468657220696e2064656d2056657260008201527f7472616720756d20646965204b617574696f6e206175737a757a61686c656e21602082015250565b6000615754604083613c8f565b915061575f826156f8565b604082019050919050565b6000602082019050818103600083015261578381615747565b9050919050565b7f48696e7465726c65677465204b617574696f6e20726569636874206e6963687460008201527f2061757321000000000000000000000000000000000000000000000000000000602082015250565b60006157e6602583613c8f565b91506157f18261578a565b604082019050919050565b60006020820190508181036000830152615815816157d9565b9050919050565b7f4b617574696f6e20777572646520626572656974732061757367657a61686c7460008201527f2100000000000000000000000000000000000000000000000000000000000000602082015250565b6000615878602183613c8f565b91506158838261581c565b604082019050919050565b600060208201905081810360008301526158a78161586b565b9050919050565b7f537069656c657220686174207365696e656e2054697070206e6963687420766560008201527f72c3b66666656e746c6963687421000000000000000000000000000000000000602082015250565b600061590a602e83613c8f565b9150615915826158ae565b604082019050919050565b60006020820190508181036000830152615939816158fd565b9050919050565b600061594b82613d36565b915061595683613d36565b925082820390508181111561596e5761596d614bf0565b5b92915050565b7f4e487b7100000000000000000000000000000000000000000000000000000000600052601260045260246000fd5b60006159ae82613d36565b91506159b983613d36565b9250826159c9576159c8615974565b5b828204905092915050565b600060408201905081810360008301526159ee8185613cdb565b90506159fd602083018461407a565b9392505050565b6000615a0f82613f67565b9050919050565b60008160601b9050919050565b6000615a2e82615a16565b9050919050565b6000615a4082615a23565b9050919050565b615a58615a5382615a04565b615a35565b82525050565b6000615a6a8288615688565b602082019150615a7a8287615688565b602082019150615a8a8286615a47565b601482019150615a9a8285615688565b602082019150615aaa8284615688565b6020820191508190509695505050505050565b600081519050919050565b6000615ad382615abd565b615add8185614e17565b9350615aed818560208601613ca0565b80840191505092915050565b6000615b058286615ac8565b9150615b118285615688565b602082019150615b21828461569f565b9150819050949350505050565b6000615b3982613d36565b9150615b4483613d36565b925082615b5457615b53615974565b5b828206905092915050565b6000606082019050615b746000830186613d40565b615b816020830185613d40565b615b8e6040830184613d40565b949350505050565b6000604082019050615bab6000830185613d40565b615bb86020830184613d40565b9392505050565b7f4e487b7100000000000000000000000000000000000000000000000000000000600052605160045260246000fdfe506c617965722072657665616c656420746865697220636f72726563742067756573734e6f20706f74656e7469616c2077696e6e65727320666f756e642c20726566756e64696e672065766572796f6e65207468656972206d6f6e6579506c617965722072657665616c656420746865697220636f72726563742076616c756573506c617965722072657665616c656420616e20696e636f72726563742067756573732c20636f6c6c61746572616c2077696c6c206e6f7420626520726566756e646564416e6f7468657220706f74656e7469616c2077696e6e657220666f756e6420776974682073616d652064697374616e63654e657720706f74656e7469616c2077696e6e657220666f756e6420776974682064697374616e6365436f6d6d697420506861736520656e6465642c2052657665616c2050686173652073746172746564a26469706673582212207de4e63a4fa123d2636479132ed90ff8d7b0ab06efa1c061fa9435a6feea4cec64736f6c63430008180033",
  "linkReferences": {},
  "deployedLinkReferences": {}
}