{
  "_format": "hh-sol-artifact-1",
  "contractName": "AverageGame",
  "sourceName": "contracts/AverageGame.sol",
  "abi": [
    {
      "inputs": [
        {
          "internalType": "uint256",
          "name": "x",
          "type": "uint256"
        },
        {
          "internalType": "uint256",
          "name": "y",
          "type": "uint256"
        }
      ],
      "name": "PRBMath_MulDiv18_Overflow",
      "type": "error"
    },
    {
      "inputs": [
        {
          "internalType": "uint256",
          "name": "x",
          "type": "uint256"
        },
        {
          "internalType": "uint256",
          "name": "y",
          "type": "uint256"
        },
        {
          "internalType": "uint256",
          "name": "denominator",
          "type": "uint256"
        }
      ],
      "name": "PRBMath_MulDiv_Overflow",
      "type": "error"
    },
    {
      "inputs": [
        {
          "internalType": "uint256",
          "name": "x",
          "type": "uint256"
        }
      ],
      "name": "PRBMath_UD60x18_Convert_Overflow",
      "type": "error"
    },
    {
      "inputs": [],
      "name": "ReentrancyGuardReentrantCall",
      "type": "error"
    },
    {
      "anonymous": false,
      "inputs": [
        {
          "indexed": true,
          "internalType": "uint256",
          "name": "gameId",
          "type": "uint256"
        }
      ],
      "name": "BettingRoundClosed",
      "type": "event"
    },
    {
      "anonymous": false,
      "inputs": [
        {
          "indexed": true,
          "internalType": "uint256",
          "name": "gameId",
          "type": "uint256"
        },
        {
          "indexed": true,
          "internalType": "address",
          "name": "player",
          "type": "address"
        },
        {
          "indexed": true,
          "internalType": "uint256",
          "name": "amount",
          "type": "uint256"
        }
      ],
      "name": "CollateralDeposited",
      "type": "event"
    },
    {
      "anonymous": false,
      "inputs": [
        {
          "indexed": true,
          "internalType": "uint256",
          "name": "gameId",
          "type": "uint256"
        },
        {
          "indexed": true,
          "internalType": "address",
          "name": "player",
          "type": "address"
        },
        {
          "indexed": true,
          "internalType": "uint256",
          "name": "amount",
          "type": "uint256"
        }
      ],
      "name": "FeeCollected",
      "type": "event"
    },
    {
      "anonymous": false,
      "inputs": [
        {
          "indexed": true,
          "internalType": "uint256",
          "name": "gameId",
          "type": "uint256"
        }
      ],
      "name": "GameCreated",
      "type": "event"
    },
    {
      "anonymous": false,
      "inputs": [
        {
          "indexed": true,
          "internalType": "uint256",
          "name": "gameId",
          "type": "uint256"
        }
      ],
      "name": "GameEnded",
      "type": "event"
    },
    {
      "anonymous": false,
      "inputs": [
        {
          "indexed": true,
          "internalType": "uint256",
          "name": "gameId",
          "type": "uint256"
        },
        {
          "indexed": true,
          "internalType": "address",
          "name": "player",
          "type": "address"
        },
        {
          "indexed": true,
          "internalType": "uint256",
          "name": "totalPlayersAmount",
          "type": "uint256"
        }
      ],
      "name": "PlayerJoined",
      "type": "event"
    },
    {
      "anonymous": false,
      "inputs": [
        {
          "indexed": true,
          "internalType": "uint256",
          "name": "gameId",
          "type": "uint256"
        },
        {
          "indexed": true,
          "internalType": "address",
          "name": "player",
          "type": "address"
        },
        {
          "indexed": true,
          "internalType": "uint256",
          "name": "amount",
          "type": "uint256"
        }
      ],
      "name": "PlayerRefunded",
      "type": "event"
    },
    {
      "anonymous": false,
      "inputs": [
        {
          "indexed": true,
          "internalType": "uint256",
          "name": "gameId",
          "type": "uint256"
        },
        {
          "indexed": true,
          "internalType": "address",
          "name": "player",
          "type": "address"
        },
        {
          "indexed": true,
          "internalType": "uint256",
          "name": "guess",
          "type": "uint256"
        },
        {
          "indexed": false,
          "internalType": "string",
          "name": "salt",
          "type": "string"
        },
        {
          "indexed": false,
          "internalType": "enum AverageGame.RevealState",
          "name": "revealState",
          "type": "uint8"
        }
      ],
      "name": "PlayerRevealedGuess",
      "type": "event"
    },
    {
      "anonymous": false,
      "inputs": [
        {
          "indexed": true,
          "internalType": "uint256",
          "name": "gameId",
          "type": "uint256"
        },
        {
          "indexed": true,
          "internalType": "address",
          "name": "player",
          "type": "address"
        },
        {
          "indexed": true,
          "internalType": "uint256",
          "name": "amount",
          "type": "uint256"
        },
        {
          "indexed": false,
          "internalType": "uint256",
          "name": "guess",
          "type": "uint256"
        }
      ],
      "name": "PrizeAwarded",
      "type": "event"
    },
    {
      "anonymous": false,
      "inputs": [
        {
          "indexed": true,
          "internalType": "uint256",
          "name": "gameId",
          "type": "uint256"
        },
        {
          "indexed": true,
          "internalType": "address",
          "name": "winner",
          "type": "address"
        },
        {
          "indexed": true,
          "internalType": "uint256",
          "name": "amount",
          "type": "uint256"
        }
      ],
      "name": "WinnerSelected",
      "type": "event"
    },
    {
      "inputs": [],
      "name": "betAmount",
      "outputs": [
        {
          "internalType": "uint256",
          "name": "",
          "type": "uint256"
        }
      ],
      "stateMutability": "view",
      "type": "function"
    },
    {
      "inputs": [],
      "name": "blockNumber",
      "outputs": [
        {
          "internalType": "uint256",
          "name": "",
          "type": "uint256"
        }
      ],
      "stateMutability": "view",
      "type": "function"
    },
    {
      "inputs": [],
      "name": "closeBettingRound",
      "outputs": [],
      "stateMutability": "nonpayable",
      "type": "function"
    },
    {
      "inputs": [],
      "name": "collateralAmount",
      "outputs": [
        {
          "internalType": "uint256",
          "name": "",
          "type": "uint256"
        }
      ],
      "stateMutability": "view",
      "type": "function"
    },
    {
      "inputs": [],
      "name": "endGame",
      "outputs": [],
      "stateMutability": "nonpayable",
      "type": "function"
    },
    {
      "inputs": [],
      "name": "gameFee",
      "outputs": [
        {
          "internalType": "uint256",
          "name": "",
          "type": "uint256"
        }
      ],
      "stateMutability": "view",
      "type": "function"
    },
    {
      "inputs": [],
      "name": "gameMaster",
      "outputs": [
        {
          "internalType": "address",
          "name": "",
          "type": "address"
        }
      ],
      "stateMutability": "view",
      "type": "function"
    },
    {
      "inputs": [],
      "name": "getBalance",
      "outputs": [
        {
          "internalType": "uint256",
          "name": "",
          "type": "uint256"
        }
      ],
      "stateMutability": "view",
      "type": "function"
    },
    {
      "inputs": [
        {
          "internalType": "address",
          "name": "_player",
          "type": "address"
        }
      ],
      "name": "getPlayerRevealedState",
      "outputs": [
        {
          "internalType": "enum AverageGame.RevealState",
          "name": "",
          "type": "uint8"
        }
      ],
      "stateMutability": "view",
      "type": "function"
    },
    {
      "inputs": [],
      "name": "getPlayers",
      "outputs": [
        {
          "internalType": "address[]",
          "name": "",
          "type": "address[]"
        }
      ],
      "stateMutability": "view",
      "type": "function"
    },
    {
      "inputs": [],
      "name": "getPotentialWinners",
      "outputs": [
        {
          "internalType": "address[]",
          "name": "",
          "type": "address[]"
        }
      ],
      "stateMutability": "view",
      "type": "function"
    },
    {
      "inputs": [],
      "name": "id",
      "outputs": [
        {
          "internalType": "uint256",
          "name": "",
          "type": "uint256"
        }
      ],
      "stateMutability": "view",
      "type": "function"
    },
    {
      "inputs": [
        {
          "internalType": "uint256",
          "name": "_gameId",
          "type": "uint256"
        },
        {
          "internalType": "string",
          "name": "_name",
          "type": "string"
        },
        {
          "internalType": "uint256",
          "name": "_minGuess",
          "type": "uint256"
        },
        {
          "internalType": "uint256",
          "name": "_maxGuess",
          "type": "uint256"
        },
        {
          "internalType": "uint256",
          "name": "_maxPlayers",
          "type": "uint256"
        },
        {
          "internalType": "uint256",
          "name": "_betAmount",
          "type": "uint256"
        },
        {
          "internalType": "address",
          "name": "_gameMaster",
          "type": "address"
        },
        {
          "internalType": "uint256",
          "name": "_gameFee",
          "type": "uint256"
        }
      ],
      "name": "initGame",
      "outputs": [],
      "stateMutability": "payable",
      "type": "function"
    },
    {
      "inputs": [
        {
          "internalType": "bytes32",
          "name": "_guess",
          "type": "bytes32"
        }
      ],
      "name": "joinGame",
      "outputs": [],
      "stateMutability": "payable",
      "type": "function"
    },
    {
      "inputs": [],
      "name": "maxGuess",
      "outputs": [
        {
          "internalType": "uint256",
          "name": "",
          "type": "uint256"
        }
      ],
      "stateMutability": "view",
      "type": "function"
    },
    {
      "inputs": [],
      "name": "maxPlayers",
      "outputs": [
        {
          "internalType": "uint256",
          "name": "",
          "type": "uint256"
        }
      ],
      "stateMutability": "view",
      "type": "function"
    },
    {
      "inputs": [],
      "name": "minGuess",
      "outputs": [
        {
          "internalType": "uint256",
          "name": "",
          "type": "uint256"
        }
      ],
      "stateMutability": "view",
      "type": "function"
    },
    {
      "inputs": [],
      "name": "name",
      "outputs": [
        {
          "internalType": "string",
          "name": "",
          "type": "string"
        }
      ],
      "stateMutability": "view",
      "type": "function"
    },
    {
      "inputs": [
        {
          "internalType": "uint256",
          "name": "",
          "type": "uint256"
        }
      ],
      "name": "potentialWinners",
      "outputs": [
        {
          "internalType": "address",
          "name": "",
          "type": "address"
        }
      ],
      "stateMutability": "view",
      "type": "function"
    },
    {
      "inputs": [],
      "name": "requestRefund",
      "outputs": [],
      "stateMutability": "nonpayable",
      "type": "function"
    },
    {
      "inputs": [
        {
          "internalType": "uint256",
          "name": "_guess",
          "type": "uint256"
        },
        {
          "internalType": "string",
          "name": "_salt",
          "type": "string"
        }
      ],
      "name": "revealGuess",
      "outputs": [],
      "stateMutability": "nonpayable",
      "type": "function"
    },
    {
      "inputs": [],
      "name": "rewardClaimed",
      "outputs": [
        {
          "internalType": "bool",
          "name": "",
          "type": "bool"
        }
      ],
      "stateMutability": "view",
      "type": "function"
    },
    {
      "inputs": [],
      "name": "state",
      "outputs": [
        {
          "internalType": "enum AverageGame.GameState",
          "name": "",
          "type": "uint8"
        }
      ],
      "stateMutability": "view",
      "type": "function"
    },
    {
      "inputs": [],
      "name": "totalBetAmount",
      "outputs": [
        {
          "internalType": "uint256",
          "name": "",
          "type": "uint256"
        }
      ],
      "stateMutability": "view",
      "type": "function"
    },
    {
      "inputs": [],
      "name": "totalCollateralAmount",
      "outputs": [
        {
          "internalType": "uint256",
          "name": "",
          "type": "uint256"
        }
      ],
      "stateMutability": "view",
      "type": "function"
    },
    {
      "inputs": [],
      "name": "totalPlayers",
      "outputs": [
        {
          "internalType": "uint256",
          "name": "",
          "type": "uint256"
        }
      ],
      "stateMutability": "view",
      "type": "function"
    },
    {
      "inputs": [],
      "name": "winner",
      "outputs": [
        {
          "internalType": "address",
          "name": "",
          "type": "address"
        }
      ],
      "stateMutability": "view",
      "type": "function"
    },
    {
      "inputs": [],
      "name": "withdrawGameFees",
      "outputs": [],
      "stateMutability": "nonpayable",
      "type": "function"
    },
    {
      "inputs": [
        {
          "internalType": "address",
          "name": "_winner",
          "type": "address"
        }
      ],
      "name": "withdrawPricepool",
      "outputs": [],
      "stateMutability": "nonpayable",
      "type": "function"
    }
  ],
  "bytecode": "0x608060405234801561001057600080fd5b50600160008190555061533a806100286000396000f3fe6080604052600436106101c25760003560e01c80636cbc2ded116100f7578063bf47476611610095578063d5cef13311610064578063d5cef133146105c0578063dfbf53ae146105d7578063ea777eec14610602578063f60cdcf61461062d576101c2565b8063bf47476614610523578063c19d93fb1461053f578063d24257c01461056a578063d2e66e9d14610595576101c2565b80639b9922e8116100d15780639b9922e81461048d578063ab8a2873146104a4578063af640d0f146104cd578063bdf84ae7146104f8576101c2565b80636cbc2ded146104205780638b5b9ccc1461043757806392d09ceb14610462576101c2565b806339c4268f11610164578063574d6d7e1161013e578063574d6d7e1461036257806357e871e71461039f578063613f4594146103ca57806363f31d2c146103f5576101c2565b806339c4268f146102f05780634c2412a21461030c5780635530e51014610337576101c2565b806312b5afc1116101a057806312b5afc11461024857806318d3851b146102715780631af08b051461029c5780632007adf0146102d9576101c2565b806301b62b78146101c757806306fdde03146101f257806312065fe01461021d575b600080fd5b3480156101d357600080fd5b506101dc610658565b6040516101e9919061381a565b60405180910390f35b3480156101fe57600080fd5b5061020761066b565b60405161021491906138c5565b60405180910390f35b34801561022957600080fd5b506102326106f9565b60405161023f9190613900565b60405180910390f35b34801561025457600080fd5b5061026f600480360381019061026a9190613a90565b610701565b005b34801561027d57600080fd5b50610286610b05565b6040516102939190613bdc565b60405180910390f35b3480156102a857600080fd5b506102c360048036038101906102be9190613bfe565b610c23565b6040516102d09190613c3a565b60405180910390f35b3480156102e557600080fd5b506102ee610c62565b005b61030a60048036038101906103059190613c81565b610e4e565b005b34801561031857600080fd5b506103216110d0565b60405161032e9190613900565b60405180910390f35b34801561034357600080fd5b5061034c6110d6565b6040516103599190613900565b60405180910390f35b34801561036e57600080fd5b5061038960048036038101906103849190613d53565b6110dc565b6040516103969190613df7565b60405180910390f35b3480156103ab57600080fd5b506103b4611132565b6040516103c19190613900565b60405180910390f35b3480156103d657600080fd5b506103df611138565b6040516103ec9190613900565b60405180910390f35b34801561040157600080fd5b5061040a61113e565b6040516104179190613900565b60405180910390f35b34801561042c57600080fd5b50610435611144565b005b34801561044357600080fd5b5061044c61134c565b6040516104599190613bdc565b60405180910390f35b34801561046e57600080fd5b506104776113da565b6040516104849190613900565b60405180910390f35b34801561049957600080fd5b506104a26113e0565b005b3480156104b057600080fd5b506104cb60048036038101906104c69190613d53565b6116d8565b005b3480156104d957600080fd5b506104e2611aa1565b6040516104ef9190613900565b60405180910390f35b34801561050457600080fd5b5061050d611aa7565b60405161051a9190613c3a565b60405180910390f35b61053d60048036038101906105389190613e48565b611acd565b005b34801561054b57600080fd5b50610554611f5a565b6040516105619190613ebd565b60405180910390f35b34801561057657600080fd5b5061057f611f6d565b60405161058c9190613900565b60405180910390f35b3480156105a157600080fd5b506105aa611f73565b6040516105b79190613900565b60405180910390f35b3480156105cc57600080fd5b506105d5611f79565b005b3480156105e357600080fd5b506105ec612002565b6040516105f99190613c3a565b60405180910390f35b34801561060e57600080fd5b50610617612028565b6040516106249190613900565b60405180910390f35b34801561063957600080fd5b5061064261202e565b60405161064f9190613900565b60405180910390f35b601360019054906101000a900460ff1681565b600e805461067890613f07565b80601f01602080910402602001604051908101604052809291908181526020018280546106a490613f07565b80156106f15780601f106106c6576101008083540402835291602001916106f1565b820191906000526020600020905b8154815290600101906020018083116106d457829003601f168201915b505050505081565b600047905090565b33600073ffffffffffffffffffffffffffffffffffffffff168173ffffffffffffffffffffffffffffffffffffffff1603610771576040517f08c379a000000000000000000000000000000000000000000000000000000000815260040161076890613f84565b60405180910390fd5b601560008273ffffffffffffffffffffffffffffffffffffffff1673ffffffffffffffffffffffffffffffffffffffff16815260200190815260200160002060009054906101000a900460ff166107fd576040517f08c379a00000000000000000000000000000000000000000000000000000000081526004016107f490613ff0565b60405180910390fd5b6001600281111561081157610810613d80565b5b601360029054906101000a900460ff16600281111561083357610832613d80565b5b14610873576040517f08c379a000000000000000000000000000000000000000000000000000000000815260040161086a9061405c565b60405180910390fd5b6000601660003373ffffffffffffffffffffffffffffffffffffffff1673ffffffffffffffffffffffffffffffffffffffff16815260200190815260200160002060009054906101000a900460ff169050600060028111156108d8576108d7613d80565b5b8160028111156108eb576108ea613d80565b5b1461092b576040517f08c379a0000000000000000000000000000000000000000000000000000000008152600401610922906140ee565b60405180910390fd5b83601860003373ffffffffffffffffffffffffffffffffffffffff1673ffffffffffffffffffffffffffffffffffffffff1681526020019081526020016000208190555082601760003373ffffffffffffffffffffffffffffffffffffffff1673ffffffffffffffffffffffffffffffffffffffff16815260200190815260200160002090816109bb91906142ba565b506109c533612034565b905080601660003373ffffffffffffffffffffffffffffffffffffffff1673ffffffffffffffffffffffffffffffffffffffff16815260200190815260200160002060006101000a81548160ff02191690836002811115610a2957610a28613d80565b5b021790555060016002811115610a4257610a41613d80565b5b816002811115610a5557610a54613d80565b5b03610a8957610a7b6040518060600160405280602381526020016151e8602391396121d2565b610a843361226b565b610aab565b610aaa604051806080016040528060438152602001615269604391396121d2565b5b833373ffffffffffffffffffffffffffffffffffffffff166001547fc9ad6e2d9cbbc2bb01b8cc1f583b96db524df608a369862103461d0fde31dfa58685604051610af792919061438c565b60405180910390a450505050565b60603373ffffffffffffffffffffffffffffffffffffffff16600f60009054906101000a900473ffffffffffffffffffffffffffffffffffffffff1673ffffffffffffffffffffffffffffffffffffffff1614610b97576040517f08c379a0000000000000000000000000000000000000000000000000000000008152600401610b8e9061442e565b60405180910390fd5b6012805480602002602001604051908101604052809291908181526020018280548015610c1957602002820191906000526020600020905b8160009054906101000a900473ffffffffffffffffffffffffffffffffffffffff1673ffffffffffffffffffffffffffffffffffffffff1681526020019060010190808311610bcf575b5050505050905090565b60128181548110610c3357600080fd5b906000526020600020016000915054906101000a900473ffffffffffffffffffffffffffffffffffffffff1681565b3373ffffffffffffffffffffffffffffffffffffffff16600f60009054906101000a900473ffffffffffffffffffffffffffffffffffffffff1673ffffffffffffffffffffffffffffffffffffffff1614610cf2576040517f08c379a0000000000000000000000000000000000000000000000000000000008152600401610ce99061442e565b60405180910390fd5b60006002811115610d0657610d05613d80565b5b601360029054906101000a900460ff166002811115610d2857610d27613d80565b5b14610d68576040517f08c379a0000000000000000000000000000000000000000000000000000000008152600401610d5f9061449a565b60405180910390fd5b600380541015610dad576040517f08c379a0000000000000000000000000000000000000000000000000000000008152600401610da49061452c565b60405180910390fd5b6001601360026101000a81548160ff02191690836002811115610dd357610dd2613d80565b5b021790555043600d81905550610e1d6040518060400160405280601481526020017f42657474696e6720726f756e6420636c6f7365640000000000000000000000008152506121d2565b6001547f1af5706848593978661e03a58b13e34204b40f58afbc193a44b1f17e0b40db6360405160405180910390a2565b601360009054906101000a900460ff1615610e9e576040517f08c379a0000000000000000000000000000000000000000000000000000000008152600401610e9590614598565b60405180910390fd5b8760018190555086600e9081610eb491906142ba565b5085600881905550846009819055508360028190555082600481905550600383610ede91906145e7565b60058190555060025467ffffffffffffffff811115610f0057610eff613965565b5b604051908082528060200260200182016040528015610f2e5781602001602082028036833780820191505090505b5060119080519060200190610f4492919061374e565b506000601360026101000a81548160ff02191690836002811115610f6b57610f6a613d80565b5b021790555080600a819055506001601360006101000a81548160ff02191690831515021790555081600f60006101000a81548173ffffffffffffffffffffffffffffffffffffffff021916908373ffffffffffffffffffffffffffffffffffffffff1602179055506110126040518060400160405280601081526020017f47616d6520696e697469616c697a65640000000000000000000000000000000081525084612567565b6110516040518060400160405280600381526020017f466565000000000000000000000000000000000000000000000000000000000081525082612567565b6110926040518060400160405280600a81526020017f436f6c6c61746572616c00000000000000000000000000000000000000000000815250600554612567565b43600d81905550877fbd19c47e9925eb6f7be8bb1c13a841e0240aaeaf17f217e90022e9c8eb66877f60405160405180910390a25050505050505050565b60025481565b60095481565b6000601660008373ffffffffffffffffffffffffffffffffffffffff1673ffffffffffffffffffffffffffffffffffffffff16815260200190815260200160002060009054906101000a900460ff169050919050565b600d5481565b60065481565b60075481565b3373ffffffffffffffffffffffffffffffffffffffff16600f60009054906101000a900473ffffffffffffffffffffffffffffffffffffffff1673ffffffffffffffffffffffffffffffffffffffff16146111d4576040517f08c379a00000000000000000000000000000000000000000000000000000000081526004016111cb9061442e565b60405180910390fd5b600160028111156111e8576111e7613d80565b5b601360029054906101000a900460ff16600281111561120a57611209613d80565b5b1461124a576040517f08c379a00000000000000000000000000000000000000000000000000000000081526004016112419061405c565b60405180910390fd5b611252612603565b6002601360026101000a81548160ff0219169083600281111561127857611277613d80565b5b02179055507fffffffffffffffffffffffffffffffffffffffffffffffffffffffffffffffff600c54036112d4576112ae612a3d565b6112cf6040518060600160405280603a815260200161520b603a91396121d2565b61131b565b6112dc612c20565b61131a6040518060400160405280601b81526020017f57696e6e65722073656c65637465642c2067616d6520656e64656400000000008152506121d2565b5b6001547fce24807f7e4b60b4e641462f13029fa5e5f79075bbc3f8e5cd43ecd19661d76060405160405180910390a2565b606060118054806020026020016040519081016040528092919081815260200182805480156113d057602002820191906000526020600020905b8160009054906101000a900473ffffffffffffffffffffffffffffffffffffffff1673ffffffffffffffffffffffffffffffffffffffff1681526020019060010190808311611386575b5050505050905090565b60055481565b3373ffffffffffffffffffffffffffffffffffffffff16600f60009054906101000a900473ffffffffffffffffffffffffffffffffffffffff1673ffffffffffffffffffffffffffffffffffffffff1614611470576040517f08c379a00000000000000000000000000000000000000000000000000000000081526004016114679061442e565b60405180910390fd5b611478612e7c565b60028081111561148b5761148a613d80565b5b601360029054906101000a900460ff1660028111156114ad576114ac613d80565b5b146114ed576040517f08c379a00000000000000000000000000000000000000000000000000000000081526004016114e49061405c565b60405180910390fd5b600073ffffffffffffffffffffffffffffffffffffffff16601060009054906101000a900473ffffffffffffffffffffffffffffffffffffffff1673ffffffffffffffffffffffffffffffffffffffff160361157e576040517f08c379a000000000000000000000000000000000000000000000000000000000815260040161157590614675565b60405180910390fd5b600b546115896106f9565b10156115ca576040517f08c379a00000000000000000000000000000000000000000000000000000000081526004016115c190614707565b60405180910390fd5b6000600b5490506000600b8190555060003373ffffffffffffffffffffffffffffffffffffffff16826040516115ff90614758565b60006040518083038185875af1925050503d806000811461163c576040519150601f19603f3d011682016040523d82523d6000602084013e611641565b606091505b5050905080611685576040517f08c379a000000000000000000000000000000000000000000000000000000000815260040161167c906147b9565b60405180910390fd5b813373ffffffffffffffffffffffffffffffffffffffff166001547ff1d6c8ee14081f641e2073a1064d870f135f1001a301c6b14a7b9655672fec1160405160405180910390a450506116d6612ec2565b565b6117396040518060400160405280600781526020017f57696e6e65723a00000000000000000000000000000000000000000000000000815250601060009054906101000a900473ffffffffffffffffffffffffffffffffffffffff16612ecc565b6117786040518060400160405280600a81526020017f4d73672e73656e6465720000000000000000000000000000000000000000000081525033612ecc565b3373ffffffffffffffffffffffffffffffffffffffff16601060009054906101000a900473ffffffffffffffffffffffffffffffffffffffff1673ffffffffffffffffffffffffffffffffffffffff1614611808576040517f08c379a00000000000000000000000000000000000000000000000000000000081526004016117ff9061484b565b60405180910390fd5b611810612e7c565b60028081111561182357611822613d80565b5b601360029054906101000a900460ff16600281111561184557611844613d80565b5b14611885576040517f08c379a000000000000000000000000000000000000000000000000000000000815260040161187c9061405c565b60405180910390fd5b6000600754600654611897919061486b565b9050600081116118dc576040517f08c379a00000000000000000000000000000000000000000000000000000000081526004016118d3906148eb565b60405180910390fd5b806118e56106f9565b1015611926576040517f08c379a000000000000000000000000000000000000000000000000000000000815260040161191d9061497d565b60405180910390fd5b600060068190555060006007819055506001601360016101000a81548160ff02191690831515021790555060008273ffffffffffffffffffffffffffffffffffffffff168260405161197790614758565b60006040518083038185875af1925050503d80600081146119b4576040519150601f19603f3d011682016040523d82523d6000602084013e6119b9565b606091505b50509050806119fd576040517f08c379a00000000000000000000000000000000000000000000000000000000081526004016119f4906147b9565b60405180910390fd5b6000601860008573ffffffffffffffffffffffffffffffffffffffff1673ffffffffffffffffffffffffffffffffffffffff168152602001908152602001600020549050828473ffffffffffffffffffffffffffffffffffffffff166001547f16b695a62f925592d6d20c814bb52013e1fa726fabbb8579841359c2794f305184604051611a8b9190613900565b60405180910390a4505050611a9e612ec2565b50565b60015481565b600f60009054906101000a900473ffffffffffffffffffffffffffffffffffffffff1681565b60006002811115611ae157611ae0613d80565b5b601360029054906101000a900460ff166002811115611b0357611b02613d80565b5b14611b43576040517f08c379a0000000000000000000000000000000000000000000000000000000008152600401611b3a9061449a565b60405180910390fd5b600f60009054906101000a900473ffffffffffffffffffffffffffffffffffffffff1673ffffffffffffffffffffffffffffffffffffffff163373ffffffffffffffffffffffffffffffffffffffff1603611bd3576040517f08c379a0000000000000000000000000000000000000000000000000000000008152600401611bca90614a0f565b60405180910390fd5b600a54600454600554611be6919061486b565b611bf0919061486b565b3414611c31576040517f08c379a0000000000000000000000000000000000000000000000000000000008152600401611c2890614aed565b60405180910390fd5b601560003373ffffffffffffffffffffffffffffffffffffffff1673ffffffffffffffffffffffffffffffffffffffff16815260200190815260200160002060009054906101000a900460ff1615611cbe576040517f08c379a0000000000000000000000000000000000000000000000000000000008152600401611cb590614b7f565b60405180910390fd5b60045460066000828254611cd2919061486b565b9250508190555060055460076000828254611ced919061486b565b92505081905550600554601960003373ffffffffffffffffffffffffffffffffffffffff1673ffffffffffffffffffffffffffffffffffffffff16815260200190815260200160002081905550600a54600b6000828254611d4e919061486b565b9250508190555080601460003373ffffffffffffffffffffffffffffffffffffffff1673ffffffffffffffffffffffffffffffffffffffff1681526020019081526020016000208190555033601160035481548110611db057611daf614b9f565b5b9060005260206000200160006101000a81548173ffffffffffffffffffffffffffffffffffffffff021916908373ffffffffffffffffffffffffffffffffffffffff1602179055506001601560003373ffffffffffffffffffffffffffffffffffffffff1673ffffffffffffffffffffffffffffffffffffffff16815260200190815260200160002060006101000a81548160ff0219169083151502179055506000601660003373ffffffffffffffffffffffffffffffffffffffff1673ffffffffffffffffffffffffffffffffffffffff16815260200190815260200160002060006101000a81548160ff02191690836002811115611eb357611eb2613d80565b5b021790555060036000815480929190611ecb90614bce565b9190505550611f0e6040518060400160405280601681526020017f506c61796572206a6f696e6564207468652067616d65000000000000000000008152506121d2565b6003543373ffffffffffffffffffffffffffffffffffffffff166001547f03dfbe1fcb4e2d61f3b4a0c93d8f814c92250618b3387f396cc9fc9fafe2c20360405160405180910390a450565b601360029054906101000a900460ff1681565b60045481565b60085481565b43600a600d54611f89919061486b565b10611fc9576040517f08c379a0000000000000000000000000000000000000000000000000000000008152600401611fc090614cae565b60405180910390fd5b611fd1612a3d565b6001547fce24807f7e4b60b4e641462f13029fa5e5f79075bbc3f8e5cd43ecd19661d76060405160405180910390a2565b601060009054906101000a900473ffffffffffffffffffffffffffffffffffffffff1681565b600a5481565b60035481565b600080601860008473ffffffffffffffffffffffffffffffffffffffff1673ffffffffffffffffffffffffffffffffffffffff1681526020019081526020016000205490506000601760008573ffffffffffffffffffffffffffffffffffffffff1673ffffffffffffffffffffffffffffffffffffffff16815260200190815260200160002080546120c590613f07565b80601f01602080910402602001604051908101604052809291908181526020018280546120f190613f07565b801561213e5780601f106121135761010080835404028352916020019161213e565b820191906000526020600020905b81548152906001019060200180831161212157829003601f168201915b505050505090506000601460008673ffffffffffffffffffffffffffffffffffffffff1673ffffffffffffffffffffffffffffffffffffffff1681526020019081526020016000205490506000838360405160200161219e929190614d2b565b6040516020818303038152906040528051906020012090508181146121c45760026121c7565b60015b945050505050919050565b612268816040516024016121e691906138c5565b6040516020818303038152906040527f41304fac000000000000000000000000000000000000000000000000000000007bffffffffffffffffffffffffffffffffffffffffffffffffffffffff19166020820180517bffffffffffffffffffffffffffffffffffffffffffffffffffffffff8381831617835250505050612f68565b50565b612273612e7c565b60055460075410156122ba576040517f08c379a00000000000000000000000000000000000000000000000000000000081526004016122b190614dc5565b60405180910390fd5b600554601960008373ffffffffffffffffffffffffffffffffffffffff1673ffffffffffffffffffffffffffffffffffffffff16815260200190815260200160002054101561233e576040517f08c379a000000000000000000000000000000000000000000000000000000000815260040161233590614dc5565b60405180910390fd5b6001600281111561235257612351613d80565b5b601660008373ffffffffffffffffffffffffffffffffffffffff1673ffffffffffffffffffffffffffffffffffffffff16815260200190815260200160002060009054906101000a900460ff1660028111156123b1576123b0613d80565b5b146123f1576040517f08c379a00000000000000000000000000000000000000000000000000000000081526004016123e890614e57565b60405180910390fd5b600554601960008373ffffffffffffffffffffffffffffffffffffffff1673ffffffffffffffffffffffffffffffffffffffff16815260200190815260200160002060008282546124429190614e77565b925050819055506005546007600082825461245d9190614e77565b9250508190555060008173ffffffffffffffffffffffffffffffffffffffff1660055460405161248c90614758565b60006040518083038185875af1925050503d80600081146124c9576040519150601f19603f3d011682016040523d82523d6000602084013e6124ce565b606091505b5050905080612512576040517f08c379a0000000000000000000000000000000000000000000000000000000008152600401612509906147b9565b60405180910390fd5b6005548273ffffffffffffffffffffffffffffffffffffffff166001547feec2f3feb835e2f2fd44281034b04700a1ddda63dd402949d470a25a7c40b36c60405160405180910390a450612564612ec2565b50565b6125ff828260405160240161257d929190614eab565b6040516020818303038152906040527fb60e72cc000000000000000000000000000000000000000000000000000000007bffffffffffffffffffffffffffffffffffffffffffffffffffffffff19166020820180517bffffffffffffffffffffffffffffffffffffffffffffffffffffffff8381831617835250505050612f68565b5050565b6001600281111561261757612616613d80565b5b601360029054906101000a900460ff16600281111561263957612638613d80565b5b14612679576040517f08c379a00000000000000000000000000000000000000000000000000000000081526004016126709061405c565b60405180910390fd5b6126b76040518060400160405280601d81526020017f44657465726d696e696e6720706f74656e7469616c2077696e6e6572730000008152506121d2565b60006126c1612f82565b90507fffffffffffffffffffffffffffffffffffffffffffffffffffffffffffffffff8103612717577fffffffffffffffffffffffffffffffffffffffffffffffffffffffffffffffff600c8190555050612a3b565b60006127228261316e565b905060035467ffffffffffffffff8111156127405761273f613965565b5b60405190808252806020026020018201604052801561276e5781602001602082028036833780820191505090505b506012908051906020019061278492919061374e565b50600061279260095461316e565b90506000805b600354811015612a22576000601182815481106127b8576127b7614b9f565b5b9060005260206000200160009054906101000a900473ffffffffffffffffffffffffffffffffffffffff169050600061282f601860008473ffffffffffffffffffffffffffffffffffffffff1673ffffffffffffffffffffffffffffffffffffffff1681526020019081526020016000205461316e565b9050600061283d82886131fa565b156128535761284c8783613217565b9050612860565b61285d8288613217565b90505b61286a81876131fa565b156129755760005b6012805490508110156128ea5760006012828154811061289557612894614b9f565b5b9060005260206000200160006101000a81548173ffffffffffffffffffffffffffffffffffffffff021916908373ffffffffffffffffffffffffffffffffffffffff1602179055508080600101915050612872565b5080955060009450826012868154811061290757612906614b9f565b5b9060005260206000200160006101000a81548173ffffffffffffffffffffffffffffffffffffffff021916908373ffffffffffffffffffffffffffffffffffffffff1602179055506129706040518060600160405280602881526020016152dd602891396121d2565b612a12565b61297f8187613245565b15612a1157848061298f90614bce565b95505082601286815481106129a7576129a6614b9f565b5b9060005260206000200160006101000a81548173ffffffffffffffffffffffffffffffffffffffff021916908373ffffffffffffffffffffffffffffffffffffffff160217905550612a106040518060600160405280603181526020016152ac603191396121d2565b5b5b5050508080600101915050612798565b50600181612a30919061486b565b600c81905550505050505b565b612a45612e7c565b60005b600354811015612c1557600060118281548110612a6857612a67614b9f565b5b9060005260206000200160009054906101000a900473ffffffffffffffffffffffffffffffffffffffff1690506000601960008373ffffffffffffffffffffffffffffffffffffffff1673ffffffffffffffffffffffffffffffffffffffff168152602001908152602001600020549050600060045490506000600354600b54612af29190614f0a565b90506000818385612b03919061486b565b612b0d919061486b565b905060008573ffffffffffffffffffffffffffffffffffffffff1682604051612b3590614758565b60006040518083038185875af1925050503d8060008114612b72576040519150601f19603f3d011682016040523d82523d6000602084013e612b77565b606091505b5050905080612bbb576040517f08c379a0000000000000000000000000000000000000000000000000000000008152600401612bb2906147b9565b60405180910390fd5b818673ffffffffffffffffffffffffffffffffffffffff166001547fff3116559cac6c47442d1f2083dc842de1f35c5f87fd25d7978d509fa59c1b1860405160405180910390a45050505050508080600101915050612a48565b50612c1e612ec2565b565b600280811115612c3357612c32613d80565b5b601360029054906101000a900460ff166002811115612c5557612c54613d80565b5b14612c95576040517f08c379a0000000000000000000000000000000000000000000000000000000008152600401612c8c9061405c565b60405180910390fd5b6000600754600654612ca7919061486b565b905080612cb26106f9565b1015612cf3576040517f08c379a0000000000000000000000000000000000000000000000000000000008152600401612cea90614fad565b60405180910390fd5b6001600c541315612d8f576000612d08613262565b905060128181548110612d1e57612d1d614b9f565b5b9060005260206000200160009054906101000a900473ffffffffffffffffffffffffffffffffffffffff16601060006101000a81548173ffffffffffffffffffffffffffffffffffffffff021916908373ffffffffffffffffffffffffffffffffffffffff16021790555050612e10565b6012600081548110612da457612da3614b9f565b5b9060005260206000200160009054906101000a900473ffffffffffffffffffffffffffffffffffffffff16601060006101000a81548173ffffffffffffffffffffffffffffffffffffffff021916908373ffffffffffffffffffffffffffffffffffffffff1602179055505b80601060009054906101000a900473ffffffffffffffffffffffffffffffffffffffff1673ffffffffffffffffffffffffffffffffffffffff166001547ffee5b04775e1cd2311ed22cd00f5d2403aff38ff6f71d6d393f51854ed6bc98660405160405180910390a450565b600260005403612eb8576040517f3ee5aeb500000000000000000000000000000000000000000000000000000000815260040160405180910390fd5b6002600081905550565b6001600081905550565b612f648282604051602401612ee2929190614fcd565b6040516020818303038152906040527f319af333000000000000000000000000000000000000000000000000000000007bffffffffffffffffffffffffffffffffffffffffffffffffffffffff19166020820180517bffffffffffffffffffffffffffffffffffffffffffffffffffffffff8381831617835250505050612f68565b5050565b612f7f81612f7761344a61346b565b63ffffffff16565b50565b6000806000905060008060005b6003548110156130f257600060118281548110612faf57612fae614b9f565b5b9060005260206000200160009054906101000a900473ffffffffffffffffffffffffffffffffffffffff16905060016002811115612ff057612fef613d80565b5b601660008373ffffffffffffffffffffffffffffffffffffffff1673ffffffffffffffffffffffffffffffffffffffff16815260200190815260200160002060009054906101000a900460ff16600281111561304f5761304e613d80565b5b036130e457613075604051806060016040528060248152602001615245602491396121d2565b60006130bf601860008473ffffffffffffffffffffffffffffffffffffffff1673ffffffffffffffffffffffffffffffffffffffff1681526020019081526020016000205461316e565b90506130cb8682613476565b95506130e0856130db600161316e565b613476565b9450505b508080600101915050612f8f565b506130fc826134a4565b1561312c577fffffffffffffffffffffffffffffffffffffffffffffffffffffffffffffffff935050505061316b565b61313683836134b8565b90506131656131606131518361314c600261316e565b6134ed565b61315b600361316e565b6134b8565b613519565b93505050505b90565b6000670de0b6b3a76400007fffffffffffffffffffffffffffffffffffffffffffffffffffffffffffffffff6131a49190614f0a565b8211156131e857816040517f1cd951a70000000000000000000000000000000000000000000000000000000081526004016131df9190613900565b60405180910390fd5b670de0b6b3a764000082029050919050565b600061320582613536565b61320e84613536565b10905092915050565b600061323d61322583613536565b61322e85613536565b6132389190614e77565b613540565b905092915050565b600061325082613536565b61325984613536565b14905092915050565b600080424441434560405160200161327e959493929190615057565b604051602081830303815290604052905060005b600c54811015613425576000601282815481106132b2576132b1614b9f565b5b9060005260206000200160009054906101000a900473ffffffffffffffffffffffffffffffffffffffff1690506000601860008373ffffffffffffffffffffffffffffffffffffffff1673ffffffffffffffffffffffffffffffffffffffff1681526020019081526020016000205490506000601760008473ffffffffffffffffffffffffffffffffffffffff1673ffffffffffffffffffffffffffffffffffffffff168152602001908152602001600020805461336f90613f07565b80601f016020809104026020016040519081016040528092919081815260200182805461339b90613f07565b80156133e85780601f106133bd576101008083540402835291602001916133e8565b820191906000526020600020905b8154815290600101906020018083116133cb57829003601f168201915b50505050509050848282604051602001613404939291906150f2565b60405160208183030381529060405294505050508080600101915050613292565b50600081805190602001209050600c548160001c6134439190615127565b9250505090565b60006a636f6e736f6c652e6c6f679050600080835160208501845afa505050565b6137d8819050919050565b600061349c61348483613536565b61348d85613536565b613497919061486b565b613540565b905092915050565b6000806134b083613536565b149050919050565b60006134e56134e06134c985613536565b670de0b6b3a76400006134db86613536565b61354a565b613540565b905092915050565b600061351161350c6134fe85613536565b61350785613536565b613664565b613540565b905092915050565b6000670de0b6b3a76400008261352f9190614f0a565b9050919050565b6000819050919050565b6000819050919050565b60008060008019858709858702925082811083820303915050600081036135855783828161357b5761357a614edb565b5b049250505061365d565b8381106135cd578585856040517f63a057780000000000000000000000000000000000000000000000000000000081526004016135c493929190615158565b60405180910390fd5b60008486880990508281118203915080830392506000600186190186169050600081870496508185049450600182836000030401905080840285179450600060028860030218905080880260020381029050808802600203810290508088026002038102905080880260020381029050808802600203810290508088026002038102905080860296505050505050505b9392505050565b60008060008019848609848602925082811083820303915050600081036136a757670de0b6b3a7640000828161369d5761369c614edb565b5b0492505050613748565b670de0b6b3a764000081106136f55784846040517f5173648d0000000000000000000000000000000000000000000000000000000081526004016136ec92919061518f565b60405180910390fd5b6000670de0b6b3a764000085870990507faccb18165bd6fe31ae1cf318dc5b51eee0e1ba569b88cd74c1773b91fac106696001620400008060000304018483118403026204000083860304170293505050505b92915050565b8280548282559060005260206000209081019282156137c7579160200282015b828111156137c65782518260006101000a81548173ffffffffffffffffffffffffffffffffffffffff021916908373ffffffffffffffffffffffffffffffffffffffff1602179055509160200191906001019061376e565b5b5090506137d491906137e2565b5090565b6137e06151b8565b565b5b808211156137fb5760008160009055506001016137e3565b5090565b60008115159050919050565b613814816137ff565b82525050565b600060208201905061382f600083018461380b565b92915050565b600081519050919050565b600082825260208201905092915050565b60005b8381101561386f578082015181840152602081019050613854565b60008484015250505050565b6000601f19601f8301169050919050565b600061389782613835565b6138a18185613840565b93506138b1818560208601613851565b6138ba8161387b565b840191505092915050565b600060208201905081810360008301526138df818461388c565b905092915050565b6000819050919050565b6138fa816138e7565b82525050565b600060208201905061391560008301846138f1565b92915050565b6000604051905090565b600080fd5b600080fd5b613938816138e7565b811461394357600080fd5b50565b6000813590506139558161392f565b92915050565b600080fd5b600080fd5b7f4e487b7100000000000000000000000000000000000000000000000000000000600052604160045260246000fd5b61399d8261387b565b810181811067ffffffffffffffff821117156139bc576139bb613965565b5b80604052505050565b60006139cf61391b565b90506139db8282613994565b919050565b600067ffffffffffffffff8211156139fb576139fa613965565b5b613a048261387b565b9050602081019050919050565b82818337600083830152505050565b6000613a33613a2e846139e0565b6139c5565b905082815260208101848484011115613a4f57613a4e613960565b5b613a5a848285613a11565b509392505050565b600082601f830112613a7757613a7661395b565b5b8135613a87848260208601613a20565b91505092915050565b60008060408385031215613aa757613aa6613925565b5b6000613ab585828601613946565b925050602083013567ffffffffffffffff811115613ad657613ad561392a565b5b613ae285828601613a62565b9150509250929050565b600081519050919050565b600082825260208201905092915050565b6000819050602082019050919050565b600073ffffffffffffffffffffffffffffffffffffffff82169050919050565b6000613b4382613b18565b9050919050565b613b5381613b38565b82525050565b6000613b658383613b4a565b60208301905092915050565b6000602082019050919050565b6000613b8982613aec565b613b938185613af7565b9350613b9e83613b08565b8060005b83811015613bcf578151613bb68882613b59565b9750613bc183613b71565b925050600181019050613ba2565b5085935050505092915050565b60006020820190508181036000830152613bf68184613b7e565b905092915050565b600060208284031215613c1457613c13613925565b5b6000613c2284828501613946565b91505092915050565b613c3481613b38565b82525050565b6000602082019050613c4f6000830184613c2b565b92915050565b613c5e81613b38565b8114613c6957600080fd5b50565b600081359050613c7b81613c55565b92915050565b600080600080600080600080610100898b031215613ca257613ca1613925565b5b6000613cb08b828c01613946565b985050602089013567ffffffffffffffff811115613cd157613cd061392a565b5b613cdd8b828c01613a62565b9750506040613cee8b828c01613946565b9650506060613cff8b828c01613946565b9550506080613d108b828c01613946565b94505060a0613d218b828c01613946565b93505060c0613d328b828c01613c6c565b92505060e0613d438b828c01613946565b9150509295985092959890939650565b600060208284031215613d6957613d68613925565b5b6000613d7784828501613c6c565b91505092915050565b7f4e487b7100000000000000000000000000000000000000000000000000000000600052602160045260246000fd5b60038110613dc057613dbf613d80565b5b50565b6000819050613dd182613daf565b919050565b6000613de182613dc3565b9050919050565b613df181613dd6565b82525050565b6000602082019050613e0c6000830184613de8565b92915050565b6000819050919050565b613e2581613e12565b8114613e3057600080fd5b50565b600081359050613e4281613e1c565b92915050565b600060208284031215613e5e57613e5d613925565b5b6000613e6c84828501613e33565b91505092915050565b60038110613e8657613e85613d80565b5b50565b6000819050613e9782613e75565b919050565b6000613ea782613e89565b9050919050565b613eb781613e9c565b82525050565b6000602082019050613ed26000830184613eae565b92915050565b7f4e487b7100000000000000000000000000000000000000000000000000000000600052602260045260246000fd5b60006002820490506001821680613f1f57607f821691505b602082108103613f3257613f31613ed8565b5b50919050565b7f416464726573732063616e277420626520307830000000000000000000000000600082015250565b6000613f6e601483613840565b9150613f7982613f38565b602082019050919050565b60006020820190508181036000830152613f9d81613f61565b9050919050565b7f4e6f7420612076616c696420706c617965722061646472657373000000000000600082015250565b6000613fda601a83613840565b9150613fe582613fa4565b602082019050919050565b6000602082019050818103600083015261400981613fcd565b9050919050565b7f47616d6520686173206e6f7420656e6465642079657400000000000000000000600082015250565b6000614046601683613840565b915061405182614010565b602082019050919050565b6000602082019050818103600083015261407581614039565b9050919050565b7f506c6179657220616c72656164792072657665616c656420746865697220677560008201527f6573730000000000000000000000000000000000000000000000000000000000602082015250565b60006140d8602383613840565b91506140e38261407c565b604082019050919050565b60006020820190508181036000830152614107816140cb565b9050919050565b60008190508160005260206000209050919050565b60006020601f8301049050919050565b600082821b905092915050565b6000600883026141707fffffffffffffffffffffffffffffffffffffffffffffffffffffffffffffffff82614133565b61417a8683614133565b95508019841693508086168417925050509392505050565b6000819050919050565b60006141b76141b26141ad846138e7565b614192565b6138e7565b9050919050565b6000819050919050565b6141d18361419c565b6141e56141dd826141be565b848454614140565b825550505050565b600090565b6141fa6141ed565b6142058184846141c8565b505050565b5b818110156142295761421e6000826141f2565b60018101905061420b565b5050565b601f82111561426e5761423f8161410e565b61424884614123565b81016020851015614257578190505b61426b61426385614123565b83018261420a565b50505b505050565b600082821c905092915050565b600061429160001984600802614273565b1980831691505092915050565b60006142aa8383614280565b9150826002028217905092915050565b6142c382613835565b67ffffffffffffffff8111156142dc576142db613965565b5b6142e68254613f07565b6142f182828561422d565b600060209050601f8311600181146143245760008415614312578287015190505b61431c858261429e565b865550614384565b601f1984166143328661410e565b60005b8281101561435a57848901518255600182019150602085019450602081019050614335565b868310156143775784890151614373601f891682614280565b8355505b6001600288020188555050505b505050505050565b600060408201905081810360008301526143a6818561388c565b90506143b56020830184613de8565b9392505050565b7f4f6e6c792067616d65206d61737465722063616e2063616c6c2074686973206660008201527f756e6374696f6e00000000000000000000000000000000000000000000000000602082015250565b6000614418602783613840565b9150614423826143bc565b604082019050919050565b600060208201905081810360008301526144478161440b565b9050919050565b7f47616d6520686173206e6f742073746172746564207965740000000000000000600082015250565b6000614484601883613840565b915061448f8261444e565b602082019050919050565b600060208201905081810360008301526144b381614477565b9050919050565b7f41746c65617374203320706c617965727320617265207265717569726564207460008201527f6f207374617274207468652067616d6500000000000000000000000000000000602082015250565b6000614516603083613840565b9150614521826144ba565b604082019050919050565b6000602082019050818103600083015261454581614509565b9050919050565b7f47616d6520697320616c726561647920696e697469616c697a65640000000000600082015250565b6000614582601b83613840565b915061458d8261454c565b602082019050919050565b600060208201905081810360008301526145b181614575565b9050919050565b7f4e487b7100000000000000000000000000000000000000000000000000000000600052601160045260246000fd5b60006145f2826138e7565b91506145fd836138e7565b925082820261460b816138e7565b91508282048414831517614622576146216145b8565b5b5092915050565b7f4e6f2077696e6e657220666f756e640000000000000000000000000000000000600082015250565b600061465f600f83613840565b915061466a82614629565b602082019050919050565b6000602082019050818103600083015261468e81614652565b9050919050565b7f4e6f7420656e6f7567682066756e647320746f2077697468647261772074686560008201527f2067616d65206665657300000000000000000000000000000000000000000000602082015250565b60006146f1602a83613840565b91506146fc82614695565b604082019050919050565b60006020820190508181036000830152614720816146e4565b9050919050565b600081905092915050565b50565b6000614742600083614727565b915061474d82614732565b600082019050919050565b600061476382614735565b9150819050919050565b7f4661696c656420746f2073656e64204574686572000000000000000000000000600082015250565b60006147a3601483613840565b91506147ae8261476d565b602082019050919050565b600060208201905081810360008301526147d281614796565b9050919050565b7f4f6e6c792077696e6e65722063616e2063616c6c20746869732066756e63746960008201527f6f6e000000000000000000000000000000000000000000000000000000000000602082015250565b6000614835602283613840565b9150614840826147d9565b604082019050919050565b6000602082019050818103600083015261486481614828565b9050919050565b6000614876826138e7565b9150614881836138e7565b9250828201905080821115614899576148986145b8565b5b92915050565b7f4e6f20707269636520706f6f6c20746f207061796f7574000000000000000000600082015250565b60006148d5601783613840565b91506148e08261489f565b602082019050919050565b60006020820190508181036000830152614904816148c8565b9050919050565b7f4e6f7420656e6f7567682066756e647320746f207061796f757420746865207760008201527f696e6e6572000000000000000000000000000000000000000000000000000000602082015250565b6000614967602583613840565b91506149728261490b565b604082019050919050565b600060208201905081810360008301526149968161495a565b9050919050565b7f47616d65206d61737465722063616e2774206a6f696e207468656972206f776e60008201527f2067616d65000000000000000000000000000000000000000000000000000000602082015250565b60006149f9602583613840565b9150614a048261499d565b604082019050919050565b60006020820190508181036000830152614a28816149ec565b9050919050565b7f496e73756666696369656e7420616d6f756e742c206d7573742062652074686560008201527f2062657420616d6f756e74202b20332074696d6573207468652062657420616d60208201527f6f756e7420617320636f6c6c61746572616c20696e636c7564696e672074686560408201527f2067616d65206665650000000000000000000000000000000000000000000000606082015250565b6000614ad7606983613840565b9150614ae282614a2f565b608082019050919050565b60006020820190508181036000830152614b0681614aca565b9050919050565b7f506c617965722068617320616c7265616479206a6f696e65642074686520676160008201527f6d65000000000000000000000000000000000000000000000000000000000000602082015250565b6000614b69602283613840565b9150614b7482614b0d565b604082019050919050565b60006020820190508181036000830152614b9881614b5c565b9050919050565b7f4e487b7100000000000000000000000000000000000000000000000000000000600052603260045260246000fd5b6000614bd9826138e7565b91507fffffffffffffffffffffffffffffffffffffffffffffffffffffffffffffffff8203614c0b57614c0a6145b8565b5b600182019050919050565b7f41206d696e696d756d206f6620313020426c6f636b732068617320746f20706160008201527f7373206265666f726520796f752063616e20726571756573742061207265667560208201527f6e64000000000000000000000000000000000000000000000000000000000000604082015250565b6000614c98604283613840565b9150614ca382614c16565b606082019050919050565b60006020820190508181036000830152614cc781614c8b565b9050919050565b6000819050919050565b614ce9614ce4826138e7565b614cce565b82525050565b600081905092915050565b6000614d0582613835565b614d0f8185614cef565b9350614d1f818560208601613851565b80840191505092915050565b6000614d378285614cd8565b602082019150614d478284614cfa565b91508190509392505050565b7f4e6f7420656e6f7567682066756e647320746f207061796f757420746865206360008201527f6f6c6c61746572616c20616d6f756e7400000000000000000000000000000000602082015250565b6000614daf603083613840565b9150614dba82614d53565b604082019050919050565b60006020820190508181036000830152614dde81614da2565b9050919050565b7f506c6179657220646964206e6f742072657665616c207468656972206775657360008201527f7300000000000000000000000000000000000000000000000000000000000000602082015250565b6000614e41602183613840565b9150614e4c82614de5565b604082019050919050565b60006020820190508181036000830152614e7081614e34565b9050919050565b6000614e82826138e7565b9150614e8d836138e7565b9250828203905081811115614ea557614ea46145b8565b5b92915050565b60006040820190508181036000830152614ec5818561388c565b9050614ed460208301846138f1565b9392505050565b7f4e487b7100000000000000000000000000000000000000000000000000000000600052601260045260246000fd5b6000614f15826138e7565b9150614f20836138e7565b925082614f3057614f2f614edb565b5b828204905092915050565b7f4e6f7420656e6f7567682066756e647320746f207061796f757420746865207760008201527f696e6e6572730000000000000000000000000000000000000000000000000000602082015250565b6000614f97602683613840565b9150614fa282614f3b565b604082019050919050565b60006020820190508181036000830152614fc681614f8a565b9050919050565b60006040820190508181036000830152614fe7818561388c565b9050614ff66020830184613c2b565b9392505050565b600061500882613b18565b9050919050565b60008160601b9050919050565b60006150278261500f565b9050919050565b60006150398261501c565b9050919050565b61505161504c82614ffd565b61502e565b82525050565b60006150638288614cd8565b6020820191506150738287614cd8565b6020820191506150838286615040565b6014820191506150938285614cd8565b6020820191506150a38284614cd8565b6020820191508190509695505050505050565b600081519050919050565b60006150cc826150b6565b6150d68185614727565b93506150e6818560208601613851565b80840191505092915050565b60006150fe82866150c1565b915061510a8285614cd8565b60208201915061511a8284614cfa565b9150819050949350505050565b6000615132826138e7565b915061513d836138e7565b92508261514d5761514c614edb565b5b828206905092915050565b600060608201905061516d60008301866138f1565b61517a60208301856138f1565b61518760408301846138f1565b949350505050565b60006040820190506151a460008301856138f1565b6151b160208301846138f1565b9392505050565b7f4e487b7100000000000000000000000000000000000000000000000000000000600052605160045260246000fdfe506c617965722072657665616c656420746865697220636f72726563742067756573734e6f20706f74656e7469616c2077696e6e65727320666f756e642c20726566756e64696e672065766572796f6e65207468656972206d6f6e6579506c617965722072657665616c656420746865697220636f72726563742076616c756573506c617965722072657665616c656420616e20696e636f72726563742067756573732c20636f6c6c61746572616c2077696c6c206e6f7420626520726566756e646564416e6f7468657220706f74656e7469616c2077696e6e657220666f756e6420776974682073616d652064697374616e63654e657720706f74656e7469616c2077696e6e657220666f756e6420776974682064697374616e6365a2646970667358221220cc920de4accd32572ccd7345c5deb6af58bf6437e8cd7af065877c51cba8d42664736f6c63430008180033",
  "linkReferences": {},
  "deployedLinkReferences": {}
}