{
  "_format": "hh-sol-artifact-1",
  "contractName": "AverageGameFactory",
  "sourceName": "contracts/AverageGameFactory.sol",
  "abi": [
    {
      "inputs": [
        {
          "internalType": "address",
          "name": "target",
          "type": "address"
        }
      ],
      "name": "createClone",
      "outputs": [
        {
          "internalType": "address",
          "name": "",
          "type": "address"
        }
      ],
      "stateMutability": "nonpayable",
      "type": "function"
    },
    {
      "inputs": [
        {
          "internalType": "uint256",
          "name": "_index",
          "type": "uint256"
        }
      ],
      "name": "getProxyAt",
      "outputs": [
        {
          "internalType": "address",
          "name": "",
          "type": "address"
        }
      ],
      "stateMutability": "view",
      "type": "function"
    },
    {
      "inputs": [
        {
          "internalType": "uint256",
          "name": "",
          "type": "uint256"
        }
      ],
      "name": "proxies",
      "outputs": [
        {
          "internalType": "address",
          "name": "",
          "type": "address"
        }
      ],
      "stateMutability": "view",
      "type": "function"
    }
  ],
  "bytecode": "0x608060405234801561001057600080fd5b50610538806100206000396000f3fe608060405234801561001057600080fd5b50600436106100415760003560e01c806357894c1b14610046578063abd90f8514610076578063cc935efe146100a6575b600080fd5b610060600480360381019061005b91906103ea565b6100d6565b60405161006d9190610426565b60405180910390f35b610090600480360381019061008b9190610477565b610209565b60405161009d9190610426565b60405180910390f35b6100c060048036038101906100bb9190610477565b610248565b6040516100cd9190610426565b60405180910390f35b6000808260601b905060006040517f3d602d80600a3d3981f3363d3d373d3d3d363d7300000000000000000000000081528260148201527f5af43d82803e903d91602b57fd5bf3000000000000000000000000000000000060288201526037816000f09150508073ffffffffffffffffffffffffffffffffffffffff1663e1c7392a6040518163ffffffff1660e01b8152600401600060405180830381600087803b15801561018457600080fd5b505af1158015610198573d6000803e3d6000fd5b505050506000819080600181540180825580915050600190039060005260206000200160009091909190916101000a81548173ffffffffffffffffffffffffffffffffffffffff021916908373ffffffffffffffffffffffffffffffffffffffff1602179055508092505050919050565b6000818154811061021957600080fd5b906000526020600020016000915054906101000a900473ffffffffffffffffffffffffffffffffffffffff1681565b6000806000838154811061025f5761025e6104a4565b5b9060005260206000200160009054906101000a900473ffffffffffffffffffffffffffffffffffffffff1690506102958161029e565b80915050919050565b610334816040516024016102b29190610426565b6040516020818303038152906040527f2c2ecbc2000000000000000000000000000000000000000000000000000000007bffffffffffffffffffffffffffffffffffffffffffffffffffffffff19166020820180517bffffffffffffffffffffffffffffffffffffffffffffffffffffffff8381831617835250505050610337565b50565b61034e81610346610351610372565b63ffffffff16565b50565b60006a636f6e736f6c652e6c6f679050600080835160208501845afa505050565b61037d819050919050565b6103856104d3565b565b600080fd5b600073ffffffffffffffffffffffffffffffffffffffff82169050919050565b60006103b78261038c565b9050919050565b6103c7816103ac565b81146103d257600080fd5b50565b6000813590506103e4816103be565b92915050565b600060208284031215610400576103ff610387565b5b600061040e848285016103d5565b91505092915050565b610420816103ac565b82525050565b600060208201905061043b6000830184610417565b92915050565b6000819050919050565b61045481610441565b811461045f57600080fd5b50565b6000813590506104718161044b565b92915050565b60006020828403121561048d5761048c610387565b5b600061049b84828501610462565b91505092915050565b7f4e487b7100000000000000000000000000000000000000000000000000000000600052603260045260246000fd5b7f4e487b7100000000000000000000000000000000000000000000000000000000600052605160045260246000fdfea2646970667358221220029d92465549963844bda8b8fbbf14737c80b57a58a61526bd0ba4cc6f7440a664736f6c63430008180033",
  "linkReferences": {},
  "deployedLinkReferences": {}
}