{
  "_format": "hh-sol-artifact-1",
  "contractName": "AverageGameFactory",
  "sourceName": "contracts/AverageGameFactory.sol",
  "abi": [
    {
      "inputs": [],
      "name": "ERC1167FailedCreateClone",
      "type": "error"
    },
    {
      "anonymous": false,
      "inputs": [
        {
          "indexed": true,
          "internalType": "uint256",
          "name": "gameCount",
          "type": "uint256"
        },
        {
          "indexed": true,
          "internalType": "address",
          "name": "gameAddress",
          "type": "address"
        }
      ],
      "name": "GameCreated",
      "type": "event"
    },
    {
      "inputs": [
        {
          "internalType": "address",
          "name": "_address",
          "type": "address"
        },
        {
          "internalType": "string",
          "name": "_name",
          "type": "string"
        },
        {
          "internalType": "uint256",
          "name": "_maxPlayers",
          "type": "uint256"
        },
        {
          "internalType": "uint256",
          "name": "_betAmount",
          "type": "uint256"
        },
        {
          "internalType": "uint256",
          "name": "_gameFee",
          "type": "uint256"
        }
      ],
      "name": "createAverageGame",
      "outputs": [
        {
          "internalType": "address",
          "name": "",
          "type": "address"
        }
      ],
      "stateMutability": "nonpayable",
      "type": "function"
    },
    {
      "inputs": [
        {
          "internalType": "uint256",
          "name": "_index",
          "type": "uint256"
        }
      ],
      "name": "getGameMasterAt",
      "outputs": [
        {
          "internalType": "address",
          "name": "",
          "type": "address"
        }
      ],
      "stateMutability": "view",
      "type": "function"
    },
    {
      "inputs": [],
      "name": "getGameMasters",
      "outputs": [
        {
          "internalType": "address[]",
          "name": "",
          "type": "address[]"
        }
      ],
      "stateMutability": "view",
      "type": "function"
    },
    {
      "inputs": [],
      "name": "getGameProxies",
      "outputs": [
        {
          "internalType": "address[]",
          "name": "",
          "type": "address[]"
        }
      ],
      "stateMutability": "view",
      "type": "function"
    },
    {
      "inputs": [
        {
          "internalType": "uint256",
          "name": "_index",
          "type": "uint256"
        }
      ],
      "name": "getGameProxyAt",
      "outputs": [
        {
          "internalType": "address",
          "name": "",
          "type": "address"
        }
      ],
      "stateMutability": "view",
      "type": "function"
    },
    {
      "inputs": [],
      "name": "totalGames",
      "outputs": [
        {
          "internalType": "uint256",
          "name": "",
          "type": "uint256"
        }
      ],
      "stateMutability": "view",
      "type": "function"
    }
  ],
  "bytecode": "0x60806040526000805534801561001457600080fd5b50611008806100246000396000f3fe608060405234801561001057600080fd5b50600436106100625760003560e01c80632c4e591b14610067578063334a568914610085578063552dc2a3146100b55780635bed391e146100e55780639e5aef0a14610103578063b2b5842114610133575b600080fd5b61006f610151565b60405161007c91906108b9565b60405180910390f35b61009f600480360381019061009a9190610914565b610157565b6040516100ac9190610982565b60405180910390f35b6100cf60048036038101906100ca9190610b0f565b61019f565b6040516100dc9190610982565b60405180910390f35b6100ed610458565b6040516100fa9190610c64565b60405180910390f35b61011d60048036038101906101189190610914565b6104e6565b60405161012a9190610982565b60405180910390f35b61013b6105dc565b6040516101489190610c64565b60405180910390f35b60005481565b60006002828154811061016d5761016c610c86565b5b9060005260206000200160009054906101000a900473ffffffffffffffffffffffffffffffffffffffff169050919050565b60006101df6040518060400160405280601281526020017f4372656174696e672047616d652121212121000000000000000000000000000081525061066a565b60006101ea87610703565b905061022a6040518060400160405280600681526020017f436c6f6e6564000000000000000000000000000000000000000000000000000081525061066a565b6001819080600181540180825580915050600190039060005260206000200160009091909190916101000a81548173ffffffffffffffffffffffffffffffffffffffff021916908373ffffffffffffffffffffffffffffffffffffffff1602179055506102cc6040518060400160405280600b81526020017f47616d65204d6173746572000000000000000000000000000000000000000000815250336107b4565b6002339080600181540180825580915050600190039060005260206000200160009091909190916101000a81548173ffffffffffffffffffffffffffffffffffffffff021916908373ffffffffffffffffffffffffffffffffffffffff1602179055508073ffffffffffffffffffffffffffffffffffffffff1663ff0b86826000548860006103e88a8a338b306040518a63ffffffff1660e01b815260040161037d99989796959493929190610db4565b600060405180830381600087803b15801561039757600080fd5b505af11580156103ab573d6000803e3d6000fd5b505050506000808154809291906103c190610e77565b91905055508073ffffffffffffffffffffffffffffffffffffffff166000547fc3e0f84839dc888c892a013d10c8f9d6dc05a21a879d0ce468ca558013e9121c60405160405180910390a361044b6040518060400160405280601081526020017f496e69742067616d652063616c6c656400000000000000000000000000000000815250826107b4565b8091505095945050505050565b606060028054806020026020016040519081016040528092919081815260200182805480156104dc57602002820191906000526020600020905b8160009054906101000a900473ffffffffffffffffffffffffffffffffffffffff1673ffffffffffffffffffffffffffffffffffffffff1681526020019060010190808311610492575b5050505050905090565b6000813373ffffffffffffffffffffffffffffffffffffffff166002828154811061051457610513610c86565b5b9060005260206000200160009054906101000a900473ffffffffffffffffffffffffffffffffffffffff1673ffffffffffffffffffffffffffffffffffffffff1614610595576040517f08c379a000000000000000000000000000000000000000000000000000000000815260040161058c90610f31565b60405180910390fd5b600183815481106105a9576105a8610c86565b5b9060005260206000200160009054906101000a900473ffffffffffffffffffffffffffffffffffffffff16915050919050565b6060600180548060200260200160405190810160405280929190818152602001828054801561066057602002820191906000526020600020905b8160009054906101000a900473ffffffffffffffffffffffffffffffffffffffff1673ffffffffffffffffffffffffffffffffffffffff1681526020019060010190808311610616575b5050505050905090565b6107008160405160240161067e9190610f51565b6040516020818303038152906040527f41304fac000000000000000000000000000000000000000000000000000000007bffffffffffffffffffffffffffffffffffffffffffffffffffffffff19166020820180517bffffffffffffffffffffffffffffffffffffffffffffffffffffffff8381831617835250505050610850565b50565b6000763d602d80600a3d3981f3363d3d373d3d3d363d730000008260601b60e81c176000526e5af43d82803e903d91602b57fd5bf38260781b17602052603760096000f09050600073ffffffffffffffffffffffffffffffffffffffff168173ffffffffffffffffffffffffffffffffffffffff16036107af576040517fc2f868f400000000000000000000000000000000000000000000000000000000815260040160405180910390fd5b919050565b61084c82826040516024016107ca929190610f73565b6040516020818303038152906040527f319af333000000000000000000000000000000000000000000000000000000007bffffffffffffffffffffffffffffffffffffffffffffffffffffffff19166020820180517bffffffffffffffffffffffffffffffffffffffffffffffffffffffff8381831617835250505050610850565b5050565b6108678161085f61086a61088b565b63ffffffff16565b50565b60006a636f6e736f6c652e6c6f679050600080835160208501845afa505050565b610896819050919050565b61089e610fa3565b565b6000819050919050565b6108b3816108a0565b82525050565b60006020820190506108ce60008301846108aa565b92915050565b6000604051905090565b600080fd5b600080fd5b6108f1816108a0565b81146108fc57600080fd5b50565b60008135905061090e816108e8565b92915050565b60006020828403121561092a576109296108de565b5b6000610938848285016108ff565b91505092915050565b600073ffffffffffffffffffffffffffffffffffffffff82169050919050565b600061096c82610941565b9050919050565b61097c81610961565b82525050565b60006020820190506109976000830184610973565b92915050565b6109a681610961565b81146109b157600080fd5b50565b6000813590506109c38161099d565b92915050565b600080fd5b600080fd5b6000601f19601f8301169050919050565b7f4e487b7100000000000000000000000000000000000000000000000000000000600052604160045260246000fd5b610a1c826109d3565b810181811067ffffffffffffffff82111715610a3b57610a3a6109e4565b5b80604052505050565b6000610a4e6108d4565b9050610a5a8282610a13565b919050565b600067ffffffffffffffff821115610a7a57610a796109e4565b5b610a83826109d3565b9050602081019050919050565b82818337600083830152505050565b6000610ab2610aad84610a5f565b610a44565b905082815260208101848484011115610ace57610acd6109ce565b5b610ad9848285610a90565b509392505050565b600082601f830112610af657610af56109c9565b5b8135610b06848260208601610a9f565b91505092915050565b600080600080600060a08688031215610b2b57610b2a6108de565b5b6000610b39888289016109b4565b955050602086013567ffffffffffffffff811115610b5a57610b596108e3565b5b610b6688828901610ae1565b9450506040610b77888289016108ff565b9350506060610b88888289016108ff565b9250506080610b99888289016108ff565b9150509295509295909350565b600081519050919050565b600082825260208201905092915050565b6000819050602082019050919050565b610bdb81610961565b82525050565b6000610bed8383610bd2565b60208301905092915050565b6000602082019050919050565b6000610c1182610ba6565b610c1b8185610bb1565b9350610c2683610bc2565b8060005b83811015610c57578151610c3e8882610be1565b9750610c4983610bf9565b925050600181019050610c2a565b5085935050505092915050565b60006020820190508181036000830152610c7e8184610c06565b905092915050565b7f4e487b7100000000000000000000000000000000000000000000000000000000600052603260045260246000fd5b600081519050919050565b600082825260208201905092915050565b60005b83811015610cef578082015181840152602081019050610cd4565b60008484015250505050565b6000610d0682610cb5565b610d108185610cc0565b9350610d20818560208601610cd1565b610d29816109d3565b840191505092915050565b6000819050919050565b6000819050919050565b6000610d63610d5e610d5984610d34565b610d3e565b6108a0565b9050919050565b610d7381610d48565b82525050565b6000819050919050565b6000610d9e610d99610d9484610d79565b610d3e565b6108a0565b9050919050565b610dae81610d83565b82525050565b600061012082019050610dca600083018c6108aa565b8181036020830152610ddc818b610cfb565b9050610deb604083018a610d6a565b610df86060830189610da5565b610e0560808301886108aa565b610e1260a08301876108aa565b610e1f60c0830186610973565b610e2c60e08301856108aa565b610e3a610100830184610973565b9a9950505050505050505050565b7f4e487b7100000000000000000000000000000000000000000000000000000000600052601160045260246000fd5b6000610e82826108a0565b91507fffffffffffffffffffffffffffffffffffffffffffffffffffffffffffffffff8203610eb457610eb3610e48565b5b600182019050919050565b7f4f6e6c792067616d65206d61737465722063616e2063616c6c2074686973206660008201527f756e6374696f6e00000000000000000000000000000000000000000000000000602082015250565b6000610f1b602783610cc0565b9150610f2682610ebf565b604082019050919050565b60006020820190508181036000830152610f4a81610f0e565b9050919050565b60006020820190508181036000830152610f6b8184610cfb565b905092915050565b60006040820190508181036000830152610f8d8185610cfb565b9050610f9c6020830184610973565b9392505050565b7f4e487b7100000000000000000000000000000000000000000000000000000000600052605160045260246000fdfea2646970667358221220968605fba186fe63a2dc53b0b53e32275239d8a4ace3045668c7f2325278a61464736f6c63430008180033",
  "linkReferences": {},
  "deployedLinkReferences": {}
}