{
  "_format": "hh-sol-artifact-1",
  "contractName": "AverageGame",
  "sourceName": "contracts/AverageGame.sol",
  "abi": [
    {
      "inputs": [
        {
          "internalType": "uint256",
          "name": "x",
          "type": "uint256"
        },
        {
          "internalType": "uint256",
          "name": "y",
          "type": "uint256"
        }
      ],
      "name": "PRBMath_MulDiv18_Overflow",
      "type": "error"
    },
    {
      "inputs": [
        {
          "internalType": "uint256",
          "name": "x",
          "type": "uint256"
        },
        {
          "internalType": "uint256",
          "name": "y",
          "type": "uint256"
        },
        {
          "internalType": "uint256",
          "name": "denominator",
          "type": "uint256"
        }
      ],
      "name": "PRBMath_MulDiv_Overflow",
      "type": "error"
    },
    {
      "inputs": [
        {
          "internalType": "uint256",
          "name": "x",
          "type": "uint256"
        }
      ],
      "name": "PRBMath_UD60x18_Convert_Overflow",
      "type": "error"
    },
    {
      "inputs": [],
      "name": "ReentrancyGuardReentrantCall",
      "type": "error"
    },
    {
      "anonymous": false,
      "inputs": [],
      "name": "BettingRoundClosed",
      "type": "event"
    },
    {
      "anonymous": false,
      "inputs": [
        {
          "indexed": true,
          "internalType": "address",
          "name": "player",
          "type": "address"
        },
        {
          "indexed": true,
          "internalType": "uint256",
          "name": "amount",
          "type": "uint256"
        }
      ],
      "name": "CollateralDeposited",
      "type": "event"
    },
    {
      "anonymous": false,
      "inputs": [
        {
          "indexed": true,
          "internalType": "address",
          "name": "player",
          "type": "address"
        },
        {
          "indexed": true,
          "internalType": "uint256",
          "name": "amount",
          "type": "uint256"
        }
      ],
      "name": "FeeCollected",
      "type": "event"
    },
    {
      "anonymous": false,
      "inputs": [
        {
          "indexed": true,
          "internalType": "uint256",
          "name": "gameId",
          "type": "uint256"
        }
      ],
      "name": "GameCreated",
      "type": "event"
    },
    {
      "anonymous": false,
      "inputs": [],
      "name": "GameEnded",
      "type": "event"
    },
    {
      "anonymous": false,
      "inputs": [],
      "name": "GameStarted",
      "type": "event"
    },
    {
      "anonymous": false,
      "inputs": [
        {
          "indexed": true,
          "internalType": "address",
          "name": "player",
          "type": "address"
        },
        {
          "indexed": true,
          "internalType": "uint256",
          "name": "totalPlayersAmount",
          "type": "uint256"
        }
      ],
      "name": "PlayerJoined",
      "type": "event"
    },
    {
      "anonymous": false,
      "inputs": [
        {
          "indexed": true,
          "internalType": "address",
          "name": "player",
          "type": "address"
        },
        {
          "indexed": true,
          "internalType": "uint256",
          "name": "amount",
          "type": "uint256"
        }
      ],
      "name": "PlayerRefunded",
      "type": "event"
    },
    {
      "anonymous": false,
      "inputs": [
        {
          "indexed": true,
          "internalType": "address",
          "name": "player",
          "type": "address"
        },
        {
          "indexed": true,
          "internalType": "uint256",
          "name": "guess",
          "type": "uint256"
        },
        {
          "indexed": true,
          "internalType": "string",
          "name": "salt",
          "type": "string"
        },
        {
          "indexed": false,
          "internalType": "enum AverageGame.RevealState",
          "name": "revealState",
          "type": "uint8"
        }
      ],
      "name": "PlayerRevealedGuess",
      "type": "event"
    },
    {
      "anonymous": false,
      "inputs": [
        {
          "indexed": true,
          "internalType": "address",
          "name": "player",
          "type": "address"
        },
        {
          "indexed": true,
          "internalType": "uint256",
          "name": "amount",
          "type": "uint256"
        },
        {
          "indexed": true,
          "internalType": "uint256",
          "name": "guess",
          "type": "uint256"
        }
      ],
      "name": "PrizeAwarded",
      "type": "event"
    },
    {
      "anonymous": false,
      "inputs": [
        {
          "indexed": true,
          "internalType": "address",
          "name": "winner",
          "type": "address"
        },
        {
          "indexed": true,
          "internalType": "uint256",
          "name": "amount",
          "type": "uint256"
        }
      ],
      "name": "WinnerSelected",
      "type": "event"
    },
    {
      "inputs": [],
      "name": "betAmount",
      "outputs": [
        {
          "internalType": "uint256",
          "name": "",
          "type": "uint256"
        }
      ],
      "stateMutability": "view",
      "type": "function"
    },
    {
      "inputs": [],
      "name": "closeBettingRound",
      "outputs": [],
      "stateMutability": "nonpayable",
      "type": "function"
    },
    {
      "inputs": [],
      "name": "collateralAmount",
      "outputs": [
        {
          "internalType": "uint256",
          "name": "",
          "type": "uint256"
        }
      ],
      "stateMutability": "view",
      "type": "function"
    },
    {
      "inputs": [],
      "name": "endGame",
      "outputs": [],
      "stateMutability": "nonpayable",
      "type": "function"
    },
    {
      "inputs": [],
      "name": "factory",
      "outputs": [
        {
          "internalType": "address",
          "name": "",
          "type": "address"
        }
      ],
      "stateMutability": "view",
      "type": "function"
    },
    {
      "inputs": [],
      "name": "gameFee",
      "outputs": [
        {
          "internalType": "uint256",
          "name": "",
          "type": "uint256"
        }
      ],
      "stateMutability": "view",
      "type": "function"
    },
    {
      "inputs": [],
      "name": "getBalance",
      "outputs": [
        {
          "internalType": "uint256",
          "name": "",
          "type": "uint256"
        }
      ],
      "stateMutability": "view",
      "type": "function"
    },
    {
      "inputs": [
        {
          "internalType": "address",
          "name": "_player",
          "type": "address"
        }
      ],
      "name": "getPlayerRevealedState",
      "outputs": [
        {
          "internalType": "enum AverageGame.RevealState",
          "name": "",
          "type": "uint8"
        }
      ],
      "stateMutability": "view",
      "type": "function"
    },
    {
      "inputs": [],
      "name": "getPotentialWinners",
      "outputs": [
        {
          "internalType": "address[]",
          "name": "",
          "type": "address[]"
        }
      ],
      "stateMutability": "view",
      "type": "function"
    },
    {
      "inputs": [],
      "name": "id",
      "outputs": [
        {
          "internalType": "uint256",
          "name": "",
          "type": "uint256"
        }
      ],
      "stateMutability": "view",
      "type": "function"
    },
    {
      "inputs": [
        {
          "internalType": "uint256",
          "name": "_gameId",
          "type": "uint256"
        },
        {
          "internalType": "string",
          "name": "_name",
          "type": "string"
        },
        {
          "internalType": "uint256",
          "name": "_minGuess",
          "type": "uint256"
        },
        {
          "internalType": "uint256",
          "name": "_maxGuess",
          "type": "uint256"
        },
        {
          "internalType": "uint256",
          "name": "_maxPlayers",
          "type": "uint256"
        },
        {
          "internalType": "uint256",
          "name": "_betAmount",
          "type": "uint256"
        },
        {
          "internalType": "address",
          "name": "_gameMaster",
          "type": "address"
        },
        {
          "internalType": "uint256",
          "name": "_gameFee",
          "type": "uint256"
        },
        {
          "internalType": "address",
          "name": "_factory",
          "type": "address"
        }
      ],
      "name": "initGame",
      "outputs": [],
      "stateMutability": "nonpayable",
      "type": "function"
    },
    {
      "inputs": [
        {
          "internalType": "bytes32",
          "name": "_guess",
          "type": "bytes32"
        }
      ],
      "name": "joinGame",
      "outputs": [],
      "stateMutability": "payable",
      "type": "function"
    },
    {
      "inputs": [],
      "name": "maxGuess",
      "outputs": [
        {
          "internalType": "uint256",
          "name": "",
          "type": "uint256"
        }
      ],
      "stateMutability": "view",
      "type": "function"
    },
    {
      "inputs": [],
      "name": "maxPlayers",
      "outputs": [
        {
          "internalType": "uint256",
          "name": "",
          "type": "uint256"
        }
      ],
      "stateMutability": "view",
      "type": "function"
    },
    {
      "inputs": [],
      "name": "minGuess",
      "outputs": [
        {
          "internalType": "uint256",
          "name": "",
          "type": "uint256"
        }
      ],
      "stateMutability": "view",
      "type": "function"
    },
    {
      "inputs": [],
      "name": "name",
      "outputs": [
        {
          "internalType": "string",
          "name": "",
          "type": "string"
        }
      ],
      "stateMutability": "view",
      "type": "function"
    },
    {
      "inputs": [
        {
          "internalType": "uint256",
          "name": "",
          "type": "uint256"
        }
      ],
      "name": "players",
      "outputs": [
        {
          "internalType": "address",
          "name": "",
          "type": "address"
        }
      ],
      "stateMutability": "view",
      "type": "function"
    },
    {
      "inputs": [
        {
          "internalType": "uint256",
          "name": "",
          "type": "uint256"
        }
      ],
      "name": "potentialWinners",
      "outputs": [
        {
          "internalType": "address",
          "name": "",
          "type": "address"
        }
      ],
      "stateMutability": "view",
      "type": "function"
    },
    {
      "inputs": [
        {
          "internalType": "uint256",
          "name": "_guess",
          "type": "uint256"
        },
        {
          "internalType": "string",
          "name": "_salt",
          "type": "string"
        }
      ],
      "name": "revealGuess",
      "outputs": [],
      "stateMutability": "nonpayable",
      "type": "function"
    },
    {
      "inputs": [],
      "name": "startBettingRound",
      "outputs": [],
      "stateMutability": "nonpayable",
      "type": "function"
    },
    {
      "inputs": [],
      "name": "state",
      "outputs": [
        {
          "internalType": "enum AverageGame.GameState",
          "name": "",
          "type": "uint8"
        }
      ],
      "stateMutability": "view",
      "type": "function"
    },
    {
      "inputs": [],
      "name": "totalBetAmount",
      "outputs": [
        {
          "internalType": "uint256",
          "name": "",
          "type": "uint256"
        }
      ],
      "stateMutability": "view",
      "type": "function"
    },
    {
      "inputs": [],
      "name": "totalCollateralAmount",
      "outputs": [
        {
          "internalType": "uint256",
          "name": "",
          "type": "uint256"
        }
      ],
      "stateMutability": "view",
      "type": "function"
    },
    {
      "inputs": [],
      "name": "totalPlayers",
      "outputs": [
        {
          "internalType": "uint256",
          "name": "",
          "type": "uint256"
        }
      ],
      "stateMutability": "view",
      "type": "function"
    },
    {
      "inputs": [],
      "name": "winner",
      "outputs": [
        {
          "internalType": "address",
          "name": "",
          "type": "address"
        }
      ],
      "stateMutability": "view",
      "type": "function"
    },
    {
      "inputs": [],
      "name": "withdrawGameFees",
      "outputs": [],
      "stateMutability": "nonpayable",
      "type": "function"
    },
    {
      "inputs": [
        {
          "internalType": "address",
          "name": "_winner",
          "type": "address"
        }
      ],
      "name": "withdrawPricepool",
      "outputs": [],
      "stateMutability": "nonpayable",
      "type": "function"
    }
  ],
  "bytecode": "0x608060405234801561001057600080fd5b50600160008190555061523a806100286000396000f3fe60806040526004361061019c5760003560e01c806392d09ceb116100ec578063d24257c01161008a578063ea777eec11610064578063ea777eec1461053f578063f60cdcf61461056a578063f71d96cb14610595578063ff0b8682146105d25761019c565b8063d24257c0146104be578063d2e66e9d146104e9578063dfbf53ae146105145761019c565b8063af640d0f116100c6578063af640d0f14610421578063bf4747661461044c578063c19d93fb14610468578063c45a0155146104935761019c565b806392d09ceb146103b65780639b9922e8146103e1578063ab8a2873146103f85761019c565b80634c2412a211610159578063613f459411610133578063613f45941461033257806363f31d2c1461035d5780636cbc2ded1461038857806384c39a821461039f5761019c565b80634c2412a21461029f5780635530e510146102ca578063574d6d7e146102f55761019c565b806306fdde03146101a157806312065fe0146101cc57806312b5afc1146101f757806318d3851b146102205780631af08b051461024b5780632007adf014610288575b600080fd5b3480156101ad57600080fd5b506101b66105fb565b6040516101c391906138a8565b60405180910390f35b3480156101d857600080fd5b506101e1610689565b6040516101ee91906138e3565b60405180910390f35b34801561020357600080fd5b5061021e60048036038101906102199190613a73565b610691565b005b34801561022c57600080fd5b50610235610aa6565b6040516102429190613bbf565b60405180910390f35b34801561025757600080fd5b50610272600480360381019061026d9190613be1565b610bc4565b60405161027f9190613c1d565b60405180910390f35b34801561029457600080fd5b5061029d610c03565b005b3480156102ab57600080fd5b506102b4610de5565b6040516102c191906138e3565b60405180910390f35b3480156102d657600080fd5b506102df610deb565b6040516102ec91906138e3565b60405180910390f35b34801561030157600080fd5b5061031c60048036038101906103179190613c64565b610df1565b6040516103299190613d08565b60405180910390f35b34801561033e57600080fd5b50610347610ed7565b60405161035491906138e3565b60405180910390f35b34801561036957600080fd5b50610372610edd565b60405161037f91906138e3565b60405180910390f35b34801561039457600080fd5b5061039d610ee3565b005b3480156103ab57600080fd5b506103b46110e8565b005b3480156103c257600080fd5b506103cb611285565b6040516103d891906138e3565b60405180910390f35b3480156103ed57600080fd5b506103f661128b565b005b34801561040457600080fd5b5061041f600480360381019061041a9190613c64565b611580565b005b34801561042d57600080fd5b50610436611921565b60405161044391906138e3565b60405180910390f35b61046660048036038101906104619190613d59565b611927565b005b34801561047457600080fd5b5061047d611d21565b60405161048a9190613dce565b60405180910390f35b34801561049f57600080fd5b506104a8611d34565b6040516104b59190613c1d565b60405180910390f35b3480156104ca57600080fd5b506104d3611d5a565b6040516104e091906138e3565b60405180910390f35b3480156104f557600080fd5b506104fe611d60565b60405161050b91906138e3565b60405180910390f35b34801561052057600080fd5b50610529611d66565b6040516105369190613c1d565b60405180910390f35b34801561054b57600080fd5b50610554611d8c565b60405161056191906138e3565b60405180910390f35b34801561057657600080fd5b5061057f611d92565b60405161058c91906138e3565b60405180910390f35b3480156105a157600080fd5b506105bc60048036038101906105b79190613be1565b611d98565b6040516105c99190613c1d565b60405180910390f35b3480156105de57600080fd5b506105f960048036038101906105f49190613de9565b611dd7565b005b600d805461060890613efe565b80601f016020809104026020016040519081016040528092919081815260200182805461063490613efe565b80156106815780601f1061065657610100808354040283529160200191610681565b820191906000526020600020905b81548152906001019060200180831161066457829003601f168201915b505050505081565b600047905090565b33600073ffffffffffffffffffffffffffffffffffffffff168173ffffffffffffffffffffffffffffffffffffffff1603610701576040517f08c379a00000000000000000000000000000000000000000000000000000000081526004016106f890613f7b565b60405180910390fd5b601560008273ffffffffffffffffffffffffffffffffffffffff1673ffffffffffffffffffffffffffffffffffffffff16815260200190815260200160002060009054906101000a900460ff1661078d576040517f08c379a000000000000000000000000000000000000000000000000000000000815260040161078490613fe7565b60405180910390fd5b600260038111156107a1576107a0613c91565b5b601360019054906101000a900460ff1660038111156107c3576107c2613c91565b5b14610803576040517f08c379a00000000000000000000000000000000000000000000000000000000081526004016107fa90614053565b60405180910390fd5b6000601660003373ffffffffffffffffffffffffffffffffffffffff1673ffffffffffffffffffffffffffffffffffffffff16815260200190815260200160002060009054906101000a900460ff1690506000600281111561086857610867613c91565b5b81600281111561087b5761087a613c91565b5b146108bb576040517f08c379a00000000000000000000000000000000000000000000000000000000081526004016108b2906140e5565b60405180910390fd5b83601860003373ffffffffffffffffffffffffffffffffffffffff1673ffffffffffffffffffffffffffffffffffffffff1681526020019081526020016000208190555082601760003373ffffffffffffffffffffffffffffffffffffffff1673ffffffffffffffffffffffffffffffffffffffff168152602001908152602001600020908161094b91906142b1565b5061095533612094565b905080601660003373ffffffffffffffffffffffffffffffffffffffff1673ffffffffffffffffffffffffffffffffffffffff16815260200190815260200160002060006101000a81548160ff021916908360028111156109b9576109b8613c91565b5b0217905550600160028111156109d2576109d1613c91565b5b8160028111156109e5576109e4613c91565b5b03610a1957610a0b6040518060600160405280602381526020016150e860239139612232565b610a14336122cb565b610a3b565b610a3a60405180608001604052806043815260200161516960439139612232565b5b82604051610a4991906143bf565b6040518091039020843373ffffffffffffffffffffffffffffffffffffffff167ff4ac703dca856486d516d874b14d3e88a9aed0afc7faede9389a7cf6eded674684604051610a989190613d08565b60405180910390a450505050565b60603373ffffffffffffffffffffffffffffffffffffffff16600e60009054906101000a900473ffffffffffffffffffffffffffffffffffffffff1673ffffffffffffffffffffffffffffffffffffffff1614610b38576040517f08c379a0000000000000000000000000000000000000000000000000000000008152600401610b2f90614448565b60405180910390fd5b6012805480602002602001604051908101604052809291908181526020018280548015610bba57602002820191906000526020600020905b8160009054906101000a900473ffffffffffffffffffffffffffffffffffffffff1673ffffffffffffffffffffffffffffffffffffffff1681526020019060010190808311610b70575b5050505050905090565b60128181548110610bd457600080fd5b906000526020600020016000915054906101000a900473ffffffffffffffffffffffffffffffffffffffff1681565b3373ffffffffffffffffffffffffffffffffffffffff16600e60009054906101000a900473ffffffffffffffffffffffffffffffffffffffff1673ffffffffffffffffffffffffffffffffffffffff1614610c93576040517f08c379a0000000000000000000000000000000000000000000000000000000008152600401610c8a90614448565b60405180910390fd5b60016003811115610ca757610ca6613c91565b5b601360019054906101000a900460ff166003811115610cc957610cc8613c91565b5b14610d09576040517f08c379a0000000000000000000000000000000000000000000000000000000008152600401610d00906144b4565b60405180910390fd5b600380541015610d4e576040517f08c379a0000000000000000000000000000000000000000000000000000000008152600401610d4590614546565b60405180910390fd5b6002601360016101000a81548160ff02191690836003811115610d7457610d73613c91565b5b0217905550610db76040518060400160405280601481526020017f42657474696e6720726f756e6420636c6f736564000000000000000000000000815250612232565b7fd539888273f37e3603e3b0cc6eba61a12caa1d2cd371c178f940e5e7c599a97360405160405180910390a1565b60025481565b60095481565b60003373ffffffffffffffffffffffffffffffffffffffff16600e60009054906101000a900473ffffffffffffffffffffffffffffffffffffffff1673ffffffffffffffffffffffffffffffffffffffff1614610e83576040517f08c379a0000000000000000000000000000000000000000000000000000000008152600401610e7a90614448565b60405180910390fd5b601660008373ffffffffffffffffffffffffffffffffffffffff1673ffffffffffffffffffffffffffffffffffffffff16815260200190815260200160002060009054906101000a900460ff169050919050565b60065481565b60075481565b3373ffffffffffffffffffffffffffffffffffffffff16600e60009054906101000a900473ffffffffffffffffffffffffffffffffffffffff1673ffffffffffffffffffffffffffffffffffffffff1614610f73576040517f08c379a0000000000000000000000000000000000000000000000000000000008152600401610f6a90614448565b60405180910390fd5b60026003811115610f8757610f86613c91565b5b601360019054906101000a900460ff166003811115610fa957610fa8613c91565b5b14610fe9576040517f08c379a0000000000000000000000000000000000000000000000000000000008152600401610fe090614053565b60405180910390fd5b610ff16125c4565b6003601360016101000a81548160ff0219169083600381111561101757611016613c91565b5b02179055507fffffffffffffffffffffffffffffffffffffffffffffffffffffffffffffffff600c54036110735761104d6129c0565b61106e6040518060600160405280603a815260200161510b603a9139612232565b6110ba565b61107b612ba0565b6110b96040518060400160405280601b81526020017f57696e6e65722073656c65637465642c2067616d6520656e6465640000000000815250612232565b5b7f1084d47e99647565312e58bba004b0fc3088c683fa22f3925f1cf5fb0955402960405160405180910390a1565b3373ffffffffffffffffffffffffffffffffffffffff16600e60009054906101000a900473ffffffffffffffffffffffffffffffffffffffff1673ffffffffffffffffffffffffffffffffffffffff1614611178576040517f08c379a000000000000000000000000000000000000000000000000000000000815260040161116f90614448565b60405180910390fd5b6000600381111561118c5761118b613c91565b5b601360019054906101000a900460ff1660038111156111ae576111ad613c91565b5b146111ee576040517f08c379a00000000000000000000000000000000000000000000000000000000081526004016111e5906145b2565b60405180910390fd5b6001601360016101000a81548160ff0219169083600381111561121457611213613c91565b5b02179055506112576040518060400160405280600c81526020017f47616d6520737461727465640000000000000000000000000000000000000000815250612232565b7f762f260439bb4be3ef6e4dc2786e2e7bd187d3d80b79057d7a424fe98563e33560405160405180910390a1565b60055481565b3373ffffffffffffffffffffffffffffffffffffffff16600e60009054906101000a900473ffffffffffffffffffffffffffffffffffffffff1673ffffffffffffffffffffffffffffffffffffffff161461131b576040517f08c379a000000000000000000000000000000000000000000000000000000000815260040161131290614448565b60405180910390fd5b611323612df9565b60038081111561133657611335613c91565b5b601360019054906101000a900460ff16600381111561135857611357613c91565b5b14611398576040517f08c379a000000000000000000000000000000000000000000000000000000000815260040161138f90614053565b60405180910390fd5b600073ffffffffffffffffffffffffffffffffffffffff16601060009054906101000a900473ffffffffffffffffffffffffffffffffffffffff1673ffffffffffffffffffffffffffffffffffffffff1603611429576040517f08c379a00000000000000000000000000000000000000000000000000000000081526004016114209061461e565b60405180910390fd5b600b54611434610689565b1015611475576040517f08c379a000000000000000000000000000000000000000000000000000000000815260040161146c906146b0565b60405180910390fd5b6000600b5490506000600b8190555060003373ffffffffffffffffffffffffffffffffffffffff16826040516114aa90614701565b60006040518083038185875af1925050503d80600081146114e7576040519150601f19603f3d011682016040523d82523d6000602084013e6114ec565b606091505b5050905080611530576040517f08c379a000000000000000000000000000000000000000000000000000000000815260040161152790614762565b60405180910390fd5b813373ffffffffffffffffffffffffffffffffffffffff167f06c5efeff5c320943d265dc4e5f1af95ad523555ce0c1957e367dda5514572df60405160405180910390a3505061157e612e3f565b565b6115e16040518060400160405280600781526020017f57696e6e65723a00000000000000000000000000000000000000000000000000815250601060009054906101000a900473ffffffffffffffffffffffffffffffffffffffff16612e49565b6116206040518060400160405280600a81526020017f4d73672e73656e6465720000000000000000000000000000000000000000000081525033612e49565b3373ffffffffffffffffffffffffffffffffffffffff16601060009054906101000a900473ffffffffffffffffffffffffffffffffffffffff1673ffffffffffffffffffffffffffffffffffffffff16146116b0576040517f08c379a00000000000000000000000000000000000000000000000000000000081526004016116a7906147f4565b60405180910390fd5b6116b8612df9565b6003808111156116cb576116ca613c91565b5b601360019054906101000a900460ff1660038111156116ed576116ec613c91565b5b1461172d576040517f08c379a000000000000000000000000000000000000000000000000000000000815260040161172490614053565b60405180910390fd5b600060075460065461173f9190614843565b905060008111611784576040517f08c379a000000000000000000000000000000000000000000000000000000000815260040161177b906148c3565b60405180910390fd5b8061178d610689565b10156117ce576040517f08c379a00000000000000000000000000000000000000000000000000000000081526004016117c590614955565b60405180910390fd5b6000600681905550600060078190555060008273ffffffffffffffffffffffffffffffffffffffff168260405161180490614701565b60006040518083038185875af1925050503d8060008114611841576040519150601f19603f3d011682016040523d82523d6000602084013e611846565b606091505b505090508061188a576040517f08c379a000000000000000000000000000000000000000000000000000000000815260040161188190614762565b60405180910390fd5b6000601860008573ffffffffffffffffffffffffffffffffffffffff1673ffffffffffffffffffffffffffffffffffffffff16815260200190815260200160002054905080838573ffffffffffffffffffffffffffffffffffffffff167f6f9308aa95332a91bbabfc4240bf8dec1717e3f764b88cb4753c9fad44ef69d860405160405180910390a450505061191e612e3f565b50565b60015481565b6001600381111561193b5761193a613c91565b5b601360019054906101000a900460ff16600381111561195d5761195c613c91565b5b1461199d576040517f08c379a0000000000000000000000000000000000000000000000000000000008152600401611994906144b4565b60405180910390fd5b600a546004546005546119b09190614843565b6119ba9190614843565b34146119fb576040517f08c379a00000000000000000000000000000000000000000000000000000000081526004016119f290614a33565b60405180910390fd5b601560003373ffffffffffffffffffffffffffffffffffffffff1673ffffffffffffffffffffffffffffffffffffffff16815260200190815260200160002060009054906101000a900460ff1615611a88576040517f08c379a0000000000000000000000000000000000000000000000000000000008152600401611a7f90614ac5565b60405180910390fd5b60045460066000828254611a9c9190614843565b9250508190555060055460076000828254611ab79190614843565b92505081905550600554601960003373ffffffffffffffffffffffffffffffffffffffff1673ffffffffffffffffffffffffffffffffffffffff16815260200190815260200160002081905550600a54600b6000828254611b189190614843565b9250508190555080601460003373ffffffffffffffffffffffffffffffffffffffff1673ffffffffffffffffffffffffffffffffffffffff1681526020019081526020016000208190555033601160035481548110611b7a57611b79614ae5565b5b9060005260206000200160006101000a81548173ffffffffffffffffffffffffffffffffffffffff021916908373ffffffffffffffffffffffffffffffffffffffff1602179055506001601560003373ffffffffffffffffffffffffffffffffffffffff1673ffffffffffffffffffffffffffffffffffffffff16815260200190815260200160002060006101000a81548160ff0219169083151502179055506000601660003373ffffffffffffffffffffffffffffffffffffffff1673ffffffffffffffffffffffffffffffffffffffff16815260200190815260200160002060006101000a81548160ff02191690836002811115611c7d57611c7c613c91565b5b021790555060036000815480929190611c9590614b14565b9190505550611cd86040518060400160405280601681526020017f506c61796572206a6f696e6564207468652067616d6500000000000000000000815250612232565b6003543373ffffffffffffffffffffffffffffffffffffffff167f3330a6773675f31f62070870f40379f8c6d42e3761410011a4dfc42b18043d2f60405160405180910390a350565b601360019054906101000a900460ff1681565b600f60009054906101000a900473ffffffffffffffffffffffffffffffffffffffff1681565b60045481565b60085481565b601060009054906101000a900473ffffffffffffffffffffffffffffffffffffffff1681565b600a5481565b60035481565b60118181548110611da857600080fd5b906000526020600020016000915054906101000a900473ffffffffffffffffffffffffffffffffffffffff1681565b601360009054906101000a900460ff1615611e27576040517f08c379a0000000000000000000000000000000000000000000000000000000008152600401611e1e90614ba8565b60405180910390fd5b8860018190555087600d9081611e3d91906142b1565b5086600881905550856009819055508460028190555083600481905550600384611e679190614bc8565b60058190555060025467ffffffffffffffff811115611e8957611e88613948565b5b604051908082528060200260200182016040528015611eb75781602001602082028036833780820191505090505b5060119080519060200190611ecd929190613767565b506000601360016101000a81548160ff02191690836003811115611ef457611ef3613c91565b5b021790555081600a819055506001601360006101000a81548160ff02191690831515021790555082600e60006101000a81548173ffffffffffffffffffffffffffffffffffffffff021916908373ffffffffffffffffffffffffffffffffffffffff16021790555080600f60006101000a81548173ffffffffffffffffffffffffffffffffffffffff021916908373ffffffffffffffffffffffffffffffffffffffff160217905550611fdc6040518060400160405280601081526020017f47616d6520696e697469616c697a65640000000000000000000000000000000081525085612ee5565b61201b6040518060400160405280600381526020017f466565000000000000000000000000000000000000000000000000000000000081525083612ee5565b61205c6040518060400160405280600a81526020017f436f6c6c61746572616c00000000000000000000000000000000000000000000815250600554612ee5565b887fbd19c47e9925eb6f7be8bb1c13a841e0240aaeaf17f217e90022e9c8eb66877f60405160405180910390a2505050505050505050565b600080601860008473ffffffffffffffffffffffffffffffffffffffff1673ffffffffffffffffffffffffffffffffffffffff1681526020019081526020016000205490506000601760008573ffffffffffffffffffffffffffffffffffffffff1673ffffffffffffffffffffffffffffffffffffffff168152602001908152602001600020805461212590613efe565b80601f016020809104026020016040519081016040528092919081815260200182805461215190613efe565b801561219e5780601f106121735761010080835404028352916020019161219e565b820191906000526020600020905b81548152906001019060200180831161218157829003601f168201915b505050505090506000601460008673ffffffffffffffffffffffffffffffffffffffff1673ffffffffffffffffffffffffffffffffffffffff168152602001908152602001600020549050600083836040516020016121fe929190614c2b565b604051602081830303815290604052805190602001209050818114612224576002612227565b60015b945050505050919050565b6122c88160405160240161224691906138a8565b6040516020818303038152906040527f41304fac000000000000000000000000000000000000000000000000000000007bffffffffffffffffffffffffffffffffffffffffffffffffffffffff19166020820180517bffffffffffffffffffffffffffffffffffffffffffffffffffffffff8381831617835250505050612f81565b50565b6122d3612df9565b600554600754101561231a576040517f08c379a000000000000000000000000000000000000000000000000000000000815260040161231190614cc5565b60405180910390fd5b600554601960008373ffffffffffffffffffffffffffffffffffffffff1673ffffffffffffffffffffffffffffffffffffffff16815260200190815260200160002054101561239e576040517f08c379a000000000000000000000000000000000000000000000000000000000815260040161239590614cc5565b60405180910390fd5b600160028111156123b2576123b1613c91565b5b601660008373ffffffffffffffffffffffffffffffffffffffff1673ffffffffffffffffffffffffffffffffffffffff16815260200190815260200160002060009054906101000a900460ff16600281111561241157612410613c91565b5b14612451576040517f08c379a000000000000000000000000000000000000000000000000000000000815260040161244890614d57565b60405180910390fd5b600554601960008373ffffffffffffffffffffffffffffffffffffffff1673ffffffffffffffffffffffffffffffffffffffff16815260200190815260200160002060008282546124a29190614d77565b92505081905550600554600760008282546124bd9190614d77565b9250508190555060008173ffffffffffffffffffffffffffffffffffffffff166005546040516124ec90614701565b60006040518083038185875af1925050503d8060008114612529576040519150601f19603f3d011682016040523d82523d6000602084013e61252e565b606091505b5050905080612572576040517f08c379a000000000000000000000000000000000000000000000000000000000815260040161256990614762565b60405180910390fd5b6005548273ffffffffffffffffffffffffffffffffffffffff167fd7243f6f8212d5188fd054141cf6ea89cfc0d91facb8c3afe2f88a135848014260405160405180910390a3506125c1612e3f565b50565b600260038111156125d8576125d7613c91565b5b601360019054906101000a900460ff1660038111156125fa576125f9613c91565b5b1461263a576040517f08c379a000000000000000000000000000000000000000000000000000000000815260040161263190614053565b60405180910390fd5b6000612644612f9b565b90507fffffffffffffffffffffffffffffffffffffffffffffffffffffffffffffffff810361269a577fffffffffffffffffffffffffffffffffffffffffffffffffffffffffffffffff600c81905550506129be565b60006126a582613187565b905060035467ffffffffffffffff8111156126c3576126c2613948565b5b6040519080825280602002602001820160405280156126f15781602001602082028036833780820191505090505b5060129080519060200190612707929190613767565b506000612715600954613187565b90506000805b6003548110156129a55760006011828154811061273b5761273a614ae5565b5b9060005260206000200160009054906101000a900473ffffffffffffffffffffffffffffffffffffffff16905060006127b2601860008473ffffffffffffffffffffffffffffffffffffffff1673ffffffffffffffffffffffffffffffffffffffff16815260200190815260200160002054613187565b905060006127c08288613213565b156127d6576127cf8783613230565b90506127e3565b6127e08288613230565b90505b6127ed8187613213565b156128f85760005b60128054905081101561286d5760006012828154811061281857612817614ae5565b5b9060005260206000200160006101000a81548173ffffffffffffffffffffffffffffffffffffffff021916908373ffffffffffffffffffffffffffffffffffffffff16021790555080806001019150506127f5565b5080955060009450826012868154811061288a57612889614ae5565b5b9060005260206000200160006101000a81548173ffffffffffffffffffffffffffffffffffffffff021916908373ffffffffffffffffffffffffffffffffffffffff1602179055506128f36040518060600160405280602881526020016151dd60289139612232565b612995565b612902818761325e565b1561299457848061291290614b14565b955050826012868154811061292a57612929614ae5565b5b9060005260206000200160006101000a81548173ffffffffffffffffffffffffffffffffffffffff021916908373ffffffffffffffffffffffffffffffffffffffff1602179055506129936040518060600160405280603181526020016151ac60319139612232565b5b5b505050808060010191505061271b565b506001816129b39190614843565b600c81905550505050505b565b6129c8612df9565b60005b600354811015612b95576000601182815481106129eb576129ea614ae5565b5b9060005260206000200160009054906101000a900473ffffffffffffffffffffffffffffffffffffffff1690506000601960008373ffffffffffffffffffffffffffffffffffffffff1673ffffffffffffffffffffffffffffffffffffffff168152602001908152602001600020549050600060045490506000600354600b54612a759190614dda565b90506000818385612a869190614843565b612a909190614843565b905060008573ffffffffffffffffffffffffffffffffffffffff1682604051612ab890614701565b60006040518083038185875af1925050503d8060008114612af5576040519150601f19603f3d011682016040523d82523d6000602084013e612afa565b606091505b5050905080612b3e576040517f08c379a0000000000000000000000000000000000000000000000000000000008152600401612b3590614762565b60405180910390fd5b818673ffffffffffffffffffffffffffffffffffffffff167f48d31f1c958cd44f1f83a52ae2dfaf61e88a1b82c07a6d5711a4abef60b6531e60405160405180910390a350505050505080806001019150506129cb565b50612b9e612e3f565b565b600380811115612bb357612bb2613c91565b5b601360019054906101000a900460ff166003811115612bd557612bd4613c91565b5b14612c15576040517f08c379a0000000000000000000000000000000000000000000000000000000008152600401612c0c90614053565b60405180910390fd5b6000600754600654612c279190614843565b905080612c32610689565b1015612c73576040517f08c379a0000000000000000000000000000000000000000000000000000000008152600401612c6a90614e7d565b60405180910390fd5b6001600c541315612d0f576000612c8861327b565b905060128181548110612c9e57612c9d614ae5565b5b9060005260206000200160009054906101000a900473ffffffffffffffffffffffffffffffffffffffff16601060006101000a81548173ffffffffffffffffffffffffffffffffffffffff021916908373ffffffffffffffffffffffffffffffffffffffff16021790555050612d90565b6012600081548110612d2457612d23614ae5565b5b9060005260206000200160009054906101000a900473ffffffffffffffffffffffffffffffffffffffff16601060006101000a81548173ffffffffffffffffffffffffffffffffffffffff021916908373ffffffffffffffffffffffffffffffffffffffff1602179055505b80601060009054906101000a900473ffffffffffffffffffffffffffffffffffffffff1673ffffffffffffffffffffffffffffffffffffffff167f75060f9e79552df167b73353fee6237a75bb5ba8ea022f77224e32f152138bcb60405160405180910390a350565b600260005403612e35576040517f3ee5aeb500000000000000000000000000000000000000000000000000000000815260040160405180910390fd5b6002600081905550565b6001600081905550565b612ee18282604051602401612e5f929190614e9d565b6040516020818303038152906040527f319af333000000000000000000000000000000000000000000000000000000007bffffffffffffffffffffffffffffffffffffffffffffffffffffffff19166020820180517bffffffffffffffffffffffffffffffffffffffffffffffffffffffff8381831617835250505050612f81565b5050565b612f7d8282604051602401612efb929190614ecd565b6040516020818303038152906040527fb60e72cc000000000000000000000000000000000000000000000000000000007bffffffffffffffffffffffffffffffffffffffffffffffffffffffff19166020820180517bffffffffffffffffffffffffffffffffffffffffffffffffffffffff8381831617835250505050612f81565b5050565b612f9881612f90613463613484565b63ffffffff16565b50565b6000806000905060008060005b60035481101561310b57600060118281548110612fc857612fc7614ae5565b5b9060005260206000200160009054906101000a900473ffffffffffffffffffffffffffffffffffffffff1690506001600281111561300957613008613c91565b5b601660008373ffffffffffffffffffffffffffffffffffffffff1673ffffffffffffffffffffffffffffffffffffffff16815260200190815260200160002060009054906101000a900460ff16600281111561306857613067613c91565b5b036130fd5761308e60405180606001604052806024815260200161514560249139612232565b60006130d8601860008473ffffffffffffffffffffffffffffffffffffffff1673ffffffffffffffffffffffffffffffffffffffff16815260200190815260200160002054613187565b90506130e4868261348f565b95506130f9856130f46001613187565b61348f565b9450505b508080600101915050612fa8565b50613115826134bd565b15613145577fffffffffffffffffffffffffffffffffffffffffffffffffffffffffffffffff9350505050613184565b61314f83836134d1565b905061317e61317961316a836131656002613187565b613506565b6131746003613187565b6134d1565b613532565b93505050505b90565b6000670de0b6b3a76400007fffffffffffffffffffffffffffffffffffffffffffffffffffffffffffffffff6131bd9190614dda565b82111561320157816040517f1cd951a70000000000000000000000000000000000000000000000000000000081526004016131f891906138e3565b60405180910390fd5b670de0b6b3a764000082029050919050565b600061321e8261354f565b6132278461354f565b10905092915050565b600061325661323e8361354f565b6132478561354f565b6132519190614d77565b613559565b905092915050565b60006132698261354f565b6132728461354f565b14905092915050565b6000804244414345604051602001613297959493929190614f57565b604051602081830303815290604052905060005b600c5481101561343e576000601282815481106132cb576132ca614ae5565b5b9060005260206000200160009054906101000a900473ffffffffffffffffffffffffffffffffffffffff1690506000601860008373ffffffffffffffffffffffffffffffffffffffff1673ffffffffffffffffffffffffffffffffffffffff1681526020019081526020016000205490506000601760008473ffffffffffffffffffffffffffffffffffffffff1673ffffffffffffffffffffffffffffffffffffffff168152602001908152602001600020805461338890613efe565b80601f01602080910402602001604051908101604052809291908181526020018280546133b490613efe565b80156134015780601f106133d657610100808354040283529160200191613401565b820191906000526020600020905b8154815290600101906020018083116133e457829003601f168201915b5050505050905084828260405160200161341d93929190614ff2565b604051602081830303815290604052945050505080806001019150506132ab565b50600081805190602001209050600c548160001c61345c9190615027565b9250505090565b60006a636f6e736f6c652e6c6f679050600080835160208501845afa505050565b6137f1819050919050565b60006134b561349d8361354f565b6134a68561354f565b6134b09190614843565b613559565b905092915050565b6000806134c98361354f565b149050919050565b60006134fe6134f96134e28561354f565b670de0b6b3a76400006134f48661354f565b613563565b613559565b905092915050565b600061352a6135256135178561354f565b6135208561354f565b61367d565b613559565b905092915050565b6000670de0b6b3a7640000826135489190614dda565b9050919050565b6000819050919050565b6000819050919050565b600080600080198587098587029250828110838203039150506000810361359e5783828161359457613593614dab565b5b0492505050613676565b8381106135e6578585856040517f63a057780000000000000000000000000000000000000000000000000000000081526004016135dd93929190615058565b60405180910390fd5b60008486880990508281118203915080830392506000600186190186169050600081870496508185049450600182836000030401905080840285179450600060028860030218905080880260020381029050808802600203810290508088026002038102905080880260020381029050808802600203810290508088026002038102905080860296505050505050505b9392505050565b60008060008019848609848602925082811083820303915050600081036136c057670de0b6b3a764000082816136b6576136b5614dab565b5b0492505050613761565b670de0b6b3a7640000811061370e5784846040517f5173648d00000000000000000000000000000000000000000000000000000000815260040161370592919061508f565b60405180910390fd5b6000670de0b6b3a764000085870990507faccb18165bd6fe31ae1cf318dc5b51eee0e1ba569b88cd74c1773b91fac106696001620400008060000304018483118403026204000083860304170293505050505b92915050565b8280548282559060005260206000209081019282156137e0579160200282015b828111156137df5782518260006101000a81548173ffffffffffffffffffffffffffffffffffffffff021916908373ffffffffffffffffffffffffffffffffffffffff16021790555091602001919060010190613787565b5b5090506137ed91906137fb565b5090565b6137f96150b8565b565b5b808211156138145760008160009055506001016137fc565b5090565b600081519050919050565b600082825260208201905092915050565b60005b83811015613852578082015181840152602081019050613837565b60008484015250505050565b6000601f19601f8301169050919050565b600061387a82613818565b6138848185613823565b9350613894818560208601613834565b61389d8161385e565b840191505092915050565b600060208201905081810360008301526138c2818461386f565b905092915050565b6000819050919050565b6138dd816138ca565b82525050565b60006020820190506138f860008301846138d4565b92915050565b6000604051905090565b600080fd5b600080fd5b61391b816138ca565b811461392657600080fd5b50565b60008135905061393881613912565b92915050565b600080fd5b600080fd5b7f4e487b7100000000000000000000000000000000000000000000000000000000600052604160045260246000fd5b6139808261385e565b810181811067ffffffffffffffff8211171561399f5761399e613948565b5b80604052505050565b60006139b26138fe565b90506139be8282613977565b919050565b600067ffffffffffffffff8211156139de576139dd613948565b5b6139e78261385e565b9050602081019050919050565b82818337600083830152505050565b6000613a16613a11846139c3565b6139a8565b905082815260208101848484011115613a3257613a31613943565b5b613a3d8482856139f4565b509392505050565b600082601f830112613a5a57613a5961393e565b5b8135613a6a848260208601613a03565b91505092915050565b60008060408385031215613a8a57613a89613908565b5b6000613a9885828601613929565b925050602083013567ffffffffffffffff811115613ab957613ab861390d565b5b613ac585828601613a45565b9150509250929050565b600081519050919050565b600082825260208201905092915050565b6000819050602082019050919050565b600073ffffffffffffffffffffffffffffffffffffffff82169050919050565b6000613b2682613afb565b9050919050565b613b3681613b1b565b82525050565b6000613b488383613b2d565b60208301905092915050565b6000602082019050919050565b6000613b6c82613acf565b613b768185613ada565b9350613b8183613aeb565b8060005b83811015613bb2578151613b998882613b3c565b9750613ba483613b54565b925050600181019050613b85565b5085935050505092915050565b60006020820190508181036000830152613bd98184613b61565b905092915050565b600060208284031215613bf757613bf6613908565b5b6000613c0584828501613929565b91505092915050565b613c1781613b1b565b82525050565b6000602082019050613c326000830184613c0e565b92915050565b613c4181613b1b565b8114613c4c57600080fd5b50565b600081359050613c5e81613c38565b92915050565b600060208284031215613c7a57613c79613908565b5b6000613c8884828501613c4f565b91505092915050565b7f4e487b7100000000000000000000000000000000000000000000000000000000600052602160045260246000fd5b60038110613cd157613cd0613c91565b5b50565b6000819050613ce282613cc0565b919050565b6000613cf282613cd4565b9050919050565b613d0281613ce7565b82525050565b6000602082019050613d1d6000830184613cf9565b92915050565b6000819050919050565b613d3681613d23565b8114613d4157600080fd5b50565b600081359050613d5381613d2d565b92915050565b600060208284031215613d6f57613d6e613908565b5b6000613d7d84828501613d44565b91505092915050565b60048110613d9757613d96613c91565b5b50565b6000819050613da882613d86565b919050565b6000613db882613d9a565b9050919050565b613dc881613dad565b82525050565b6000602082019050613de36000830184613dbf565b92915050565b60008060008060008060008060006101208a8c031215613e0c57613e0b613908565b5b6000613e1a8c828d01613929565b99505060208a013567ffffffffffffffff811115613e3b57613e3a61390d565b5b613e478c828d01613a45565b9850506040613e588c828d01613929565b9750506060613e698c828d01613929565b9650506080613e7a8c828d01613929565b95505060a0613e8b8c828d01613929565b94505060c0613e9c8c828d01613c4f565b93505060e0613ead8c828d01613929565b925050610100613ebf8c828d01613c4f565b9150509295985092959850929598565b7f4e487b7100000000000000000000000000000000000000000000000000000000600052602260045260246000fd5b60006002820490506001821680613f1657607f821691505b602082108103613f2957613f28613ecf565b5b50919050565b7f416464726573732063616e277420626520307830000000000000000000000000600082015250565b6000613f65601483613823565b9150613f7082613f2f565b602082019050919050565b60006020820190508181036000830152613f9481613f58565b9050919050565b7f4e6f7420612076616c696420706c617965722061646472657373000000000000600082015250565b6000613fd1601a83613823565b9150613fdc82613f9b565b602082019050919050565b6000602082019050818103600083015261400081613fc4565b9050919050565b7f47616d6520686173206e6f7420656e6465642079657400000000000000000000600082015250565b600061403d601683613823565b915061404882614007565b602082019050919050565b6000602082019050818103600083015261406c81614030565b9050919050565b7f506c6179657220616c72656164792072657665616c656420746865697220677560008201527f6573730000000000000000000000000000000000000000000000000000000000602082015250565b60006140cf602383613823565b91506140da82614073565b604082019050919050565b600060208201905081810360008301526140fe816140c2565b9050919050565b60008190508160005260206000209050919050565b60006020601f8301049050919050565b600082821b905092915050565b6000600883026141677fffffffffffffffffffffffffffffffffffffffffffffffffffffffffffffffff8261412a565b614171868361412a565b95508019841693508086168417925050509392505050565b6000819050919050565b60006141ae6141a96141a4846138ca565b614189565b6138ca565b9050919050565b6000819050919050565b6141c883614193565b6141dc6141d4826141b5565b848454614137565b825550505050565b600090565b6141f16141e4565b6141fc8184846141bf565b505050565b5b81811015614220576142156000826141e9565b600181019050614202565b5050565b601f8211156142655761423681614105565b61423f8461411a565b8101602085101561424e578190505b61426261425a8561411a565b830182614201565b50505b505050565b600082821c905092915050565b60006142886000198460080261426a565b1980831691505092915050565b60006142a18383614277565b9150826002028217905092915050565b6142ba82613818565b67ffffffffffffffff8111156142d3576142d2613948565b5b6142dd8254613efe565b6142e8828285614224565b600060209050601f83116001811461431b5760008415614309578287015190505b6143138582614295565b86555061437b565b601f19841661432986614105565b60005b828110156143515784890151825560018201915060208501945060208101905061432c565b8683101561436e578489015161436a601f891682614277565b8355505b6001600288020188555050505b505050505050565b600081905092915050565b600061439982613818565b6143a38185614383565b93506143b3818560208601613834565b80840191505092915050565b60006143cb828461438e565b915081905092915050565b7f4f6e6c792067616d65206d61737465722063616e2063616c6c2074686973206660008201527f756e6374696f6e00000000000000000000000000000000000000000000000000602082015250565b6000614432602783613823565b915061443d826143d6565b604082019050919050565b6000602082019050818103600083015261446181614425565b9050919050565b7f47616d6520686173206e6f742073746172746564207965740000000000000000600082015250565b600061449e601883613823565b91506144a982614468565b602082019050919050565b600060208201905081810360008301526144cd81614491565b9050919050565b7f41746c65617374203320706c617965727320617265207265717569726564207460008201527f6f207374617274207468652067616d6500000000000000000000000000000000602082015250565b6000614530603083613823565b915061453b826144d4565b604082019050919050565b6000602082019050818103600083015261455f81614523565b9050919050565b7f47616d652068617320616c726561647920737461727465640000000000000000600082015250565b600061459c601883613823565b91506145a782614566565b602082019050919050565b600060208201905081810360008301526145cb8161458f565b9050919050565b7f4e6f2077696e6e657220666f756e640000000000000000000000000000000000600082015250565b6000614608600f83613823565b9150614613826145d2565b602082019050919050565b60006020820190508181036000830152614637816145fb565b9050919050565b7f4e6f7420656e6f7567682066756e647320746f2077697468647261772074686560008201527f2067616d65206665657300000000000000000000000000000000000000000000602082015250565b600061469a602a83613823565b91506146a58261463e565b604082019050919050565b600060208201905081810360008301526146c98161468d565b9050919050565b600081905092915050565b50565b60006146eb6000836146d0565b91506146f6826146db565b600082019050919050565b600061470c826146de565b9150819050919050565b7f4661696c656420746f2073656e64204574686572000000000000000000000000600082015250565b600061474c601483613823565b915061475782614716565b602082019050919050565b6000602082019050818103600083015261477b8161473f565b9050919050565b7f4f6e6c792077696e6e65722063616e2063616c6c20746869732066756e63746960008201527f6f6e000000000000000000000000000000000000000000000000000000000000602082015250565b60006147de602283613823565b91506147e982614782565b604082019050919050565b6000602082019050818103600083015261480d816147d1565b9050919050565b7f4e487b7100000000000000000000000000000000000000000000000000000000600052601160045260246000fd5b600061484e826138ca565b9150614859836138ca565b925082820190508082111561487157614870614814565b5b92915050565b7f4e6f20707269636520706f6f6c20746f207061796f7574000000000000000000600082015250565b60006148ad601783613823565b91506148b882614877565b602082019050919050565b600060208201905081810360008301526148dc816148a0565b9050919050565b7f4e6f7420656e6f7567682066756e647320746f207061796f757420746865207760008201527f696e6e6572000000000000000000000000000000000000000000000000000000602082015250565b600061493f602583613823565b915061494a826148e3565b604082019050919050565b6000602082019050818103600083015261496e81614932565b9050919050565b7f496e73756666696369656e7420616d6f756e742c206d7573742062652074686560008201527f2062657420616d6f756e74202b20332074696d6573207468652062657420616d60208201527f6f756e7420617320636f6c6c61746572616c20696e636c7564696e672074686560408201527f2067616d65206665650000000000000000000000000000000000000000000000606082015250565b6000614a1d606983613823565b9150614a2882614975565b608082019050919050565b60006020820190508181036000830152614a4c81614a10565b9050919050565b7f506c617965722068617320616c7265616479206a6f696e65642074686520676160008201527f6d65000000000000000000000000000000000000000000000000000000000000602082015250565b6000614aaf602283613823565b9150614aba82614a53565b604082019050919050565b60006020820190508181036000830152614ade81614aa2565b9050919050565b7f4e487b7100000000000000000000000000000000000000000000000000000000600052603260045260246000fd5b6000614b1f826138ca565b91507fffffffffffffffffffffffffffffffffffffffffffffffffffffffffffffffff8203614b5157614b50614814565b5b600182019050919050565b7f47616d6520697320616c726561647920696e697469616c697a65640000000000600082015250565b6000614b92601b83613823565b9150614b9d82614b5c565b602082019050919050565b60006020820190508181036000830152614bc181614b85565b9050919050565b6000614bd3826138ca565b9150614bde836138ca565b9250828202614bec816138ca565b91508282048414831517614c0357614c02614814565b5b5092915050565b6000819050919050565b614c25614c20826138ca565b614c0a565b82525050565b6000614c378285614c14565b602082019150614c47828461438e565b91508190509392505050565b7f4e6f7420656e6f7567682066756e647320746f207061796f757420746865206360008201527f6f6c6c61746572616c20616d6f756e7400000000000000000000000000000000602082015250565b6000614caf603083613823565b9150614cba82614c53565b604082019050919050565b60006020820190508181036000830152614cde81614ca2565b9050919050565b7f506c6179657220646964206e6f742072657665616c207468656972206775657360008201527f7300000000000000000000000000000000000000000000000000000000000000602082015250565b6000614d41602183613823565b9150614d4c82614ce5565b604082019050919050565b60006020820190508181036000830152614d7081614d34565b9050919050565b6000614d82826138ca565b9150614d8d836138ca565b9250828203905081811115614da557614da4614814565b5b92915050565b7f4e487b7100000000000000000000000000000000000000000000000000000000600052601260045260246000fd5b6000614de5826138ca565b9150614df0836138ca565b925082614e0057614dff614dab565b5b828204905092915050565b7f4e6f7420656e6f7567682066756e647320746f207061796f757420746865207760008201527f696e6e6572730000000000000000000000000000000000000000000000000000602082015250565b6000614e67602683613823565b9150614e7282614e0b565b604082019050919050565b60006020820190508181036000830152614e9681614e5a565b9050919050565b60006040820190508181036000830152614eb7818561386f565b9050614ec66020830184613c0e565b9392505050565b60006040820190508181036000830152614ee7818561386f565b9050614ef660208301846138d4565b9392505050565b6000614f0882613afb565b9050919050565b60008160601b9050919050565b6000614f2782614f0f565b9050919050565b6000614f3982614f1c565b9050919050565b614f51614f4c82614efd565b614f2e565b82525050565b6000614f638288614c14565b602082019150614f738287614c14565b602082019150614f838286614f40565b601482019150614f938285614c14565b602082019150614fa38284614c14565b6020820191508190509695505050505050565b600081519050919050565b6000614fcc82614fb6565b614fd681856146d0565b9350614fe6818560208601613834565b80840191505092915050565b6000614ffe8286614fc1565b915061500a8285614c14565b60208201915061501a828461438e565b9150819050949350505050565b6000615032826138ca565b915061503d836138ca565b92508261504d5761504c614dab565b5b828206905092915050565b600060608201905061506d60008301866138d4565b61507a60208301856138d4565b61508760408301846138d4565b949350505050565b60006040820190506150a460008301856138d4565b6150b160208301846138d4565b9392505050565b7f4e487b7100000000000000000000000000000000000000000000000000000000600052605160045260246000fdfe506c617965722072657665616c656420746865697220636f72726563742067756573734e6f20706f74656e7469616c2077696e6e65727320666f756e642c20726566756e64696e672065766572796f6e65207468656972206d6f6e6579506c617965722072657665616c656420746865697220636f72726563742076616c756573506c617965722072657665616c656420616e20696e636f72726563742067756573732c20636f6c6c61746572616c2077696c6c206e6f7420626520726566756e646564416e6f7468657220706f74656e7469616c2077696e6e657220666f756e6420776974682073616d652064697374616e63654e657720706f74656e7469616c2077696e6e657220666f756e6420776974682064697374616e6365a26469706673582212201dc6bf2ee5ce7a8e6abbfd25806b40906ce6fd5abcf918fa883139d860203c3d64736f6c63430008180033",
  "linkReferences": {},
  "deployedLinkReferences": {}
}