{
  "_format": "hh-sol-artifact-1",
  "contractName": "AverageGameFactory",
  "sourceName": "contracts/AverageGameFactory.sol",
  "abi": [
    {
      "inputs": [],
      "name": "ERC1167FailedCreateClone",
      "type": "error"
    },
    {
      "anonymous": false,
      "inputs": [
        {
          "indexed": true,
          "internalType": "uint256",
          "name": "gameCount",
          "type": "uint256"
        },
        {
          "indexed": true,
          "internalType": "address",
          "name": "gameAddress",
          "type": "address"
        }
      ],
      "name": "GameCreated",
      "type": "event"
    },
    {
      "inputs": [
        {
          "internalType": "address",
          "name": "_address",
          "type": "address"
        },
        {
          "internalType": "string",
          "name": "_name",
          "type": "string"
        },
        {
          "internalType": "uint256",
          "name": "_maxPlayers",
          "type": "uint256"
        },
        {
          "internalType": "uint256",
          "name": "_betAmount",
          "type": "uint256"
        },
        {
          "internalType": "uint256",
          "name": "_gameFee",
          "type": "uint256"
        },
        {
          "internalType": "uint256",
          "name": "_icon",
          "type": "uint256"
        }
      ],
      "name": "createAverageGame",
      "outputs": [
        {
          "internalType": "address",
          "name": "",
          "type": "address"
        }
      ],
      "stateMutability": "nonpayable",
      "type": "function"
    },
    {
      "inputs": [
        {
          "internalType": "uint256",
          "name": "_index",
          "type": "uint256"
        }
      ],
      "name": "getGameMasterAt",
      "outputs": [
        {
          "internalType": "address",
          "name": "",
          "type": "address"
        }
      ],
      "stateMutability": "view",
      "type": "function"
    },
    {
      "inputs": [],
      "name": "getGameMasters",
      "outputs": [
        {
          "internalType": "address[]",
          "name": "",
          "type": "address[]"
        }
      ],
      "stateMutability": "view",
      "type": "function"
    },
    {
      "inputs": [],
      "name": "getGameProxies",
      "outputs": [
        {
          "internalType": "address[]",
          "name": "",
          "type": "address[]"
        }
      ],
      "stateMutability": "view",
      "type": "function"
    },
    {
      "inputs": [
        {
          "internalType": "uint256",
          "name": "_index",
          "type": "uint256"
        }
      ],
      "name": "getGameProxyAt",
      "outputs": [
        {
          "internalType": "address",
          "name": "",
          "type": "address"
        }
      ],
      "stateMutability": "view",
      "type": "function"
    },
    {
      "inputs": [],
      "name": "totalGames",
      "outputs": [
        {
          "internalType": "uint256",
          "name": "",
          "type": "uint256"
        }
      ],
      "stateMutability": "view",
      "type": "function"
    }
  ],
  "bytecode": "0x60806040526000805534801561001457600080fd5b50610edb806100246000396000f3fe608060405234801561001057600080fd5b50600436106100625760003560e01c80632060cc4a146100675780632c4e591b14610097578063334a5689146100b55780635bed391e146100e55780639e5aef0a14610103578063b2b5842114610133575b600080fd5b610081600480360381019061007c91906109e1565b610151565b60405161008e9190610a99565b60405180910390f35b61009f61040b565b6040516100ac9190610ac3565b60405180910390f35b6100cf60048036038101906100ca9190610ade565b610411565b6040516100dc9190610a99565b60405180910390f35b6100ed610459565b6040516100fa9190610bc9565b60405180910390f35b61011d60048036038101906101189190610ade565b6104e7565b60405161012a9190610a99565b60405180910390f35b61013b61052f565b6040516101489190610bc9565b60405180910390f35b60006101916040518060400160405280601281526020017f4372656174696e672047616d65212121212100000000000000000000000000008152506105bd565b600061019c88610656565b90506101dc6040518060400160405280600681526020017f436c6f6e656400000000000000000000000000000000000000000000000000008152506105bd565b6001819080600181540180825580915050600190039060005260206000200160009091909190916101000a81548173ffffffffffffffffffffffffffffffffffffffff021916908373ffffffffffffffffffffffffffffffffffffffff16021790555061027e6040518060400160405280600b81526020017f47616d65204d617374657200000000000000000000000000000000000000000081525033610707565b6002339080600181540180825580915050600190039060005260206000200160009091909190916101000a81548173ffffffffffffffffffffffffffffffffffffffff021916908373ffffffffffffffffffffffffffffffffffffffff1602179055508073ffffffffffffffffffffffffffffffffffffffff1663df66cd936000548960006103e88b8b338c8c6040518a63ffffffff1660e01b815260040161032f99989796959493929190610cea565b600060405180830381600087803b15801561034957600080fd5b505af115801561035d573d6000803e3d6000fd5b5050505060008081548092919061037390610dad565b91905055508073ffffffffffffffffffffffffffffffffffffffff166000547fc3e0f84839dc888c892a013d10c8f9d6dc05a21a879d0ce468ca558013e9121c60405160405180910390a36103fd6040518060400160405280601081526020017f496e69742067616d652063616c6c65640000000000000000000000000000000081525082610707565b809150509695505050505050565b60005481565b60006002828154811061042757610426610df5565b5b9060005260206000200160009054906101000a900473ffffffffffffffffffffffffffffffffffffffff169050919050565b606060028054806020026020016040519081016040528092919081815260200182805480156104dd57602002820191906000526020600020905b8160009054906101000a900473ffffffffffffffffffffffffffffffffffffffff1673ffffffffffffffffffffffffffffffffffffffff1681526020019060010190808311610493575b5050505050905090565b6000600182815481106104fd576104fc610df5565b5b9060005260206000200160009054906101000a900473ffffffffffffffffffffffffffffffffffffffff169050919050565b606060018054806020026020016040519081016040528092919081815260200182805480156105b357602002820191906000526020600020905b8160009054906101000a900473ffffffffffffffffffffffffffffffffffffffff1673ffffffffffffffffffffffffffffffffffffffff1681526020019060010190808311610569575b5050505050905090565b610653816040516024016105d19190610e24565b6040516020818303038152906040527f41304fac000000000000000000000000000000000000000000000000000000007bffffffffffffffffffffffffffffffffffffffffffffffffffffffff19166020820180517bffffffffffffffffffffffffffffffffffffffffffffffffffffffff83818316178352505050506107a3565b50565b6000763d602d80600a3d3981f3363d3d373d3d3d363d730000008260601b60e81c176000526e5af43d82803e903d91602b57fd5bf38260781b17602052603760096000f09050600073ffffffffffffffffffffffffffffffffffffffff168173ffffffffffffffffffffffffffffffffffffffff1603610702576040517fc2f868f400000000000000000000000000000000000000000000000000000000815260040160405180910390fd5b919050565b61079f828260405160240161071d929190610e46565b6040516020818303038152906040527f319af333000000000000000000000000000000000000000000000000000000007bffffffffffffffffffffffffffffffffffffffffffffffffffffffff19166020820180517bffffffffffffffffffffffffffffffffffffffffffffffffffffffff83818316178352505050506107a3565b5050565b6107ba816107b26107bd6107de565b63ffffffff16565b50565b60006a636f6e736f6c652e6c6f679050600080835160208501845afa505050565b6107e9819050919050565b6107f1610e76565b565b6000604051905090565b600080fd5b600080fd5b600073ffffffffffffffffffffffffffffffffffffffff82169050919050565b600061083282610807565b9050919050565b61084281610827565b811461084d57600080fd5b50565b60008135905061085f81610839565b92915050565b600080fd5b600080fd5b6000601f19601f8301169050919050565b7f4e487b7100000000000000000000000000000000000000000000000000000000600052604160045260246000fd5b6108b88261086f565b810181811067ffffffffffffffff821117156108d7576108d6610880565b5b80604052505050565b60006108ea6107f3565b90506108f682826108af565b919050565b600067ffffffffffffffff82111561091657610915610880565b5b61091f8261086f565b9050602081019050919050565b82818337600083830152505050565b600061094e610949846108fb565b6108e0565b90508281526020810184848401111561096a5761096961086a565b5b61097584828561092c565b509392505050565b600082601f83011261099257610991610865565b5b81356109a284826020860161093b565b91505092915050565b6000819050919050565b6109be816109ab565b81146109c957600080fd5b50565b6000813590506109db816109b5565b92915050565b60008060008060008060c087890312156109fe576109fd6107fd565b5b6000610a0c89828a01610850565b965050602087013567ffffffffffffffff811115610a2d57610a2c610802565b5b610a3989828a0161097d565b9550506040610a4a89828a016109cc565b9450506060610a5b89828a016109cc565b9350506080610a6c89828a016109cc565b92505060a0610a7d89828a016109cc565b9150509295509295509295565b610a9381610827565b82525050565b6000602082019050610aae6000830184610a8a565b92915050565b610abd816109ab565b82525050565b6000602082019050610ad86000830184610ab4565b92915050565b600060208284031215610af457610af36107fd565b5b6000610b02848285016109cc565b91505092915050565b600081519050919050565b600082825260208201905092915050565b6000819050602082019050919050565b610b4081610827565b82525050565b6000610b528383610b37565b60208301905092915050565b6000602082019050919050565b6000610b7682610b0b565b610b808185610b16565b9350610b8b83610b27565b8060005b83811015610bbc578151610ba38882610b46565b9750610bae83610b5e565b925050600181019050610b8f565b5085935050505092915050565b60006020820190508181036000830152610be38184610b6b565b905092915050565b600081519050919050565b600082825260208201905092915050565b60005b83811015610c25578082015181840152602081019050610c0a565b60008484015250505050565b6000610c3c82610beb565b610c468185610bf6565b9350610c56818560208601610c07565b610c5f8161086f565b840191505092915050565b6000819050919050565b6000819050919050565b6000610c99610c94610c8f84610c6a565b610c74565b6109ab565b9050919050565b610ca981610c7e565b82525050565b6000819050919050565b6000610cd4610ccf610cca84610caf565b610c74565b6109ab565b9050919050565b610ce481610cb9565b82525050565b600061012082019050610d00600083018c610ab4565b8181036020830152610d12818b610c31565b9050610d21604083018a610ca0565b610d2e6060830189610cdb565b610d3b6080830188610ab4565b610d4860a0830187610ab4565b610d5560c0830186610a8a565b610d6260e0830185610ab4565b610d70610100830184610ab4565b9a9950505050505050505050565b7f4e487b7100000000000000000000000000000000000000000000000000000000600052601160045260246000fd5b6000610db8826109ab565b91507fffffffffffffffffffffffffffffffffffffffffffffffffffffffffffffffff8203610dea57610de9610d7e565b5b600182019050919050565b7f4e487b7100000000000000000000000000000000000000000000000000000000600052603260045260246000fd5b60006020820190508181036000830152610e3e8184610c31565b905092915050565b60006040820190508181036000830152610e608185610c31565b9050610e6f6020830184610a8a565b9392505050565b7f4e487b7100000000000000000000000000000000000000000000000000000000600052605160045260246000fdfea26469706673582212201353b9dd2cd606bcb709356b41ddf397f2b2b4bb8c4955b61c1638730554505664736f6c63430008180033",
  "linkReferences": {},
  "deployedLinkReferences": {}
}