{
  "_format": "hh-sol-artifact-1",
  "contractName": "AverageGame",
  "sourceName": "contracts/AverageGame.sol",
  "abi": [
    {
      "inputs": [
        {
          "internalType": "uint256",
          "name": "x",
          "type": "uint256"
        },
        {
          "internalType": "uint256",
          "name": "y",
          "type": "uint256"
        }
      ],
      "name": "PRBMath_MulDiv18_Overflow",
      "type": "error"
    },
    {
      "inputs": [
        {
          "internalType": "uint256",
          "name": "x",
          "type": "uint256"
        },
        {
          "internalType": "uint256",
          "name": "y",
          "type": "uint256"
        },
        {
          "internalType": "uint256",
          "name": "denominator",
          "type": "uint256"
        }
      ],
      "name": "PRBMath_MulDiv_Overflow",
      "type": "error"
    },
    {
      "inputs": [
        {
          "internalType": "uint256",
          "name": "x",
          "type": "uint256"
        }
      ],
      "name": "PRBMath_UD60x18_Convert_Overflow",
      "type": "error"
    },
    {
      "inputs": [],
      "name": "ReentrancyGuardReentrantCall",
      "type": "error"
    },
    {
      "anonymous": false,
      "inputs": [
        {
          "indexed": true,
          "internalType": "uint256",
          "name": "gameId",
          "type": "uint256"
        }
      ],
      "name": "BettingRoundClosed",
      "type": "event"
    },
    {
      "anonymous": false,
      "inputs": [
        {
          "indexed": true,
          "internalType": "uint256",
          "name": "gameId",
          "type": "uint256"
        },
        {
          "indexed": true,
          "internalType": "address",
          "name": "player",
          "type": "address"
        },
        {
          "indexed": true,
          "internalType": "uint256",
          "name": "amount",
          "type": "uint256"
        }
      ],
      "name": "CollateralDeposited",
      "type": "event"
    },
    {
      "anonymous": false,
      "inputs": [
        {
          "indexed": true,
          "internalType": "uint256",
          "name": "gameId",
          "type": "uint256"
        },
        {
          "indexed": true,
          "internalType": "address",
          "name": "player",
          "type": "address"
        },
        {
          "indexed": true,
          "internalType": "uint256",
          "name": "amount",
          "type": "uint256"
        }
      ],
      "name": "FeeCollected",
      "type": "event"
    },
    {
      "anonymous": false,
      "inputs": [
        {
          "indexed": true,
          "internalType": "uint256",
          "name": "gameId",
          "type": "uint256"
        }
      ],
      "name": "GameCreated",
      "type": "event"
    },
    {
      "anonymous": false,
      "inputs": [
        {
          "indexed": true,
          "internalType": "uint256",
          "name": "gameId",
          "type": "uint256"
        }
      ],
      "name": "GameEnded",
      "type": "event"
    },
    {
      "anonymous": false,
      "inputs": [
        {
          "indexed": true,
          "internalType": "uint256",
          "name": "gameId",
          "type": "uint256"
        },
        {
          "indexed": true,
          "internalType": "address",
          "name": "player",
          "type": "address"
        },
        {
          "indexed": true,
          "internalType": "uint256",
          "name": "totalPlayersAmount",
          "type": "uint256"
        }
      ],
      "name": "PlayerJoined",
      "type": "event"
    },
    {
      "anonymous": false,
      "inputs": [
        {
          "indexed": true,
          "internalType": "uint256",
          "name": "gameId",
          "type": "uint256"
        },
        {
          "indexed": true,
          "internalType": "address",
          "name": "player",
          "type": "address"
        },
        {
          "indexed": true,
          "internalType": "uint256",
          "name": "amount",
          "type": "uint256"
        }
      ],
      "name": "PlayerRefunded",
      "type": "event"
    },
    {
      "anonymous": false,
      "inputs": [
        {
          "indexed": true,
          "internalType": "uint256",
          "name": "gameId",
          "type": "uint256"
        },
        {
          "indexed": true,
          "internalType": "address",
          "name": "player",
          "type": "address"
        },
        {
          "indexed": true,
          "internalType": "uint256",
          "name": "guess",
          "type": "uint256"
        },
        {
          "indexed": false,
          "internalType": "string",
          "name": "salt",
          "type": "string"
        },
        {
          "indexed": false,
          "internalType": "enum AverageGame.RevealState",
          "name": "revealState",
          "type": "uint8"
        }
      ],
      "name": "PlayerRevealedGuess",
      "type": "event"
    },
    {
      "anonymous": false,
      "inputs": [
        {
          "indexed": true,
          "internalType": "uint256",
          "name": "gameId",
          "type": "uint256"
        },
        {
          "indexed": true,
          "internalType": "address",
          "name": "player",
          "type": "address"
        },
        {
          "indexed": true,
          "internalType": "uint256",
          "name": "amount",
          "type": "uint256"
        },
        {
          "indexed": false,
          "internalType": "uint256",
          "name": "guess",
          "type": "uint256"
        }
      ],
      "name": "PrizeAwarded",
      "type": "event"
    },
    {
      "anonymous": false,
      "inputs": [
        {
          "indexed": true,
          "internalType": "uint256",
          "name": "gameId",
          "type": "uint256"
        },
        {
          "indexed": true,
          "internalType": "address",
          "name": "winner",
          "type": "address"
        },
        {
          "indexed": true,
          "internalType": "uint256",
          "name": "amount",
          "type": "uint256"
        }
      ],
      "name": "WinnerSelected",
      "type": "event"
    },
    {
      "inputs": [],
      "name": "betAmount",
      "outputs": [
        {
          "internalType": "uint256",
          "name": "",
          "type": "uint256"
        }
      ],
      "stateMutability": "view",
      "type": "function"
    },
    {
      "inputs": [],
      "name": "blockNumber",
      "outputs": [
        {
          "internalType": "uint256",
          "name": "",
          "type": "uint256"
        }
      ],
      "stateMutability": "view",
      "type": "function"
    },
    {
      "inputs": [],
      "name": "collateralAmount",
      "outputs": [
        {
          "internalType": "uint256",
          "name": "",
          "type": "uint256"
        }
      ],
      "stateMutability": "view",
      "type": "function"
    },
    {
      "inputs": [],
      "name": "endGame",
      "outputs": [],
      "stateMutability": "nonpayable",
      "type": "function"
    },
    {
      "inputs": [],
      "name": "feeClaimed",
      "outputs": [
        {
          "internalType": "bool",
          "name": "",
          "type": "bool"
        }
      ],
      "stateMutability": "view",
      "type": "function"
    },
    {
      "inputs": [],
      "name": "gameFee",
      "outputs": [
        {
          "internalType": "uint256",
          "name": "",
          "type": "uint256"
        }
      ],
      "stateMutability": "view",
      "type": "function"
    },
    {
      "inputs": [],
      "name": "gameMaster",
      "outputs": [
        {
          "internalType": "address",
          "name": "",
          "type": "address"
        }
      ],
      "stateMutability": "view",
      "type": "function"
    },
    {
      "inputs": [],
      "name": "getAverageGameInstance",
      "outputs": [
        {
          "components": [
            {
              "internalType": "uint256",
              "name": "id",
              "type": "uint256"
            },
            {
              "internalType": "string",
              "name": "name",
              "type": "string"
            },
            {
              "internalType": "uint256",
              "name": "entryPrice",
              "type": "uint256"
            },
            {
              "internalType": "uint256",
              "name": "totalPlayers",
              "type": "uint256"
            },
            {
              "internalType": "uint256",
              "name": "maxPlayers",
              "type": "uint256"
            },
            {
              "internalType": "address",
              "name": "contractAddress",
              "type": "address"
            },
            {
              "internalType": "uint256",
              "name": "collateral",
              "type": "uint256"
            },
            {
              "internalType": "uint256",
              "name": "gameFee",
              "type": "uint256"
            },
            {
              "internalType": "address[]",
              "name": "players",
              "type": "address[]"
            },
            {
              "internalType": "enum AverageGame.GameState",
              "name": "gameState",
              "type": "uint8"
            },
            {
              "internalType": "address",
              "name": "gameMaster",
              "type": "address"
            },
            {
              "internalType": "address",
              "name": "winner",
              "type": "address"
            },
            {
              "internalType": "bool",
              "name": "rewardClaimed",
              "type": "bool"
            },
            {
              "internalType": "bool",
              "name": "feeClaimed",
              "type": "bool"
            },
            {
              "internalType": "enum AverageGame.GameIcon",
              "name": "icon",
              "type": "uint8"
            }
          ],
          "internalType": "struct AverageGame.AverageGameInstance",
          "name": "",
          "type": "tuple"
        }
      ],
      "stateMutability": "view",
      "type": "function"
    },
    {
      "inputs": [],
      "name": "getBalance",
      "outputs": [
        {
          "internalType": "uint256",
          "name": "",
          "type": "uint256"
        }
      ],
      "stateMutability": "view",
      "type": "function"
    },
    {
      "inputs": [
        {
          "internalType": "address",
          "name": "_player",
          "type": "address"
        }
      ],
      "name": "getPlayerRevealedState",
      "outputs": [
        {
          "internalType": "enum AverageGame.RevealState",
          "name": "",
          "type": "uint8"
        }
      ],
      "stateMutability": "view",
      "type": "function"
    },
    {
      "inputs": [],
      "name": "getPlayers",
      "outputs": [
        {
          "internalType": "address[]",
          "name": "",
          "type": "address[]"
        }
      ],
      "stateMutability": "view",
      "type": "function"
    },
    {
      "inputs": [],
      "name": "getPotentialWinners",
      "outputs": [
        {
          "internalType": "address[]",
          "name": "",
          "type": "address[]"
        }
      ],
      "stateMutability": "view",
      "type": "function"
    },
    {
      "inputs": [],
      "name": "icon",
      "outputs": [
        {
          "internalType": "enum AverageGame.GameIcon",
          "name": "",
          "type": "uint8"
        }
      ],
      "stateMutability": "view",
      "type": "function"
    },
    {
      "inputs": [],
      "name": "id",
      "outputs": [
        {
          "internalType": "uint256",
          "name": "",
          "type": "uint256"
        }
      ],
      "stateMutability": "view",
      "type": "function"
    },
    {
      "inputs": [
        {
          "internalType": "uint256",
          "name": "_gameId",
          "type": "uint256"
        },
        {
          "internalType": "string",
          "name": "_name",
          "type": "string"
        },
        {
          "internalType": "uint256",
          "name": "_minGuess",
          "type": "uint256"
        },
        {
          "internalType": "uint256",
          "name": "_maxGuess",
          "type": "uint256"
        },
        {
          "internalType": "uint256",
          "name": "_maxPlayers",
          "type": "uint256"
        },
        {
          "internalType": "uint256",
          "name": "_betAmount",
          "type": "uint256"
        },
        {
          "internalType": "address",
          "name": "_gameMaster",
          "type": "address"
        },
        {
          "internalType": "uint256",
          "name": "_gameFee",
          "type": "uint256"
        },
        {
          "internalType": "uint256",
          "name": "_icon",
          "type": "uint256"
        }
      ],
      "name": "initGame",
      "outputs": [],
      "stateMutability": "payable",
      "type": "function"
    },
    {
      "inputs": [
        {
          "internalType": "bytes32",
          "name": "_guess",
          "type": "bytes32"
        }
      ],
      "name": "joinGame",
      "outputs": [],
      "stateMutability": "payable",
      "type": "function"
    },
    {
      "inputs": [],
      "name": "maxGuess",
      "outputs": [
        {
          "internalType": "uint256",
          "name": "",
          "type": "uint256"
        }
      ],
      "stateMutability": "view",
      "type": "function"
    },
    {
      "inputs": [],
      "name": "maxPlayers",
      "outputs": [
        {
          "internalType": "uint256",
          "name": "",
          "type": "uint256"
        }
      ],
      "stateMutability": "view",
      "type": "function"
    },
    {
      "inputs": [],
      "name": "minGuess",
      "outputs": [
        {
          "internalType": "uint256",
          "name": "",
          "type": "uint256"
        }
      ],
      "stateMutability": "view",
      "type": "function"
    },
    {
      "inputs": [],
      "name": "name",
      "outputs": [
        {
          "internalType": "string",
          "name": "",
          "type": "string"
        }
      ],
      "stateMutability": "view",
      "type": "function"
    },
    {
      "inputs": [
        {
          "internalType": "uint256",
          "name": "",
          "type": "uint256"
        }
      ],
      "name": "potentialWinners",
      "outputs": [
        {
          "internalType": "address",
          "name": "",
          "type": "address"
        }
      ],
      "stateMutability": "view",
      "type": "function"
    },
    {
      "inputs": [],
      "name": "requestRefund",
      "outputs": [],
      "stateMutability": "nonpayable",
      "type": "function"
    },
    {
      "inputs": [
        {
          "internalType": "uint256",
          "name": "_guess",
          "type": "uint256"
        },
        {
          "internalType": "string",
          "name": "_salt",
          "type": "string"
        }
      ],
      "name": "revealGuess",
      "outputs": [],
      "stateMutability": "nonpayable",
      "type": "function"
    },
    {
      "inputs": [],
      "name": "rewardClaimed",
      "outputs": [
        {
          "internalType": "bool",
          "name": "",
          "type": "bool"
        }
      ],
      "stateMutability": "view",
      "type": "function"
    },
    {
      "inputs": [],
      "name": "startRevealPhase",
      "outputs": [],
      "stateMutability": "nonpayable",
      "type": "function"
    },
    {
      "inputs": [],
      "name": "state",
      "outputs": [
        {
          "internalType": "enum AverageGame.GameState",
          "name": "",
          "type": "uint8"
        }
      ],
      "stateMutability": "view",
      "type": "function"
    },
    {
      "inputs": [],
      "name": "timeToPass",
      "outputs": [
        {
          "internalType": "uint16",
          "name": "",
          "type": "uint16"
        }
      ],
      "stateMutability": "view",
      "type": "function"
    },
    {
      "inputs": [],
      "name": "totalBetAmount",
      "outputs": [
        {
          "internalType": "uint256",
          "name": "",
          "type": "uint256"
        }
      ],
      "stateMutability": "view",
      "type": "function"
    },
    {
      "inputs": [],
      "name": "totalCollateralAmount",
      "outputs": [
        {
          "internalType": "uint256",
          "name": "",
          "type": "uint256"
        }
      ],
      "stateMutability": "view",
      "type": "function"
    },
    {
      "inputs": [],
      "name": "totalPlayers",
      "outputs": [
        {
          "internalType": "uint256",
          "name": "",
          "type": "uint256"
        }
      ],
      "stateMutability": "view",
      "type": "function"
    },
    {
      "inputs": [],
      "name": "winner",
      "outputs": [
        {
          "internalType": "address",
          "name": "",
          "type": "address"
        }
      ],
      "stateMutability": "view",
      "type": "function"
    },
    {
      "inputs": [],
      "name": "withdrawGameFees",
      "outputs": [],
      "stateMutability": "nonpayable",
      "type": "function"
    },
    {
      "inputs": [
        {
          "internalType": "address",
          "name": "_winner",
          "type": "address"
        }
      ],
      "name": "withdrawPricepool",
      "outputs": [],
      "stateMutability": "nonpayable",
      "type": "function"
    }
  ],
  "bytecode": "0x6080604052600a600e60006101000a81548161ffff021916908361ffff16021790555034801561002e57600080fd5b506001600081905550615eca80620000476000396000f3fe6080604052600436106101ee5760003560e01c80638b5b9ccc1161010d578063c557b985116100a0578063d5cef1331161006f578063d5cef1331461067c578063df66cd9314610693578063dfbf53ae146106af578063ea777eec146106da578063f60cdcf614610705576101ee565b8063c557b985146105e4578063c6fd5d4e1461060f578063d24257c014610626578063d2e66e9d14610651576101ee565b8063af640d0f116100dc578063af640d0f14610547578063bdf84ae714610572578063bf4747661461059d578063c19d93fb146105b9576101ee565b80638b5b9ccc146104b157806392d09ceb146104dc5780639b9922e814610507578063ab8a28731461051e576101ee565b80635530e51011610185578063613f459411610154578063613f45941461041957806363f31d2c146104445780636cbc2ded1461046f57806371f4b8e814610486576101ee565b80635530e5101461035b578063574d6d7e1461038657806357e871e7146103c35780635f573bc9146103ee576101ee565b806318d3851b116101c157806318d3851b1461029d5780631af08b05146102c85780634a3e394b146103055780634c2412a214610330576101ee565b806301b62b78146101f357806306fdde031461021e57806312065fe01461024957806312b5afc114610274575b600080fd5b3480156101ff57600080fd5b50610208610730565b6040516102159190613d2f565b60405180910390f35b34801561022a57600080fd5b50610233610743565b6040516102409190613dda565b60405180910390f35b34801561025557600080fd5b5061025e6107d1565b60405161026b9190613e15565b60405180910390f35b34801561028057600080fd5b5061029b60048036038101906102969190613fa5565b6107d9565b005b3480156102a957600080fd5b506102b2610bdd565b6040516102bf91906140f1565b60405180910390f35b3480156102d457600080fd5b506102ef60048036038101906102ea9190614113565b610cfb565b6040516102fc919061414f565b60405180910390f35b34801561031157600080fd5b5061031a610d3a565b6040516103279190614187565b60405180910390f35b34801561033c57600080fd5b50610345610d4e565b6040516103529190613e15565b60405180910390f35b34801561036757600080fd5b50610370610d54565b60405161037d9190613e15565b60405180910390f35b34801561039257600080fd5b506103ad60048036038101906103a891906141ce565b610d5a565b6040516103ba9190614272565b60405180910390f35b3480156103cf57600080fd5b506103d8610db0565b6040516103e59190613e15565b60405180910390f35b3480156103fa57600080fd5b50610403610db6565b604051610410919061453e565b60405180910390f35b34801561042557600080fd5b5061042e61102d565b60405161043b9190613e15565b60405180910390f35b34801561045057600080fd5b50610459611033565b6040516104669190613e15565b60405180910390f35b34801561047b57600080fd5b50610484611039565b005b34801561049257600080fd5b5061049b611241565b6040516104a89190613d2f565b60405180910390f35b3480156104bd57600080fd5b506104c6611254565b6040516104d391906140f1565b60405180910390f35b3480156104e857600080fd5b506104f16112e2565b6040516104fe9190613e15565b60405180910390f35b34801561051357600080fd5b5061051c6112e8565b005b34801561052a57600080fd5b50610545600480360381019061054091906141ce565b6115fb565b005b34801561055357600080fd5b5061055c6119c4565b6040516105699190613e15565b60405180910390f35b34801561057e57600080fd5b506105876119ca565b604051610594919061414f565b60405180910390f35b6105b760048036038101906105b29190614596565b6119f0565b005b3480156105c557600080fd5b506105ce611e7d565b6040516105db91906145d2565b60405180910390f35b3480156105f057600080fd5b506105f9611e90565b60405161060691906145fc565b60405180910390f35b34801561061b57600080fd5b50610624611ea3565b005b34801561063257600080fd5b5061063b612072565b6040516106489190613e15565b60405180910390f35b34801561065d57600080fd5b50610666612078565b6040516106739190613e15565b60405180910390f35b34801561068857600080fd5b5061069161207e565b005b6106ad60048036038101906106a89190614617565b612250565b005b3480156106bb57600080fd5b506106c4612450565b6040516106d1919061414f565b60405180910390f35b3480156106e657600080fd5b506106ef612476565b6040516106fc9190613e15565b60405180910390f35b34801561071157600080fd5b5061071a61247c565b6040516107279190613e15565b60405180910390f35b601460019054906101000a900460ff1681565b600f80546107509061472c565b80601f016020809104026020016040519081016040528092919081815260200182805461077c9061472c565b80156107c95780601f1061079e576101008083540402835291602001916107c9565b820191906000526020600020905b8154815290600101906020018083116107ac57829003601f168201915b505050505081565b600047905090565b33600073ffffffffffffffffffffffffffffffffffffffff168173ffffffffffffffffffffffffffffffffffffffff1603610849576040517f08c379a0000000000000000000000000000000000000000000000000000000008152600401610840906147cf565b60405180910390fd5b601660008273ffffffffffffffffffffffffffffffffffffffff1673ffffffffffffffffffffffffffffffffffffffff16815260200190815260200160002060009054906101000a900460ff166108d5576040517f08c379a00000000000000000000000000000000000000000000000000000000081526004016108cc9061483b565b60405180910390fd5b600160028111156108e9576108e86141fb565b5b601460039054906101000a900460ff16600281111561090b5761090a6141fb565b5b1461094b576040517f08c379a0000000000000000000000000000000000000000000000000000000008152600401610942906148cd565b60405180910390fd5b6000601760003373ffffffffffffffffffffffffffffffffffffffff1673ffffffffffffffffffffffffffffffffffffffff16815260200190815260200160002060009054906101000a900460ff169050600060028111156109b0576109af6141fb565b5b8160028111156109c3576109c26141fb565b5b14610a03576040517f08c379a00000000000000000000000000000000000000000000000000000000081526004016109fa9061495f565b60405180910390fd5b83601960003373ffffffffffffffffffffffffffffffffffffffff1673ffffffffffffffffffffffffffffffffffffffff1681526020019081526020016000208190555082601860003373ffffffffffffffffffffffffffffffffffffffff1673ffffffffffffffffffffffffffffffffffffffff1681526020019081526020016000209081610a939190614b2b565b50610a9d33612482565b905080601760003373ffffffffffffffffffffffffffffffffffffffff1673ffffffffffffffffffffffffffffffffffffffff16815260200190815260200160002060006101000a81548160ff02191690836002811115610b0157610b006141fb565b5b021790555060016002811115610b1a57610b196141fb565b5b816002811115610b2d57610b2c6141fb565b5b03610b6157610b53604051806060016040528060238152602001615d5060239139612620565b610b5c336126b9565b610b83565b610b82604051806080016040528060438152602001615dd160439139612620565b5b833373ffffffffffffffffffffffffffffffffffffffff166001547fc9ad6e2d9cbbc2bb01b8cc1f583b96db524df608a369862103461d0fde31dfa58685604051610bcf929190614bfd565b60405180910390a450505050565b60603373ffffffffffffffffffffffffffffffffffffffff16601060009054906101000a900473ffffffffffffffffffffffffffffffffffffffff1673ffffffffffffffffffffffffffffffffffffffff1614610c6f576040517f08c379a0000000000000000000000000000000000000000000000000000000008152600401610c6690614c9f565b60405180910390fd5b6013805480602002602001604051908101604052809291908181526020018280548015610cf157602002820191906000526020600020905b8160009054906101000a900473ffffffffffffffffffffffffffffffffffffffff1673ffffffffffffffffffffffffffffffffffffffff1681526020019060010190808311610ca7575b5050505050905090565b60138181548110610d0b57600080fd5b906000526020600020016000915054906101000a900473ffffffffffffffffffffffffffffffffffffffff1681565b600e60009054906101000a900461ffff1681565b60025481565b60095481565b6000601760008373ffffffffffffffffffffffffffffffffffffffff1673ffffffffffffffffffffffffffffffffffffffff16815260200190815260200160002060009054906101000a900460ff169050919050565b600d5481565b610dbe613b83565b604051806101e001604052806001548152602001600f8054610ddf9061472c565b80601f0160208091040260200160405190810160405280929190818152602001828054610e0b9061472c565b8015610e585780601f10610e2d57610100808354040283529160200191610e58565b820191906000526020600020905b815481529060010190602001808311610e3b57829003601f168201915b505050505081526020016004548152602001600354815260200160025481526020013073ffffffffffffffffffffffffffffffffffffffff1681526020016005548152602001600a5481526020016012805480602002602001604051908101604052809291908181526020018280548015610f2857602002820191906000526020600020905b8160009054906101000a900473ffffffffffffffffffffffffffffffffffffffff1673ffffffffffffffffffffffffffffffffffffffff1681526020019060010190808311610ede575b50505050508152602001601460039054906101000a900460ff166002811115610f5457610f536141fb565b5b8152602001601060009054906101000a900473ffffffffffffffffffffffffffffffffffffffff1673ffffffffffffffffffffffffffffffffffffffff168152602001601160009054906101000a900473ffffffffffffffffffffffffffffffffffffffff1673ffffffffffffffffffffffffffffffffffffffff168152602001601460019054906101000a900460ff1615158152602001601460029054906101000a900460ff1615158152602001601460049054906101000a900460ff166008811115611025576110246141fb565b5b815250905090565b60065481565b60075481565b3373ffffffffffffffffffffffffffffffffffffffff16601060009054906101000a900473ffffffffffffffffffffffffffffffffffffffff1673ffffffffffffffffffffffffffffffffffffffff16146110c9576040517f08c379a00000000000000000000000000000000000000000000000000000000081526004016110c090614c9f565b60405180910390fd5b600160028111156110dd576110dc6141fb565b5b601460039054906101000a900460ff1660028111156110ff576110fe6141fb565b5b1461113f576040517f08c379a0000000000000000000000000000000000000000000000000000000008152600401611136906148cd565b60405180910390fd5b611147612a38565b6002601460036101000a81548160ff0219169083600281111561116d5761116c6141fb565b5b02179055507fffffffffffffffffffffffffffffffffffffffffffffffffffffffffffffffff600c54036111c9576111a3612e72565b6111c46040518060600160405280603a8152602001615d73603a9139612620565b611210565b6111d1613055565b61120f6040518060400160405280601b81526020017f57696e6e65722073656c65637465642c2067616d6520656e6465640000000000815250612620565b5b6001547fce24807f7e4b60b4e641462f13029fa5e5f79075bbc3f8e5cd43ecd19661d76060405160405180910390a2565b601460029054906101000a900460ff1681565b606060128054806020026020016040519081016040528092919081815260200182805480156112d857602002820191906000526020600020905b8160009054906101000a900473ffffffffffffffffffffffffffffffffffffffff1673ffffffffffffffffffffffffffffffffffffffff168152602001906001019080831161128e575b5050505050905090565b60055481565b3373ffffffffffffffffffffffffffffffffffffffff16601060009054906101000a900473ffffffffffffffffffffffffffffffffffffffff1673ffffffffffffffffffffffffffffffffffffffff1614611378576040517f08c379a000000000000000000000000000000000000000000000000000000000815260040161136f90614c9f565b60405180910390fd5b6113806132b1565b600280811115611393576113926141fb565b5b601460039054906101000a900460ff1660028111156113b5576113b46141fb565b5b146113f5576040517f08c379a00000000000000000000000000000000000000000000000000000000081526004016113ec90614d0b565b60405180910390fd5b600073ffffffffffffffffffffffffffffffffffffffff16601160009054906101000a900473ffffffffffffffffffffffffffffffffffffffff1673ffffffffffffffffffffffffffffffffffffffff1603611486576040517f08c379a000000000000000000000000000000000000000000000000000000000815260040161147d90614d9d565b60405180910390fd5b600b546114916107d1565b10156114d2576040517f08c379a00000000000000000000000000000000000000000000000000000000081526004016114c990614e55565b60405180910390fd5b6000600b5490506000600b819055506001601460026101000a81548160ff02191690831515021790555060003373ffffffffffffffffffffffffffffffffffffffff168260405161152290614ea6565b60006040518083038185875af1925050503d806000811461155f576040519150601f19603f3d011682016040523d82523d6000602084013e611564565b606091505b50509050806115a8576040517f08c379a000000000000000000000000000000000000000000000000000000000815260040161159f90614f07565b60405180910390fd5b813373ffffffffffffffffffffffffffffffffffffffff166001547ff1d6c8ee14081f641e2073a1064d870f135f1001a301c6b14a7b9655672fec1160405160405180910390a450506115f96132f7565b565b61165c6040518060400160405280600781526020017f57696e6e65723a00000000000000000000000000000000000000000000000000815250601160009054906101000a900473ffffffffffffffffffffffffffffffffffffffff16613301565b61169b6040518060400160405280600a81526020017f4d73672e73656e6465720000000000000000000000000000000000000000000081525033613301565b3373ffffffffffffffffffffffffffffffffffffffff16601160009054906101000a900473ffffffffffffffffffffffffffffffffffffffff1673ffffffffffffffffffffffffffffffffffffffff161461172b576040517f08c379a000000000000000000000000000000000000000000000000000000000815260040161172290614f99565b60405180910390fd5b6117336132b1565b600280811115611746576117456141fb565b5b601460039054906101000a900460ff166002811115611768576117676141fb565b5b146117a8576040517f08c379a000000000000000000000000000000000000000000000000000000000815260040161179f90614d0b565b60405180910390fd5b60006007546006546117ba9190614fe8565b9050600081116117ff576040517f08c379a00000000000000000000000000000000000000000000000000000000081526004016117f690615068565b60405180910390fd5b806118086107d1565b1015611849576040517f08c379a0000000000000000000000000000000000000000000000000000000008152600401611840906150fa565b60405180910390fd5b600060068190555060006007819055506001601460016101000a81548160ff02191690831515021790555060008273ffffffffffffffffffffffffffffffffffffffff168260405161189a90614ea6565b60006040518083038185875af1925050503d80600081146118d7576040519150601f19603f3d011682016040523d82523d6000602084013e6118dc565b606091505b5050905080611920576040517f08c379a00000000000000000000000000000000000000000000000000000000081526004016119179061518c565b60405180910390fd5b6000601960008573ffffffffffffffffffffffffffffffffffffffff1673ffffffffffffffffffffffffffffffffffffffff168152602001908152602001600020549050828473ffffffffffffffffffffffffffffffffffffffff166001547f16b695a62f925592d6d20c814bb52013e1fa726fabbb8579841359c2794f3051846040516119ae9190613e15565b60405180910390a45050506119c16132f7565b50565b60015481565b601060009054906101000a900473ffffffffffffffffffffffffffffffffffffffff1681565b60006002811115611a0457611a036141fb565b5b601460039054906101000a900460ff166002811115611a2657611a256141fb565b5b14611a66576040517f08c379a0000000000000000000000000000000000000000000000000000000008152600401611a5d906151f8565b60405180910390fd5b601060009054906101000a900473ffffffffffffffffffffffffffffffffffffffff1673ffffffffffffffffffffffffffffffffffffffff163373ffffffffffffffffffffffffffffffffffffffff1603611af6576040517f08c379a0000000000000000000000000000000000000000000000000000000008152600401611aed9061528a565b60405180910390fd5b600a54600454600554611b099190614fe8565b611b139190614fe8565b3414611b54576040517f08c379a0000000000000000000000000000000000000000000000000000000008152600401611b4b90615342565b60405180910390fd5b601660003373ffffffffffffffffffffffffffffffffffffffff1673ffffffffffffffffffffffffffffffffffffffff16815260200190815260200160002060009054906101000a900460ff1615611be1576040517f08c379a0000000000000000000000000000000000000000000000000000000008152600401611bd8906153d4565b60405180910390fd5b60045460066000828254611bf59190614fe8565b9250508190555060055460076000828254611c109190614fe8565b92505081905550600554601a60003373ffffffffffffffffffffffffffffffffffffffff1673ffffffffffffffffffffffffffffffffffffffff16815260200190815260200160002081905550600a54600b6000828254611c719190614fe8565b9250508190555080601560003373ffffffffffffffffffffffffffffffffffffffff1673ffffffffffffffffffffffffffffffffffffffff1681526020019081526020016000208190555033601260035481548110611cd357611cd26153f4565b5b9060005260206000200160006101000a81548173ffffffffffffffffffffffffffffffffffffffff021916908373ffffffffffffffffffffffffffffffffffffffff1602179055506001601660003373ffffffffffffffffffffffffffffffffffffffff1673ffffffffffffffffffffffffffffffffffffffff16815260200190815260200160002060006101000a81548160ff0219169083151502179055506000601760003373ffffffffffffffffffffffffffffffffffffffff1673ffffffffffffffffffffffffffffffffffffffff16815260200190815260200160002060006101000a81548160ff02191690836002811115611dd657611dd56141fb565b5b021790555060036000815480929190611dee90615423565b9190505550611e316040518060400160405280601681526020017f506c61796572206a6f696e6564207468652067616d6500000000000000000000815250612620565b6003543373ffffffffffffffffffffffffffffffffffffffff166001547f03dfbe1fcb4e2d61f3b4a0c93d8f814c92250618b3387f396cc9fc9fafe2c20360405160405180910390a450565b601460039054906101000a900460ff1681565b601460049054906101000a900460ff1681565b3373ffffffffffffffffffffffffffffffffffffffff16601060009054906101000a900473ffffffffffffffffffffffffffffffffffffffff1673ffffffffffffffffffffffffffffffffffffffff1614611f33576040517f08c379a0000000000000000000000000000000000000000000000000000000008152600401611f2a90614c9f565b60405180910390fd5b60006002811115611f4757611f466141fb565b5b601460039054906101000a900460ff166002811115611f6957611f686141fb565b5b14611fa9576040517f08c379a0000000000000000000000000000000000000000000000000000000008152600401611fa090615503565b60405180910390fd5b600380541015611fee576040517f08c379a0000000000000000000000000000000000000000000000000000000008152600401611fe590615595565b60405180910390fd5b6001601460036101000a81548160ff02191690836002811115612014576120136141fb565b5b021790555043600d81905550612041604051806060016040528060288152602001615e6d60289139612620565b6001547f1af5706848593978661e03a58b13e34204b40f58afbc193a44b1f17e0b40db6360405160405180910390a2565b60045481565b60085481565b33600073ffffffffffffffffffffffffffffffffffffffff168173ffffffffffffffffffffffffffffffffffffffff16036120ee576040517f08c379a00000000000000000000000000000000000000000000000000000000081526004016120e5906147cf565b60405180910390fd5b601660008273ffffffffffffffffffffffffffffffffffffffff1673ffffffffffffffffffffffffffffffffffffffff16815260200190815260200160002060009054906101000a900460ff1661217a576040517f08c379a00000000000000000000000000000000000000000000000000000000081526004016121719061483b565b60405180910390fd5b6000600e60009054906101000a900461ffff1660405160200161219d91906156da565b604051602081830303815290604052905043600e60009054906101000a900461ffff1661ffff16600d546121d19190614fe8565b108190612214576040517f08c379a000000000000000000000000000000000000000000000000000000000815260040161220b9190613dda565b60405180910390fd5b5061221d612e72565b6001547fce24807f7e4b60b4e641462f13029fa5e5f79075bbc3f8e5cd43ecd19661d76060405160405180910390a25050565b601460009054906101000a900460ff16156122a0576040517f08c379a00000000000000000000000000000000000000000000000000000000081526004016122979061577d565b60405180910390fd5b8860018190555087600f90816122b69190614b2b565b50866008819055508560098190555084600281905550836004819055506003846122e0919061579d565b60058190555060025467ffffffffffffffff81111561230257612301613e7a565b5b6040519080825280602002602001820160405280156123305781602001602082028036833780820191505090505b5060129080519060200190612346929190613c63565b506000601460036101000a81548160ff0219169083600281111561236d5761236c6141fb565b5b0217905550806008811115612385576123846141fb565b5b601460046101000a81548160ff021916908360088111156123a9576123a86141fb565b5b021790555081600a819055506001601460006101000a81548160ff02191690831515021790555082601060006101000a81548173ffffffffffffffffffffffffffffffffffffffff021916908373ffffffffffffffffffffffffffffffffffffffff16021790555043600d81905550887fbd19c47e9925eb6f7be8bb1c13a841e0240aaeaf17f217e90022e9c8eb66877f60405160405180910390a2505050505050505050565b601160009054906101000a900473ffffffffffffffffffffffffffffffffffffffff1681565b600a5481565b60035481565b600080601960008473ffffffffffffffffffffffffffffffffffffffff1673ffffffffffffffffffffffffffffffffffffffff1681526020019081526020016000205490506000601860008573ffffffffffffffffffffffffffffffffffffffff1673ffffffffffffffffffffffffffffffffffffffff16815260200190815260200160002080546125139061472c565b80601f016020809104026020016040519081016040528092919081815260200182805461253f9061472c565b801561258c5780601f106125615761010080835404028352916020019161258c565b820191906000526020600020905b81548152906001019060200180831161256f57829003601f168201915b505050505090506000601560008673ffffffffffffffffffffffffffffffffffffffff1673ffffffffffffffffffffffffffffffffffffffff168152602001908152602001600020549050600083836040516020016125ec929190615831565b604051602081830303815290604052805190602001209050818114612612576002612615565b60015b945050505050919050565b6126b6816040516024016126349190613dda565b6040516020818303038152906040527f41304fac000000000000000000000000000000000000000000000000000000007bffffffffffffffffffffffffffffffffffffffffffffffffffffffff19166020820180517bffffffffffffffffffffffffffffffffffffffffffffffffffffffff838183161783525050505061339d565b50565b6126c16132b1565b6005546007541015612708576040517f08c379a00000000000000000000000000000000000000000000000000000000081526004016126ff906158cb565b60405180910390fd5b600554601a60008373ffffffffffffffffffffffffffffffffffffffff1673ffffffffffffffffffffffffffffffffffffffff16815260200190815260200160002054101561278c576040517f08c379a00000000000000000000000000000000000000000000000000000000081526004016127839061595d565b60405180910390fd5b6000601a60008373ffffffffffffffffffffffffffffffffffffffff1673ffffffffffffffffffffffffffffffffffffffff16815260200190815260200160002054101561280f576040517f08c379a0000000000000000000000000000000000000000000000000000000008152600401612806906159ef565b60405180910390fd5b60016002811115612823576128226141fb565b5b601760008373ffffffffffffffffffffffffffffffffffffffff1673ffffffffffffffffffffffffffffffffffffffff16815260200190815260200160002060009054906101000a900460ff166002811115612882576128816141fb565b5b146128c2576040517f08c379a00000000000000000000000000000000000000000000000000000000081526004016128b990615a81565b60405180910390fd5b600554601a60008373ffffffffffffffffffffffffffffffffffffffff1673ffffffffffffffffffffffffffffffffffffffff16815260200190815260200160002060008282546129139190615aa1565b925050819055506005546007600082825461292e9190615aa1565b9250508190555060008173ffffffffffffffffffffffffffffffffffffffff1660055460405161295d90614ea6565b60006040518083038185875af1925050503d806000811461299a576040519150601f19603f3d011682016040523d82523d6000602084013e61299f565b606091505b50509050806129e3576040517f08c379a00000000000000000000000000000000000000000000000000000000081526004016129da90614f07565b60405180910390fd5b6005548273ffffffffffffffffffffffffffffffffffffffff166001547feec2f3feb835e2f2fd44281034b04700a1ddda63dd402949d470a25a7c40b36c60405160405180910390a450612a356132f7565b50565b60016002811115612a4c57612a4b6141fb565b5b601460039054906101000a900460ff166002811115612a6e57612a6d6141fb565b5b14612aae576040517f08c379a0000000000000000000000000000000000000000000000000000000008152600401612aa5906148cd565b60405180910390fd5b612aec6040518060400160405280601d81526020017f44657465726d696e696e6720706f74656e7469616c2077696e6e657273000000815250612620565b6000612af66133b7565b90507fffffffffffffffffffffffffffffffffffffffffffffffffffffffffffffffff8103612b4c577fffffffffffffffffffffffffffffffffffffffffffffffffffffffffffffffff600c8190555050612e70565b6000612b57826135a3565b905060035467ffffffffffffffff811115612b7557612b74613e7a565b5b604051908082528060200260200182016040528015612ba35781602001602082028036833780820191505090505b5060139080519060200190612bb9929190613c63565b506000612bc76009546135a3565b90506000805b600354811015612e5757600060128281548110612bed57612bec6153f4565b5b9060005260206000200160009054906101000a900473ffffffffffffffffffffffffffffffffffffffff1690506000612c64601960008473ffffffffffffffffffffffffffffffffffffffff1673ffffffffffffffffffffffffffffffffffffffff168152602001908152602001600020546135a3565b90506000612c72828861362f565b15612c8857612c81878361364c565b9050612c95565b612c92828861364c565b90505b612c9f818761362f565b15612daa5760005b601380549050811015612d1f57600060138281548110612cca57612cc96153f4565b5b9060005260206000200160006101000a81548173ffffffffffffffffffffffffffffffffffffffff021916908373ffffffffffffffffffffffffffffffffffffffff1602179055508080600101915050612ca7565b50809550600094508260138681548110612d3c57612d3b6153f4565b5b9060005260206000200160006101000a81548173ffffffffffffffffffffffffffffffffffffffff021916908373ffffffffffffffffffffffffffffffffffffffff160217905550612da5604051806060016040528060288152602001615e4560289139612620565b612e47565b612db4818761367a565b15612e46578480612dc490615423565b9550508260138681548110612ddc57612ddb6153f4565b5b9060005260206000200160006101000a81548173ffffffffffffffffffffffffffffffffffffffff021916908373ffffffffffffffffffffffffffffffffffffffff160217905550612e45604051806060016040528060318152602001615e1460319139612620565b5b5b5050508080600101915050612bcd565b50600181612e659190614fe8565b600c81905550505050505b565b612e7a6132b1565b60005b60035481101561304a57600060128281548110612e9d57612e9c6153f4565b5b9060005260206000200160009054906101000a900473ffffffffffffffffffffffffffffffffffffffff1690506000601a60008373ffffffffffffffffffffffffffffffffffffffff1673ffffffffffffffffffffffffffffffffffffffff168152602001908152602001600020549050600060045490506000600354600b54612f279190615b04565b90506000818385612f389190614fe8565b612f429190614fe8565b905060008573ffffffffffffffffffffffffffffffffffffffff1682604051612f6a90614ea6565b60006040518083038185875af1925050503d8060008114612fa7576040519150601f19603f3d011682016040523d82523d6000602084013e612fac565b606091505b5050905080612ff0576040517f08c379a0000000000000000000000000000000000000000000000000000000008152600401612fe790614f07565b60405180910390fd5b818673ffffffffffffffffffffffffffffffffffffffff166001547fff3116559cac6c47442d1f2083dc842de1f35c5f87fd25d7978d509fa59c1b1860405160405180910390a45050505050508080600101915050612e7d565b506130536132f7565b565b600280811115613068576130676141fb565b5b601460039054906101000a900460ff16600281111561308a576130896141fb565b5b146130ca576040517f08c379a00000000000000000000000000000000000000000000000000000000081526004016130c190614d0b565b60405180910390fd5b60006007546006546130dc9190614fe8565b9050806130e76107d1565b1015613128576040517f08c379a000000000000000000000000000000000000000000000000000000000815260040161311f906150fa565b60405180910390fd5b6001600c5413156131c457600061313d613697565b905060138181548110613153576131526153f4565b5b9060005260206000200160009054906101000a900473ffffffffffffffffffffffffffffffffffffffff16601160006101000a81548173ffffffffffffffffffffffffffffffffffffffff021916908373ffffffffffffffffffffffffffffffffffffffff16021790555050613245565b60136000815481106131d9576131d86153f4565b5b9060005260206000200160009054906101000a900473ffffffffffffffffffffffffffffffffffffffff16601160006101000a81548173ffffffffffffffffffffffffffffffffffffffff021916908373ffffffffffffffffffffffffffffffffffffffff1602179055505b80601160009054906101000a900473ffffffffffffffffffffffffffffffffffffffff1673ffffffffffffffffffffffffffffffffffffffff166001547ffee5b04775e1cd2311ed22cd00f5d2403aff38ff6f71d6d393f51854ed6bc98660405160405180910390a450565b6002600054036132ed576040517f3ee5aeb500000000000000000000000000000000000000000000000000000000815260040160405180910390fd5b6002600081905550565b6001600081905550565b6133998282604051602401613317929190615b35565b6040516020818303038152906040527f319af333000000000000000000000000000000000000000000000000000000007bffffffffffffffffffffffffffffffffffffffffffffffffffffffff19166020820180517bffffffffffffffffffffffffffffffffffffffffffffffffffffffff838183161783525050505061339d565b5050565b6133b4816133ac61387f6138a0565b63ffffffff16565b50565b6000806000905060008060005b600354811015613527576000601282815481106133e4576133e36153f4565b5b9060005260206000200160009054906101000a900473ffffffffffffffffffffffffffffffffffffffff16905060016002811115613425576134246141fb565b5b601760008373ffffffffffffffffffffffffffffffffffffffff1673ffffffffffffffffffffffffffffffffffffffff16815260200190815260200160002060009054906101000a900460ff166002811115613484576134836141fb565b5b03613519576134aa604051806060016040528060248152602001615dad60249139612620565b60006134f4601960008473ffffffffffffffffffffffffffffffffffffffff1673ffffffffffffffffffffffffffffffffffffffff168152602001908152602001600020546135a3565b905061350086826138ab565b95506135158561351060016135a3565b6138ab565b9450505b5080806001019150506133c4565b50613531826138d9565b15613561577fffffffffffffffffffffffffffffffffffffffffffffffffffffffffffffffff93505050506135a0565b61356b83836138ed565b905061359a6135956135868361358160026135a3565b613922565b61359060036135a3565b6138ed565b61394e565b93505050505b90565b6000670de0b6b3a76400007fffffffffffffffffffffffffffffffffffffffffffffffffffffffffffffffff6135d99190615b04565b82111561361d57816040517f1cd951a70000000000000000000000000000000000000000000000000000000081526004016136149190613e15565b60405180910390fd5b670de0b6b3a764000082029050919050565b600061363a8261396b565b6136438461396b565b10905092915050565b600061367261365a8361396b565b6136638561396b565b61366d9190615aa1565b613975565b905092915050565b60006136858261396b565b61368e8461396b565b14905092915050565b60008042444143456040516020016136b3959493929190615bbf565b604051602081830303815290604052905060005b600c5481101561385a576000601382815481106136e7576136e66153f4565b5b9060005260206000200160009054906101000a900473ffffffffffffffffffffffffffffffffffffffff1690506000601960008373ffffffffffffffffffffffffffffffffffffffff1673ffffffffffffffffffffffffffffffffffffffff1681526020019081526020016000205490506000601860008473ffffffffffffffffffffffffffffffffffffffff1673ffffffffffffffffffffffffffffffffffffffff16815260200190815260200160002080546137a49061472c565b80601f01602080910402602001604051908101604052809291908181526020018280546137d09061472c565b801561381d5780601f106137f25761010080835404028352916020019161381d565b820191906000526020600020905b81548152906001019060200180831161380057829003601f168201915b5050505050905084828260405160200161383993929190615c5a565b604051602081830303815290604052945050505080806001019150506136c7565b50600081805190602001209050600c548160001c6138789190615c8f565b9250505090565b60006a636f6e736f6c652e6c6f679050600080835160208501845afa505050565b613ced819050919050565b60006138d16138b98361396b565b6138c28561396b565b6138cc9190614fe8565b613975565b905092915050565b6000806138e58361396b565b149050919050565b600061391a6139156138fe8561396b565b670de0b6b3a76400006139108661396b565b61397f565b613975565b905092915050565b60006139466139416139338561396b565b61393c8561396b565b613a99565b613975565b905092915050565b6000670de0b6b3a7640000826139649190615b04565b9050919050565b6000819050919050565b6000819050919050565b60008060008019858709858702925082811083820303915050600081036139ba578382816139b0576139af615ad5565b5b0492505050613a92565b838110613a02578585856040517f63a057780000000000000000000000000000000000000000000000000000000081526004016139f993929190615cc0565b60405180910390fd5b60008486880990508281118203915080830392506000600186190186169050600081870496508185049450600182836000030401905080840285179450600060028860030218905080880260020381029050808802600203810290508088026002038102905080880260020381029050808802600203810290508088026002038102905080860296505050505050505b9392505050565b6000806000801984860984860292508281108382030391505060008103613adc57670de0b6b3a76400008281613ad257613ad1615ad5565b5b0492505050613b7d565b670de0b6b3a76400008110613b2a5784846040517f5173648d000000000000000000000000000000000000000000000000000000008152600401613b21929190615cf7565b60405180910390fd5b6000670de0b6b3a764000085870990507faccb18165bd6fe31ae1cf318dc5b51eee0e1ba569b88cd74c1773b91fac106696001620400008060000304018483118403026204000083860304170293505050505b92915050565b604051806101e001604052806000815260200160608152602001600081526020016000815260200160008152602001600073ffffffffffffffffffffffffffffffffffffffff16815260200160008152602001600081526020016060815260200160006002811115613bf857613bf76141fb565b5b8152602001600073ffffffffffffffffffffffffffffffffffffffff168152602001600073ffffffffffffffffffffffffffffffffffffffff16815260200160001515815260200160001515815260200160006008811115613c5d57613c5c6141fb565b5b81525090565b828054828255906000526020600020908101928215613cdc579160200282015b82811115613cdb5782518260006101000a81548173ffffffffffffffffffffffffffffffffffffffff021916908373ffffffffffffffffffffffffffffffffffffffff16021790555091602001919060010190613c83565b5b509050613ce99190613cf7565b5090565b613cf5615d20565b565b5b80821115613d10576000816000905550600101613cf8565b5090565b60008115159050919050565b613d2981613d14565b82525050565b6000602082019050613d446000830184613d20565b92915050565b600081519050919050565b600082825260208201905092915050565b60005b83811015613d84578082015181840152602081019050613d69565b60008484015250505050565b6000601f19601f8301169050919050565b6000613dac82613d4a565b613db68185613d55565b9350613dc6818560208601613d66565b613dcf81613d90565b840191505092915050565b60006020820190508181036000830152613df48184613da1565b905092915050565b6000819050919050565b613e0f81613dfc565b82525050565b6000602082019050613e2a6000830184613e06565b92915050565b6000604051905090565b600080fd5b600080fd5b613e4d81613dfc565b8114613e5857600080fd5b50565b600081359050613e6a81613e44565b92915050565b600080fd5b600080fd5b7f4e487b7100000000000000000000000000000000000000000000000000000000600052604160045260246000fd5b613eb282613d90565b810181811067ffffffffffffffff82111715613ed157613ed0613e7a565b5b80604052505050565b6000613ee4613e30565b9050613ef08282613ea9565b919050565b600067ffffffffffffffff821115613f1057613f0f613e7a565b5b613f1982613d90565b9050602081019050919050565b82818337600083830152505050565b6000613f48613f4384613ef5565b613eda565b905082815260208101848484011115613f6457613f63613e75565b5b613f6f848285613f26565b509392505050565b600082601f830112613f8c57613f8b613e70565b5b8135613f9c848260208601613f35565b91505092915050565b60008060408385031215613fbc57613fbb613e3a565b5b6000613fca85828601613e5b565b925050602083013567ffffffffffffffff811115613feb57613fea613e3f565b5b613ff785828601613f77565b9150509250929050565b600081519050919050565b600082825260208201905092915050565b6000819050602082019050919050565b600073ffffffffffffffffffffffffffffffffffffffff82169050919050565b60006140588261402d565b9050919050565b6140688161404d565b82525050565b600061407a838361405f565b60208301905092915050565b6000602082019050919050565b600061409e82614001565b6140a8818561400c565b93506140b38361401d565b8060005b838110156140e45781516140cb888261406e565b97506140d683614086565b9250506001810190506140b7565b5085935050505092915050565b6000602082019050818103600083015261410b8184614093565b905092915050565b60006020828403121561412957614128613e3a565b5b600061413784828501613e5b565b91505092915050565b6141498161404d565b82525050565b60006020820190506141646000830184614140565b92915050565b600061ffff82169050919050565b6141818161416a565b82525050565b600060208201905061419c6000830184614178565b92915050565b6141ab8161404d565b81146141b657600080fd5b50565b6000813590506141c8816141a2565b92915050565b6000602082840312156141e4576141e3613e3a565b5b60006141f2848285016141b9565b91505092915050565b7f4e487b7100000000000000000000000000000000000000000000000000000000600052602160045260246000fd5b6003811061423b5761423a6141fb565b5b50565b600081905061424c8261422a565b919050565b600061425c8261423e565b9050919050565b61426c81614251565b82525050565b60006020820190506142876000830184614263565b92915050565b61429681613dfc565b82525050565b600082825260208201905092915050565b60006142b882613d4a565b6142c2818561429c565b93506142d2818560208601613d66565b6142db81613d90565b840191505092915050565b600082825260208201905092915050565b600061430282614001565b61430c81856142e6565b93506143178361401d565b8060005b8381101561434857815161432f888261406e565b975061433a83614086565b92505060018101905061431b565b5085935050505092915050565b60038110614366576143656141fb565b5b50565b600081905061437782614355565b919050565b600061438782614369565b9050919050565b6143978161437c565b82525050565b6143a681613d14565b82525050565b600981106143bd576143bc6141fb565b5b50565b60008190506143ce826143ac565b919050565b60006143de826143c0565b9050919050565b6143ee816143d3565b82525050565b60006101e08301600083015161440d600086018261428d565b506020830151848203602086015261442582826142ad565b915050604083015161443a604086018261428d565b50606083015161444d606086018261428d565b506080830151614460608086018261428d565b5060a083015161447360a086018261405f565b5060c083015161448660c086018261428d565b5060e083015161449960e086018261428d565b506101008301518482036101008601526144b382826142f7565b9150506101208301516144ca61012086018261438e565b506101408301516144df61014086018261405f565b506101608301516144f461016086018261405f565b5061018083015161450961018086018261439d565b506101a083015161451e6101a086018261439d565b506101c08301516145336101c08601826143e5565b508091505092915050565b6000602082019050818103600083015261455881846143f4565b905092915050565b6000819050919050565b61457381614560565b811461457e57600080fd5b50565b6000813590506145908161456a565b92915050565b6000602082840312156145ac576145ab613e3a565b5b60006145ba84828501614581565b91505092915050565b6145cc8161437c565b82525050565b60006020820190506145e760008301846145c3565b92915050565b6145f6816143d3565b82525050565b600060208201905061461160008301846145ed565b92915050565b60008060008060008060008060006101208a8c03121561463a57614639613e3a565b5b60006146488c828d01613e5b565b99505060208a013567ffffffffffffffff81111561466957614668613e3f565b5b6146758c828d01613f77565b98505060406146868c828d01613e5b565b97505060606146978c828d01613e5b565b96505060806146a88c828d01613e5b565b95505060a06146b98c828d01613e5b565b94505060c06146ca8c828d016141b9565b93505060e06146db8c828d01613e5b565b9250506101006146ed8c828d01613e5b565b9150509295985092959850929598565b7f4e487b7100000000000000000000000000000000000000000000000000000000600052602260045260246000fd5b6000600282049050600182168061474457607f821691505b602082108103614757576147566146fd565b5b50919050565b7f416472657373652064617266206e69636874206469652030783020416472657360008201527f7365207365696e21000000000000000000000000000000000000000000000000602082015250565b60006147b9602883613d55565b91506147c48261475d565b604082019050919050565b600060208201905081810360008301526147e8816147ac565b9050919050565b7f4b65696e652067c3bc6c7469676520537069656c657261647265737365210000600082015250565b6000614825601e83613d55565b9150614830826147ef565b602082019050919050565b6000602082019050818103600083015261485481614818565b9050919050565b7f52657665616c20506861736520686174206e6f6368206e69636874206265676f60008201527f6e6e656e21000000000000000000000000000000000000000000000000000000602082015250565b60006148b7602583613d55565b91506148c28261485b565b604082019050919050565b600060208201905081810360008301526148e6816148aa565b9050919050565b7f537069656c6572206861742062657265697473207365696e656e20546970702060008201527f766572c3b66666656e746c696368742100000000000000000000000000000000602082015250565b6000614949603083613d55565b9150614954826148ed565b604082019050919050565b600060208201905081810360008301526149788161493c565b9050919050565b60008190508160005260206000209050919050565b60006020601f8301049050919050565b600082821b905092915050565b6000600883026149e17fffffffffffffffffffffffffffffffffffffffffffffffffffffffffffffffff826149a4565b6149eb86836149a4565b95508019841693508086168417925050509392505050565b6000819050919050565b6000614a28614a23614a1e84613dfc565b614a03565b613dfc565b9050919050565b6000819050919050565b614a4283614a0d565b614a56614a4e82614a2f565b8484546149b1565b825550505050565b600090565b614a6b614a5e565b614a76818484614a39565b505050565b5b81811015614a9a57614a8f600082614a63565b600181019050614a7c565b5050565b601f821115614adf57614ab08161497f565b614ab984614994565b81016020851015614ac8578190505b614adc614ad485614994565b830182614a7b565b50505b505050565b600082821c905092915050565b6000614b0260001984600802614ae4565b1980831691505092915050565b6000614b1b8383614af1565b9150826002028217905092915050565b614b3482613d4a565b67ffffffffffffffff811115614b4d57614b4c613e7a565b5b614b57825461472c565b614b62828285614a9e565b600060209050601f831160018114614b955760008415614b83578287015190505b614b8d8582614b0f565b865550614bf5565b601f198416614ba38661497f565b60005b82811015614bcb57848901518255600182019150602085019450602081019050614ba6565b86831015614be85784890151614be4601f891682614af1565b8355505b6001600288020188555050505b505050505050565b60006040820190508181036000830152614c178185613da1565b9050614c266020830184614263565b9392505050565b7f4e75722064657220537069656c6c6569746572206b616e6e206469657365204660008201527f756e6b74696f6e20617566727566656e21000000000000000000000000000000602082015250565b6000614c89603183613d55565b9150614c9482614c2d565b604082019050919050565b60006020820190508181036000830152614cb881614c7c565b9050919050565b7f537069656c20697374206e6f6368206e69636874206265656e64657421000000600082015250565b6000614cf5601d83613d55565b9150614d0082614cbf565b602082019050919050565b60006020820190508181036000830152614d2481614ce8565b9050919050565b7f4573207775726465206e6f6368206b65696e20476577696e6e6572206765667560008201527f6e64656e21000000000000000000000000000000000000000000000000000000602082015250565b6000614d87602583613d55565b9150614d9282614d2b565b604082019050919050565b60006020820190508181036000830152614db681614d7a565b9050919050565b7f4e696368742067656ec3bc67656e6420457468657220696e2064656d2056657260008201527f7472616720756d2064696520537069656c676562c3bc6872206175737a757a6160208201527f686c656e21000000000000000000000000000000000000000000000000000000604082015250565b6000614e3f604583613d55565b9150614e4a82614dbd565b606082019050919050565b60006020820190508181036000830152614e6e81614e32565b9050919050565b600081905092915050565b50565b6000614e90600083614e75565b9150614e9b82614e80565b600082019050919050565b6000614eb182614e83565b9150819050919050565b7f53656e64656e20766f6e204574686572206665686c67657363686c6167656e21600082015250565b6000614ef1602083613d55565b9150614efc82614ebb565b602082019050919050565b60006020820190508181036000830152614f2081614ee4565b9050919050565b7f4e75722064657220536965676572206b616e6e2064696573652046756e6b746960008201527f6f6e20617566727566656e210000000000000000000000000000000000000000602082015250565b6000614f83602c83613d55565b9150614f8e82614f27565b604082019050919050565b60006020820190508181036000830152614fb281614f76565b9050919050565b7f4e487b7100000000000000000000000000000000000000000000000000000000600052601160045260246000fd5b6000614ff382613dfc565b9150614ffe83613dfc565b925082820190508082111561501657615015614fb9565b5b92915050565b7f4b65696e205072656973706f6f6c20766f7268616e64656e2100000000000000600082015250565b6000615052601983613d55565b915061505d8261501c565b602082019050919050565b6000602082019050818103600083015261508181615045565b9050919050565b7f5072656973706f6f6c20726569636874206e696368742061757320756d20646560008201527f6e20476577696e6e6572206175737a757a61686c656e21000000000000000000602082015250565b60006150e4603783613d55565b91506150ef82615088565b604082019050919050565b60006020820190508181036000830152615113816150d7565b9050919050565b7f53656e64656e20766f6e20457468657220697374206665686c67657363686c6160008201527f67656e2100000000000000000000000000000000000000000000000000000000602082015250565b6000615176602483613d55565b91506151818261511a565b604082019050919050565b600060208201905081810360008301526151a581615169565b9050919050565b7f537069656c20686174206e6f6368206e69636874206265676f6e6e656e210000600082015250565b60006151e2601e83613d55565b91506151ed826151ac565b602082019050919050565b60006020820190508181036000830152615211816151d5565b9050919050565b7f537069656c6c6569746572206b616e6e206e6963687420616d20656967656e6560008201527f6e20537069656c207465696c6e65686d656e2100000000000000000000000000602082015250565b6000615274603383613d55565b915061527f82615218565b604082019050919050565b600060208201905081810360008301526152a381615267565b9050919050565b7f556e7a757265696368656e646572204265747261673a204269747465207a616860008201527f6c656e205369652064656e2045696e7361747a2c20646965206472656966616360208201527f6865204b617574696f6e20756e642064696520537069656c676562c3bc687221604082015250565b600061532c606083613d55565b9150615337826152aa565b606082019050919050565b6000602082019050818103600083015261535b8161531f565b9050919050565b7f537069656c6572206973742064656d20537069656c206265726569747320626560008201527f69676574726574656e2100000000000000000000000000000000000000000000602082015250565b60006153be602a83613d55565b91506153c982615362565b604082019050919050565b600060208201905081810360008301526153ed816153b1565b9050919050565b7f4e487b7100000000000000000000000000000000000000000000000000000000600052603260045260246000fd5b600061542e82613dfc565b91507fffffffffffffffffffffffffffffffffffffffffffffffffffffffffffffffff82036154605761545f614fb9565b5b600182019050919050565b7f52657665616c205068617365206b616e6e206e7572206765737461727465742060008201527f77657264656e2c2077656e6e20616b7475656c6c2064696520436f6d6d69742060208201527f5068617365206973742100000000000000000000000000000000000000000000604082015250565b60006154ed604a83613d55565b91506154f88261546b565b606082019050919050565b6000602082019050818103600083015261551c816154e0565b9050919050565b7f4d696e64657374656e73203320537069656c65722077657264656e2062656ec360008201527fb67469677420756d2064617320537069656c207a75207374617274656e210000602082015250565b600061557f603e83613d55565b915061558a82615523565b604082019050919050565b600060208201905081810360008301526155ae81615572565b9050919050565b600081905092915050565b7f4d696e64657374656e7320000000000000000000000000000000000000000000600082015250565b60006155f6600b836155b5565b9150615601826155c0565b600b82019050919050565b60008160f01b9050919050565b60006156248261560c565b9050919050565b61563c6156378261416a565b615619565b82525050565b7f20426cc3b6636b65206dc3bc7373656e2076657267616e67656e207365696e2060008201527f756d2065696e652052c3bc636b65727374617474756e67207a75206265616e7460208201527f726167656e210000000000000000000000000000000000000000000000000000604082015250565b60006156c46046836155b5565b91506156cf82615642565b604682019050919050565b60006156e5826155e9565b91506156f1828461562b565b600282019150615700826156b7565b915081905092915050565b7f537069656c207775726465206265726569747320696e697469616c697369657260008201527f7421000000000000000000000000000000000000000000000000000000000000602082015250565b6000615767602283613d55565b91506157728261570b565b604082019050919050565b600060208201905081810360008301526157968161575a565b9050919050565b60006157a882613dfc565b91506157b383613dfc565b92508282026157c181613dfc565b915082820484148315176157d8576157d7614fb9565b5b5092915050565b6000819050919050565b6157fa6157f582613dfc565b6157df565b82525050565b600061580b82613d4a565b61581581856155b5565b9350615825818560208601613d66565b80840191505092915050565b600061583d82856157e9565b60208201915061584d8284615800565b91508190509392505050565b7f4e696368742067656ec3bc67656e6420457468657220696e2064656d2056657260008201527f7472616720756d20646965204b617574696f6e206175737a757a61686c656e21602082015250565b60006158b5604083613d55565b91506158c082615859565b604082019050919050565b600060208201905081810360008301526158e4816158a8565b9050919050565b7f48696e7465726c65677465204b617574696f6e20726569636874206e6963687460008201527f2061757321000000000000000000000000000000000000000000000000000000602082015250565b6000615947602583613d55565b9150615952826158eb565b604082019050919050565b600060208201905081810360008301526159768161593a565b9050919050565b7f4b617574696f6e20777572646520626572656974732061757367657a61686c7460008201527f2100000000000000000000000000000000000000000000000000000000000000602082015250565b60006159d9602183613d55565b91506159e48261597d565b604082019050919050565b60006020820190508181036000830152615a08816159cc565b9050919050565b7f537069656c657220686174207365696e656e2054697070206e6963687420766560008201527f72c3b66666656e746c6963687421000000000000000000000000000000000000602082015250565b6000615a6b602e83613d55565b9150615a7682615a0f565b604082019050919050565b60006020820190508181036000830152615a9a81615a5e565b9050919050565b6000615aac82613dfc565b9150615ab783613dfc565b9250828203905081811115615acf57615ace614fb9565b5b92915050565b7f4e487b7100000000000000000000000000000000000000000000000000000000600052601260045260246000fd5b6000615b0f82613dfc565b9150615b1a83613dfc565b925082615b2a57615b29615ad5565b5b828204905092915050565b60006040820190508181036000830152615b4f8185613da1565b9050615b5e6020830184614140565b9392505050565b6000615b708261402d565b9050919050565b60008160601b9050919050565b6000615b8f82615b77565b9050919050565b6000615ba182615b84565b9050919050565b615bb9615bb482615b65565b615b96565b82525050565b6000615bcb82886157e9565b602082019150615bdb82876157e9565b602082019150615beb8286615ba8565b601482019150615bfb82856157e9565b602082019150615c0b82846157e9565b6020820191508190509695505050505050565b600081519050919050565b6000615c3482615c1e565b615c3e8185614e75565b9350615c4e818560208601613d66565b80840191505092915050565b6000615c668286615c29565b9150615c7282856157e9565b602082019150615c828284615800565b9150819050949350505050565b6000615c9a82613dfc565b9150615ca583613dfc565b925082615cb557615cb4615ad5565b5b828206905092915050565b6000606082019050615cd56000830186613e06565b615ce26020830185613e06565b615cef6040830184613e06565b949350505050565b6000604082019050615d0c6000830185613e06565b615d196020830184613e06565b9392505050565b7f4e487b7100000000000000000000000000000000000000000000000000000000600052605160045260246000fdfe506c617965722072657665616c656420746865697220636f72726563742067756573734e6f20706f74656e7469616c2077696e6e65727320666f756e642c20726566756e64696e672065766572796f6e65207468656972206d6f6e6579506c617965722072657665616c656420746865697220636f72726563742076616c756573506c617965722072657665616c656420616e20696e636f72726563742067756573732c20636f6c6c61746572616c2077696c6c206e6f7420626520726566756e646564416e6f7468657220706f74656e7469616c2077696e6e657220666f756e6420776974682073616d652064697374616e63654e657720706f74656e7469616c2077696e6e657220666f756e6420776974682064697374616e6365436f6d6d697420506861736520656e6465642c2052657665616c2050686173652073746172746564a264697066735822122002402b4a49aa8c4b272429fc7bbdad7beddd5fbf73b43bafd4dd77e3147fca3f64736f6c63430008180033",
  "linkReferences": {},
  "deployedLinkReferences": {}
}