{
  "_format": "hh-sol-artifact-1",
  "contractName": "AverageGameFactory",
  "sourceName": "contracts/AverageGameFactory.sol",
  "abi": [
    {
      "inputs": [],
      "name": "ERC1167FailedCreateClone",
      "type": "error"
    },
    {
      "anonymous": false,
      "inputs": [
        {
          "indexed": true,
          "internalType": "uint256",
          "name": "gameCount",
          "type": "uint256"
        },
        {
          "indexed": true,
          "internalType": "address",
          "name": "gameAddress",
          "type": "address"
        }
      ],
      "name": "GameCreated",
      "type": "event"
    },
    {
      "inputs": [
        {
          "internalType": "address",
          "name": "_address",
          "type": "address"
        },
        {
          "internalType": "string",
          "name": "_name",
          "type": "string"
        },
        {
          "internalType": "uint256",
          "name": "_maxPlayers",
          "type": "uint256"
        },
        {
          "internalType": "uint256",
          "name": "_betAmount",
          "type": "uint256"
        },
        {
          "internalType": "uint256",
          "name": "_gameFee",
          "type": "uint256"
        }
      ],
      "name": "createAverageGame",
      "outputs": [
        {
          "internalType": "address",
          "name": "",
          "type": "address"
        }
      ],
      "stateMutability": "nonpayable",
      "type": "function"
    },
    {
      "inputs": [
        {
          "internalType": "uint256",
          "name": "_index",
          "type": "uint256"
        }
      ],
      "name": "getGameMasterAt",
      "outputs": [
        {
          "internalType": "address",
          "name": "",
          "type": "address"
        }
      ],
      "stateMutability": "view",
      "type": "function"
    },
    {
      "inputs": [],
      "name": "getGameMasters",
      "outputs": [
        {
          "internalType": "address[]",
          "name": "",
          "type": "address[]"
        }
      ],
      "stateMutability": "view",
      "type": "function"
    },
    {
      "inputs": [],
      "name": "getGameProxies",
      "outputs": [
        {
          "internalType": "address[]",
          "name": "",
          "type": "address[]"
        }
      ],
      "stateMutability": "view",
      "type": "function"
    },
    {
      "inputs": [
        {
          "internalType": "uint256",
          "name": "_index",
          "type": "uint256"
        }
      ],
      "name": "getGameProxyAt",
      "outputs": [
        {
          "internalType": "address",
          "name": "",
          "type": "address"
        }
      ],
      "stateMutability": "view",
      "type": "function"
    },
    {
      "inputs": [],
      "name": "totalGames",
      "outputs": [
        {
          "internalType": "uint256",
          "name": "",
          "type": "uint256"
        }
      ],
      "stateMutability": "view",
      "type": "function"
    }
  ],
  "bytecode": "0x60806040526000805534801561001457600080fd5b50610eb7806100246000396000f3fe608060405234801561001057600080fd5b50600436106100625760003560e01c80632c4e591b14610067578063334a568914610085578063552dc2a3146100b55780635bed391e146100e55780639e5aef0a14610103578063b2b5842114610133575b600080fd5b61006f610151565b60405161007c9190610809565b60405180910390f35b61009f600480360381019061009a9190610864565b610157565b6040516100ac91906108d2565b60405180910390f35b6100cf60048036038101906100ca9190610a5f565b61019f565b6040516100dc91906108d2565b60405180910390f35b6100ed610456565b6040516100fa9190610bb4565b60405180910390f35b61011d60048036038101906101189190610864565b6104e4565b60405161012a91906108d2565b60405180910390f35b61013b61052c565b6040516101489190610bb4565b60405180910390f35b60005481565b60006002828154811061016d5761016c610bd6565b5b9060005260206000200160009054906101000a900473ffffffffffffffffffffffffffffffffffffffff169050919050565b60006101df6040518060400160405280601281526020017f4372656174696e672047616d65212121212100000000000000000000000000008152506105ba565b60006101ea87610653565b905061022a6040518060400160405280600681526020017f436c6f6e656400000000000000000000000000000000000000000000000000008152506105ba565b6001819080600181540180825580915050600190039060005260206000200160009091909190916101000a81548173ffffffffffffffffffffffffffffffffffffffff021916908373ffffffffffffffffffffffffffffffffffffffff1602179055506102cc6040518060400160405280600b81526020017f47616d65204d617374657200000000000000000000000000000000000000000081525033610704565b6002339080600181540180825580915050600190039060005260206000200160009091909190916101000a81548173ffffffffffffffffffffffffffffffffffffffff021916908373ffffffffffffffffffffffffffffffffffffffff1602179055508073ffffffffffffffffffffffffffffffffffffffff166339c4268f6000548860006103e88a8a338b6040518963ffffffff1660e01b815260040161037b989796959493929190610d04565b600060405180830381600087803b15801561039557600080fd5b505af11580156103a9573d6000803e3d6000fd5b505050506000808154809291906103bf90610db8565b91905055508073ffffffffffffffffffffffffffffffffffffffff166000547fc3e0f84839dc888c892a013d10c8f9d6dc05a21a879d0ce468ca558013e9121c60405160405180910390a36104496040518060400160405280601081526020017f496e69742067616d652063616c6c65640000000000000000000000000000000081525082610704565b8091505095945050505050565b606060028054806020026020016040519081016040528092919081815260200182805480156104da57602002820191906000526020600020905b8160009054906101000a900473ffffffffffffffffffffffffffffffffffffffff1673ffffffffffffffffffffffffffffffffffffffff1681526020019060010190808311610490575b5050505050905090565b6000600182815481106104fa576104f9610bd6565b5b9060005260206000200160009054906101000a900473ffffffffffffffffffffffffffffffffffffffff169050919050565b606060018054806020026020016040519081016040528092919081815260200182805480156105b057602002820191906000526020600020905b8160009054906101000a900473ffffffffffffffffffffffffffffffffffffffff1673ffffffffffffffffffffffffffffffffffffffff1681526020019060010190808311610566575b5050505050905090565b610650816040516024016105ce9190610e00565b6040516020818303038152906040527f41304fac000000000000000000000000000000000000000000000000000000007bffffffffffffffffffffffffffffffffffffffffffffffffffffffff19166020820180517bffffffffffffffffffffffffffffffffffffffffffffffffffffffff83818316178352505050506107a0565b50565b6000763d602d80600a3d3981f3363d3d373d3d3d363d730000008260601b60e81c176000526e5af43d82803e903d91602b57fd5bf38260781b17602052603760096000f09050600073ffffffffffffffffffffffffffffffffffffffff168173ffffffffffffffffffffffffffffffffffffffff16036106ff576040517fc2f868f400000000000000000000000000000000000000000000000000000000815260040160405180910390fd5b919050565b61079c828260405160240161071a929190610e22565b6040516020818303038152906040527f319af333000000000000000000000000000000000000000000000000000000007bffffffffffffffffffffffffffffffffffffffffffffffffffffffff19166020820180517bffffffffffffffffffffffffffffffffffffffffffffffffffffffff83818316178352505050506107a0565b5050565b6107b7816107af6107ba6107db565b63ffffffff16565b50565b60006a636f6e736f6c652e6c6f679050600080835160208501845afa505050565b6107e6819050919050565b6107ee610e52565b565b6000819050919050565b610803816107f0565b82525050565b600060208201905061081e60008301846107fa565b92915050565b6000604051905090565b600080fd5b600080fd5b610841816107f0565b811461084c57600080fd5b50565b60008135905061085e81610838565b92915050565b60006020828403121561087a5761087961082e565b5b60006108888482850161084f565b91505092915050565b600073ffffffffffffffffffffffffffffffffffffffff82169050919050565b60006108bc82610891565b9050919050565b6108cc816108b1565b82525050565b60006020820190506108e760008301846108c3565b92915050565b6108f6816108b1565b811461090157600080fd5b50565b600081359050610913816108ed565b92915050565b600080fd5b600080fd5b6000601f19601f8301169050919050565b7f4e487b7100000000000000000000000000000000000000000000000000000000600052604160045260246000fd5b61096c82610923565b810181811067ffffffffffffffff8211171561098b5761098a610934565b5b80604052505050565b600061099e610824565b90506109aa8282610963565b919050565b600067ffffffffffffffff8211156109ca576109c9610934565b5b6109d382610923565b9050602081019050919050565b82818337600083830152505050565b6000610a026109fd846109af565b610994565b905082815260208101848484011115610a1e57610a1d61091e565b5b610a298482856109e0565b509392505050565b600082601f830112610a4657610a45610919565b5b8135610a568482602086016109ef565b91505092915050565b600080600080600060a08688031215610a7b57610a7a61082e565b5b6000610a8988828901610904565b955050602086013567ffffffffffffffff811115610aaa57610aa9610833565b5b610ab688828901610a31565b9450506040610ac78882890161084f565b9350506060610ad88882890161084f565b9250506080610ae98882890161084f565b9150509295509295909350565b600081519050919050565b600082825260208201905092915050565b6000819050602082019050919050565b610b2b816108b1565b82525050565b6000610b3d8383610b22565b60208301905092915050565b6000602082019050919050565b6000610b6182610af6565b610b6b8185610b01565b9350610b7683610b12565b8060005b83811015610ba7578151610b8e8882610b31565b9750610b9983610b49565b925050600181019050610b7a565b5085935050505092915050565b60006020820190508181036000830152610bce8184610b56565b905092915050565b7f4e487b7100000000000000000000000000000000000000000000000000000000600052603260045260246000fd5b600081519050919050565b600082825260208201905092915050565b60005b83811015610c3f578082015181840152602081019050610c24565b60008484015250505050565b6000610c5682610c05565b610c608185610c10565b9350610c70818560208601610c21565b610c7981610923565b840191505092915050565b6000819050919050565b6000819050919050565b6000610cb3610cae610ca984610c84565b610c8e565b6107f0565b9050919050565b610cc381610c98565b82525050565b6000819050919050565b6000610cee610ce9610ce484610cc9565b610c8e565b6107f0565b9050919050565b610cfe81610cd3565b82525050565b600061010082019050610d1a600083018b6107fa565b8181036020830152610d2c818a610c4b565b9050610d3b6040830189610cba565b610d486060830188610cf5565b610d5560808301876107fa565b610d6260a08301866107fa565b610d6f60c08301856108c3565b610d7c60e08301846107fa565b9998505050505050505050565b7f4e487b7100000000000000000000000000000000000000000000000000000000600052601160045260246000fd5b6000610dc3826107f0565b91507fffffffffffffffffffffffffffffffffffffffffffffffffffffffffffffffff8203610df557610df4610d89565b5b600182019050919050565b60006020820190508181036000830152610e1a8184610c4b565b905092915050565b60006040820190508181036000830152610e3c8185610c4b565b9050610e4b60208301846108c3565b9392505050565b7f4e487b7100000000000000000000000000000000000000000000000000000000600052605160045260246000fdfea2646970667358221220b2c7bb878a013db755837d83eef446f0ec73cdd029bcc990074e25c17c4c9c5364736f6c63430008180033",
  "linkReferences": {},
  "deployedLinkReferences": {}
}