{
  "_format": "hh-sol-artifact-1",
  "contractName": "AverageGame",
  "sourceName": "contracts/AverageGame.sol",
  "abi": [
    {
      "inputs": [
        {
          "internalType": "uint256",
          "name": "x",
          "type": "uint256"
        },
        {
          "internalType": "uint256",
          "name": "y",
          "type": "uint256"
        }
      ],
      "name": "PRBMath_MulDiv18_Overflow",
      "type": "error"
    },
    {
      "inputs": [
        {
          "internalType": "uint256",
          "name": "x",
          "type": "uint256"
        },
        {
          "internalType": "uint256",
          "name": "y",
          "type": "uint256"
        },
        {
          "internalType": "uint256",
          "name": "denominator",
          "type": "uint256"
        }
      ],
      "name": "PRBMath_MulDiv_Overflow",
      "type": "error"
    },
    {
      "inputs": [
        {
          "internalType": "uint256",
          "name": "x",
          "type": "uint256"
        }
      ],
      "name": "PRBMath_UD60x18_Convert_Overflow",
      "type": "error"
    },
    {
      "inputs": [],
      "name": "ReentrancyGuardReentrantCall",
      "type": "error"
    },
    {
      "anonymous": false,
      "inputs": [
        {
          "indexed": true,
          "internalType": "uint256",
          "name": "gameId",
          "type": "uint256"
        }
      ],
      "name": "BettingRoundClosed",
      "type": "event"
    },
    {
      "anonymous": false,
      "inputs": [
        {
          "indexed": true,
          "internalType": "uint256",
          "name": "gameId",
          "type": "uint256"
        },
        {
          "indexed": true,
          "internalType": "address",
          "name": "player",
          "type": "address"
        },
        {
          "indexed": true,
          "internalType": "uint256",
          "name": "amount",
          "type": "uint256"
        }
      ],
      "name": "CollateralDeposited",
      "type": "event"
    },
    {
      "anonymous": false,
      "inputs": [
        {
          "indexed": true,
          "internalType": "uint256",
          "name": "gameId",
          "type": "uint256"
        },
        {
          "indexed": true,
          "internalType": "address",
          "name": "player",
          "type": "address"
        },
        {
          "indexed": true,
          "internalType": "uint256",
          "name": "amount",
          "type": "uint256"
        }
      ],
      "name": "FeeCollected",
      "type": "event"
    },
    {
      "anonymous": false,
      "inputs": [
        {
          "indexed": true,
          "internalType": "uint256",
          "name": "gameId",
          "type": "uint256"
        }
      ],
      "name": "GameCreated",
      "type": "event"
    },
    {
      "anonymous": false,
      "inputs": [
        {
          "indexed": true,
          "internalType": "uint256",
          "name": "gameId",
          "type": "uint256"
        }
      ],
      "name": "GameEnded",
      "type": "event"
    },
    {
      "anonymous": false,
      "inputs": [
        {
          "indexed": true,
          "internalType": "uint256",
          "name": "gameId",
          "type": "uint256"
        },
        {
          "indexed": true,
          "internalType": "address",
          "name": "player",
          "type": "address"
        },
        {
          "indexed": true,
          "internalType": "uint256",
          "name": "totalPlayersAmount",
          "type": "uint256"
        }
      ],
      "name": "PlayerJoined",
      "type": "event"
    },
    {
      "anonymous": false,
      "inputs": [
        {
          "indexed": true,
          "internalType": "uint256",
          "name": "gameId",
          "type": "uint256"
        },
        {
          "indexed": true,
          "internalType": "address",
          "name": "player",
          "type": "address"
        },
        {
          "indexed": true,
          "internalType": "uint256",
          "name": "amount",
          "type": "uint256"
        }
      ],
      "name": "PlayerRefunded",
      "type": "event"
    },
    {
      "anonymous": false,
      "inputs": [
        {
          "indexed": true,
          "internalType": "uint256",
          "name": "gameId",
          "type": "uint256"
        },
        {
          "indexed": true,
          "internalType": "address",
          "name": "player",
          "type": "address"
        },
        {
          "indexed": true,
          "internalType": "uint256",
          "name": "guess",
          "type": "uint256"
        },
        {
          "indexed": false,
          "internalType": "string",
          "name": "salt",
          "type": "string"
        },
        {
          "indexed": false,
          "internalType": "enum AverageGame.RevealState",
          "name": "revealState",
          "type": "uint8"
        }
      ],
      "name": "PlayerRevealedGuess",
      "type": "event"
    },
    {
      "anonymous": false,
      "inputs": [
        {
          "indexed": true,
          "internalType": "uint256",
          "name": "gameId",
          "type": "uint256"
        },
        {
          "indexed": true,
          "internalType": "address",
          "name": "player",
          "type": "address"
        },
        {
          "indexed": true,
          "internalType": "uint256",
          "name": "amount",
          "type": "uint256"
        },
        {
          "indexed": false,
          "internalType": "uint256",
          "name": "guess",
          "type": "uint256"
        }
      ],
      "name": "PrizeAwarded",
      "type": "event"
    },
    {
      "anonymous": false,
      "inputs": [
        {
          "indexed": true,
          "internalType": "uint256",
          "name": "gameId",
          "type": "uint256"
        },
        {
          "indexed": true,
          "internalType": "address",
          "name": "winner",
          "type": "address"
        },
        {
          "indexed": true,
          "internalType": "uint256",
          "name": "amount",
          "type": "uint256"
        }
      ],
      "name": "WinnerSelected",
      "type": "event"
    },
    {
      "inputs": [],
      "name": "betAmount",
      "outputs": [
        {
          "internalType": "uint256",
          "name": "",
          "type": "uint256"
        }
      ],
      "stateMutability": "view",
      "type": "function"
    },
    {
      "inputs": [],
      "name": "blockNumber",
      "outputs": [
        {
          "internalType": "uint256",
          "name": "",
          "type": "uint256"
        }
      ],
      "stateMutability": "view",
      "type": "function"
    },
    {
      "inputs": [],
      "name": "closeBettingRound",
      "outputs": [],
      "stateMutability": "nonpayable",
      "type": "function"
    },
    {
      "inputs": [],
      "name": "collateralAmount",
      "outputs": [
        {
          "internalType": "uint256",
          "name": "",
          "type": "uint256"
        }
      ],
      "stateMutability": "view",
      "type": "function"
    },
    {
      "inputs": [],
      "name": "endGame",
      "outputs": [],
      "stateMutability": "nonpayable",
      "type": "function"
    },
    {
      "inputs": [],
      "name": "feeClaimed",
      "outputs": [
        {
          "internalType": "bool",
          "name": "",
          "type": "bool"
        }
      ],
      "stateMutability": "view",
      "type": "function"
    },
    {
      "inputs": [],
      "name": "gameFee",
      "outputs": [
        {
          "internalType": "uint256",
          "name": "",
          "type": "uint256"
        }
      ],
      "stateMutability": "view",
      "type": "function"
    },
    {
      "inputs": [],
      "name": "gameMaster",
      "outputs": [
        {
          "internalType": "address",
          "name": "",
          "type": "address"
        }
      ],
      "stateMutability": "view",
      "type": "function"
    },
    {
      "inputs": [],
      "name": "getBalance",
      "outputs": [
        {
          "internalType": "uint256",
          "name": "",
          "type": "uint256"
        }
      ],
      "stateMutability": "view",
      "type": "function"
    },
    {
      "inputs": [
        {
          "internalType": "address",
          "name": "_player",
          "type": "address"
        }
      ],
      "name": "getPlayerRevealedState",
      "outputs": [
        {
          "internalType": "enum AverageGame.RevealState",
          "name": "",
          "type": "uint8"
        }
      ],
      "stateMutability": "view",
      "type": "function"
    },
    {
      "inputs": [],
      "name": "getPlayers",
      "outputs": [
        {
          "internalType": "address[]",
          "name": "",
          "type": "address[]"
        }
      ],
      "stateMutability": "view",
      "type": "function"
    },
    {
      "inputs": [],
      "name": "getPotentialWinners",
      "outputs": [
        {
          "internalType": "address[]",
          "name": "",
          "type": "address[]"
        }
      ],
      "stateMutability": "view",
      "type": "function"
    },
    {
      "inputs": [],
      "name": "id",
      "outputs": [
        {
          "internalType": "uint256",
          "name": "",
          "type": "uint256"
        }
      ],
      "stateMutability": "view",
      "type": "function"
    },
    {
      "inputs": [
        {
          "internalType": "uint256",
          "name": "_gameId",
          "type": "uint256"
        },
        {
          "internalType": "string",
          "name": "_name",
          "type": "string"
        },
        {
          "internalType": "uint256",
          "name": "_minGuess",
          "type": "uint256"
        },
        {
          "internalType": "uint256",
          "name": "_maxGuess",
          "type": "uint256"
        },
        {
          "internalType": "uint256",
          "name": "_maxPlayers",
          "type": "uint256"
        },
        {
          "internalType": "uint256",
          "name": "_betAmount",
          "type": "uint256"
        },
        {
          "internalType": "address",
          "name": "_gameMaster",
          "type": "address"
        },
        {
          "internalType": "uint256",
          "name": "_gameFee",
          "type": "uint256"
        }
      ],
      "name": "initGame",
      "outputs": [],
      "stateMutability": "payable",
      "type": "function"
    },
    {
      "inputs": [
        {
          "internalType": "bytes32",
          "name": "_guess",
          "type": "bytes32"
        }
      ],
      "name": "joinGame",
      "outputs": [],
      "stateMutability": "payable",
      "type": "function"
    },
    {
      "inputs": [],
      "name": "maxGuess",
      "outputs": [
        {
          "internalType": "uint256",
          "name": "",
          "type": "uint256"
        }
      ],
      "stateMutability": "view",
      "type": "function"
    },
    {
      "inputs": [],
      "name": "maxPlayers",
      "outputs": [
        {
          "internalType": "uint256",
          "name": "",
          "type": "uint256"
        }
      ],
      "stateMutability": "view",
      "type": "function"
    },
    {
      "inputs": [],
      "name": "minGuess",
      "outputs": [
        {
          "internalType": "uint256",
          "name": "",
          "type": "uint256"
        }
      ],
      "stateMutability": "view",
      "type": "function"
    },
    {
      "inputs": [],
      "name": "name",
      "outputs": [
        {
          "internalType": "string",
          "name": "",
          "type": "string"
        }
      ],
      "stateMutability": "view",
      "type": "function"
    },
    {
      "inputs": [
        {
          "internalType": "uint256",
          "name": "",
          "type": "uint256"
        }
      ],
      "name": "potentialWinners",
      "outputs": [
        {
          "internalType": "address",
          "name": "",
          "type": "address"
        }
      ],
      "stateMutability": "view",
      "type": "function"
    },
    {
      "inputs": [],
      "name": "requestRefund",
      "outputs": [],
      "stateMutability": "nonpayable",
      "type": "function"
    },
    {
      "inputs": [
        {
          "internalType": "uint256",
          "name": "_guess",
          "type": "uint256"
        },
        {
          "internalType": "string",
          "name": "_salt",
          "type": "string"
        }
      ],
      "name": "revealGuess",
      "outputs": [],
      "stateMutability": "nonpayable",
      "type": "function"
    },
    {
      "inputs": [],
      "name": "rewardClaimed",
      "outputs": [
        {
          "internalType": "bool",
          "name": "",
          "type": "bool"
        }
      ],
      "stateMutability": "view",
      "type": "function"
    },
    {
      "inputs": [],
      "name": "state",
      "outputs": [
        {
          "internalType": "enum AverageGame.GameState",
          "name": "",
          "type": "uint8"
        }
      ],
      "stateMutability": "view",
      "type": "function"
    },
    {
      "inputs": [],
      "name": "totalBetAmount",
      "outputs": [
        {
          "internalType": "uint256",
          "name": "",
          "type": "uint256"
        }
      ],
      "stateMutability": "view",
      "type": "function"
    },
    {
      "inputs": [],
      "name": "totalCollateralAmount",
      "outputs": [
        {
          "internalType": "uint256",
          "name": "",
          "type": "uint256"
        }
      ],
      "stateMutability": "view",
      "type": "function"
    },
    {
      "inputs": [],
      "name": "totalPlayers",
      "outputs": [
        {
          "internalType": "uint256",
          "name": "",
          "type": "uint256"
        }
      ],
      "stateMutability": "view",
      "type": "function"
    },
    {
      "inputs": [],
      "name": "winner",
      "outputs": [
        {
          "internalType": "address",
          "name": "",
          "type": "address"
        }
      ],
      "stateMutability": "view",
      "type": "function"
    },
    {
      "inputs": [],
      "name": "withdrawGameFees",
      "outputs": [],
      "stateMutability": "nonpayable",
      "type": "function"
    },
    {
      "inputs": [
        {
          "internalType": "address",
          "name": "_winner",
          "type": "address"
        }
      ],
      "name": "withdrawPricepool",
      "outputs": [],
      "stateMutability": "nonpayable",
      "type": "function"
    }
  ],
  "bytecode": "0x608060405234801561001057600080fd5b50600160008190555061539e806100286000396000f3fe6080604052600436106101cd5760003560e01c806371f4b8e8116100f7578063bf47476611610095578063d5cef13311610064578063d5cef133146105f6578063dfbf53ae1461060d578063ea777eec14610638578063f60cdcf614610663576101cd565b8063bf47476614610559578063c19d93fb14610575578063d24257c0146105a0578063d2e66e9d146105cb576101cd565b80639b9922e8116100d15780639b9922e8146104c3578063ab8a2873146104da578063af640d0f14610503578063bdf84ae71461052e576101cd565b806371f4b8e8146104425780638b5b9ccc1461046d57806392d09ceb14610498576101cd565b806339c4268f1161016f57806357e871e71161013e57806357e871e7146103aa578063613f4594146103d557806363f31d2c146104005780636cbc2ded1461042b576101cd565b806339c4268f146102fb5780634c2412a2146103175780635530e51014610342578063574d6d7e1461036d576101cd565b806312b5afc1116101ab57806312b5afc11461025357806318d3851b1461027c5780631af08b05146102a75780632007adf0146102e4576101cd565b806301b62b78146101d257806306fdde03146101fd57806312065fe014610228575b600080fd5b3480156101de57600080fd5b506101e761068e565b6040516101f4919061387e565b60405180910390f35b34801561020957600080fd5b506102126106a1565b60405161021f9190613929565b60405180910390f35b34801561023457600080fd5b5061023d61072f565b60405161024a9190613964565b60405180910390f35b34801561025f57600080fd5b5061027a60048036038101906102759190613af4565b610737565b005b34801561028857600080fd5b50610291610b3b565b60405161029e9190613c40565b60405180910390f35b3480156102b357600080fd5b506102ce60048036038101906102c99190613c62565b610c59565b6040516102db9190613c9e565b60405180910390f35b3480156102f057600080fd5b506102f9610c98565b005b61031560048036038101906103109190613ce5565b610e84565b005b34801561032357600080fd5b5061032c611106565b6040516103399190613964565b60405180910390f35b34801561034e57600080fd5b5061035761110c565b6040516103649190613964565b60405180910390f35b34801561037957600080fd5b50610394600480360381019061038f9190613db7565b611112565b6040516103a19190613e5b565b60405180910390f35b3480156103b657600080fd5b506103bf611168565b6040516103cc9190613964565b60405180910390f35b3480156103e157600080fd5b506103ea61116e565b6040516103f79190613964565b60405180910390f35b34801561040c57600080fd5b50610415611174565b6040516104229190613964565b60405180910390f35b34801561043757600080fd5b5061044061117a565b005b34801561044e57600080fd5b50610457611382565b604051610464919061387e565b60405180910390f35b34801561047957600080fd5b50610482611395565b60405161048f9190613c40565b60405180910390f35b3480156104a457600080fd5b506104ad611423565b6040516104ba9190613964565b60405180910390f35b3480156104cf57600080fd5b506104d8611429565b005b3480156104e657600080fd5b5061050160048036038101906104fc9190613db7565b61173c565b005b34801561050f57600080fd5b50610518611b05565b6040516105259190613964565b60405180910390f35b34801561053a57600080fd5b50610543611b0b565b6040516105509190613c9e565b60405180910390f35b610573600480360381019061056e9190613eac565b611b31565b005b34801561058157600080fd5b5061058a611fbe565b6040516105979190613f21565b60405180910390f35b3480156105ac57600080fd5b506105b5611fd1565b6040516105c29190613964565b60405180910390f35b3480156105d757600080fd5b506105e0611fd7565b6040516105ed9190613964565b60405180910390f35b34801561060257600080fd5b5061060b611fdd565b005b34801561061957600080fd5b50610622612066565b60405161062f9190613c9e565b60405180910390f35b34801561064457600080fd5b5061064d61208c565b60405161065a9190613964565b60405180910390f35b34801561066f57600080fd5b50610678612092565b6040516106859190613964565b60405180910390f35b601360019054906101000a900460ff1681565b600e80546106ae90613f6b565b80601f01602080910402602001604051908101604052809291908181526020018280546106da90613f6b565b80156107275780601f106106fc57610100808354040283529160200191610727565b820191906000526020600020905b81548152906001019060200180831161070a57829003601f168201915b505050505081565b600047905090565b33600073ffffffffffffffffffffffffffffffffffffffff168173ffffffffffffffffffffffffffffffffffffffff16036107a7576040517f08c379a000000000000000000000000000000000000000000000000000000000815260040161079e90613fe8565b60405180910390fd5b601560008273ffffffffffffffffffffffffffffffffffffffff1673ffffffffffffffffffffffffffffffffffffffff16815260200190815260200160002060009054906101000a900460ff16610833576040517f08c379a000000000000000000000000000000000000000000000000000000000815260040161082a90614054565b60405180910390fd5b6001600281111561084757610846613de4565b5b601360039054906101000a900460ff16600281111561086957610868613de4565b5b146108a9576040517f08c379a00000000000000000000000000000000000000000000000000000000081526004016108a0906140c0565b60405180910390fd5b6000601660003373ffffffffffffffffffffffffffffffffffffffff1673ffffffffffffffffffffffffffffffffffffffff16815260200190815260200160002060009054906101000a900460ff1690506000600281111561090e5761090d613de4565b5b81600281111561092157610920613de4565b5b14610961576040517f08c379a000000000000000000000000000000000000000000000000000000000815260040161095890614152565b60405180910390fd5b83601860003373ffffffffffffffffffffffffffffffffffffffff1673ffffffffffffffffffffffffffffffffffffffff1681526020019081526020016000208190555082601760003373ffffffffffffffffffffffffffffffffffffffff1673ffffffffffffffffffffffffffffffffffffffff16815260200190815260200160002090816109f1919061431e565b506109fb33612098565b905080601660003373ffffffffffffffffffffffffffffffffffffffff1673ffffffffffffffffffffffffffffffffffffffff16815260200190815260200160002060006101000a81548160ff02191690836002811115610a5f57610a5e613de4565b5b021790555060016002811115610a7857610a77613de4565b5b816002811115610a8b57610a8a613de4565b5b03610abf57610ab160405180606001604052806023815260200161524c60239139612236565b610aba336122cf565b610ae1565b610ae06040518060800160405280604381526020016152cd60439139612236565b5b833373ffffffffffffffffffffffffffffffffffffffff166001547fc9ad6e2d9cbbc2bb01b8cc1f583b96db524df608a369862103461d0fde31dfa58685604051610b2d9291906143f0565b60405180910390a450505050565b60603373ffffffffffffffffffffffffffffffffffffffff16600f60009054906101000a900473ffffffffffffffffffffffffffffffffffffffff1673ffffffffffffffffffffffffffffffffffffffff1614610bcd576040517f08c379a0000000000000000000000000000000000000000000000000000000008152600401610bc490614492565b60405180910390fd5b6012805480602002602001604051908101604052809291908181526020018280548015610c4f57602002820191906000526020600020905b8160009054906101000a900473ffffffffffffffffffffffffffffffffffffffff1673ffffffffffffffffffffffffffffffffffffffff1681526020019060010190808311610c05575b5050505050905090565b60128181548110610c6957600080fd5b906000526020600020016000915054906101000a900473ffffffffffffffffffffffffffffffffffffffff1681565b3373ffffffffffffffffffffffffffffffffffffffff16600f60009054906101000a900473ffffffffffffffffffffffffffffffffffffffff1673ffffffffffffffffffffffffffffffffffffffff1614610d28576040517f08c379a0000000000000000000000000000000000000000000000000000000008152600401610d1f90614492565b60405180910390fd5b60006002811115610d3c57610d3b613de4565b5b601360039054906101000a900460ff166002811115610d5e57610d5d613de4565b5b14610d9e576040517f08c379a0000000000000000000000000000000000000000000000000000000008152600401610d95906144fe565b60405180910390fd5b600380541015610de3576040517f08c379a0000000000000000000000000000000000000000000000000000000008152600401610dda90614590565b60405180910390fd5b6001601360036101000a81548160ff02191690836002811115610e0957610e08613de4565b5b021790555043600d81905550610e536040518060400160405280601481526020017f42657474696e6720726f756e6420636c6f736564000000000000000000000000815250612236565b6001547f1af5706848593978661e03a58b13e34204b40f58afbc193a44b1f17e0b40db6360405160405180910390a2565b601360009054906101000a900460ff1615610ed4576040517f08c379a0000000000000000000000000000000000000000000000000000000008152600401610ecb906145fc565b60405180910390fd5b8760018190555086600e9081610eea919061431e565b5085600881905550846009819055508360028190555082600481905550600383610f14919061464b565b60058190555060025467ffffffffffffffff811115610f3657610f356139c9565b5b604051908082528060200260200182016040528015610f645781602001602082028036833780820191505090505b5060119080519060200190610f7a9291906137b2565b506000601360036101000a81548160ff02191690836002811115610fa157610fa0613de4565b5b021790555080600a819055506001601360006101000a81548160ff02191690831515021790555081600f60006101000a81548173ffffffffffffffffffffffffffffffffffffffff021916908373ffffffffffffffffffffffffffffffffffffffff1602179055506110486040518060400160405280601081526020017f47616d6520696e697469616c697a656400000000000000000000000000000000815250846125cb565b6110876040518060400160405280600381526020017f4665650000000000000000000000000000000000000000000000000000000000815250826125cb565b6110c86040518060400160405280600a81526020017f436f6c6c61746572616c000000000000000000000000000000000000000000008152506005546125cb565b43600d81905550877fbd19c47e9925eb6f7be8bb1c13a841e0240aaeaf17f217e90022e9c8eb66877f60405160405180910390a25050505050505050565b60025481565b60095481565b6000601660008373ffffffffffffffffffffffffffffffffffffffff1673ffffffffffffffffffffffffffffffffffffffff16815260200190815260200160002060009054906101000a900460ff169050919050565b600d5481565b60065481565b60075481565b3373ffffffffffffffffffffffffffffffffffffffff16600f60009054906101000a900473ffffffffffffffffffffffffffffffffffffffff1673ffffffffffffffffffffffffffffffffffffffff161461120a576040517f08c379a000000000000000000000000000000000000000000000000000000000815260040161120190614492565b60405180910390fd5b6001600281111561121e5761121d613de4565b5b601360039054906101000a900460ff1660028111156112405761123f613de4565b5b14611280576040517f08c379a0000000000000000000000000000000000000000000000000000000008152600401611277906140c0565b60405180910390fd5b611288612667565b6002601360036101000a81548160ff021916908360028111156112ae576112ad613de4565b5b02179055507fffffffffffffffffffffffffffffffffffffffffffffffffffffffffffffffff600c540361130a576112e4612aa1565b6113056040518060600160405280603a815260200161526f603a9139612236565b611351565b611312612c84565b6113506040518060400160405280601b81526020017f57696e6e65722073656c65637465642c2067616d6520656e6465640000000000815250612236565b5b6001547fce24807f7e4b60b4e641462f13029fa5e5f79075bbc3f8e5cd43ecd19661d76060405160405180910390a2565b601360029054906101000a900460ff1681565b6060601180548060200260200160405190810160405280929190818152602001828054801561141957602002820191906000526020600020905b8160009054906101000a900473ffffffffffffffffffffffffffffffffffffffff1673ffffffffffffffffffffffffffffffffffffffff16815260200190600101908083116113cf575b5050505050905090565b60055481565b3373ffffffffffffffffffffffffffffffffffffffff16600f60009054906101000a900473ffffffffffffffffffffffffffffffffffffffff1673ffffffffffffffffffffffffffffffffffffffff16146114b9576040517f08c379a00000000000000000000000000000000000000000000000000000000081526004016114b090614492565b60405180910390fd5b6114c1612ee0565b6002808111156114d4576114d3613de4565b5b601360039054906101000a900460ff1660028111156114f6576114f5613de4565b5b14611536576040517f08c379a000000000000000000000000000000000000000000000000000000000815260040161152d906140c0565b60405180910390fd5b600073ffffffffffffffffffffffffffffffffffffffff16601060009054906101000a900473ffffffffffffffffffffffffffffffffffffffff1673ffffffffffffffffffffffffffffffffffffffff16036115c7576040517f08c379a00000000000000000000000000000000000000000000000000000000081526004016115be906146d9565b60405180910390fd5b600b546115d261072f565b1015611613576040517f08c379a000000000000000000000000000000000000000000000000000000000815260040161160a9061476b565b60405180910390fd5b6000600b5490506000600b819055506001601360026101000a81548160ff02191690831515021790555060003373ffffffffffffffffffffffffffffffffffffffff1682604051611663906147bc565b60006040518083038185875af1925050503d80600081146116a0576040519150601f19603f3d011682016040523d82523d6000602084013e6116a5565b606091505b50509050806116e9576040517f08c379a00000000000000000000000000000000000000000000000000000000081526004016116e09061481d565b60405180910390fd5b813373ffffffffffffffffffffffffffffffffffffffff166001547ff1d6c8ee14081f641e2073a1064d870f135f1001a301c6b14a7b9655672fec1160405160405180910390a4505061173a612f26565b565b61179d6040518060400160405280600781526020017f57696e6e65723a00000000000000000000000000000000000000000000000000815250601060009054906101000a900473ffffffffffffffffffffffffffffffffffffffff16612f30565b6117dc6040518060400160405280600a81526020017f4d73672e73656e6465720000000000000000000000000000000000000000000081525033612f30565b3373ffffffffffffffffffffffffffffffffffffffff16601060009054906101000a900473ffffffffffffffffffffffffffffffffffffffff1673ffffffffffffffffffffffffffffffffffffffff161461186c576040517f08c379a0000000000000000000000000000000000000000000000000000000008152600401611863906148af565b60405180910390fd5b611874612ee0565b60028081111561188757611886613de4565b5b601360039054906101000a900460ff1660028111156118a9576118a8613de4565b5b146118e9576040517f08c379a00000000000000000000000000000000000000000000000000000000081526004016118e0906140c0565b60405180910390fd5b60006007546006546118fb91906148cf565b905060008111611940576040517f08c379a00000000000000000000000000000000000000000000000000000000081526004016119379061494f565b60405180910390fd5b8061194961072f565b101561198a576040517f08c379a0000000000000000000000000000000000000000000000000000000008152600401611981906149e1565b60405180910390fd5b600060068190555060006007819055506001601360016101000a81548160ff02191690831515021790555060008273ffffffffffffffffffffffffffffffffffffffff16826040516119db906147bc565b60006040518083038185875af1925050503d8060008114611a18576040519150601f19603f3d011682016040523d82523d6000602084013e611a1d565b606091505b5050905080611a61576040517f08c379a0000000000000000000000000000000000000000000000000000000008152600401611a589061481d565b60405180910390fd5b6000601860008573ffffffffffffffffffffffffffffffffffffffff1673ffffffffffffffffffffffffffffffffffffffff168152602001908152602001600020549050828473ffffffffffffffffffffffffffffffffffffffff166001547f16b695a62f925592d6d20c814bb52013e1fa726fabbb8579841359c2794f305184604051611aef9190613964565b60405180910390a4505050611b02612f26565b50565b60015481565b600f60009054906101000a900473ffffffffffffffffffffffffffffffffffffffff1681565b60006002811115611b4557611b44613de4565b5b601360039054906101000a900460ff166002811115611b6757611b66613de4565b5b14611ba7576040517f08c379a0000000000000000000000000000000000000000000000000000000008152600401611b9e906144fe565b60405180910390fd5b600f60009054906101000a900473ffffffffffffffffffffffffffffffffffffffff1673ffffffffffffffffffffffffffffffffffffffff163373ffffffffffffffffffffffffffffffffffffffff1603611c37576040517f08c379a0000000000000000000000000000000000000000000000000000000008152600401611c2e90614a73565b60405180910390fd5b600a54600454600554611c4a91906148cf565b611c5491906148cf565b3414611c95576040517f08c379a0000000000000000000000000000000000000000000000000000000008152600401611c8c90614b51565b60405180910390fd5b601560003373ffffffffffffffffffffffffffffffffffffffff1673ffffffffffffffffffffffffffffffffffffffff16815260200190815260200160002060009054906101000a900460ff1615611d22576040517f08c379a0000000000000000000000000000000000000000000000000000000008152600401611d1990614be3565b60405180910390fd5b60045460066000828254611d3691906148cf565b9250508190555060055460076000828254611d5191906148cf565b92505081905550600554601960003373ffffffffffffffffffffffffffffffffffffffff1673ffffffffffffffffffffffffffffffffffffffff16815260200190815260200160002081905550600a54600b6000828254611db291906148cf565b9250508190555080601460003373ffffffffffffffffffffffffffffffffffffffff1673ffffffffffffffffffffffffffffffffffffffff1681526020019081526020016000208190555033601160035481548110611e1457611e13614c03565b5b9060005260206000200160006101000a81548173ffffffffffffffffffffffffffffffffffffffff021916908373ffffffffffffffffffffffffffffffffffffffff1602179055506001601560003373ffffffffffffffffffffffffffffffffffffffff1673ffffffffffffffffffffffffffffffffffffffff16815260200190815260200160002060006101000a81548160ff0219169083151502179055506000601660003373ffffffffffffffffffffffffffffffffffffffff1673ffffffffffffffffffffffffffffffffffffffff16815260200190815260200160002060006101000a81548160ff02191690836002811115611f1757611f16613de4565b5b021790555060036000815480929190611f2f90614c32565b9190505550611f726040518060400160405280601681526020017f506c61796572206a6f696e6564207468652067616d6500000000000000000000815250612236565b6003543373ffffffffffffffffffffffffffffffffffffffff166001547f03dfbe1fcb4e2d61f3b4a0c93d8f814c92250618b3387f396cc9fc9fafe2c20360405160405180910390a450565b601360039054906101000a900460ff1681565b60045481565b60085481565b43600a600d54611fed91906148cf565b1061202d576040517f08c379a000000000000000000000000000000000000000000000000000000000815260040161202490614d12565b60405180910390fd5b612035612aa1565b6001547fce24807f7e4b60b4e641462f13029fa5e5f79075bbc3f8e5cd43ecd19661d76060405160405180910390a2565b601060009054906101000a900473ffffffffffffffffffffffffffffffffffffffff1681565b600a5481565b60035481565b600080601860008473ffffffffffffffffffffffffffffffffffffffff1673ffffffffffffffffffffffffffffffffffffffff1681526020019081526020016000205490506000601760008573ffffffffffffffffffffffffffffffffffffffff1673ffffffffffffffffffffffffffffffffffffffff168152602001908152602001600020805461212990613f6b565b80601f016020809104026020016040519081016040528092919081815260200182805461215590613f6b565b80156121a25780601f10612177576101008083540402835291602001916121a2565b820191906000526020600020905b81548152906001019060200180831161218557829003601f168201915b505050505090506000601460008673ffffffffffffffffffffffffffffffffffffffff1673ffffffffffffffffffffffffffffffffffffffff16815260200190815260200160002054905060008383604051602001612202929190614d8f565b60405160208183030381529060405280519060200120905081811461222857600261222b565b60015b945050505050919050565b6122cc8160405160240161224a9190613929565b6040516020818303038152906040527f41304fac000000000000000000000000000000000000000000000000000000007bffffffffffffffffffffffffffffffffffffffffffffffffffffffff19166020820180517bffffffffffffffffffffffffffffffffffffffffffffffffffffffff8381831617835250505050612fcc565b50565b6122d7612ee0565b600554600754101561231e576040517f08c379a000000000000000000000000000000000000000000000000000000000815260040161231590614e29565b60405180910390fd5b600554601960008373ffffffffffffffffffffffffffffffffffffffff1673ffffffffffffffffffffffffffffffffffffffff1681526020019081526020016000205410156123a2576040517f08c379a000000000000000000000000000000000000000000000000000000000815260040161239990614e29565b60405180910390fd5b600160028111156123b6576123b5613de4565b5b601660008373ffffffffffffffffffffffffffffffffffffffff1673ffffffffffffffffffffffffffffffffffffffff16815260200190815260200160002060009054906101000a900460ff16600281111561241557612414613de4565b5b14612455576040517f08c379a000000000000000000000000000000000000000000000000000000000815260040161244c90614ebb565b60405180910390fd5b600554601960008373ffffffffffffffffffffffffffffffffffffffff1673ffffffffffffffffffffffffffffffffffffffff16815260200190815260200160002060008282546124a69190614edb565b92505081905550600554600760008282546124c19190614edb565b9250508190555060008173ffffffffffffffffffffffffffffffffffffffff166005546040516124f0906147bc565b60006040518083038185875af1925050503d806000811461252d576040519150601f19603f3d011682016040523d82523d6000602084013e612532565b606091505b5050905080612576576040517f08c379a000000000000000000000000000000000000000000000000000000000815260040161256d9061481d565b60405180910390fd5b6005548273ffffffffffffffffffffffffffffffffffffffff166001547feec2f3feb835e2f2fd44281034b04700a1ddda63dd402949d470a25a7c40b36c60405160405180910390a4506125c8612f26565b50565b61266382826040516024016125e1929190614f0f565b6040516020818303038152906040527fb60e72cc000000000000000000000000000000000000000000000000000000007bffffffffffffffffffffffffffffffffffffffffffffffffffffffff19166020820180517bffffffffffffffffffffffffffffffffffffffffffffffffffffffff8381831617835250505050612fcc565b5050565b6001600281111561267b5761267a613de4565b5b601360039054906101000a900460ff16600281111561269d5761269c613de4565b5b146126dd576040517f08c379a00000000000000000000000000000000000000000000000000000000081526004016126d4906140c0565b60405180910390fd5b61271b6040518060400160405280601d81526020017f44657465726d696e696e6720706f74656e7469616c2077696e6e657273000000815250612236565b6000612725612fe6565b90507fffffffffffffffffffffffffffffffffffffffffffffffffffffffffffffffff810361277b577fffffffffffffffffffffffffffffffffffffffffffffffffffffffffffffffff600c8190555050612a9f565b6000612786826131d2565b905060035467ffffffffffffffff8111156127a4576127a36139c9565b5b6040519080825280602002602001820160405280156127d25781602001602082028036833780820191505090505b50601290805190602001906127e89291906137b2565b5060006127f66009546131d2565b90506000805b600354811015612a865760006011828154811061281c5761281b614c03565b5b9060005260206000200160009054906101000a900473ffffffffffffffffffffffffffffffffffffffff1690506000612893601860008473ffffffffffffffffffffffffffffffffffffffff1673ffffffffffffffffffffffffffffffffffffffff168152602001908152602001600020546131d2565b905060006128a1828861325e565b156128b7576128b0878361327b565b90506128c4565b6128c1828861327b565b90505b6128ce818761325e565b156129d95760005b60128054905081101561294e576000601282815481106128f9576128f8614c03565b5b9060005260206000200160006101000a81548173ffffffffffffffffffffffffffffffffffffffff021916908373ffffffffffffffffffffffffffffffffffffffff16021790555080806001019150506128d6565b5080955060009450826012868154811061296b5761296a614c03565b5b9060005260206000200160006101000a81548173ffffffffffffffffffffffffffffffffffffffff021916908373ffffffffffffffffffffffffffffffffffffffff1602179055506129d460405180606001604052806028815260200161534160289139612236565b612a76565b6129e381876132a9565b15612a755784806129f390614c32565b9550508260128681548110612a0b57612a0a614c03565b5b9060005260206000200160006101000a81548173ffffffffffffffffffffffffffffffffffffffff021916908373ffffffffffffffffffffffffffffffffffffffff160217905550612a7460405180606001604052806031815260200161531060319139612236565b5b5b50505080806001019150506127fc565b50600181612a9491906148cf565b600c81905550505050505b565b612aa9612ee0565b60005b600354811015612c7957600060118281548110612acc57612acb614c03565b5b9060005260206000200160009054906101000a900473ffffffffffffffffffffffffffffffffffffffff1690506000601960008373ffffffffffffffffffffffffffffffffffffffff1673ffffffffffffffffffffffffffffffffffffffff168152602001908152602001600020549050600060045490506000600354600b54612b569190614f6e565b90506000818385612b6791906148cf565b612b7191906148cf565b905060008573ffffffffffffffffffffffffffffffffffffffff1682604051612b99906147bc565b60006040518083038185875af1925050503d8060008114612bd6576040519150601f19603f3d011682016040523d82523d6000602084013e612bdb565b606091505b5050905080612c1f576040517f08c379a0000000000000000000000000000000000000000000000000000000008152600401612c169061481d565b60405180910390fd5b818673ffffffffffffffffffffffffffffffffffffffff166001547fff3116559cac6c47442d1f2083dc842de1f35c5f87fd25d7978d509fa59c1b1860405160405180910390a45050505050508080600101915050612aac565b50612c82612f26565b565b600280811115612c9757612c96613de4565b5b601360039054906101000a900460ff166002811115612cb957612cb8613de4565b5b14612cf9576040517f08c379a0000000000000000000000000000000000000000000000000000000008152600401612cf0906140c0565b60405180910390fd5b6000600754600654612d0b91906148cf565b905080612d1661072f565b1015612d57576040517f08c379a0000000000000000000000000000000000000000000000000000000008152600401612d4e90615011565b60405180910390fd5b6001600c541315612df3576000612d6c6132c6565b905060128181548110612d8257612d81614c03565b5b9060005260206000200160009054906101000a900473ffffffffffffffffffffffffffffffffffffffff16601060006101000a81548173ffffffffffffffffffffffffffffffffffffffff021916908373ffffffffffffffffffffffffffffffffffffffff16021790555050612e74565b6012600081548110612e0857612e07614c03565b5b9060005260206000200160009054906101000a900473ffffffffffffffffffffffffffffffffffffffff16601060006101000a81548173ffffffffffffffffffffffffffffffffffffffff021916908373ffffffffffffffffffffffffffffffffffffffff1602179055505b80601060009054906101000a900473ffffffffffffffffffffffffffffffffffffffff1673ffffffffffffffffffffffffffffffffffffffff166001547ffee5b04775e1cd2311ed22cd00f5d2403aff38ff6f71d6d393f51854ed6bc98660405160405180910390a450565b600260005403612f1c576040517f3ee5aeb500000000000000000000000000000000000000000000000000000000815260040160405180910390fd5b6002600081905550565b6001600081905550565b612fc88282604051602401612f46929190615031565b6040516020818303038152906040527f319af333000000000000000000000000000000000000000000000000000000007bffffffffffffffffffffffffffffffffffffffffffffffffffffffff19166020820180517bffffffffffffffffffffffffffffffffffffffffffffffffffffffff8381831617835250505050612fcc565b5050565b612fe381612fdb6134ae6134cf565b63ffffffff16565b50565b6000806000905060008060005b6003548110156131565760006011828154811061301357613012614c03565b5b9060005260206000200160009054906101000a900473ffffffffffffffffffffffffffffffffffffffff1690506001600281111561305457613053613de4565b5b601660008373ffffffffffffffffffffffffffffffffffffffff1673ffffffffffffffffffffffffffffffffffffffff16815260200190815260200160002060009054906101000a900460ff1660028111156130b3576130b2613de4565b5b03613148576130d96040518060600160405280602481526020016152a960249139612236565b6000613123601860008473ffffffffffffffffffffffffffffffffffffffff1673ffffffffffffffffffffffffffffffffffffffff168152602001908152602001600020546131d2565b905061312f86826134da565b95506131448561313f60016131d2565b6134da565b9450505b508080600101915050612ff3565b5061316082613508565b15613190577fffffffffffffffffffffffffffffffffffffffffffffffffffffffffffffffff93505050506131cf565b61319a838361351c565b90506131c96131c46131b5836131b060026131d2565b613551565b6131bf60036131d2565b61351c565b61357d565b93505050505b90565b6000670de0b6b3a76400007fffffffffffffffffffffffffffffffffffffffffffffffffffffffffffffffff6132089190614f6e565b82111561324c57816040517f1cd951a70000000000000000000000000000000000000000000000000000000081526004016132439190613964565b60405180910390fd5b670de0b6b3a764000082029050919050565b60006132698261359a565b6132728461359a565b10905092915050565b60006132a16132898361359a565b6132928561359a565b61329c9190614edb565b6135a4565b905092915050565b60006132b48261359a565b6132bd8461359a565b14905092915050565b60008042444143456040516020016132e29594939291906150bb565b604051602081830303815290604052905060005b600c548110156134895760006012828154811061331657613315614c03565b5b9060005260206000200160009054906101000a900473ffffffffffffffffffffffffffffffffffffffff1690506000601860008373ffffffffffffffffffffffffffffffffffffffff1673ffffffffffffffffffffffffffffffffffffffff1681526020019081526020016000205490506000601760008473ffffffffffffffffffffffffffffffffffffffff1673ffffffffffffffffffffffffffffffffffffffff16815260200190815260200160002080546133d390613f6b565b80601f01602080910402602001604051908101604052809291908181526020018280546133ff90613f6b565b801561344c5780601f106134215761010080835404028352916020019161344c565b820191906000526020600020905b81548152906001019060200180831161342f57829003601f168201915b5050505050905084828260405160200161346893929190615156565b604051602081830303815290604052945050505080806001019150506132f6565b50600081805190602001209050600c548160001c6134a7919061518b565b9250505090565b60006a636f6e736f6c652e6c6f679050600080835160208501845afa505050565b61383c819050919050565b60006135006134e88361359a565b6134f18561359a565b6134fb91906148cf565b6135a4565b905092915050565b6000806135148361359a565b149050919050565b600061354961354461352d8561359a565b670de0b6b3a764000061353f8661359a565b6135ae565b6135a4565b905092915050565b60006135756135706135628561359a565b61356b8561359a565b6136c8565b6135a4565b905092915050565b6000670de0b6b3a7640000826135939190614f6e565b9050919050565b6000819050919050565b6000819050919050565b60008060008019858709858702925082811083820303915050600081036135e9578382816135df576135de614f3f565b5b04925050506136c1565b838110613631578585856040517f63a05778000000000000000000000000000000000000000000000000000000008152600401613628939291906151bc565b60405180910390fd5b60008486880990508281118203915080830392506000600186190186169050600081870496508185049450600182836000030401905080840285179450600060028860030218905080880260020381029050808802600203810290508088026002038102905080880260020381029050808802600203810290508088026002038102905080860296505050505050505b9392505050565b600080600080198486098486029250828110838203039150506000810361370b57670de0b6b3a7640000828161370157613700614f3f565b5b04925050506137ac565b670de0b6b3a764000081106137595784846040517f5173648d0000000000000000000000000000000000000000000000000000000081526004016137509291906151f3565b60405180910390fd5b6000670de0b6b3a764000085870990507faccb18165bd6fe31ae1cf318dc5b51eee0e1ba569b88cd74c1773b91fac106696001620400008060000304018483118403026204000083860304170293505050505b92915050565b82805482825590600052602060002090810192821561382b579160200282015b8281111561382a5782518260006101000a81548173ffffffffffffffffffffffffffffffffffffffff021916908373ffffffffffffffffffffffffffffffffffffffff160217905550916020019190600101906137d2565b5b5090506138389190613846565b5090565b61384461521c565b565b5b8082111561385f576000816000905550600101613847565b5090565b60008115159050919050565b61387881613863565b82525050565b6000602082019050613893600083018461386f565b92915050565b600081519050919050565b600082825260208201905092915050565b60005b838110156138d35780820151818401526020810190506138b8565b60008484015250505050565b6000601f19601f8301169050919050565b60006138fb82613899565b61390581856138a4565b93506139158185602086016138b5565b61391e816138df565b840191505092915050565b6000602082019050818103600083015261394381846138f0565b905092915050565b6000819050919050565b61395e8161394b565b82525050565b60006020820190506139796000830184613955565b92915050565b6000604051905090565b600080fd5b600080fd5b61399c8161394b565b81146139a757600080fd5b50565b6000813590506139b981613993565b92915050565b600080fd5b600080fd5b7f4e487b7100000000000000000000000000000000000000000000000000000000600052604160045260246000fd5b613a01826138df565b810181811067ffffffffffffffff82111715613a2057613a1f6139c9565b5b80604052505050565b6000613a3361397f565b9050613a3f82826139f8565b919050565b600067ffffffffffffffff821115613a5f57613a5e6139c9565b5b613a68826138df565b9050602081019050919050565b82818337600083830152505050565b6000613a97613a9284613a44565b613a29565b905082815260208101848484011115613ab357613ab26139c4565b5b613abe848285613a75565b509392505050565b600082601f830112613adb57613ada6139bf565b5b8135613aeb848260208601613a84565b91505092915050565b60008060408385031215613b0b57613b0a613989565b5b6000613b19858286016139aa565b925050602083013567ffffffffffffffff811115613b3a57613b3961398e565b5b613b4685828601613ac6565b9150509250929050565b600081519050919050565b600082825260208201905092915050565b6000819050602082019050919050565b600073ffffffffffffffffffffffffffffffffffffffff82169050919050565b6000613ba782613b7c565b9050919050565b613bb781613b9c565b82525050565b6000613bc98383613bae565b60208301905092915050565b6000602082019050919050565b6000613bed82613b50565b613bf78185613b5b565b9350613c0283613b6c565b8060005b83811015613c33578151613c1a8882613bbd565b9750613c2583613bd5565b925050600181019050613c06565b5085935050505092915050565b60006020820190508181036000830152613c5a8184613be2565b905092915050565b600060208284031215613c7857613c77613989565b5b6000613c86848285016139aa565b91505092915050565b613c9881613b9c565b82525050565b6000602082019050613cb36000830184613c8f565b92915050565b613cc281613b9c565b8114613ccd57600080fd5b50565b600081359050613cdf81613cb9565b92915050565b600080600080600080600080610100898b031215613d0657613d05613989565b5b6000613d148b828c016139aa565b985050602089013567ffffffffffffffff811115613d3557613d3461398e565b5b613d418b828c01613ac6565b9750506040613d528b828c016139aa565b9650506060613d638b828c016139aa565b9550506080613d748b828c016139aa565b94505060a0613d858b828c016139aa565b93505060c0613d968b828c01613cd0565b92505060e0613da78b828c016139aa565b9150509295985092959890939650565b600060208284031215613dcd57613dcc613989565b5b6000613ddb84828501613cd0565b91505092915050565b7f4e487b7100000000000000000000000000000000000000000000000000000000600052602160045260246000fd5b60038110613e2457613e23613de4565b5b50565b6000819050613e3582613e13565b919050565b6000613e4582613e27565b9050919050565b613e5581613e3a565b82525050565b6000602082019050613e706000830184613e4c565b92915050565b6000819050919050565b613e8981613e76565b8114613e9457600080fd5b50565b600081359050613ea681613e80565b92915050565b600060208284031215613ec257613ec1613989565b5b6000613ed084828501613e97565b91505092915050565b60038110613eea57613ee9613de4565b5b50565b6000819050613efb82613ed9565b919050565b6000613f0b82613eed565b9050919050565b613f1b81613f00565b82525050565b6000602082019050613f366000830184613f12565b92915050565b7f4e487b7100000000000000000000000000000000000000000000000000000000600052602260045260246000fd5b60006002820490506001821680613f8357607f821691505b602082108103613f9657613f95613f3c565b5b50919050565b7f416464726573732063616e277420626520307830000000000000000000000000600082015250565b6000613fd26014836138a4565b9150613fdd82613f9c565b602082019050919050565b6000602082019050818103600083015261400181613fc5565b9050919050565b7f4e6f7420612076616c696420706c617965722061646472657373000000000000600082015250565b600061403e601a836138a4565b915061404982614008565b602082019050919050565b6000602082019050818103600083015261406d81614031565b9050919050565b7f47616d6520686173206e6f7420656e6465642079657400000000000000000000600082015250565b60006140aa6016836138a4565b91506140b582614074565b602082019050919050565b600060208201905081810360008301526140d98161409d565b9050919050565b7f506c6179657220616c72656164792072657665616c656420746865697220677560008201527f6573730000000000000000000000000000000000000000000000000000000000602082015250565b600061413c6023836138a4565b9150614147826140e0565b604082019050919050565b6000602082019050818103600083015261416b8161412f565b9050919050565b60008190508160005260206000209050919050565b60006020601f8301049050919050565b600082821b905092915050565b6000600883026141d47fffffffffffffffffffffffffffffffffffffffffffffffffffffffffffffffff82614197565b6141de8683614197565b95508019841693508086168417925050509392505050565b6000819050919050565b600061421b6142166142118461394b565b6141f6565b61394b565b9050919050565b6000819050919050565b61423583614200565b61424961424182614222565b8484546141a4565b825550505050565b600090565b61425e614251565b61426981848461422c565b505050565b5b8181101561428d57614282600082614256565b60018101905061426f565b5050565b601f8211156142d2576142a381614172565b6142ac84614187565b810160208510156142bb578190505b6142cf6142c785614187565b83018261426e565b50505b505050565b600082821c905092915050565b60006142f5600019846008026142d7565b1980831691505092915050565b600061430e83836142e4565b9150826002028217905092915050565b61432782613899565b67ffffffffffffffff8111156143405761433f6139c9565b5b61434a8254613f6b565b614355828285614291565b600060209050601f8311600181146143885760008415614376578287015190505b6143808582614302565b8655506143e8565b601f19841661439686614172565b60005b828110156143be57848901518255600182019150602085019450602081019050614399565b868310156143db57848901516143d7601f8916826142e4565b8355505b6001600288020188555050505b505050505050565b6000604082019050818103600083015261440a81856138f0565b90506144196020830184613e4c565b9392505050565b7f4f6e6c792067616d65206d61737465722063616e2063616c6c2074686973206660008201527f756e6374696f6e00000000000000000000000000000000000000000000000000602082015250565b600061447c6027836138a4565b915061448782614420565b604082019050919050565b600060208201905081810360008301526144ab8161446f565b9050919050565b7f47616d6520686173206e6f742073746172746564207965740000000000000000600082015250565b60006144e86018836138a4565b91506144f3826144b2565b602082019050919050565b60006020820190508181036000830152614517816144db565b9050919050565b7f41746c65617374203320706c617965727320617265207265717569726564207460008201527f6f207374617274207468652067616d6500000000000000000000000000000000602082015250565b600061457a6030836138a4565b91506145858261451e565b604082019050919050565b600060208201905081810360008301526145a98161456d565b9050919050565b7f47616d6520697320616c726561647920696e697469616c697a65640000000000600082015250565b60006145e6601b836138a4565b91506145f1826145b0565b602082019050919050565b60006020820190508181036000830152614615816145d9565b9050919050565b7f4e487b7100000000000000000000000000000000000000000000000000000000600052601160045260246000fd5b60006146568261394b565b91506146618361394b565b925082820261466f8161394b565b915082820484148315176146865761468561461c565b5b5092915050565b7f4e6f2077696e6e657220666f756e640000000000000000000000000000000000600082015250565b60006146c3600f836138a4565b91506146ce8261468d565b602082019050919050565b600060208201905081810360008301526146f2816146b6565b9050919050565b7f4e6f7420656e6f7567682066756e647320746f2077697468647261772074686560008201527f2067616d65206665657300000000000000000000000000000000000000000000602082015250565b6000614755602a836138a4565b9150614760826146f9565b604082019050919050565b6000602082019050818103600083015261478481614748565b9050919050565b600081905092915050565b50565b60006147a660008361478b565b91506147b182614796565b600082019050919050565b60006147c782614799565b9150819050919050565b7f4661696c656420746f2073656e64204574686572000000000000000000000000600082015250565b60006148076014836138a4565b9150614812826147d1565b602082019050919050565b60006020820190508181036000830152614836816147fa565b9050919050565b7f4f6e6c792077696e6e65722063616e2063616c6c20746869732066756e63746960008201527f6f6e000000000000000000000000000000000000000000000000000000000000602082015250565b60006148996022836138a4565b91506148a48261483d565b604082019050919050565b600060208201905081810360008301526148c88161488c565b9050919050565b60006148da8261394b565b91506148e58361394b565b92508282019050808211156148fd576148fc61461c565b5b92915050565b7f4e6f20707269636520706f6f6c20746f207061796f7574000000000000000000600082015250565b60006149396017836138a4565b915061494482614903565b602082019050919050565b600060208201905081810360008301526149688161492c565b9050919050565b7f4e6f7420656e6f7567682066756e647320746f207061796f757420746865207760008201527f696e6e6572000000000000000000000000000000000000000000000000000000602082015250565b60006149cb6025836138a4565b91506149d68261496f565b604082019050919050565b600060208201905081810360008301526149fa816149be565b9050919050565b7f47616d65206d61737465722063616e2774206a6f696e207468656972206f776e60008201527f2067616d65000000000000000000000000000000000000000000000000000000602082015250565b6000614a5d6025836138a4565b9150614a6882614a01565b604082019050919050565b60006020820190508181036000830152614a8c81614a50565b9050919050565b7f496e73756666696369656e7420616d6f756e742c206d7573742062652074686560008201527f2062657420616d6f756e74202b20332074696d6573207468652062657420616d60208201527f6f756e7420617320636f6c6c61746572616c20696e636c7564696e672074686560408201527f2067616d65206665650000000000000000000000000000000000000000000000606082015250565b6000614b3b6069836138a4565b9150614b4682614a93565b608082019050919050565b60006020820190508181036000830152614b6a81614b2e565b9050919050565b7f506c617965722068617320616c7265616479206a6f696e65642074686520676160008201527f6d65000000000000000000000000000000000000000000000000000000000000602082015250565b6000614bcd6022836138a4565b9150614bd882614b71565b604082019050919050565b60006020820190508181036000830152614bfc81614bc0565b9050919050565b7f4e487b7100000000000000000000000000000000000000000000000000000000600052603260045260246000fd5b6000614c3d8261394b565b91507fffffffffffffffffffffffffffffffffffffffffffffffffffffffffffffffff8203614c6f57614c6e61461c565b5b600182019050919050565b7f41206d696e696d756d206f6620313020426c6f636b732068617320746f20706160008201527f7373206265666f726520796f752063616e20726571756573742061207265667560208201527f6e64000000000000000000000000000000000000000000000000000000000000604082015250565b6000614cfc6042836138a4565b9150614d0782614c7a565b606082019050919050565b60006020820190508181036000830152614d2b81614cef565b9050919050565b6000819050919050565b614d4d614d488261394b565b614d32565b82525050565b600081905092915050565b6000614d6982613899565b614d738185614d53565b9350614d838185602086016138b5565b80840191505092915050565b6000614d9b8285614d3c565b602082019150614dab8284614d5e565b91508190509392505050565b7f4e6f7420656e6f7567682066756e647320746f207061796f757420746865206360008201527f6f6c6c61746572616c20616d6f756e7400000000000000000000000000000000602082015250565b6000614e136030836138a4565b9150614e1e82614db7565b604082019050919050565b60006020820190508181036000830152614e4281614e06565b9050919050565b7f506c6179657220646964206e6f742072657665616c207468656972206775657360008201527f7300000000000000000000000000000000000000000000000000000000000000602082015250565b6000614ea56021836138a4565b9150614eb082614e49565b604082019050919050565b60006020820190508181036000830152614ed481614e98565b9050919050565b6000614ee68261394b565b9150614ef18361394b565b9250828203905081811115614f0957614f0861461c565b5b92915050565b60006040820190508181036000830152614f2981856138f0565b9050614f386020830184613955565b9392505050565b7f4e487b7100000000000000000000000000000000000000000000000000000000600052601260045260246000fd5b6000614f798261394b565b9150614f848361394b565b925082614f9457614f93614f3f565b5b828204905092915050565b7f4e6f7420656e6f7567682066756e647320746f207061796f757420746865207760008201527f696e6e6572730000000000000000000000000000000000000000000000000000602082015250565b6000614ffb6026836138a4565b915061500682614f9f565b604082019050919050565b6000602082019050818103600083015261502a81614fee565b9050919050565b6000604082019050818103600083015261504b81856138f0565b905061505a6020830184613c8f565b9392505050565b600061506c82613b7c565b9050919050565b60008160601b9050919050565b600061508b82615073565b9050919050565b600061509d82615080565b9050919050565b6150b56150b082615061565b615092565b82525050565b60006150c78288614d3c565b6020820191506150d78287614d3c565b6020820191506150e782866150a4565b6014820191506150f78285614d3c565b6020820191506151078284614d3c565b6020820191508190509695505050505050565b600081519050919050565b60006151308261511a565b61513a818561478b565b935061514a8185602086016138b5565b80840191505092915050565b60006151628286615125565b915061516e8285614d3c565b60208201915061517e8284614d5e565b9150819050949350505050565b60006151968261394b565b91506151a18361394b565b9250826151b1576151b0614f3f565b5b828206905092915050565b60006060820190506151d16000830186613955565b6151de6020830185613955565b6151eb6040830184613955565b949350505050565b60006040820190506152086000830185613955565b6152156020830184613955565b9392505050565b7f4e487b7100000000000000000000000000000000000000000000000000000000600052605160045260246000fdfe506c617965722072657665616c656420746865697220636f72726563742067756573734e6f20706f74656e7469616c2077696e6e65727320666f756e642c20726566756e64696e672065766572796f6e65207468656972206d6f6e6579506c617965722072657665616c656420746865697220636f72726563742076616c756573506c617965722072657665616c656420616e20696e636f72726563742067756573732c20636f6c6c61746572616c2077696c6c206e6f7420626520726566756e646564416e6f7468657220706f74656e7469616c2077696e6e657220666f756e6420776974682073616d652064697374616e63654e657720706f74656e7469616c2077696e6e657220666f756e6420776974682064697374616e6365a26469706673582212206b4f9f1bb35bf0b74ad71d883369e3a8c3112fd8a245fb4140a16794c88dd54264736f6c63430008180033",
  "linkReferences": {},
  "deployedLinkReferences": {}
}